:100000000C944B010C947C010C947C010C947C01AD
:100010000C947C010C947C010C947C010C947C016C
:100020000C947C010C947C010C947C010C947C015C
:100030000C947C010C947C010C947C010C947C014C
:100040000C947C010C947C010C947C010C947C013C
:100050000C947C010C947C010C947C010C946C0736
:100060000C947C010C9436070C940C070C947C01C6
:100070000C947C010C947C010C947C010C947C010C
:100080000C947C010C947C010C947C010C947C01FC
:100090000C947C010C947C010C947C010C94B607AC
:1000A0000C947C010C947C010C947C010C947C01DC
:1000B0000C947C010C947C010C947C010C947C01CC
:1000C0000C947C010C947C010C947C010C947C01BC
:1000D0000C947C010C947C010C947C010C947C01AC
:1000E0000C947C010C94E4020C94F7020C94CF0461
:1000F0000C9463020C94FB020C94A2040C94E00296
:100100000C94D8020C9413030C9416020C94A506BC
:100110000C94E7020C9405030C940D030C94DC0280
:100120000C94E5050C9409030C9488040C941104B8
:100130000C94F1020C9417030C94ED020C947904C6
:100140000C9412030C94D2020C947F010C949B0427
:100150000C947E010C94FF020C94DA080C94AD010F
:100160000C94D0010C94DE010C9480010C94780462
:100170000C94BC0100002100240027002A002D005F
:100180003000330001010000040107010A010000F2
:100190002200250028002B002E003100340002012F
:1001A0000000050108010B010000200023002600CB
:1001B00029002C002F00320000010000030106017D
:1001C00009010505050507050808080802020202DD
:1001D0000A0A0808040404040101010101010101E3
:1001E0000303030303030303040707070C0C0C0CAE
:1001F0000C0C0C0C02020202060606060606060697
:100200000B0B0B0B0B0B0B0B010210202008081023
:100210002040102040800201020108040201010276
:10022000040810204080804020100804020180044F
:1002300002018040201008040201080402010102AA
:1002400004081020408001020408102040800000B3
:100250000A0B02090C0D0E08070304010000000040
:10026000000000000000000000000000000000008E
:10027000000000000000000000001211100000004B
:10028000000000000000000000000000000000006E
:1002900000000000DA0811241FBECFEFD1E2DEBF5C
:1002A000CDBF00E00CBF12E0A0E0B2E0E8E3F8E16F
:1002B00000E00BBF02C007900D92AA38B107D9F732
:1002C00024E0AAE8B2E001C01D92A431B207E1F730
:1002D00011E0CBE4D1E000E006C021970109802FB6
:1002E000FE010E94120CCA34D10780E00807A9F76A
:1002F0000E9422090C941A0C0C9400000895089591
:10030000AF92BF92CF92DF92EF92FF920F931F9323
:10031000CF93DF936C017B018B01040F151FEB0161
:100320005E01AE18BF08C017D10759F06991D60118
:10033000ED91FC910190F081E02DC6011995892B7A
:1003400079F7C501DF91CF911F910F91FF90EF9049
:10035000DF90CF90BF90AF900895FC01538D448DF6
:10036000252F30E0842F90E0821B930B541710F060
:10037000CF96089501970895FC01918D828D98176D
:1003800061F0A28DAE0FBF2FB11D5D968C91928D45
:100390009F5F9F73928F90E008958FEF9FEF089576
:1003A000FC01918D828D981731F0828DE80FF11D3F
:1003B000858D90E008958FEF9FEF0895FC01918D5A
:1003C000228D892F90E0805C9F4F821B91098F7353
:1003D000992708958FE593E00E94DE0121E0892BA3
:1003E00009F420E0822F0895FC01A48DA80FB92FF5
:1003F000B11DA35ABF4F2C91848D90E001968F734D
:100400009927848FA689B7892C93A089B1898C916B
:10041000837080648C93938D848D981306C00288BA
:10042000F389E02D80818F7D80830895EF92FF9284
:100430000F931F93CF93DF93EC0181E0888F9B8D07
:100440008C8D98131AC0E889F989808185FF15C0C1
:100450009FB7F894EE89FF896083E889F9898081E4
:100460008370806480839FBF81E090E0DF91CF91B3
:100470001F910F91FF90EF900895F62E0B8D10E0D5
:100480000F5F1F4F0F731127E02E8C8D8E110CC044
:100490000FB607FCFACFE889F989808185FFF5CF8F
:1004A000CE010E94F401F1CFEB8DEC0FFD2FF11D79
:1004B000E35AFF4FF0829FB7F8940B8FEA89FB89CC
:1004C00080818062CFCFCF93DF93EC01888D88232A
:1004D000B9F0AA89BB89E889F9898C9185FD03C0A7
:1004E000808186FD0DC00FB607FCF7CF8C9185FF8C
:1004F000F2CF808185FFEDCFCE010E94F401E9CFDC
:10050000DF91CF91089580E090E0892B29F00E943F
:10051000EA0181110E94000080E090E0892B49F0FF
:1005200080E090E0892B29F00E94000081110E9458
:10053000000080E090E0892B49F080E090E0892B7A
:1005400029F00E94000081110E94000080E090E0EC
:10055000892B49F080E090E0892B29F00E9400006F
:1005600081110C94000008958150823108F05AC026
:10057000E82FF0E08827E054FD4F8F4F0C94120CC9
:10058000E002E402D202D802DC021203E702ED022A
:10059000F102F702FB02FF020503090312030D0338
:1005A00013031703809180008F7780938000089554
:1005B000809180008F7DF9CF80918000877FF5CF7B
:1005C00084B58F7784BD089584B58F7DFBCF8091EE
:1005D000B0008F778093B00008958091B0008F7D38
:1005E000F9CF809190008F7780939000089580914B
:1005F00090008F7DF9CF80919000877FF5CF80911B
:10060000A0008F778093A00008958091A0008F7D37
:10061000F9CF8091A000877FF5CF809120018F775F
:10062000809320010895809120018F7DF9CF8091E2
:100630002001877FF5CFCF93DF93282F30E0F9019A
:10064000E25BFD4F8491F901E85FFD4FD491F90120
:10065000EE53FE4FC491CC23A1F081110E94B4024D
:10066000EC2FF0E0EE0FFF1FE855FE4FA591B4917F
:10067000EC91ED2381E090E009F480E0DF91CF91EF
:10068000089580E090E0FACF1F93CF93DF93282F57
:1006900030E0F901E25BFD4F8491F901E85FFD4F25
:1006A000D491F901EE53FE4FC491CC23A9F0162F3B
:1006B00081110E94B402EC2FF0E0EE0FFF1FE25711
:1006C000FE4FA591B4918FB7F894EC91111108C029
:1006D000D095DE23DC938FBFDF91CF911F910895DA
:1006E000DE2BF8CFCF93DF9390E0FC01E85FFD4F66
:1006F00024918E539E4FFC0184918823D1F090E089
:10070000880F991FFC01EC58FE4FA591B491FC0194
:10071000E257FE4FC591D49161110EC09FB7F89476
:100720008C91E22FE0958E238C932881E223E8833D
:100730009FBFDF91CF9108958FB7F894EC91E22B92
:10074000EC938FBFF6CF90917B00977F90937B00C7
:100750008653806480937C0080917A0080648093CB
:100760007A0080917A0086FDFCCF8091780090918C
:10077000790008953FB7F89480913D0390913E032E
:10078000A0913F03B091400326B5A89B05C02F3F21
:1007900019F00196A11DB11D3FBFBA2FA92F982FA7
:1007A0008827BC01CD01620F711D811D911D42E0A2
:1007B000660F771F881F991F4A95D1F708958F926A
:1007C0009F92AF92BF92CF92DF92EF92FF924B0136
:1007D0005C010E94BA036B017C010E94BA036C1990
:1007E0007D098E099F09683E734081059105A8F334
:1007F00021E0821A9108A108B10888EEC80E83E0B2
:10080000D81EE11CF11C81149104A104B10429F744
:10081000FF90EF90DF90CF90BF90AF909F908F9020
:10082000089508952091CB02260F3327331F2132DC
:100830003105ECF420911403FC0190E080E02430B9
:1008400069F082E00895A091CB022191AC01455559
:100850005D4FA40FB52FB11D2C930196861798F309
:100860008091CB02680F6093CB0280E0089581E015
:1008700008951092140381E0809313031092EE0206
:1008800061E084E10E94440361E085E10E94440349
:10089000E9EBF0E080818E7F808380818D7F808393
:1008A00088E48093B80085E48093BC000895CF93DA
:1008B000DF9391E09093AA028823B9F0C091B80029
:1008C000D091BA008091BC008A7B8093BC0060E02C
:1008D00084E10E94440360E085E10E9444030E9499
:1008E0003904D093BA00C093B800DF91CF91089536
:1008F0000895E091480380914703E81730F4F0E051
:10090000E657FD4F808190E008958FEF9FEF0895A7
:1009100090914803809147032FEF3FEF981748F4D9
:10092000E92FF0E0E657FD4F208130E09F5F909384
:100930004803C90108958091470390914803891B9A
:10094000990B0895CF92DF92EF92FF920F931F932E
:10095000CF93DF937C01CB018A0120911A032223DC
:1009600089F0EB016B01C40ED51ECC15DD0569F0D5
:100970006991D701ED91FC910190F081E02DC701C3
:100980001995F3CF642F0E941204C801DF91CF9113
:100990001F910F91FF90EF90DF90CF900895CF932C
:1009A000DF931F92CDB7DEB7698320911A0322230C
:1009B000F9F020914503203258F021E030E0FC01AD
:1009C0003383228390E080E00F90DF91CF910895F0
:1009D00080914603E82FF0E0E55EFC4F998190831B
:1009E0008F5F809346038093450381E090E0ECCFD6
:1009F00061E0CE0101960E941204F7CFCF92DF9200
:100A0000EF92FF920F931F93CF93DF93FC01C4816A
:100A100021E020931A03C0933B03109246031092E7
:100A200045038385682B8CEF93E00E94CF04D0911F
:100A30004503D13208F092C00E94BA036B017C01D9
:100A400080911403811165C082E08093140381E0DA
:100A5000809313038FEF8093120310921103D093AE
:100A60001003ABE1B3E0E0EFF2E080E0D81385C023
:100A70001092EF028091EF02CC0FC82BC093EF02CF
:100A80008091EE02813009F07CC01092EE020E944B
:100A9000BA036B017C018091EF028093BB008091CF
:100AA000160390911703A0911803B0911903892B95
:100AB0008A2B8B2B99F00E94BA0300911603109198
:100AC000170320911803309119036C197D098E09C1
:100AD0009F090617170728073907E0F18091BC0026
:100AE00083FDD9CF85EC8093BC000E94BA036B01D3
:100AF0007C0180911403823009F445C08091120377
:100B00008F3F61F180911203803241F18091120395
:100B100025C08091160390911703A0911803B091FE
:100B20001903892B8A2B8B2B09F48ACF0E94BA03D5
:100B300000911603109117032091180330911903A7
:100B40006C197D098E099F090617170728073907B1
:100B500008F076CF809115030E9457041092460347
:100B60001092450310921A03DF91CF911F910F91BC
:100B7000FF90EF90DF90CF9008959D9191938F5FBC
:100B800075CF85EEB0CF8091160390911703A09199
:100B90001803B0911903892B8A2B8B2B09F4A9CF49
:100BA0000E94BA03009116031091170320911803B5
:100BB000309119036C197D098E099F0906171707D3
:100BC0002807390708F095CFC5CF90E080E0089559
:100BD0008F929F92AF92BF920F931F93CF93DF9309
:100BE000CDB7DEB7A1970FB6F894DEBF0FBECDBF6D
:100BF00019A2423008F44AE08E010F5D1F4F842E87
:100C0000912CB12CA12CA50194010E94F00BE62F90
:100C1000B901CA01EA3044F5E05DD801EE938D01D7
:100C2000232B242B252B79F790E080E0109769F097
:100C3000FD0101900020E9F73197AF014A1B5B0BE2
:100C4000BD0188E094E00E948001A1960FB6F8945F
:100C5000DEBF0FBECDBFDF91CF911F910F91BF902F
:100C6000AF909F908F900895E95CD7CFFC010190E1
:100C70000020E9F73197AF01481B590BBC0188E010
:100C800094E00C9480010F931F93CF938C01C62F97
:100C90000E94FE046C2F6460C8010E94FE046C2F49
:100CA0006B7FC8010E94FE0483EC90E00197F1F78E
:100CB000CF911F910F9108950F931F93CF93DF93BF
:100CC0008C01D62FC42F607F642B0E94430680E1E5
:100CD000D89FB00111246C2BC801DF91CF911F91D7
:100CE0000F910C944306CF93DF9300D000D01F9256
:100CF0001F92CDB7DEB798E0E0E0F2E0DE0111969A
:100D000001900D929A95E1F790911004961710F4C6
:100D10006FEF690F262F30E0220F331F41E050E0C4
:100D20004C0F5D1F240F351FF9016081680F60684B
:100D300040E088E094E028960FB6F894DEBF0FBE3E
:100D4000CDBFDF91CF910C945C0641E00E945C0620
:100D500081E090E00895CF92DF92EF92FF926C01D4
:100D6000990FEE08FF08F7FE16C041E06DE288E03B
:100D700094E00E945C0666277727CB016C197D09F9
:100D80008E099F094AE00E94E8050196FF90EF90C6
:100D9000DF90CF9008954AE0C701B601FF90EF9031
:100DA000DF90CF900C94E80585ED8093BC00809196
:100DB000160390911703A0911803B0911903079699
:100DC000A11DB11D23E0B695A795979587952A9506
:100DD000D1F72091BC0024FD03C0109214030895A4
:100DE00040911603509117036091180370911903F5
:100DF000452B462B472B69F30097A105B10541F020
:100E00002AE22A95F1F700C00197A109B109E1CFC3
:100E1000809115030C9457041F920F920FB60F92F6
:100E200011240BB60F922F933F934F935F936F93C1
:100E30007F938F939F93AF93BF93EF93FF938FE530
:100E400093E00E94F401FF91EF91BF91AF919F91C8
:100E50008F917F916F915F914F913F912F910F9063
:100E60000BBE0F900FBE0F901F9018951F920F9200
:100E70000FB60F9211240BB60F922F938F939F935F
:100E8000EF93FF93E0916F03F09170038081E09105
:100E90007503F091760382FD1DC0908180917803E7
:100EA0008F5F8F7320917903821741F0E09178036F
:100EB000F0E0E15AFC4F958F80937803FF91EF911A
:100EC0009F918F912F910F900BBE0F900FBE0F909F
:100ED0001F9018958081F2CF1F920F920FB60F923C
:100EE00011242F933F938F939F93AF93BF93809140
:100EF000490390914A03A0914B03B0914C03309168
:100F00003C0323E0230F2D3758F50196A11DB11D99
:100F100020933C038093490390934A03A0934B038F
:100F2000B0934C0380913D0390913E03A0913F0309
:100F3000B09140030196A11DB11D80933D03909394
:100F40003E03A0933F03B0934003BF91AF919F91A5
:100F50008F913F912F910F900FBE0F901F9018957A
:100F600026E8230F0296A11DB11DD2CF1F920F922A
:100F70000FB60F9211240BB60F922F933F934F93FE
:100F80005F936F937F938F939F93AF93BF93EF93F1
:100F9000FF938091B900887F803609F44DC008F036
:100FA00040C0883209F4A9C028F5803109F49DC0F9
:100FB000C8F4882309F4FBC0883009F496C0FF9177
:100FC000EF91BF91AF919F918F917F916F915F91C1
:100FD0004F913F912F910F900BBE0F900FBE0F902E
:100FE0001F901895883109F488C0803241F78093AA
:100FF000120314C0803409F49DC040F48033B9F367
:101000008833E9F68093120385ECB0C0803509F48B
:1010100085C0883509F496C0883489F60E94D406C4
:10102000CECF883909F48CC038F5883729F050F4D0
:10103000883611F0803719F683E0809314031092FC
:10104000ED0257C0883809F47BC0803919F0803828
:1010500009F0B5CF8091ED02803208F071C0E091C7
:10106000ED0281E08E0F8093ED028091BB00F0E0F5
:10107000E353FD4F80833DC0803B39F0E0F4803A7C
:1010800009F479C0883A09F09ACF84E08093140378
:101090001092CC021092CB02E0914303F0914403F2
:1010A00019958091CB0281110FC081E08093CB0212
:1010B0001092AB0209C0803C09F4A6CF883C09F429
:1010C000A3CF883B09F07BCFE091CC0281E08E0F6B
:1010D0008093CC02F0E0E555FD4F80818093BB000A
:1010E0009091CC028091CB0229C08091EF02809335
:1010F000BB0085EC8093BC0062CF9091110380917E
:101100001003981758F5E091110381E08E0F80933A
:101110001103F0E0E051FD4F8081E9CFE091110330
:1011200081E08E0F809311038091BB00F0E0E051CD
:10113000FD4F808390911103809110039817C8F29E
:1011400085E8D8CFE091110381E08E0F80931103E1
:101150008091BB00F0E0E051FD4F8083809113034C
:1011600081115CCF81E08093EE0284EA8093BC0021
:101170001092140324CF85EC8093BC0010921403CA
:101180008091ED02803230F4E091ED02F0E0E35323
:10119000FD4F10826091ED0270E0E0914103F0910B
:1011A00042038DEC92E019951092ED0208CF109257
:1011B000120334CFEFE5F3E01382128288EE93E05E
:1011C000A0E0B0E084839583A683B7832CE032E06F
:1011D0003183208325EC30E03587248724EC30E010
:1011E0003787268720EC30E0318B208B21EC30E0F4
:1011F000338B228B22EC30E0358B248B26EC30E0D5
:10120000378B268B118E128E138E148EECEFF3E03B
:101210001382128284839583A683B7838EE192E042
:1012200091838083E8E0F4E01382128280E392E00D
:101230009183808387E2848384E1818784E082874D
:1012400013860895789484B5826084BD84B58160E6
:1012500084BD85B5826085BD85B5816085BD809181
:101260006E00816080936E001092810080918100F9
:1012700082608093810080918100816080938100F1
:10128000809180008160809380008091B1008460B3
:101290008093B1008091B00081608093B000809114
:1012A0009100826080939100809191008160809391
:1012B0009100809190008160809390008091A100C6
:1012C00082608093A1008091A10081608093A10041
:1012D0008091A00081608093A000809121018260B4
:1012E000809321018091210181608093210180916F
:1012F000200181608093200180917A008460809336
:101300007A0080917A00826080937A0080917A00DE
:10131000816080937A0080917A00806880937A005F
:101320001092C10060E085E20E94720360E084E2F6
:101330000E94720360E083E20E94720360E082E236
:101340000E94720360E081E20E94720360E080E22A
:101350000E94720360E08FE10E94720360E08EE100
:101360000E94720361E086E10E94720361E087E1FE
:101370000E94720361E088E10E94720361E089E1EA
:101380000E94720361E08AE10E94720361E08BE1D6
:101390000E94720360E086E10E94440360E087E1FE
:1013A0000E94440360E088E10E94440360E089E118
:1013B0000E94440360E08AE10E94440360E08BE104
:1013C0000E944403E0916F03F091700382E08083F8
:1013D000E0916B03F0916C031082E0916D03F0914A
:1013E0006E038FEC808310927703E0917303F0918A
:1013F000740386E08083E0917103F0917203808131
:1014000080618083E0917103F09172038081886034
:101410008083E0917103F091720380818068808302
:10142000E0917103F091720380818F7D808310922F
:1014300048031092470310924603109245030E94FE
:1014400039048EE791E090934403809343038FE740
:1014500091E0909342038093410310920D04809198
:101460001204823018F098E090930D0480931004D9
:1014700062E370E080E090E00E94DF03609113047B
:1014800088E094E00E94FE0468EE73E080E090E063
:101490000E94DF0360E388E094E00E944306CBE40F
:1014A000D6E4CE010197F1F760E388E094E00E9472
:1014B00043062197F1F760E388E094E00E94430639
:1014C00083E592E00197F1F760E288E094E00E9402
:1014D000430660910D04606240E088E094E00E9461
:1014E0005C0684E080930E0440E06CE088E094E0C9
:1014F0000E945C0640E061E088E094E00E945C06A7
:10150000CBE3DFE1CE010197F1F782E080930F0496
:1015100040E066E088E094E00E945C0640E062E023
:1015200088E094E00E945C062197F1F788E08093C0
:10153000130460E088E094E00E94FE0486E30E94C9
:10154000A30390935A038093590387E30E94A30354
:10155000909358038093570388E30E94A3039093CA
:1015600056038093550388E30E94A30385E20E94FB
:101570001B036C0181E0C114D10409F480E0809365
:10158000540384E20E941B037C0181E0E114F10416
:1015900009F480E08093530383E20E941B03C1E0BF
:1015A000892B09F4C0E0C093520382E20E941B031E
:1015B000D1E0892B09F4D0E0D093510381E20E945D
:1015C0001B0311E0892B09F410E01093500380E213
:1015D0000E941B0321E0892B09F420E020934F0394
:1015E0008FE10E941B0321E0892B09F420E0209366
:1015F0004E038EE10E941B0321E0892B09F420E0B9
:1016000020934D03CD2809F4D4C060E086E10E9408
:10161000440360E087E10E94440360E088E10E94A7
:101620004403EF2809F4CFC060E089E10E9444033D
:1016300060E08AE10E94440360E08BE10E94440381
:101640002FB7F8948091490390914A03A0914B03DE
:10165000B0914C032FBF40915B0350915C036091AC
:101660005D0370915E03841B950BA60BB70B893E3F
:101670009340A105B10508F499C02FB7F894809163
:10168000490390914A03A0914B03B0914C032FBFA3
:1016900080935B0390935C03A0935D03B0935E0320
:1016A00060E080E00E94730688E392E00E943606C4
:1016B00061E080E00E9473068DE492E00E943606AD
:1016C00062E080E00E94730681E692E00E943606A6
:1016D00063E080E00E94730686E792E00E9436068F
:1016E00060E085E00E9473068091590390915A034F
:1016F0000E94AB0661E085E00E947306809157036B
:10170000909158030E94AB0662E085E00E94730648
:1017100080915503909156030E94AB0663E083E0ED
:101720000E9473068091540390E00E94AB0663E030
:1017300088E00E9473068091530390E00E94AB06FC
:1017400061E08FE00E9473068091520390E00E9456
:10175000AB0661E081E10E9473068091510390E045
:101760000E94AB0661E083E10E9473068091500302
:1017700090E00E94AB0663E08FE00E9473068091C8
:101780004F0390E00E94AB0663E081E10E94730684
:1017900080914E0390E00E94AB0663E083E10E94DB
:1017A000730680914D0390E00E94AB060E94830275
:1017B000C5CE612F86E10E9444036D2F87E10E9410
:1017C00044036C2F2BCF60914D0389E10E944403A9
:1017D00060914E038AE10E94440360914F032DCF34
:1017E000A1E21A2EAA1BBB1BFD010DC0AA1FBB1F25
:1017F000EE1FFF1FA217B307E407F50720F0A21B97
:10180000B30BE40BF50B661F771F881F991F1A9403
:1018100069F760957095809590959B01AC01BD012D
:10182000CF010895EE0FFF1F881F8BBF0790F69121
:08183000E02D1994F894FFCF9C
:10183800000040001400540000000000160280015F
:10184800AD016302DE01BC01D00100000000CF043D
:10185800A204E50578049B048804790400000000CC
:10186800A5068001E50511044C44523120202020B2
:10187800202020434E59203120322033004C44523E
:10188800322020202020202020202020202020203E
:1018980000434F322020202020202020434E592072
:1018A800342035203600503120202050322020208E
:0A18B8002020202020202020200006
:00000001FF
