:100000000C949E010C94CF010C94CF010C94CF0161
:100010000C94CF010C94CF010C94CF010C94CF0120
:100020000C94CF010C94CF010C94CF010C94CF0110
:100030000C94CF010C94CF010C94CF010C94CF0100
:100040000C94CF010C94CF010C94CF010C94CF01F0
:100050000C94CF010C94CF010C94CF010C94BE08EA
:100060000C94CF010C9432090C9408090C94CF0124
:100070000C94CF010C94CF010C94CF010C94CF01C0
:100080000C94CF010C94CF010C94CF010C94CF01B0
:100090000C94CF010C94CF010C94CF010C946809FF
:1000A0000C94CF010C94CF010C94CF010C94CF0190
:1000B0000C94CF010C94CF010C94CF010C94CF0180
:1000C0000C94CF010C94CF010C94CF010C94CF0170
:1000D0000C94CF010C94CF010C94CF010C94CF0160
:1000E0000C94CF0107634236B79BD8A71A396856DC
:1000F00018AEBAAB558C1D3CB7CC5763BD6DEDFD4A
:10010000753EF6177231BF000000803F0800000006
:10011000BE922449123EABAAAA2ABECDCCCC4C3EFC
:1001200000000080BEABAAAAAA3E00000000BF00EB
:100130000000803F0000000000084178D3BB4387E7
:10014000D1133D190E3CC3BD4282AD2B3E68EC82FB
:1001500076BED98FE1A93E4C80EFFFBE01C4FF7F80
:100160003F00000000000C942D050C94D7040C9463
:100170008C0A0C9434020C9444060C940A020C94DD
:1001800068110C9410110C948B0D0C943B030C947F
:1001900018020C942F020C9422020C9430020C943E
:1001A00004020C9400050C94D2030C94EF010C94FF
:1001B00037110C9496100C9443060C94C4100C94B4
:1001C000F5010C94A9060C941F040C940E020C94D7
:1001D00078030C943C030C9426020C945F100C944E
:1001E0003A030C94D6040C9401020C94110D0C9457
:1001F0009A030C94FD010C94F9040C9469030C947B
:100200008C030C94F9010C944C0D0C94E6040C94A2
:100210002A020C9414020C941C02000021002400F9
:1002200027002A002D0030003300010100000401E6
:1002300007010A0100002200250028002B002E00E3
:100240003100340002010000050108010B0100002B
:1002500020002300260029002C002F00320000017E
:100260000000030106010901050505050705080849
:100270000808020202020A0A080804040404010130
:100280000101010101010303030303030303040745
:1002900007070C0C0C0C0C0C0C0C020202020606DC
:1002A0000606060606060B0B0B0B0B0B0B0B0102CF
:1002B0001020200808102040102040800201020178
:1002C0000804020101020408102040808040201030
:1002D0000804020180040201804020100804020189
:1002E00008040201010204081020408001020408F1
:1002F0001020408000000A0B02090C0D0E080703B5
:1003000004010000000000000000000000000000E8
:1003100000000000000000000000000000000000DD
:10032000121110000000000000000000000000009A
:10033000000000000000000000008C0A11241FBE15
:10034000CFEFD1E2DEBFCDBF00E00CBF24E0AAEFCB
:10035000B2E001C01D92A23BB207E1F712E0A0E0BB
:10036000B2E0ECE5F1E300E00BBF02C007900D92B4
:10037000AA3FB107D9F711E0CEE9D1E000E006C00D
:1003800021970109802FFE010E947B16CD39D107EC
:1003900080E00807A9F70E94D40A0C94AC180C94CA
:1003A00000008150823108F05AC0E82FF0E0882721
:1003B000E352FE4F8F4F0C947B16FD010102EF01BB
:1003C000F501F9012F0204020A020E0214021802BA
:1003D0001C02220226022F022A02300234028091DD
:1003E00080008F77809380000895809180008F7DBA
:1003F000F9CF80918000877FF5CF84B58F7784BD5A
:10040000089584B58F7DFBCF8091B0008F77809366
:10041000B00008958091B0008F7DF9CF8091900059
:100420008F77809390000895809190008F7DF9CF11
:1004300080919000877FF5CF8091A0008F77809387
:10044000A00008958091A0008F7DF9CF8091A00039
:10045000877FF5CF809120018F77809320010895C9
:10046000809120018F7DF9CF80912001877FF5CF8A
:10047000CF93DF93282F30E0F901EC50FD4F8491AA
:10048000F901E255FD4FD491F901E859FD4FC491AE
:10049000CC23A1F081110E94D101EC2FF0E0EE0FEE
:1004A000FF1FE25BFD4FA591B491EC91ED2381E03C
:1004B00090E009F480E0DF91CF91089580E090E032
:1004C000FACF1F93CF93DF93282F30E0F901EC5040
:1004D000FD4F8491F901E255FD4FD491F901E8599E
:1004E000FD4FC491CC23A9F0162F81110E94D10198
:1004F000EC2FF0E0EE0FFF1FEC5CFD4FA591B491E7
:100500008FB7F894EC91111108C0D095DE23DC93DD
:100510008FBFDF91CF911F910895DE2BF8CFCF933E
:10052000DF9390E0FC01E255FD4F249188599D4FE7
:10053000FC0184918823D1F090E0880F991FFC0181
:10054000E65EFD4FA591B491FC01EC5CFD4FC591B9
:10055000D49161110EC09FB7F8948C91E22FE09571
:100560008E238C932881E223E8839FBFDF91CF9174
:1005700008958FB7F894EC91E22BEC938FBFF6CFF0
:1005800090917B00977F90937B008653806480934B
:100590007C0080917A00806480937A0080917A0058
:1005A00086FDFCCF809178009091790008953FB747
:1005B000F8948091EF039091F003A091F103B09132
:1005C000F20326B5A89B05C02F3F19F00196A11D87
:1005D000B11D3FBFBA2FA92F982F8827BC01CD018D
:1005E000620F711D811D911D42E0660F771F881FEC
:1005F000991F4A95D1F708958F929F92AF92BF921B
:10060000CF92DF92EF92FF924B015C010E94D702E2
:100610006B017C010E94D7026C197D098E099F092C
:10062000683E734081059105A8F321E0821A910884
:10063000A108B10888EEC80E83E0D81EE11CF11CA9
:1006400081149104A104B10429F7FF90EF90DF9089
:10065000CF90BF90AF909F908F9008952FB7F89450
:100660006091EB037091EC038091ED039091EE03A8
:100670002FBF089508950895AF92BF92CF92DF9251
:10068000EF92FF920F931F93CF93DF936C017B0147
:100690008B01040F151FEB015E01AE18BF08C017D8
:1006A000D10759F06991D601ED91FC910190F0814B
:1006B000E02DC6011995892B79F7C501DF91CF91FE
:1006C0001F910F91FF90EF90DF90CF90BF90AF9070
:1006D0000895FC01538D448D252F30E0842F90E048
:1006E000821B930B541710F0CF960895019708952D
:1006F000FC01918D828D981761F0A28DAE0FBF2FF6
:10070000B11D5D968C91928D9F5F9F73928F90E04B
:1007100008958FEF9FEF0895FC01918D828D9817BA
:1007200031F0828DE80FF11D858D90E008958FEFF7
:100730009FEF0895FC01918D228D892F90E0805CC0
:100740009F4F821B91098F739927089589EF93E03A
:100750000E949A0321E0892B09F420E0822F08955A
:10076000FC01A48DA80FB92FB11DA35ABF4F2C9126
:10077000848D90E001968F739927848FA689B7891D
:100780002C93A089B1898C91837080648C93938D14
:10079000848D981306C00288F389E02D80818F7DB7
:1007A00080830895EF92FF920F931F93CF93DF936F
:1007B000EC0181E0888F9B8D8C8D98131AC0E8899D
:1007C000F989808185FF15C09FB7F894EE89FF896C
:1007D0006083E889F98980818370806480839FBF0A
:1007E00081E090E0DF91CF911F910F91FF90EF900A
:1007F0000895F62E0B8D10E00F5F1F4F0F7311271A
:10080000E02E8C8D8E110CC00FB607FCFACFE88954
:10081000F989808185FFF5CFCE010E94B003F1CF29
:10082000EB8DEC0FFD2FF11DE35AFF4FF0829FB7C8
:10083000F8940B8FEA89FB8980818062CFCFCF93B8
:10084000DF93EC01888D8823B9F0AA89BB89E889F8
:10085000F9898C9185FD03C0808186FD0DC00FB69E
:1008600007FCF7CF8C9185FFF2CF808185FFEDCF1C
:10087000CE010E94B003E9CFDF91CF91089580E0CF
:1008800090E0892B29F00E94A60381110E940000AC
:1008900080E090E0892B49F080E090E0892B29F0FE
:1008A0000E94000081110E94000080E090E0892BEE
:1008B00049F080E090E0892B29F00E94000081112E
:1008C0000E94000080E090E0892B49F080E090E0F9
:1008D000892B29F00E94000081110C9400000895DA
:1008E00020916203260F3327331F21323105ECF4A8
:1008F00020918603FC0190E080E0243069F082E0E2
:100900000895A09162032191AC014E5B5C4FA40F4E
:10091000B52FB11D2C930196861798F38091620331
:10092000680F6093620380E0089581E0089510925B
:10093000860381E0809388031092870361E084E15D
:100940000E94610261E085E10E946102E9EBF0E052
:1009500080818E7F808380818D7F808388E48093F7
:10096000B80085E48093BC000895CF93DF9391E0B5
:10097000909341038823B9F0C091B800D091BA0098
:100980008091BC008A7B8093BC0060E084E10E947F
:10099000610260E085E10E9461020E949704D093A9
:1009A000BA00C093B800DF91CF9108950895E09107
:1009B000B3038091B203E81730F4F0E0E45EFC4F3B
:1009C000808190E008958FEF9FEF08959091B30399
:1009D0008091B2032FEF3FEF981748F4E92FF0E032
:1009E000E45EFC4F208130E09F5F9093B303C90128
:1009F00008958091B2039091B303891B990B0895D8
:100A0000CF92DF92EF92FF920F931F93CF93DF93DA
:100A10007C01CB018A0120911B03222389F0EB0189
:100A20006B01C40ED51ECC15DD0569F06991D701A7
:100A3000ED91FC910190F081E02DC7011995F3CF64
:100A4000642F0E947004C801DF91CF911F910F9114
:100A5000FF90EF90DF90CF900895CF93DF931F9298
:100A6000CDB7DEB7698320911B032223F9F02091D3
:100A7000B003203258F021E030E0FC0133832283C0
:100A800090E080E00F90DF91CF9108958091B103C5
:100A9000E82FF0E0E550FD4F998190838F5F8093C0
:100AA000B1038093B00381E090E0ECCF61E0CE0130
:100AB00001960E947004F7CFCF92DF92EF92FF92DF
:100AC0000F931F93CF93DF93FC01C48121E0209308
:100AD0001B03C093FA021092B1031092B0038385F6
:100AE000682B86E994E00E942D05D091B003D132A5
:100AF00008F092C00E94D7026B017C0180918603AE
:100B0000811165C082E08093860381E08093880331
:100B10008FEF809385031092AA03D093A903ABEFC4
:100B2000B2E0E9E8F3E080E0D81385C01092AB03AF
:100B30008091AB03CC0FC82BC093AB03809187038C
:100B4000813009F07CC0109287030E94D7026B01AC
:100B50007C018091AB038093BB0080913D03909119
:100B60003E03A0913F03B0914003892B8A2B8B2B2E
:100B700099F00E94D70200913D0310913E0320910D
:100B80003F03309140036C197D098E099F090617B8
:100B9000170728073907E0F18091BC0083FDD9CF02
:100BA00085EC8093BC000E94D7026B017C01809190
:100BB0008603823009F445C0809185038F3F61F13F
:100BC00080918503803241F18091850325C0809119
:100BD0003D0390913E03A0913F03B0914003892BC8
:100BE0008A2B8B2B09F48ACF0E94D70200913D03F8
:100BF00010913E0320913F03309140036C197D0911
:100C00008E099F09061717072807390708F076CFBE
:100C100080913C030E94B5041092B1031092B0037E
:100C200010921B03DF91CF911F910F91FF90EF90D6
:100C3000DF90CF9008959D9191938F5F75CF85EE52
:100C4000B0CF80913D0390913E03A0913F03B091BE
:100C50004003892B8A2B8B2B09F4A9CF0E94D70242
:100C600000913D0310913E0320913F0330914003DA
:100C70006C197D098E099F09061717072807390780
:100C800008F095CFC5CF089590E080E008950F93C8
:100C90001F93CF938C01C62F0E945C056C2F64605C
:100CA000C8010E945C056C2F6B7FC8010E945C0527
:100CB00083EC90E00197F1F7CF911F910F91089588
:100CC0000F931F93CF93DF938C01D62FC42F607F98
:100CD000642B0E94470680E1D89FB00111246C2B41
:100CE000C801DF91CF911F910F910C944706CF93CC
:100CF000DF9300D000D01F921F92CDB7DEB798E0EF
:100D0000E8E1F2E0DE01119601900D929A95E1F78B
:100D10009091AA04961710F46FEF690F262F30E018
:100D2000220F331F41E050E04C0F5D1F240F351F91
:100D3000F9016081680F606840E082EA94E02896DB
:100D40000FB6F894DEBF0FBECDBFDF91CF910C94EC
:100D5000600641E00E94600681E090E00895FB019A
:100D600001900020E9F73197AF01461B570BDC01DA
:100D7000ED91FC910280F381E02D19944F925F92E6
:100D80006F927F92AF92BF92CF92DF92EF92FF92DB
:100D90000F931F93CF93DF93CDB7DEB7A1970FB615
:100DA000F894DEBF0FBECDBF5C016A017B01F7FE88
:100DB00047C0DC01ED91FC910190F081E02D6DE2E6
:100DC00019958C0122273327A9012C193D094E09B9
:100DD0005F0919A2FE01B1967F019AE0492E512CBC
:100DE000612C712CCA01B901A30192010E9459160C
:100DF000605DD7016E937D012115310541055105D7
:100E000089F790E080E0109721F0BD01C5010E94B4
:100E1000AF06800F911FA1960FB6F894DEBF0FBEEC
:100E2000CDBFDF91CF911F910F91FF90EF90DF9099
:100E3000CF90BF90AF907F906F905F904F9008954C
:100E4000AB01960119A28E010F5D1F4F8AE0C82EDB
:100E5000D12CE12CF12CCA01B901A70196010E9405
:100E60005916605DF80162938F0121153105410526
:100E7000510589F790E080E0309769F2BF01C50124
:100E80000E94AF06C8CFCF93DF93FC014481558108
:100E90006081718189EF93E00E943C03EC0160E581
:100EA00072E089EF93E00E94AF068C0F9D1FDF91E7
:100EB000CF910895CF93DF93EC01888199810097BA
:100EC00011F00E941F17198218821D821C821B823A
:100ED0001A82DF91CF910895FC0180819181009762
:100EE00011F00C941F170895EF92FF920F931F9328
:100EF000CF93DF938617970769F1FC012481358131
:100F0000FB014481558124173507E1F4232B11F1AE
:100F1000FC0100811181FB01C081D181F801819127
:100F20008F018823B9F0082E000C990B0E948918B4
:100F30007C018991082E000C990B0E948918E816F3
:100F4000F90661F380E0DF91CF911F910F91FF903F
:100F5000EF90089581E0F7CF0F931F93CF93DF9326
:100F6000EC0188819981009759F02A813B812617ED
:100F7000370730F081E0DF91CF911F910F910895F5
:100F80008B016F5F7F4F0E94A817009759F09983DC
:100F900088831B830A832C813D81232B59F7FC0115
:100FA0001082E8CF80E0E7CFEF92FF920F931F937C
:100FB000CF93DF936115710541F480E0DF91CF910C
:100FC0001F910F91FF90EF90089541155105B1F0D9
:100FD0007B01EC010C811D81040F151FB8010E94DB
:100FE000AC07882351F3288139818C819D81B70119
:100FF000820F931F0E94A5181D830C8381E0DECF12
:10100000EF92FF920F931F93CF93DF93EC017B013D
:101010008A01BA010E94AC0781110BC0CE010E9467
:101020005A07CE01DF91CF911F910F91FF90EF9062
:1010300008951D830C83B701888199810E94A518AA
:10104000F0CFFB0101900020E9F73197AF01461B7B
:10105000570B0C940008FC0111821082138212823B
:1010600015821482FB0101900020E9F73197AF014E
:10107000461B570B0C940008CF92DF92EF92FF9221
:101080000F931F93CF93DF936C017B018A01461767
:10109000570720F48F2D7A01062F182F62E572E092
:1010A000C6010E942B08C091F703D091F803EC16FB
:1010B000FD06F8F40C171D0708F4E801E091F303AE
:1010C000F091F403EC0FFD1F108110826091F30387
:1010D0007091F4036E0D7F1DC6016115710599F0C5
:1010E0000E9421088091F3039091F403C80FD91F47
:1010F0001883C601DF91CF911F910F91FF90EF9060
:10110000DF90CF9008950E945A07ECCF85ED809331
:10111000BC0080913D0390913E03A0913F03B091AC
:1011200040030796A11DB11D23E0B695A79597959D
:1011300087952A95D1F72091BC0024FD03C0109219
:101140008603089540913D0350913E0360913F0313
:1011500070914003452B462B472B69F30097A1055F
:10116000B10541F02AE22A95F1F700C00197A109E3
:10117000B109E1CF80913C030C94B5041F920F920A
:101180000FB60F9211242F933F938F939F93AF939A
:10119000BF938091EB039091EC03A091ED03B0918C
:1011A000EE033091EA0323E0230F2D3758F5019623
:1011B000A11DB11D2093EA038093EB039093EC03F0
:1011C000A093ED03B093EE038091EF039091F003B1
:1011D000A091F103B091F2030196A11DB11D80937E
:1011E000EF039093F003A093F103B093F203BF9148
:1011F000AF919F918F913F912F910F900FBE0F90C4
:101200001F90189526E8230F0296A11DB11DD2CF7D
:101210001F920F920FB60F9211240BB60F922F93BD
:101220003F934F935F936F937F938F939F93AF936E
:10123000BF93EF93FF9389EF93E00E94B003FF9178
:10124000EF91BF91AF919F918F917F916F915F913E
:101250004F913F912F910F900BBE0F900FBE0F90AB
:101260001F9018951F920F920FB60F9211240BB674
:101270000F922F938F939F93EF93FF93E091090425
:10128000F0910A048081E0910F04F091100482FD36
:101290001DC09081809112048F5F8F732091130481
:1012A000821741F0E0911204F0E0E750FC4F958F77
:1012B00080931204FF91EF919F918F912F910F9046
:1012C0000BBE0F900FBE0F901F9018958081F2CF2C
:1012D0001F920F920FB60F9211240BB60F922F93FD
:1012E0003F934F935F936F937F938F939F93AF93AE
:1012F000BF93EF93FF938091B900887F803609F404
:101300004DC008F040C0883209F4A9C028F58031EA
:1013100009F49DC0C8F4882309F4FBC0883009F49F
:1013200096C0FF91EF91BF91AF919F918F917F9167
:101330006F915F914F913F912F910F900BBE0F9046
:101340000FBE0F901F901895883109F488C0803225
:1013500041F78093850314C0803409F49DC040F4A4
:101360008033B9F38833E9F68093850385ECB0C008
:10137000803509F485C0883509F496C0883489F62B
:101380000E948608CECF883909F48CC038F588379A
:1013900029F050F4883611F0803719F683E08093F5
:1013A00086031092840357C0883809F47BC08039C3
:1013B00019F0803809F0B5CF80918403803208F0AD
:1013C00071C0E091840381E08E0F8093840380914B
:1013D000BB00F0E0EC59FC4F80833DC0803B39F00E
:1013E000E0F4803A09F479C0883A09F09ACF84E0B1
:1013F000809386031092630310926203E091AE0320
:10140000F091AF0319958091620381110FC081E0C3
:10141000809362031092420309C0803C09F4A6CF76
:10142000883C09F4A3CF883B09F07BCFE0916303AC
:1014300081E08E0F80936303F0E0EE5BFC4F8081D0
:101440008093BB00909163038091620329C08091D7
:10145000AB038093BB0085EC8093BC0062CF90917E
:10146000AA038091A903981758F5E091AA0381E097
:101470008E0F8093AA03F0E0E757FC4F8081E9CFFD
:10148000E091AA0381E08E0F8093AA038091BB00B4
:10149000F0E0E757FC4F80839091AA038091A90365
:1014A0009817C8F285E8D8CFE091AA0381E08E0FA3
:1014B0008093AA038091BB00F0E0E757FC4F808344
:1014C0008091880381115CCF81E08093870384EA57
:1014D0008093BC001092860324CF85EC8093BC00DF
:1014E0001092860380918403803230F4E09184036B
:1014F000F0E0EC59FC4F10826091840370E0E091C1
:10150000AC03F091AD0384E693E019951092840347
:1015100008CF1092850334CFE9EFF3E013821282F3
:1015200088EE93E0A0E0B0E084839583A683B78340
:1015300024E232E03183208325EC30E035872487B4
:1015400024EC30E03787268720EC30E0318B208B8D
:1015500021EC30E0338B228B22EC30E0358B248B76
:1015600026EC30E0378B268B118E128E138E148E64
:10157000E6E9F4E01382128284839583A683B7831D
:1015800086E392E091838083E2EAF4E013821282A0
:1015900088E492E09183808387E2848384E1818779
:1015A00084E0828713860895CF93DF93CDB7DEB7AB
:1015B0006A970FB6F894DEBF0FBECDBF789484B59E
:1015C000826084BD84B5816084BD85B5826085BD3F
:1015D00085B5816085BD80916E00816080936E00CD
:1015E00010928100809181008260809381008091BF
:1015F0008100816080938100809180008160809370
:1016000080008091B10084608093B1008091B0002F
:1016100081608093B00080919100826080939100FE
:101620008091910081608093910080919000816011
:10163000809390008091A10082608093A1008091AE
:10164000A10081608093A1008091A00081608093BF
:10165000A00080912101826080932101809121016D
:10166000816080932101809120018160809320011D
:1016700080917A00846080937A0080917A00826001
:1016800080937A0080917A00816080937A008091C3
:101690007A00806880937A001092C10061E086E150
:1016A0000E948F0261E087E10E948F0261E088E181
:1016B0000E948F0261E089E10E948F0261E08AE16D
:1016C0000E948F0261E08BE10E948F0260E085E260
:1016D0000E948F0260E083E20E948F0260E082E25B
:1016E0000E948F0260E081E20E948F0260E080E24F
:1016F0000E948F0260E08FE10E948F0260E08EE125
:101700000E948F0260E086E30E948F0260E087E320
:101710000E948F021092B3031092B2031092B10391
:101720001092B0030E9497048AE393E09093AF0372
:101730008093AE038BE393E09093AD038093AC036F
:101740001092A7048091AC04823018F098E0909336
:10175000A7048093AA0462E370E080E090E00E9416
:10176000FC026091AD0482EA94E00E945C0568EEA0
:1017700073E080E090E00E94FC0260E382EA94E083
:101780000E9447060BE416E4C8010197F1F760E3F5
:1017900082EA94E00E944706C8010197F1F760E3EE
:1017A00082EA94E00E94470683E592E00197F1F710
:1017B00060E282EA94E00E9447066091A7046062BA
:1017C00040E082EA94E00E94600684E08093A804EE
:1017D00040E06CE082EA94E00E94600640E061E054
:1017E00082EA94E00E9460060BE31FE1C8010197C2
:1017F000F1F782E0F82EF092A90440E066E082EA78
:1018000094E00E94600640E062E082EA94E00E9478
:101810006006C8010197F1F788E08093AD0460E0AD
:1018200082EA94E00E945C050E942E036093BA0352
:101830007093BB038093BC039093BD03E0910904B4
:10184000F0910A04F082E0910504F0910604108200
:10185000E0910704F09108048FEC8083109211044A
:10186000E0910D04F0910E0486E08083E0910B047A
:10187000F0910C04808180618083E0910B04F091F1
:101880000C04808188608083E0910B04F0910C044B
:10189000808180688083E0910B04F0910C0480814A
:1018A0008F7D80830E942E036093DA037093DB03A5
:1018B0008093DC039093DD031092D1031092D60342
:1018C0001092CC031092CD031092CE031092CF034E
:1018D00093E0292E312C20ED822E27E0922EA12C90
:1018E000B12C8E010F5F1F4F1092B4031092B503FD
:1018F0001092B6031092B70388E30E94C002BC01A5
:10190000990F880B990B0E949D1220E030E040EA6D
:1019100050E40E94FC1220E030EC4FE754E40E94B7
:10192000271420E030E048E051E40E9427142B0106
:101930003C0124E13EEA47E85EE30E94CF1487FDC4
:101940004BC080E090E0A8ECB3E48093B4039093A4
:10195000B503A093B603B093B7032091B4033091BD
:10196000B5034091B6035091B703609102027091A4
:10197000030280910402909105020E94FC1220E073
:1019800030E44CE156E40E9427140E949914AB0104
:10199000770F660B770B89EF93E00E94BE0660E538
:1019A00072E089EF93E00E94AF06E091C803F091E6
:1019B000C903E930F10508F0DFC08827ED51F34F86
:1019C0008F4F0C947B16110D4C0D8B0D5F109610E4
:1019D000C41010113711681124E13EEA47E85EE3B4
:1019E000C301B2010E94BA132BE83CEC47E15EEB65
:1019F0000E9427142BE237E846E250E40E94BB1312
:101A00009B01AC0160E070E080E291E40E94D4149C
:101A10006093B4037093B5038093B6039093B703B8
:101A20009CCF61E088E10E94610261E089E10E944F
:101A3000610260E08AE10E94610260E086E10E944A
:101A4000610260E087E10E94610260E08BE10E9438
:101A500061020E942E034090BA035090BB03609035
:101A6000BC037090BD0364197509860997094090FD
:101A70000E0250900F0260901002709011026415D7
:101A800075058605970508F477C081E090E090938E
:101A9000C9038093C80366C00E942E034090BA0316
:101AA0005090BB036090BC037090BD03641975092E
:101AB000860997096536710581059105F8F0E09072
:101AC000B803F090B90388E10E94380261E0892BE5
:101AD00009F060E088E10E9461029FEFE91AF90ACB
:101AE000F092B903E092B8030E942E036093BA0308
:101AF0007093BB038093BC039093BD038091B803A4
:101B00009091B9030897C4F11092B9031092B803E9
:101B100082E090E0BCCF61E087E10E94610260E07A
:101B200088E10E9461020E942E034090BA03509007
:101B3000BB036090BC037090BD03641975098609EE
:101B4000970940900602509007026090080270903A
:101B50000902461657066806790670F43092C903E2
:101B60002092C8030E942E036093BA037093BB03B4
:101B70008093BC039093BD0385E20E9438022091BC
:101B8000C303211109C0019739F41092D60381E0F3
:101B90008093C2038093D9038091C203882359F1B3
:101BA0008091C8039091C903892B29F50E942E03C7
:101BB0006093BE037093BF038093C0039093C103EF
:101BC00081E08093C30380EE9EE2A0E0B0E08093CA
:101BD0000A0290930B02A0930C02B0930D02109294
:101BE000C20360E080E00E94770663E572E082EA6B
:101BF00094E00E94AF068091C303882349F10E94BC
:101C00002E034090BE035090BF036090C0037090BD
:101C1000C1036419750986099709613E7E428105F1
:101C20009105B0F01092C30380920A0290920B02C9
:101C3000A0920C02B0920D021092D90360E080E0F5
:101C40000E94770668E672E082EA94E00E94AF069E
:101C500080E20E9438027C019093D5038093D403E4
:101C60008FE10E9438023C019093D3038093D2030A
:101C70008EE10E943802E60CF71CE80EF91EC10145
:101C80008E199F097C010297029728F58091D10354
:101C9000811121C08091D003811122C00E942E03A6
:101CA0004090CC035090CD036090CE037090CF0352
:101CB0006419750986099709693E73408105910584
:101CC00008F460C081E08093D003F092CB03E092EF
:101CD000CA038093D9038091D003882309F452C0AA
:101CE0008091C8039091C903049709F04BC00E94EA
:101CF0002E036093C4037093C5038093C60390932F
:101D0000C70381E08093D1031092D00380910A022F
:101D100090910B02A0910C02B0910D028053984F4C
:101D2000AF4FBF4F80930A0290930B02A0930C0217
:101D3000B0930D0261E080E00E9477066DE772E0EB
:101D400082EA94E00E94AF064091CA035091CB030F
:101D5000052E000C660B770B82EA94E00E94BE060B
:101D600063E872E082EA94E00E94AF0640910002CC
:101D700050910102052E000C660B770B82EA94E06D
:101D80000E94BE068091D1038823E1F1E090000219
:101D9000F09001020E942E034090C4035090C503AE
:101DA0006090C6037090C703641975098609970986
:101DB00040900A0250900B0260900C0270900D024D
:101DC0004616570668067906E8F4B1E0EB1AF10802
:101DD000F0920102E09200020E942E036093C4037D
:101DE0007093C5038093C6039093C70361E081E1BC
:101DF0000E947706A701FF0C660B770B82EA94E03E
:101E00000E94BE06809100029091010218161906E8
:101E100004F18091D1038823E1F0309201022092F5
:101E200000021092D1031092D90361E080E00E9479
:101E300077066AE672E082EA94E00E94AF060E94AA
:101E40002E036093CC037093CD038093CE039093C5
:101E5000CF030E942E036093DE037093DF03809311
:101E6000E0039093E1034090DA035090DB0360902D
:101E7000DC037090DD036419750986099709613DDB
:101E800077408105910508F449C08091D9038111FB
:101E900045C06FE872E089EF93E00E94AF0660E50D
:101EA00072E089EF93E00E94AF0640910A025091E0
:101EB0000B0260910C0270910D0289EF93E00E9479
:101EC000BE0660E572E089EF93E00E94AF06809164
:101ED000DE039091DF03A091E003B091E1038093D2
:101EE000DA039093DB03A093DC03B093DD0387E375
:101EF0000E94C0027C019093D8038093D70386E3AD
:101F00000E94C002A4E6EA16F1040CF000C2843676
:101F100091050CF0FCC181E08093D6038091E2032F
:101F2000811109C062E572E083EF93E00E942B0803
:101F300081E08093E20389EF93E00E949A031816F0
:101F400019060CF084C289EF93E00E9478038A306E
:101F500009F073C28091F7039091F803892B09F47B
:101F60004AC26090F3037090F4036AE370E0C30127
:101F70000E949A18009709F43EC27C01E618F708FF
:101F8000BFEFEB16FB0609F436C2A70170E060E074
:101F9000CE0145960E943C084091F7035091F8030A
:101FA000B7016F5F7F4FCE010F960E943C088F856F
:101FB0009889412C512C3201009719F00E942A1265
:101FC0002B0172016BE972E0C8010E942B08B80175
:101FD000CE0145960E947407D82EC8010E946C0756
:101FE000DD2009F497C1052C000C660877084092A3
:101FF0000E0250920F02609210027092110263E082
:1020000080E00E94770668E672E082EA94E00E942F
:10201000AF0663E080E00E9477061A8619861C8668
:102020001B861E861D866D897E896115710531F0BE
:10203000498D5A8DCE0109960E94000841E050E07A
:102040006DE872E0CE0109960E94D407811104C0A8
:10205000CE0109960E945A074AE0B801C7010E94C2
:102060005112F80101900020E9F73197AF01401BB0
:10207000510BB801CE0109960E94D407811104C00A
:10208000CE0109960E945A074D855E8569857A853D
:1020900082EA94E00E943C03CE0109960E946C07FC
:1020A00062E572E083EF93E00E942108CE010F9673
:1020B0000E946C07CE0145960E946C073CCF61E000
:1020C00086E10E94610260E087E10E94610260E0B7
:1020D00088E10E94610261E08AE10E94610260E0A1
:1020E0008BE10E94610260E089E10E9461020E942E
:1020F0002E034090BA035090BB036090BC037090D5
:10210000BD0364197509860997094090060250902D
:10211000070260900802709009024616570668068A
:10212000790608F029CD84E090E0B1CC60E08AE146
:102130000E94610261E08BE10E9461020E942E0315
:102140004090BA035090BB036090BC037090BD03F5
:10215000641975098609970940900A0250900B028C
:1021600060900C0270900D024616570668067906BC
:1021700008F002CD8091D603882319F088E090E022
:1021800086CC85E090E083CC0E942E034090BA0379
:102190005090BB036090BC037090BD036419750937
:1021A000860997096536710581059105E8F08091EA
:1021B000B8039091B90301969093B9038093B80343
:1021C0000E942E036093BA037093BB038093BC03F9
:1021D0009093BD038BE10E94380261E0892B09F0E6
:1021E00060E08BE10E9461028091B8039091B90395
:1021F00008970CF4C1CC1092B9031092B8030E9456
:102200002E036093BA037093BB038093BC03909337
:10221000BD0386E090E09093C9038093C803ACCCE3
:1022200060E08BE10E94610261E08AE10E9461024C
:102230000E942E034090BA035090BB036090BC03F1
:102240007090BD03641975098609970940900602CC
:1022500050900702609008027090090246165706D7
:102260006806790608F088CC87E090E010CC61E041
:1022700089E10E94610261E087E10E94610260E001
:1022800086E10E94610260E08AE10E9461020E9490
:102290002E034090BA035090BB036090BC03709033
:1022A000BD0364197509860997094090060250908C
:1022B00007026090080270900902461657066806E9
:1022C000790608F059CC1092C9031092C8034ACC81
:1022D00061E08BE10E94610260E08AE10E9461029C
:1022E00060E089E10E94610260E088E10E94610291
:1022F00060E087E10E94610261E086E10E94610284
:102300008091D603811138CC84E090E084CF109284
:10231000D60304CE66EA72E0C8010E942B08B80119
:10232000CE0145960E947407D82EC8010E946C0702
:10233000DD2069F0C201550CAA0BBB0B80930A0289
:1023400090930B02A0930C02B0930D0258CE61EB58
:1023500072E0C8010E942B08B801CE0145960E9488
:102360007407D82EC8010E946C07DD2069F0C201F5
:10237000550CAA0BBB0B8093060290930702A09307
:102380000802B09309023BCE6CEB72E0C8010E94D8
:102390002B08B801CE0145960E947407D82EC801BB
:1023A0000E946C07DD2079F0B201550C880B990B67
:1023B0000E949D12609302027093030280930402B4
:1023C000909305021CCE6AEC72E0C8010E942B08B3
:1023D000498D5A8D6D897E89C8010E94D40781116B
:1023E00003C0C8010E945A07C8010E944307C801E0
:1023F0000E946C0704CE64EE72E0C8010E942B08B4
:102400004091F7035091F8036091F3037091F40346
:10241000C8010E94D407811103C0C8010E945A0755
:10242000C8010E944307C8010E946C0762E572E080
:1024300083EF93E00E9421087ECD89831A8241E0D8
:1024400050E0B80183EF93E00E94D40774CD0E945E
:102450003F044ACA1F93FC0199278827BC01E894CE
:1024600011911032E9F3193010F01E30C8F31B320D
:1024700051F01D3249F4689406C00E945C12610F4D
:10248000711D811D911D119110531A30B0F33EF44E
:1024900090958095709561957F4F8F4F9F4F1F91BD
:1024A0000895BB274A3031F4992322F4BDE2909578
:1024B00081959F4F0C947212592F482F372F262F3A
:1024C000660F771F881F991F660F771F881F991F38
:1024D000620F731F841F951F660F771F881F991F38
:1024E0000895BB27FB015527AA27880F991FAA1F0C
:1024F000A41710F0A41B83955051B9F7A05DAA331F
:1025000008F0A95DA193009779F7B111B1931192E9
:10251000CB010C948B12DC01FC01672F71917723A6
:10252000E1F7329704C07C916D9370836291AE178E
:10253000BF07C8F30895E89409C097FB3EF490954F
:102540008095709561957F4F8F4F9F4F9923A9F08C
:10255000F92F96E9BB279395F6958795779567951B
:10256000B795F111F8CFFAF4BB0F11F460FF1BC05F
:102570006F5F7F4F8F4F9F4F16C0882311F096E9F2
:1025800011C0772321F09EE8872F762F05C06623A0
:1025900071F096E8862F70E060E02AF09A95660F59
:1025A000771F881FDAF7880F9695879597F9089512
:1025B000990F0008550FAA0BE0E8FEEF1616170654
:1025C000E807F907C0F012161306E407F50798F0BC
:1025D000621B730B840B950B39F40A2661F0232BD5
:1025E000242B252B21F408950A2609F4A140A69551
:1025F0008FEF811D811D08950E940F130C9480138D
:102600000E94721338F00E94791320F0952311F084
:102610000C9469130C946F1311240C94B4130E943E
:10262000911370F3959FC1F3950F50E0551F629F72
:10263000F001729FBB27F00DB11D639FAA27F00D1B
:10264000B11DAA1F649F6627B00DA11D661F829F42
:102650002227B00DA11D621F739FB00DA11D621F27
:10266000839FA00D611D221F749F3327A00D611D44
:10267000231F849F600D211D822F762F6A2F112426
:102680009F5750409AF0F1F088234AF0EE0FFF1F59
:10269000BB1F661F771F881F91505040A9F79E3FB0
:1026A000510580F00C9469130C94B4135F3FE4F36C
:1026B000983ED4F3869577956795B795F795E79506
:1026C0009F5FC1F7FE2B880F911D9695879597F90F
:1026D000089597F99F6780E870E060E008959FEFA4
:1026E00080EC089500240A941616170618060906A9
:1026F000089500240A941216130614060506089578
:10270000092E0394000C11F4882352F0BB0F40F4FF
:10271000BF2B11F460FF04C06F5F7F4F8F4F9F4F3F
:10272000089557FD9058440F551F59F05F3F71F0C1
:102730004795880F97FB991F61F09F3F79F0879528
:102740000895121613061406551FF2CF4695F1DFB1
:1027500008C0161617061806991FF1CF8695710541
:10276000610508940895E894BB2766277727CB0175
:1027700097F908955058BB27AA270E94D2130C94AA
:1027800080130E94721338F00E94791320F039F4FC
:102790009F3F19F426F40C946F130EF4E095E7FBB9
:1027A0000C946913E92F0E94911358F3BA1762072A
:1027B00073078407950720F079F4A6F50C94B313FA
:1027C0000EF4E0950B2EBA2FA02D0B01B90190014C
:1027D0000C01CA01A0011124FF27591B99F0593F90
:1027E00050F4503E68F11A16F040A22F232F342FD8
:1027F0004427585FF3CF469537952795A795F04026
:102800005395C9F77EF41F16BA0B620B730B840B3A
:10281000BAF09150A1F0FF0FBB1F661F771F881FF2
:10282000C2F70EC0BA0F621F731F841F48F487954A
:1028300077956795B795F7959E3F08F0B0CF93953C
:10284000880F08F09927EE0F9795879508950E94B5
:102850003B140C9480130E94791358F00E94721359
:1028600040F029F45F3F29F00C94691351110C9446
:10287000B4130C946F130E94911368F39923B1F36E
:10288000552391F3951B550BBB27AA276217730796
:10289000840738F09F5F5F4F220F331F441FAA1F2A
:1028A000A9F335D00E2E3AF0E0E832D091505040E6
:1028B000E695001CCAF72BD0FE2F29D0660F771F94
:1028C000881FBB1F261737074807AB07B0E809F07A
:1028D000BB0B802DBF01FF2793585F4F3AF09E3FFF
:1028E000510578F00C9469130C94B4135F3FE4F332
:1028F000983ED4F3869577956795B795F7959F5F42
:10290000C9F7880F911D9695879597F90895E1E08D
:10291000660F771F881FBB1F621773078407BA07EC
:1029200020F0621B730B840BBA0BEE1F88F7E09547
:1029300008950E94A0146894B1110C94B4130895E2
:102940000E94991388F09F5798F0B92F9927B75193
:10295000B0F0E1F0660F771F881F991F1AF0BA9543
:10296000C9F714C0B13091F00E94B313B1E00895DB
:102970000C94B313672F782F8827B85F39F0B93FCD
:10298000CCF3869577956795B395D9F73EF49095F6
:102990008095709561957F4F8F4F9F4F08950E944E
:1029A000D81208F48FEF0895FA01EE0FFF1F30964A
:1029B00021053105A1F16115710561F48038BFE38E
:1029C0009B0749F168949038810561F08038BFEF2A
:1029D0009B0741F099234AF5FF3FE10531052105A9
:1029E00019F1E8940894E795D901AA2329F4AB2FAB
:1029F000BE2FF85FD0F310C0FF5F70F4A695E0F72C
:102A0000F73950F019F0FF3A38F49F779F930DD0C3
:102A10000F9007FC9058089546F00C946F1360E0F7
:102A200070E080E89FE308954FE79F775F934F93AF
:102A30003F932F930E94CF152F913F914F915F911C
:102A40000E94FC120C942C1529F416F00C946913B6
:102A50000C94B3130C946F130E949913A8F3963837
:102A6000A0F707F80F92E8942BE33AEA48EB5FE708
:102A70000E9412130F920F920F924DB75EB70F92F2
:102A80000E941716E4EEF0E00E945E154F915F91F0
:102A9000EF91FF91E595EE1FFF1F49F0FE57E068AB
:102AA0004427EE0F441FFA95E1F74195550B0E941C
:102AB00091150F9007FE0C9485150895DF93CF9321
:102AC0001F930F93FF92EF92DF927B018C0168942A
:102AD00006C0DA2EEF010E940F13FE01E894A591C3
:102AE0002591359145915591A6F3EF010E94D2139E
:102AF000FE019701A801DA9469F7DF90EF90FF904B
:102B00000F911F91CF91DF9108959B01AC0160E07F
:102B100070E080E89FE30C9427140C9469130C94E4
:102B20004B160E949913D8F39923C9F3940F511DA2
:102B3000A3F39150504094F059F0882332F0660F7F
:102B4000771F881F91505040C1F79E3F51052CF7C9
:102B5000880F911D9695879597F908955F3FACF082
:102B6000983E9CF0BB27869577956795B79508F4B6
:102B7000B1609395C1F7BB0F58F711F460FFE8CF30
:102B80006F5F7F4F8F4F9F4FE3CF0C94B41316F0BE
:102B90000C944B160C946F1368940C9469130E9458
:102BA0009913A8F39923C1F3AEF3DF93CF931F9347
:102BB0000F93FF92C92FDD2788232AF02197660FF4
:102BC000771F881FDAF720E030E040E85FEB9FE3F3
:102BD000883920F0803E38F021968F770E94BB1311
:102BE000ECE0F1E004C00E94BB13E9E3F1E00E94D5
:102BF0005E158B01BE01EC01FB2E6F5771097595B7
:102C0000771F880B990B0E949D1228E132E741E360
:102C10005FE30E940F13AF2D9801AE01FF900F915B
:102C20001F91CF91DF910E94D2130C948013FA016F
:102C3000DC01AA0FBB1F9B01AC01BF5728F4222760
:102C400033274427507820C0B75190F4AB2F00248D
:102C5000469537952795011CA395D2F3002071F076
:102C6000220F331F441FB395DAF30ED00C94BA131E
:102C700061307105A0E88A07B94630F49B01AC01C8
:102C80006627772788279078309621F02083318334
:102C90004283538308959F3F31F0915020F48795EC
:102CA00077956795B795880F911D9695879597F9B4
:102CB0000895A1E21A2EAA1BBB1BFD010DC0AA1F7D
:102CC000BB1FEE1FFF1FA217B307E407F50720F095
:102CD000A21BB30BE40BF50B661F771F881F991F10
:102CE0001A9469F760957095809590959B01AC0159
:102CF000BD01CF010895EE0FFF1F881F8BBF079006
:102D0000F691E02D19940F931F93CF93DF938230A8
:102D1000910510F482E090E0E091B004F091B104EC
:102D200030E020E0B0E0A0E0309799F421153105C3
:102D300009F44AC0281B390B24303105D8F58A81A3
:102D40009B816115710589F1FB0193838283FE01EB
:102D500011C0408151810281138148175907E0F069
:102D60004817590799F4109761F012960C9312972F
:102D700013961C933296CF01DF91CF911F910F9143
:102D800008950093B0041093B104F4CF21153105D8
:102D900051F04217530738F0A901DB019A01BD0138
:102DA000DF01F801C1CFEF01F9CF9093B104809317
:102DB000B004CDCFFE01E20FF31F81939193225017
:102DC000310939832883D7CF2091AE043091AF04E5
:102DD000232B41F420911402309115023093AF045B
:102DE0002093AE0420911202309113022115310577
:102DF00041F42DB73EB74091160250911702241BA3
:102E0000350BE091AE04F091AF04E217F307A0F4A4
:102E10002E1B3F0B2817390778F0AC014E5F5F4F30
:102E20002417350748F04E0F5F1F5093AF044093AF
:102E3000AE04819391939FCFF0E0E0E09CCFCF93DD
:102E4000DF930097E9F0FC01329713821282A09180
:102E5000B004B091B104ED0130E020E01097A1F48E
:102E600020813181820F931F2091AE043091AF04F5
:102E70002817390709F061C0F093AF04E093AE045E
:102E8000DF91CF910895EA01CE17DF07E8F54A8177
:102E90005B819E0141155105B1F7E901FB83EA838E
:102EA00049915991C40FD51FEC17FD0761F480813A
:102EB00091810296840F951FE9019983888382810D
:102EC00093819B838A83F0E0E0E012968D919C9140
:102ED00013970097B9F52D913C911197CD0102966A
:102EE000820F931F2091AE043091AF042817390749
:102EF00039F6309751F51092B1041092B004B093A6
:102F0000AF04A093AE04BCCFD383C2834081518170
:102F1000840F951FC817D90761F44E5F5F4F8881F2
:102F20009981480F591F518340838A819B819383E4
:102F300082832115310509F0B0CFF093B104E093FD
:102F4000B0049ECFFD01DC01C0CF13821282D7CF27
:102F50004F925F926F927F928F929F92AF92BF92A9
:102F6000CF92DF92EF92FF920F931F93CF93DF9355
:102F70008C01009799F4CB01DF91CF911F910F91B4
:102F8000FF90EF90DF90CF90BF90AF909F908F9089
:102F90007F906F905F904F900C948316FC01E60F2A
:102FA000F71F9C0122503109E217F30708F4AEC065
:102FB000D901CD91DC911197C617D70720F1C53003
:102FC000D10578F0CE0104978617970750F0C61BFD
:102FD000D70B2297C193D1936D937C93CF010E941D
:102FE0001F17C801DF91CF911F910F91FF90EF90B4
:102FF000DF90CF90BF90AF909F908F907F906F9019
:103000005F904F9008955B01AC1ABD0A4C018C0E85
:103010009D1EA091B004B091B104512C412CF12C13
:10302000E12C109731F58091AE049091AF04881592
:10303000990509F05CC04616570608F058C0809103
:10304000120290911302009741F48DB79EB7409100
:10305000160250911702841B950BE817F90708F028
:1030600055C0F093AF04E093AE04F901718360831F
:10307000B8CF8D919C91119712966C9012971396E0
:103080007C901397A815B90559F56C0142E0C40E60
:10309000D11CCA14DB0420F1AC014A195B09DA0126
:1030A0001296159780F06282738251834083D90112
:1030B0006D937C93E114F10471F0D7011396FC93A6
:1030C000EE9312978ECF22968C0F9D1FF90191835C
:1030D0008083F301EFCFF093B104E093B00481CF8C
:1030E0004816590608F42C017D01D3019ACFCB0173
:1030F0000E9483167C01009749F0AE01B8010E943E
:103100009118C8010E941F1787016BCF10E000E0E3
:1031100068CF9111089581548A5108F4805E855AD0
:103120000895FB01DC0102C001900D924150504016
:10313000D8F70895FC018191861721F08823D9F7EB
:10314000992708953197CF010895FB01DC01019083
:0C3150000D920020E1F70895F894FFCFE5
:10315C00030000002041F4010000D0070000F4013E
:10316C0000000000B2048000000040001400540075
:10317C0000000000D2033C0369031F049A03780388
:10318C008C03000000002D0500054406D604F9044C
:10319C00E604D70400000000A9063C0344064306DD
:1031AC000D0A005065646573747269616E31206339
:1031BC00726F7373696E67002020202020202020FE
:1031CC002020202020202020202020200050726948
:1031DC006F20002053656E736F72732D433A004756
:1031EC007265656E3254696D653A00677265656E1D
:1031FC0054696D653100677265656E54696D653231
:10320C000079656C6C6F7754696D6500636F32473C
:10321C007265656E54696D65320050726F706965C8
:10322C00646164206E6F207265636F6E6F63696496
:10323C00613A2000466F726D61746F20696E636F26
:0A324C0072726563746F3A2000008F
:00000001FF
