:100000000C945B010C948C010C948C010C948C016D
:100010000C948C010C948C010C948C010C948C012C
:100020000C948C010C948C010C948C010C948C011C
:100030000C948C010C948C010C948C010C948C010C
:100040000C948C010C948C010C948C010C948C01FC
:100050000C948C010C948C010C948C010C944A0827
:100060000C948C010C94BE080C9494080C948C0194
:100070000C948C010C948C010C948C010C948C01CC
:100080000C948C010C948C010C948C010C948C01BC
:100090000C948C010C948C010C948C010C94F4083D
:1000A0000C948C010C948C010C948C010C948C019C
:1000B0000C948C010C948C010C948C010C948C018C
:1000C0000C948C010C948C010C948C010C948C017C
:1000D0000C948C010C948C010C948C010C948C016C
:1000E0000C948C010C94E50C0C94C1060C94EA045D
:1000F0000C9494040C94180A0C94F1010C940106CD
:100100000C94C7010C94D1100C94FF100C94F802BD
:100110000C94D5010C94BE0C0C94EC010C94DF01F2
:100120000C94ED010C94C1010C94BD040C948F034C
:100130000C94AC010C9400060C94B2010C94DC03FA
:100140000C94CB010C9435030C94F9020C943D11E2
:100150000C94E3010C947E0C0C94F7020C94661141
:100160000C9493040C94BE010C9457030C94BA01A4
:100170000C94B6040C9426030C9449030C94B60119
:100180000C94430C0C94A3040C94E7010C94D1013F
:100190000C94D90100002100240027002A002D0022
:1001A0003000330001010000040107010A010000D2
:1001B0002200250028002B002E003100340002010F
:1001C0000000050108010B010000200023002600AB
:1001D00029002C002F00320000010000030106015D
:1001E00009010505050507050808080802020202BD
:1001F0000A0A0808040404040101010101010101C3
:100200000303030303030303040707070C0C0C0C8D
:100210000C0C0C0C02020202060606060606060676
:100220000B0B0B0B0B0B0B0B010210202008081003
:100230002040102040800201020108040201010256
:10024000040810204080804020100804020180042F
:10025000020180402010080402010804020101028A
:100260000408102040800102040810204080000093
:100270000A0B02090C0D0E08070304010000000020
:10028000000000000000000000000000000000006E
:10029000000000000000000000001211100000002B
:1002A000000000000000000000000000000000004E
:1002B00000000000180A11241FBECFEFD1E2DEBFFC
:1002C000CDBF00E00CBF24E0AEEFB2E001C01D9254
:1002D000AC3CB207E1F712E0A0E0B2E0E6EBFCE2F2
:1002E00000E00BBF02C007900D92AE3FB107D9F7F7
:1002F00011E0CBE5D1E000E006C021970109802F95
:10030000FE010E942114CA35D10780E00807A9F731
:100310000E94800A0C9459160C940000815082317E
:1003200008F05AC0E82FF0E08827E656FE4F8F4FBE
:100330000C942114BA01BE01AC01B201B601EC016A
:10034000C101C701CB01D101D501D901DF01E30111
:10035000EC01E701ED01F101809180008F7780933E
:1003600080000895809180008F7DF9CF809180007A
:10037000877FF5CF84B58F7784BD089584B58F7D51
:10038000FBCF8091B0008F778093B000089580916B
:10039000B0008F7DF9CF809190008F77809390008F
:1003A0000895809190008F7DF9CF80919000877F94
:1003B000F5CF8091A0008F778093A0000895809161
:1003C000A0008F7DF9CF8091A000877FF5CF80912D
:1003D00020018F77809320010895809120018F7DE7
:1003E000F9CF80912001877FF5CFCF93DF93282F1E
:1003F00030E0F901E259FD4F8491F901E85DFD4FCC
:10040000D491F901EE51FE4FC491CC23A1F081119A
:100410000E948E01EC2FF0E0EE0FFF1FE853FE4F1D
:10042000A591B491EC91ED2381E090E009F480E096
:10043000DF91CF91089580E090E0FACF1F93CF93A2
:10044000DF93282F30E0F901E259FD4F8491F90143
:10045000E85DFD4FD491F901EE51FE4FC491CC23DC
:10046000A9F0162F81110E948E01EC2FF0E0EE0F03
:10047000FF1FE255FE4FA591B4918FB7F894EC9110
:10048000111108C0D095DE23DC938FBFDF91CF918F
:100490001F910895DE2BF8CFCF93DF9390E0FC01FE
:1004A000E85DFD4F24918E519E4FFC01849188237D
:1004B000D1F090E0880F991FFC01EC56FE4FA591FA
:1004C000B491FC01E255FE4FC591D49161110EC06B
:1004D0009FB7F8948C91E22FE0958E238C9328811E
:1004E000E223E8839FBFDF91CF9108958FB7F894FF
:1004F000EC91E22BEC938FBFF6CF90917B00977F2E
:1005000090937B008653806480937C0080917A0076
:10051000806480937A0080917A0086FDFCCF809180
:1005200078009091790008953FB7F8948091010484
:1005300090910204A0910304B091040426B5A89BF5
:1005400005C02F3F19F00196A11DB11D3FBFBA2F65
:10055000A92F982F8827BC01CD01620F711D811D25
:10056000911D42E0660F771F881F991F4A95D1F7AA
:1005700008958F929F92AF92BF92CF92DF92EF92A7
:10058000FF924B015C010E9494026B017C010E946E
:1005900094026C197D098E099F09683E734081059C
:1005A0009105A8F321E0821A9108A108B10888EE0C
:1005B000C80E83E0D81EE11CF11C81149104A10433
:1005C000B10429F7FF90EF90DF90CF90BF90AF90EC
:1005D0009F908F9008952FB7F8946091FD037091CC
:1005E000FE038091FF03909100042FBF08950895AA
:1005F0000895AF92BF92CF92DF92EF92FF920F9346
:100600001F93CF93DF936C017B018B01040F151FA8
:10061000EB015E01AE18BF08C017D10759F0699110
:10062000D601ED91FC910190F081E02DC601199564
:10063000892B79F7C501DF91CF911F910F91FF9021
:10064000EF90DF90CF90BF90AF900895FC01538D55
:10065000448D252F30E0842F90E0821B930B54179C
:1006600010F0CF96089501970895FC01918D828D29
:10067000981761F0A28DAE0FBF2FB11D5D968C91C2
:10068000928D9F5F9F73928F90E008958FEF9FEF01
:100690000895FC01918D828D981731F0828DE80FBD
:1006A000F11D858D90E008958FEF9FEF0895FC0177
:1006B000918D228D892F90E0805C9F4F821B910944
:1006C0008F73992708958BE094E00E94570321E0EF
:1006D000892B09F420E0822F0895FC01A48DA80F36
:1006E000B92FB11DA35ABF4F2C91848D90E0019674
:1006F0008F739927848FA689B7892C93A089B18994
:100700008C91837080648C93938D848D981306C034
:100710000288F389E02D80818F7D80830895EF9298
:10072000FF920F931F93CF93DF93EC0181E0888FAB
:100730009B8D8C8D98131AC0E889F989808185FF7B
:1007400015C09FB7F894EE89FF896083E889F9891D
:1007500080818370806480839FBF81E090E0DF911F
:10076000CF911F910F91FF90EF900895F62E0B8D72
:1007700010E00F5F1F4F0F731127E02E8C8D8E112D
:100780000CC00FB607FCFACFE889F989808185FF94
:10079000F5CFCE010E946D03F1CFEB8DEC0FFD2F55
:1007A000F11DE35AFF4FF0829FB7F8940B8FEA894F
:1007B000FB8980818062CFCFCF93DF93EC01888D5E
:1007C0008823B9F0AA89BB89E889F9898C9185FDCC
:1007D00003C0808186FD0DC00FB607FCF7CF8C915A
:1007E00085FFF2CF808185FFEDCFCE010E946D03A2
:1007F000E9CFDF91CF91089580E090E0892B29F037
:100800000E94630381110E94000080E090E0892B28
:1008100049F080E090E0892B29F00E9400008111CE
:100820000E94000080E090E0892B49F080E090E099
:10083000892B29F00E94000081110E94000080E0B5
:1008400090E0892B49F080E090E0892B29F00E940C
:10085000000081110C940000089520916603260F7A
:100860003327331F21323105ECF420918A03FC0138
:1008700090E080E0243069F082E00895A091660362
:100880002191AC014A5B5C4FA40FB52FB11D2C9395
:100890000196861798F380916603680F609366034C
:1008A00080E0089581E0089510928A0381E08093AA
:1008B0008C0310928B0361E084E10E941E0261E0D0
:1008C00085E10E941E02E9EBF0E080818E7F80834B
:1008D00080818D7F808388E48093B80085E4809355
:1008E000BC000895CF93DF9391E090934503882354
:1008F000B9F0C091B800D091BA008091BC008A7B59
:100900008093BC0060E084E10E941E0260E085E10B
:100910000E941E020E945404D093BA00C093B800F3
:10092000DF91CF9108950895E091B7038091B603C8
:10093000E81730F4F0E0E05EFC4F808190E008952D
:100940008FEF9FEF08959091B7038091B6032FEF3B
:100950003FEF981748F4E92FF0E0E05EFC4F20816C
:1009600030E09F5F9093B703C90108958091B6036B
:100970009091B703891B990B0895CF92DF92EF9264
:10098000FF920F931F93CF93DF937C01CB018A01DA
:1009900020911F03222389F0EB016B01C40ED51EA9
:1009A000CC15DD0569F06991D701ED91FC910190BD
:1009B000F081E02DC7011995F3CF642F0E942D041B
:1009C000C801DF91CF911F910F91FF90EF90DF90C1
:1009D000CF900895CF93DF931F92CDB7DEB7698391
:1009E00020911F032223F9F02091B403203258F004
:1009F00021E030E0FC013383228390E080E00F901F
:100A0000DF91CF9108958091B503E82FF0E0E15098
:100A1000FD4F998190838F5F8093B5038093B403DA
:100A200081E090E0ECCF61E0CE0101960E942D04C0
:100A3000F7CFCF92DF92EF92FF920F931F93CF9356
:100A4000DF93FC01C48121E020931F03C093FE02C9
:100A50001092B5031092B4038385682B88EA94E062
:100A60000E94EA04D091B403D13208F092C00E94EF
:100A700094026B017C0180918A03811165C082E040
:100A800080938A0381E080938C038FEF80938903A6
:100A90001092AE03D093AD03AFEFB2E0EDE8F3E018
:100AA00080E0D81385C01092AF038091AF03CC0FC4
:100AB000C82BC093AF0380918B03813009F07CC0B9
:100AC00010928B030E9494026B017C018091AF0312
:100AD0008093BB008091410390914203A091430316
:100AE000B0914403892B8A2B8B2B99F00E9494029E
:100AF000009141031091420320914303309144033C
:100B00006C197D098E099F090617170728073907F1
:100B1000E0F18091BC0083FDD9CF85EC8093BC00CF
:100B20000E9494026B017C0180918A03823009F457
:100B300045C0809189038F3F61F1809189038032A4
:100B400041F18091890325C0809141039091420336
:100B5000A0914303B0914403892B8A2B8B2B09F47A
:100B60008ACF0E9494020091410310914203209188
:100B70004303309144036C197D098E099F090617C0
:100B800017072807390708F076CF809140030E94A5
:100B900072041092B5031092B40310921F03DF91F8
:100BA000CF911F910F91FF90EF90DF90CF9008951C
:100BB0009D9191938F5F75CF85EEB0CF809141036A
:100BC00090914203A0914303B0914403892B8A2B57
:100BD0008B2B09F4A9CF0E9494020091410310913C
:100BE000420320914303309144036C197D098E091F
:100BF0009F09061717072807390708F095CFC5CFB3
:100C0000089590E080E008958F929F92AF92BF92F6
:100C10000F931F93CF93DF93CDB7DEB7A1970FB696
:100C2000F894DEBF0FBECDBF19A2423008F44AE0EF
:100C30008E010F5D1F4F842E912CB12CA12CA5018C
:100C400094010E94FF13E62FB901CA01EA3044F56E
:100C5000E05DD801EE938D01232B242B252B79F712
:100C600090E080E0109769F0FD0101900020E9F725
:100C70003197AF014A1B5B0BBD0184EB94E00E94EE
:100C8000F902A1960FB6F894DEBF0FBECDBFDF917B
:100C9000CF911F910F91BF90AF909F908F9008952B
:100CA000E95CD7CFFC0101900020E9F73197AF0153
:100CB000481B590BBC0184EB94E00C94F9020F9390
:100CC0001F93CF938C01C62F0E9419056C2F64606F
:100CD000C8010E9419056C2F6B7FC8010E9419057D
:100CE00083EC90E00197F1F7CF911F910F91089558
:100CF0000F931F93CF93DF938C01D62FC42F607F68
:100D0000642B0E945F0680E1D89FB00111246C2BF8
:100D1000C801DF91CF911F910F910C945F06CF9383
:100D2000DF9300D000D01F921F92CDB7DEB798E0BE
:100D3000E6E1F2E0DE01119601900D929A95E1F75D
:100D40009091BC04961710F46FEF690F262F30E0D6
:100D5000220F331F41E050E04C0F5D1F240F351F61
:100D6000F9016081680F606840E084EB94E02896A8
:100D70000FB6F894DEBF0FBECDBFDF91CF910C94BC
:100D8000780641E00E94780681E090E00895CF92D5
:100D9000DF92EF92FF926C01990FEE08FF08F7FEC9
:100DA00016C041E06DE284EB94E00E94780666276D
:100DB0007727CB016C197D098E099F094AE00E94B3
:100DC00004060196FF90EF90DF90CF9008954AE0DF
:100DD000C701B601FF90EF90DF90CF900C9404060E
:100DE000CF93DF93EC0188819981009711F00E94E5
:100DF000CC14198218821D821C821B821A82DF91F8
:100E0000CF910895FC0180819181009711F00C949D
:100E1000CC140895EF92FF920F931F93CF93DF931B
:100E2000FC0100811181FB01C081D181F801819118
:100E30008F018823B9F0082E000C990B0E943616FA
:100E40007C018991082E000C990B0E943616E81639
:100E5000F90661F380E0DF91CF911F910F91FF9030
:100E6000EF90089581E0F7CF0F931F93CF93DF9317
:100E7000EC0188819981009759F02A813B812617DE
:100E8000370730F081E0DF91CF911F910F910895E6
:100E90008B016F5F7F4F0E945515009759F0998322
:100EA00088831B830A832C813D81232B59F7FC0106
:100EB0001082E8CF80E0E7CFEF92FF920F931F936D
:100EC000CF93DF9341155105B1F07B01EC010C810B
:100ED0001D81040F151FB8010E943407882361F09B
:100EE000288139818C819D81B701820F931F0E94D7
:100EF00052161D830C8381E0DF91CF911F910F91DA
:100F0000FF90EF900895EF92FF920F931F93CF936E
:100F1000DF93EC017B018A01BA010E943407811141
:100F20000BC0CE010E94F006CE01DF91CF911F9140
:100F30000F91FF90EF9008951D830C83B701888176
:100F400099810E945216F0CFFB0101900020E9F731
:100F50003197AF01461B570B0C948307CF92DF925A
:100F6000EF92FF920F931F93CF93DF93EC016B01EE
:100F70007A014617570720F48D2D6A01E62EF82EC8
:100F8000198218821B821A821D821C8250E040E066
:100F900067E772E0CE010E94830700910904109177
:100FA0000A04C016D10600F5E016F10608F4870120
:100FB000E0910504F0910604E00FF11FF08010822B
:100FC00060910504709106046C0D7D1DCE016115C4
:100FD0007105A1F00E94A407809105049091060478
:100FE000080F191FF801F082CE01DF91CF911F91F8
:100FF0000F91FF90EF90DF90CF9008950E94F00640
:10100000EBCFFC01118210821382128215821482AE
:10101000FB0101900020E9F73197AF01461B570B08
:101020000C94830785ED8093BC00809141039091DF
:101030004203A0914303B09144030796A11DB11D43
:1010400023E0B695A795979587952A95D1F7209196
:10105000BC0024FD03C010928A030895409141030F
:10106000509142036091430370914403452B462BFA
:10107000472B69F30097A105B10541F02AE22A95B3
:10108000F1F700C00197A109B109E1CF80914003B8
:101090000C9472041F920F920FB60F9211242F938B
:1010A0003F938F939F93AF93BF938091FD03909154
:1010B000FE03A091FF03B09100043091FC0323E0F4
:1010C000230F2D3758F50196A11DB11D2093FC0368
:1010D0008093FD039093FE03A093FF03B09300045D
:1010E0008091010490910204A0910304B091040442
:1010F0000196A11DB11D8093010490930204A09359
:101100000304B0930404BF91AF919F918F913F91DD
:101110002F910F900FBE0F901F90189526E8230F68
:101120000296A11DB11DD2CF1F920F920FB60F9242
:1011300011240BB60F922F933F934F935F936F93AE
:101140007F938F939F93AF93BF93EF93FF938BE026
:1011500094E00E946D03FF91EF91BF91AF919F9139
:101160008F917F916F915F914F913F912F910F9050
:101170000BBE0F900FBE0F901F9018951F920F92ED
:101180000FB60F9211240BB60F922F938F939F934C
:10119000EF93FF93E0911B04F0911C048081E09198
:1011A0002104F091220482FD1DC0908180912404CD
:1011B0008F5F8F7320912504821741F0E091240402
:1011C000F0E0E55FFB4F958F80932404FF91EF9152
:1011D0009F918F912F910F900BBE0F900FBE0F908C
:1011E0001F9018958081F2CF1F920F920FB60F9229
:1011F00011240BB60F922F933F934F935F936F93EE
:101200007F938F939F93AF93BF93EF93FF938091BF
:10121000B900887F803609F44DC008F040C088329C
:1012200009F4A9C028F5803109F49DC0C8F48823C9
:1012300009F4FBC0883009F496C0FF91EF91BF918B
:10124000AF919F918F917F916F915F914F913F915E
:101250002F910F900BBE0F900FBE0F901F901895FF
:10126000883109F488C0803241F78093890314C023
:10127000803409F49DC040F48033B9F38833E9F633
:101280008093890385ECB0C0803509F485C088352A
:1012900009F496C0883489F60E941208CECF8839A6
:1012A00009F48CC038F5883729F050F4883611F0ED
:1012B000803719F683E080938A031092880357C021
:1012C000883809F47BC0803919F0803809F0B5CF2F
:1012D00080918803803208F071C0E091880381E03A
:1012E0008E0F809388038091BB00F0E0E859FC4F9B
:1012F00080833DC0803B39F0E0F4803A09F479C046
:10130000883A09F09ACF84E080938A0310926703A9
:1013100010926603E091B203F091B30319958091A6
:10132000660381110FC081E080936603109246032B
:1013300009C0803C09F4A6CF883C09F4A3CF883BC0
:1013400009F07BCFE091670381E08E0F8093670304
:10135000F0E0EA5BFC4F80818093BB0090916703D3
:101360008091660329C08091AF038093BB0085EC18
:101370008093BC0062CF9091AE038091AD0398172B
:1013800058F5E091AE0381E08E0F8093AE03F0E05C
:10139000E357FC4F8081E9CFE091AE0381E08E0FEF
:1013A0008093AE038091BB00F0E0E357FC4F808355
:1013B0009091AE038091AD039817C8F285E8D8CF1D
:1013C000E091AE0381E08E0F8093AE038091BB006D
:1013D000F0E0E357FC4F808380918C0381115CCF58
:1013E00081E080938B0384EA8093BC0010928A038F
:1013F00024CF85EC8093BC0010928A0380918803EF
:10140000803230F4E0918803F0E0E859FC4F10821C
:101410006091880370E0E091B003F091B10388E639
:1014200093E019951092880308CF1092890334CF66
:10143000EBE0F4E01382128288EE93E0A0E0B0E0EB
:1014400084839583A683B78322E232E031832083AD
:1014500025EC30E03587248724EC30E03787268779
:1014600020EC30E0318B208B21EC30E0338B228B71
:1014700022EC30E0358B248B26EC30E0378B268B4A
:10148000118E128E138E148EE8EAF4E0138212820B
:1014900084839583A683B78384E392E091838083DA
:1014A00080910E0290910F02092E000CAA0BBB0B2B
:1014B0008093C4049093C504A093C604B093C7045A
:1014C00080910C0290910D02092E000CAA0BBB0B0F
:1014D0008093C0049093C104A093C204B093C3044A
:1014E000E4EBF4E01382128286E492E0918380833D
:1014F00087E2848384E1818784E08287138608956C
:10150000CF93DF93CDB7DEB76B970FB6F894DEBFFE
:101510000FBECDBF789484B5826084BD84B58160F0
:1015200084BD85B5826085BD85B5816085BD8091AE
:101530006E00816080936E00109281008091810026
:10154000826080938100809181008160809381001E
:10155000809180008160809380008091B1008460E0
:101560008093B1008091B00081608093B000809141
:1015700091008260809391008091910081608093BE
:101580009100809190008160809390008091A100F3
:1015900082608093A1008091A10081608093A1006E
:1015A0008091A00081608093A000809121018260E1
:1015B000809321018091210181608093210180919C
:1015C000200181608093200180917A008460809363
:1015D0007A0080917A00826080937A0080917A000C
:1015E000816080937A0080917A00806880937A008D
:1015F0001092C1000E94EB026B017C0161E086E168
:101600000E944C0261E087E10E944C0261E088E1A7
:101610000E944C0261E089E10E944C0261E08AE193
:101620000E944C0261E08BE10E944C0260E085E286
:101630000E944C0260E083E20E944C0260E082E281
:101640000E944C0260E081E20E944C0260E080E275
:101650000E944C0260E08FE10E944C0260E08EE14B
:101660000E944C0260E086E30E944C0260E087E347
:101670000E944C0260E088E30E944C021092B70383
:101680001092B6031092B5031092B4030E94540452
:1016900087EF92E09093B3038093B20388EF92E0D8
:1016A0009093B1038093B0031092B9048091BE046B
:1016B000823018F098E09093B9048093BC0462E300
:1016C00070E080E090E00E94B9026091BF0484EB7A
:1016D00094E00E94190568EE73E080E090E00E94BB
:1016E000B90260E384EB94E00E945F060BE416E429
:1016F000C8010197F1F760E384EB94E00E945F0674
:10170000C8010197F1F760E384EB94E00E945F0663
:1017100083E592E00197F1F760E284EB94E00E94A8
:101720005F066091B904606240E084EB94E00E943F
:10173000780684E08093BA0440E06CE084EB94E0A7
:101740000E94780640E061E084EB94E00E94780615
:101750000BE31FE1C8010197F1F792E0B92EB092B7
:10176000BB0440E066E084EB94E00E94780640E031
:1017700062E084EB94E00E947806C8010197F1F7DB
:1017800088E08093BF0460E084EB94E00E94190538
:10179000C092F003D092F103E092F203F092F303CF
:1017A000E0911B04F0911C04B082E0911704F091C9
:1017B00018041082E0911904F0911A048FEC8083D0
:1017C00010922304E0911F04F091200486E08083AE
:1017D000E0911D04F0911E04808180618083E0917E
:1017E0001D04F0911E04808188608083E0911D04B7
:1017F000F0911E04808180688083E0911D04F09147
:101800001E0480818F7D8083C092D803D092D9033B
:10181000E092DA03F092DB031092D1031092D60328
:101820001092CC031092CD031092CE031092CF03EE
:10183000C092D203D092D303E092D403F092D503A6
:10184000D092FB03C092FA038E010F5F1F4F28EE68
:10185000822E23E0922EA12CB12CE091C803F091AE
:10186000C903E830F10508F0EFC08827E55CF34FC5
:101870008F4F0C942114430C7E0CBE0CE50CD11040
:10188000FF103D11661161E088E10E941E0261E0D7
:1018900089E10E941E0260E08AE10E941E0260E06F
:1018A00086E10E941E0260E087E10E941E0260E065
:1018B0008BE10E941E020E94EB02C090F003D090C8
:1018C000F103E090F203F090F3036C197D098E09A7
:1018D0009F09C090C404D090C504E090C604F09065
:1018E000C7046C157D058E059F0508F4ADC081E029
:1018F00090E09093C9038093C8039CC00E94EB02C0
:10190000C090F003D090F103E090F203F090F30365
:101910006C197D098E099F09653671058105910550
:10192000F8F0E090B803F090B90388E10E94F50167
:1019300061E0892B09F060E088E10E941E022FEF30
:10194000E21AF20AF092B903E092B8030E94EB02A5
:101950006093F0037093F1038093F2039093F30389
:101960008091B8039091B90307970CF46DC0109261
:10197000B9031092B80382E090E0BBCF61E087E149
:101980000E941E0260E088E10E941E020E94EB029B
:10199000C090F003D090F103E090F203F090F303D5
:1019A0006C197D098E099F09C0900802D090090228
:1019B000E0900A02F0900B02C616D706E806F90678
:1019C00008F042C083E090E094CF61E086E10E949D
:1019D0001E0260E087E10E941E0261E08AE10E942F
:1019E0001E0260E08BE10E941E0260E089E10E941D
:1019F0001E020E94EB02C090F003D090F103E09031
:101A0000F203F090F3036C197D098E099F09C090D1
:101A10000802D0900902E0900A02F0900B02C6166C
:101A2000D706E806F90680F444E050E05093C90375
:101A30004093C8030E94EB026093F0037093F1039C
:101A40008093F2039093F30385E20E94F5012091C5
:101A5000BF03211136C00197A1F581E08093BE0339
:101A60008093D703C090F003D090F103E090F2038D
:101A7000F090F3030E94EB024090C4045090C50420
:101A80006090C6047090C704C40CD51CE61CF71CFB
:101A9000C61AD70AE80AF90A99EBC9169BE0D906D3
:101AA000E104F10490F088EB482E8BE0582E612C75
:101AB000712C4092C4045092C5046092C604709286
:101AC000C7048091BE038823A9F18091C803909137
:101AD000C903892B79F50E94EB026093BA037093D6
:101AE000BB038093BC039093BD0381E08093BF034D
:101AF0008091C0049091C104A091C204B091C3042C
:101B000090930D0280930C02805F984DAF4FBF4FB2
:101B10008093C0049093C104A093C204B093C30403
:101B20001092BE0360E080E00E948F068EE492E097
:101B30000E9452068091BF03882309F463C00E946B
:101B4000EB02C090BA03D090BB03E090BC03F090CE
:101B5000BD039B01AC012C193D094E095F096901C8
:101B60007A01A091B803B091B90324E630E00E9455
:101B700029144090C0045090C1046090C204709039
:101B8000C304640D751D861D971D4090080250907A
:101B9000090260900A0270900B02460E571E681EE2
:101BA000791E4C145D046E047F0460F51092BF032F
:101BB00080910C0290910D02092E000CAA0BBB0B18
:101BC0008093C0049093C104A093C204B093C30453
:101BD00080910E0290910F02092E000CAA0BBB0BF4
:101BE0008093C4049093C504A093C604B093C70423
:101BF0001092D70360E080E00E948F0683E692E0B7
:101C00000E9452060E94EB022B013C018091D203FC
:101C10009091D303A091D403B091D50373016201D5
:101C2000C81AD90AEA0AFB0AD701C6010B97A1050F
:101C3000B10508F45BC08091D703811157C0309083
:101C4000C6034092D2035092D3036092D4037092A1
:101C5000D50383E20E94F5017C019093EF0380930A
:101C6000EE0382E20E94F5016C019093ED038093F4
:101C7000EC0381E20E94F5019093EB038093EA0369
:101C8000EC0CFD1CE80EF91E83E090E08E199F0914
:101C9000181619065CF52091C703211127C03110D1
:101CA00029C04091C2035091C3036091C403709155
:101CB000C50373016201C41AD50AE60AF70AB7011F
:101CC000A601493B5B406105710508F44EC01092C6
:101CD000D60321E02093C6039093C1038093C003F1
:101CE0002093D70390930302809302028091C6034E
:101CF0008823D9F18091C8039091C903892BA9F554
:101D000081E08093C7031092C6038091C404909130
:101D1000C504A091C604B091C70490930F028093AC
:101D20000E028053984FAF4FBF4F8093C4049093DF
:101D3000C504A093C604B093C70461E080E00E948C
:101D40008F0688E792E00E9452068091C00390912E
:101D5000C1030E94C7068EE792E00E94520680915E
:101D60000202909103020E94C7068091C703882354
:101D7000C9F08091000290910102892B99F4809121
:101D8000C8039091C903892B69F080910202909158
:101D900003020197181619060CF0ABC290930302C8
:101DA000809302022090C8033090C9033092010250
:101DB000209200020E94EB022B013C018091D20391
:101DC0009091D303A091D403B091D5037301620124
:101DD000C81AD90AEA0AFB0AD701C6010B97A1055E
:101DE000B10508F45BC08091D703811157C0D09032
:101DF000D003DB8E4092D2035092D3036092D4037F
:101E00007092D50380E20E94F5017C019093E90372
:101E10008093E8038FE10E94F5016C019093E70342
:101E20008093E6038EE10E94F5019093E503809391
:101E3000E403EC0CFD1CE80EF91E83E090E08E1923
:101E40009F091816190654F52091D103211126C0B7
:101E5000EB8CE11027C04091CC035091CD036091F1
:101E6000CE037091CF0373016201C41AD50AE60A4A
:101E7000F70AB701A60149355B416105710508F410
:101E80004AC021E02093D0039093CB038093CA03F0
:101E90002093D70390930702809306028091D0038A
:101EA0008823C9F134E023163104A9F581E0809339
:101EB000D1031092D0038091C0049091C104A091ED
:101EC000C204B091C30490930D0280930C0280531E
:101ED000984FAF4FBF4F8093C0049093C104A0931D
:101EE000C204B093C30461E080E00E948F0688E7DB
:101EF00092E00E9452068091CA039091CB030E9407
:101F0000C7068EE792E00E945206809106029091E9
:101F100007020E94C706809104029091050204976F
:101F200041F481E02091C8033091C9032430310588
:101F300009F480E09091D103992379F0882369F026
:101F400080910602909107020197181619060CF06D
:101F5000FBC190930702809306028091C803909181
:101F6000C90390930502809304020E94EB02C09083
:101F7000D803D090D903E090DA03F090DB032B0173
:101F80003C014C185D086E087F087301620121ED69
:101F9000C21627E0D206E104F10430F12091D70304
:101FA000211122C06093D8037093D9038093DA0380
:101FB0009093DB0387E30E947D027C019093F703FB
:101FC0008093F60386E30E947D029093F903809349
:101FD000F8033CE3E316F1040CF0E1C1CC970CF0FC
:101FE000DEC181E08093D6038091DC03811109C0BA
:101FF00067E772E085E094E00E94010881E0809349
:10200000DC038BE094E00E945703181619060CF0CD
:1020100035C28BE094E00E9435038A3009F024C277
:102020008091090490910A04892B09F416C2C0908A
:102030000504D09006046AE370E0C6010E944716CA
:10204000009709F40AC27C01EC18FD084FEFE41672
:10205000F40609F402C2A70170E060E0CE014596E3
:102060000E94AE074091090450910A04B7016F5FC6
:102070007F4FCE010F960E94AE078F8598890097FB
:1020800009F490C10E947F137B016AE872E0C801E5
:102090000E940108898D9A8D2D813E81D12C821755
:1020A000930751F4DD24D394892B31F0B801CE018C
:1020B00045960E940A07D82EC8010E940207DD201B
:1020C00009F474C1C7010F2C000CAA0BBB0B809341
:1020D000C4049093C504A093C604B093C704F092BF
:1020E0000F02E0920E0263E080E00E948F0683E61A
:1020F00092E00E94520663E080E00E948F061A86FA
:1021000019861C861B861E861D866D897E89611533
:10211000710531F0498D5A8DCE0109960E948307D1
:1021200041E050E068E872E0CE0109960E945C0749
:10213000811104C0CE0109960E94F0064AE0B80160
:10214000C7010E94A613F80101900020E9F731971A
:10215000AF01401B510BB801CE0109960E945C07EC
:10216000811104C0CE0109960E94F0064D855E855E
:1021700069857A8584EB94E00E94F902CE01099684
:102180000E94020767E772E085E094E00E94A407DE
:10219000CE010F960E940207CE0145960E940207CB
:1021A00030CF60E08AE10E941E0261E08BE10E9474
:1021B0001E020E94EB02C090F003D090F103E09069
:1021C000F203F090F3036C197D098E099F09C0900A
:1021D000C004D090C104E090C204F090C304C616BD
:1021E000D706E806F90608F02FCC8091D60388239D
:1021F00019F087E090E07DCB85E090E07ACB0E94FB
:10220000EB02C090F003D090F103E090F203F09065
:10221000F3036C197D098E099F09653671058105E7
:102220009105E8F08091B8039091B90301969093DD
:10223000B9038093B8030E94EB026093F00370939C
:10224000F1038093F2039093F3038BE10E94F50175
:1022500061E0892B09F060E08BE10E941E02809111
:10226000B8039091B90307970CF4EECB1092B90321
:102270001092B80386E090E03CCB60E08BE10E94D6
:102280001E0261E08AE10E941E020E94EB02C090E1
:10229000F003D090F103E090F203F090F3036C1997
:1022A0007D098E099F09C0900802D0900902E09034
:1022B0000A02F0900B02C616D706E806F90608F0E7
:1022C000C3CB1092C9031092C803B4CB61E08BE179
:1022D0000E941E0261E086E10E941E028091D603E8
:1022E0008111B2CB84E090E09093C9038093C8033E
:1022F000ABCB83E090E090930302809302021092B4
:10230000C7031092D7034092C2035092C303609256
:10231000C4037092C50380910E0290910F02092EA2
:10232000000CAA0BBB0B8093C4049093C504A0932C
:10233000C604B093C70461E080E00E948F0683E684
:1023400092E00E9452062ECD83E090E09093070227
:10235000809306021092D1031092D7034092CC03CF
:102360005092CD036092CE037092CF0380910C0205
:1023700090910D02092E000CAA0BBB0B8093C00498
:102380009093C104A093C204B093C30461E080E0C1
:102390000E948F0685E692E00E945206DECD1092E2
:1023A000D60322CE60E070E0CB016ECE65E972E02C
:1023B000C8010E940108898D9A8D2D813E81821766
:1023C000930751F4DD24D394892B31F0B801CE0169
:1023D00045960E940A07D82EC8010E940207DD20F8
:1023E00091F0C7010F2C000CAA0BBB0B8093C0040B
:1023F0009093C104A093C204B093C304F0920D0261
:10240000E0920C0270CE60EA72E0C8010E940108FE
:10241000898D9A8D2D813E818217930751F4DD2499
:10242000D394892B31F0B801CE0145960E940A075A
:10243000D82EC8010E940207DD2009F454CEC7013E
:102440000F2C000CAA0BBB0B80930802909309027F
:10245000A0930A02B0930B0246CE67E772E085E0D4
:1024600094E00E94A407CDCD89831A8241E050E018
:10247000B80185E094E00E945C07C3CD0E94EB02A6
:102480002091FA033091FB03DB01A21BB30B9D01EA
:10249000213D374008F430C17093FB036093FA0389
:1024A00086E30E947D029093F9038093F80387E30B
:1024B0000E947D029093F7038093F60388E30E94C5
:1024C0007D029093F5038093F40388E30E947D02DC
:1024D00083E20E94F5019093EF038093EE0382E282
:1024E0000E94F5019093ED038093EC0381E20E943A
:1024F000F5019093EB038093EA0380E20E94F501DB
:102500009093E9038093E8038FE10E94F501909393
:10251000E7038093E6038EE10E94F5019093E503C3
:102520008093E40360E080E00E948F068BEA92E0F3
:102530000E94520661E080E00E948F0680EC92E0EB
:102540000E94520662E080E00E948F0684ED92E0D5
:102550000E94520663E080E00E948F0689EE92E0BE
:102560000E94520660E085E00E948F068091F80389
:102570009091F9030E94C70661E085E00E948F06F2
:102580008091F6039091F7030E94C70662E085E010
:102590000E948F068091F4039091F5030E94C70674
:1025A000C090F003D090F103E090F203F090F303B9
:1025B0000E94EB02AB01BC018091C4049091C50460
:1025C000A091C604B091C7048C0D9D1DAE1DBF1D0A
:1025D0002C013D01441A550A660A770AC301B2016B
:1025E000A50194010E94FF13722E632E542E452ED6
:1025F0000E94EB022091C0043091C1044091C204BA
:102600005091C304C20ED31EE41EF51EA70196010D
:10261000261B370B480B590BCA01B901A5019401C0
:102620000E94FF13E22ED32EF42EC52E63E083E02A
:102630000E948F06672D762D852D942D683E33E000
:1026400073078105910520F067EE73E080E090E06C
:102650004AE00E94040663E088E00E948F066E2D27
:102660007D2D8F2D9C2D683E43E0740781059105DB
:1026700020F067EE73E080E090E04AE00E940406FC
:1026800061E08FE00E948F068091EE039091EF034E
:102690000E94C70661E081E10E948F068091EC03F1
:1026A0009091ED030E94C70661E083E10E948F06CE
:1026B0008091EA039091EB030E94C70663E08FE0EC
:1026C0000E948F068091E8039091E9030E94C7065B
:1026D00063E081E10E948F068091E6039091E70319
:1026E0000E94C70663E083E10E948F068091E403A5
:1026F0009091E5030E94C7060E94FC03AEC81F9399
:10270000FC0199278827BC01E89411911032E9F364
:10271000193010F01E30C8F31B3251F01D3249F44D
:10272000689406C00E94B113610F711D811D911D37
:10273000119110531A30B0F33EF490958095709536
:1027400061957F4F8F4F9F4F1F910895BB274A3050
:1027500031F4992322F4BDE2909581959F4F0C941A
:10276000C713592F482F372F262F660F771F881F23
:10277000991F660F771F881F991F620F731F841F91
:10278000951F660F771F881F991F0895BB27FB01B0
:102790005527AA27880F991FAA1FA41710F0A41B5A
:1027A00083955051B9F7A05DAA3308F0A95DA193B4
:1027B000009779F7B111B1931192CB010C94E0130A
:1027C000DC01FC01672F71917723E1F7329704C098
:1027D0007C916D9370836291AE17BF07C8F3089523
:1027E000A29FB001B39FC001A39F700D811D112452
:1027F000911DB29F700D811D1124911D0895A1E2BC
:102800001A2EAA1BBB1BFD010DC0AA1FBB1FEE1F6A
:10281000FF1FA217B307E407F50720F0A21BB30BB5
:10282000E40BF50B661F771F881F991F1A9469F731
:1028300060957095809590959B01AC01BD01CF018D
:102840000895EE0FFF1F881F8BBF0790F691E02DB4
:1028500019940E94F013B7FF0895821B930B0895FB
:102860000F931F93CF93DF938230910510F482E092
:1028700090E0E091CA04F091CB0430E020E0B0E0B9
:10288000A0E0309799F42115310509F44AC0281BBE
:10289000390B24303105D8F58A819B81611571058A
:1028A00089F1FB0193838283FE0111C04081518134
:1028B0000281138148175907E0F04817590799F426
:1028C000109761F012960C93129713961C93329600
:1028D000CF01DF91CF911F910F9108950093CA040A
:1028E0001093CB04F4CF2115310551F04217530753
:1028F00038F0A901DB019A01BD01DF01F801C1CF68
:10290000EF01F9CF9093CB048093CA04CDCFFE01A1
:10291000E20FF31F81939193225031093983288369
:10292000D7CF2091C8043091C904232B41F42091C2
:102930001202309113023093C9042093C8042091ED
:102940001002309111022115310541F42DB73EB727
:102950004091140250911502241B350BE091C804DC
:10296000F091C904E217F307A0F42E1B3F0B2817C0
:10297000390778F0AC014E5F5F4F2417350748F0F8
:102980004E0F5F1F5093C9044093C80481939193E5
:102990009FCFF0E0E0E09CCFCF93DF930097E9F08A
:1029A000FC01329713821282A091CA04B091CB0429
:1029B000ED0130E020E01097A1F420813181820FF9
:1029C000931F2091C8043091C9042817390709F0D2
:1029D00061C0F093C904E093C804DF91CF910895DA
:1029E000EA01CE17DF07E8F54A815B819E014115B8
:1029F0005105B1F7E901FB83EA8349915991C40F6D
:102A0000D51FEC17FD0761F4808191810296840F38
:102A1000951FE90199838883828193819B838A83AF
:102A2000F0E0E0E012968D919C9113970097B9F534
:102A30002D913C911197CD010296820F931F209109
:102A4000C8043091C9042817390739F6309751F571
:102A50001092CB041092CA04B093C904A093C80486
:102A6000BCCFD383C28340815181840F951FC81787
:102A7000D90761F44E5F5F4F88819981480F591FD4
:102A8000518340838A819B81938382832115310501
:102A900009F0B0CFF093CB04E093CA049ECFFD01C0
:102AA000DC01C0CF13821282D7CF4F925F926F9218
:102AB0007F928F929F92AF92BF92CF92DF92EF92CE
:102AC000FF920F931F93CF93DF938C01009799F49C
:102AD000CB01DF91CF911F910F91FF90EF90DF908D
:102AE000CF90BF90AF909F908F907F906F905F90AE
:102AF0004F900C943014FC01E60FF71F9C012250FC
:102B00003109E217F30708F4AEC0D901CD91DC9189
:102B10001197C617D70720F1C530D10578F0CE013F
:102B200004978617970750F0C61BD70B2297C193BF
:102B3000D1936D937C93CF010E94CC14C801DF9197
:102B4000CF911F910F91FF90EF90DF90CF90BF90AA
:102B5000AF909F908F907F906F905F904F9008956F
:102B60005B01AC1ABD0A4C018C0E9D1EA091CA04DB
:102B7000B091CB04512C412CF12CE12C109731F564
:102B80008091C8049091C9048815990509F05CC02A
:102B90004616570608F058C0809110029091110215
:102BA000009741F48DB79EB74091140250911502E1
:102BB000841B950BE817F90708F055C0F093C9047A
:102BC000E093C804F90171836083B8CF8D919C9123
:102BD000119712966C90129713967C901397A815E4
:102BE000B90559F56C0142E0C40ED11CCA14DB04CE
:102BF00020F1AC014A195B09DA011296159780F0B1
:102C00006282738251834083D9016D937C93E11476
:102C1000F10471F0D7011396FC93EE9312978ECFC7
:102C200022968C0F9D1FF90191838083F301EFCFD2
:102C3000F093CB04E093CA0481CF4816590608F4F8
:102C40002C017D01D3019ACFCB010E9430147C016D
:102C5000009749F0AE01B8010E943E16C8010E94DB
:102C6000CC1487016BCF10E000E068CF911108957C
:102C700081548A5108F4805E855A0895FB01DC0175
:102C800002C001900D9241505040D8F70895FC01C8
:102C90008191861721F08823D9F7992708953197D4
:102CA000CF010895FB01DC0101900D920020E1F7B6
:062CB0000895F894FFCF27
:102CB600FFFF0300FFFF0300F4010000D007D00769
:102CC6000000CC0480000000400014005400000006
:102CD60000008F03F9022603DC035703350349037B
:102CE60000000000EA04BD0401069304B604A30430
:102CF600940400000000C106F902010600065065B2
:102D0600646573747269616E312063726F7373697F
:102D16006E67002020202020202020202020202038
:102D260020202020202020005072696F2000205390
:102D3600656E736F72732D433A00677265656E54E4
:102D4600696D653100677265656E54696D6532003F
:102D560079656C6C6F7754696D65004C445231200F
:102D6600202020202020434E5920312032203300BD
:102D76004C445232202020202020202020202020B9
:102D860020202000434F32202020202020202043D6
:102D96004E59203420352036004C312020204C322C
:0E2DA60020202020202020202020202000009F
:00000001FF
