:100000000C945B010C948C010C948C010C948C016D
:100010000C948C010C948C010C948C010C948C012C
:100020000C948C010C948C010C948C010C948C011C
:100030000C948C010C948C010C948C010C948C010C
:100040000C948C010C948C010C948C010C948C01FC
:100050000C948C010C948C010C948C010C9457081A
:100060000C948C010C94CB080C94A1080C948C017A
:100070000C948C010C948C010C948C010C948C01CC
:100080000C948C010C948C010C948C010C948C01BC
:100090000C948C010C948C010C948C010C9401092F
:1000A0000C948C010C948C010C948C010C948C019C
:1000B0000C948C010C948C010C948C010C948C018C
:1000C0000C948C010C948C010C948C010C948C017C
:1000D0000C948C010C948C010C948C010C948C016C
:1000E0000C948C010C94CE0C0C9494040C94250A62
:1000F0000C94F7020C94B6010C94D9010C94A3044F
:100100000C946D110C948E0C0C9435030C94F80225
:100110000C94B6040C94E3010C94C7010C94BD0438
:100120000C94BA010C94C1010C94EC010C94B20132
:100130000C94DF010C9426030C9493040C94490353
:100140000C94F1010C94530C0C94AC010C94BE0172
:100150000C949C060C9402110C94F9020C94DC0390
:100160000C94CB010C94ED010C94D1010C9401067C
:100170000C94D4100C9400060C94EA040C945703CD
:100180000C9444110C94E7010C948F030C94F50C1F
:100190000C94D50100002100240027002A002D0026
:1001A0003000330001010000040107010A010000D2
:1001B0002200250028002B002E003100340002010F
:1001C0000000050108010B010000200023002600AB
:1001D00029002C002F00320000010000030106015D
:1001E00009010505050507050808080802020202BD
:1001F0000A0A0808040404040101010101010101C3
:100200000303030303030303040707070C0C0C0C8D
:100210000C0C0C0C02020202060606060606060676
:100220000B0B0B0B0B0B0B0B010210202008081003
:100230002040102040800201020108040201010256
:10024000040810204080804020100804020180042F
:10025000020180402010080402010804020101028A
:100260000408102040800102040810204080000093
:100270000A0B02090C0D0E08070304010000000020
:10028000000000000000000000000000000000006E
:10029000000000000000000000001211100000002B
:1002A000000000000000000000000000000000004E
:1002B00000000000250A11241FBECFEFD1E2DEBFEF
:1002C000CDBF00E00CBF24E0A2E0B3E001C01D926E
:1002D000A23DB207E1F713E0A0E0B2E0EAE7FDE2F9
:1002E00000E00BBF02C007900D92A230B107D9F712
:1002F00011E0CBE5D1E000E006C021970109802F95
:10030000FE010E948314CA35D10780E00807A9F7CF
:100310000E94930A0C94BB160C9400008150823109
:1003200008F05AC0E82FF0E08827E656FE4F8F4FBE
:100330000C948314BA01BE01AC01B201B601EC0108
:10034000C101C701CB01D101D501D901DF01E30111
:10035000EC01E701ED01F101809180008F7780933E
:1003600080000895809180008F7DF9CF809180007A
:10037000877FF5CF84B58F7784BD089584B58F7D51
:10038000FBCF8091B0008F778093B000089580916B
:10039000B0008F7DF9CF809190008F77809390008F
:1003A0000895809190008F7DF9CF80919000877F94
:1003B000F5CF8091A0008F778093A0000895809161
:1003C000A0008F7DF9CF8091A000877FF5CF80912D
:1003D00020018F77809320010895809120018F7DE7
:1003E000F9CF80912001877FF5CFCF93DF93282F1E
:1003F00030E0F901E259FD4F8491F901E85DFD4FCC
:10040000D491F901EE51FE4FC491CC23A1F081119A
:100410000E948E01EC2FF0E0EE0FFF1FE853FE4F1D
:10042000A591B491EC91ED2381E090E009F480E096
:10043000DF91CF91089580E090E0FACF1F93CF93A2
:10044000DF93282F30E0F901E259FD4F8491F90143
:10045000E85DFD4FD491F901EE51FE4FC491CC23DC
:10046000A9F0162F81110E948E01EC2FF0E0EE0F03
:10047000FF1FE255FE4FA591B4918FB7F894EC9110
:10048000111108C0D095DE23DC938FBFDF91CF918F
:100490001F910895DE2BF8CFCF93DF9390E0FC01FE
:1004A000E85DFD4F24918E519E4FFC01849188237D
:1004B000D1F090E0880F991FFC01EC56FE4FA591FA
:1004C000B491FC01E255FE4FC591D49161110EC06B
:1004D0009FB7F8948C91E22FE0958E238C9328811E
:1004E000E223E8839FBFDF91CF9108958FB7F894FF
:1004F000EC91E22BEC938FBFF6CF90917B00977F2E
:1005000090937B008653806480937C0080917A0076
:10051000806480937A0080917A0086FDFCCF809180
:1005200078009091790008953FB7F8948091050480
:1005300090910604A0910704B091080426B5A89BE9
:1005400005C02F3F19F00196A11DB11D3FBFBA2F65
:10055000A92F982F8827BC01CD01620F711D811D25
:10056000911D42E0660F771F881F991F4A95D1F7AA
:1005700008958F929F92AF92BF92CF92DF92EF92A7
:10058000FF924B015C010E9494026B017C010E946E
:1005900094026C197D098E099F09683E734081059C
:1005A0009105A8F321E0821A9108A108B10888EE0C
:1005B000C80E83E0D81EE11CF11C81149104A10433
:1005C000B10429F7FF90EF90DF90CF90BF90AF90EC
:1005D0009F908F9008952FB7F894609101047091C7
:1005E000020480910304909104042FBF089508959C
:1005F0000895AF92BF92CF92DF92EF92FF920F9346
:100600001F93CF93DF936C017B018B01040F151FA8
:10061000EB015E01AE18BF08C017D10759F0699110
:10062000D601ED91FC910190F081E02DC601199564
:10063000892B79F7C501DF91CF911F910F91FF9021
:10064000EF90DF90CF90BF90AF900895FC01538D55
:10065000448D252F30E0842F90E0821B930B54179C
:1006600010F0CF96089501970895FC01918D828D29
:10067000981761F0A28DAE0FBF2FB11D5D968C91C2
:10068000928D9F5F9F73928F90E008958FEF9FEF01
:100690000895FC01918D828D981731F0828DE80FBD
:1006A000F11D858D90E008958FEF9FEF0895FC0177
:1006B000918D228D892F90E0805C9F4F821B910944
:1006C0008F73992708958FE094E00E94570321E0EB
:1006D000892B09F420E0822F0895FC01A48DA80F36
:1006E000B92FB11DA35ABF4F2C91848D90E0019674
:1006F0008F739927848FA689B7892C93A089B18994
:100700008C91837080648C93938D848D981306C034
:100710000288F389E02D80818F7D80830895EF9298
:10072000FF920F931F93CF93DF93EC0181E0888FAB
:100730009B8D8C8D98131AC0E889F989808185FF7B
:1007400015C09FB7F894EE89FF896083E889F9891D
:1007500080818370806480839FBF81E090E0DF911F
:10076000CF911F910F91FF90EF900895F62E0B8D72
:1007700010E00F5F1F4F0F731127E02E8C8D8E112D
:100780000CC00FB607FCFACFE889F989808185FF94
:10079000F5CFCE010E946D03F1CFEB8DEC0FFD2F55
:1007A000F11DE35AFF4FF0829FB7F8940B8FEA894F
:1007B000FB8980818062CFCFCF93DF93EC01888D5E
:1007C0008823B9F0AA89BB89E889F9898C9185FDCC
:1007D00003C0808186FD0DC00FB607FCF7CF8C915A
:1007E00085FFF2CF808185FFEDCFCE010E946D03A2
:1007F000E9CFDF91CF91089580E090E0892B29F037
:100800000E94630381110E94000080E090E0892B28
:1008100049F080E090E0892B29F00E9400008111CE
:100820000E94000080E090E0892B49F080E090E099
:10083000892B29F00E94000081110E94000080E0B5
:1008400090E0892B49F080E090E0892B29F00E940C
:10085000000081110C940000089520916A03260F76
:100860003327331F21323105ECF420918E03FC0134
:1008700090E080E0243069F082E00895A0916A035E
:100880002191AC01465B5C4FA40FB52FB11D2C9399
:100890000196861798F380916A03680F60936A0344
:1008A00080E0089581E0089510928E0381E08093A6
:1008B000900310928F0361E084E10E941E0261E0C8
:1008C00085E10E941E02E9EBF0E080818E7F80834B
:1008D00080818D7F808388E48093B80085E4809355
:1008E000BC000895CF93DF9391E090934903882350
:1008F000B9F0C091B800D091BA008091BC008A7B59
:100900008093BC0060E084E10E941E0260E085E10B
:100910000E941E020E945404D093BA00C093B800F3
:10092000DF91CF9108950895E091BB038091BA03C0
:10093000E81730F4F0E0EC5DFC4F808190E0089522
:100940008FEF9FEF08959091BB038091BA032FEF33
:100950003FEF981748F4E92FF0E0EC5DFC4F208161
:1009600030E09F5F9093BB03C90108958091BA0363
:100970009091BB03891B990B0895CF92DF92EF9260
:10098000FF920F931F93CF93DF937C01CB018A01DA
:1009900020912303222389F0EB016B01C40ED51EA5
:1009A000CC15DD0569F06991D701ED91FC910190BD
:1009B000F081E02DC7011995F3CF642F0E942D041B
:1009C000C801DF91CF911F910F91FF90EF90DF90C1
:1009D000CF900895CF93DF931F92CDB7DEB7698391
:1009E000209123032223F9F02091B803203258F0FC
:1009F00021E030E0FC013383228390E080E00F901F
:100A0000DF91CF9108958091B903E82FF0E0ED5F79
:100A1000FC4F998190838F5F8093B9038093B803D3
:100A200081E090E0ECCF61E0CE0101960E942D04C0
:100A3000F7CFCF92DF92EF92FF920F931F93CF9356
:100A4000DF93FC01C48121E020932303C0930203C0
:100A50001092B9031092B8038385682B8CEA94E056
:100A60000E94EA04D091B803D13208F092C00E94EB
:100A700094026B017C0180918E03811165C082E03C
:100A800080938E0381E0809390038FEF80938D039A
:100A90001092B203D093B103A3E0B3E0E1E9F3E035
:100AA00080E0D81385C01092B3038091B303CC0FBC
:100AB000C82BC093B30380918F03813009F07CC0B1
:100AC00010928F030E9494026B017C018091B3030A
:100AD0008093BB008091450390914603A09147030A
:100AE000B0914803892B8A2B8B2B99F00E9494029A
:100AF000009145031091460320914703309148032C
:100B00006C197D098E099F090617170728073907F1
:100B1000E0F18091BC0083FDD9CF85EC8093BC00CF
:100B20000E9494026B017C0180918E03823009F453
:100B300045C080918D038F3F61F180918D0380329C
:100B400041F180918D0325C080914503909146032A
:100B5000A0914703B0914803892B8A2B8B2B09F472
:100B60008ACF0E9494020091450310914603209180
:100B70004703309148036C197D098E099F090617B8
:100B800017072807390708F076CF809144030E94A1
:100B900072041092B9031092B80310922303DF91EC
:100BA000CF911F910F91FF90EF90DF90CF9008951C
:100BB0009D9191938F5F75CF85EEB0CF8091450366
:100BC00090914603A0914703B0914803892B8A2B4B
:100BD0008B2B09F4A9CF0E94940200914503109138
:100BE000460320914703309148036C197D098E0913
:100BF0009F09061717072807390708F095CFC5CFB3
:100C0000089590E080E008950E94EB027093FF0346
:100C10006093FE0380EA9FE09093C5048093C40430
:100C200008958F929F92AF92BF920F931F93CF938D
:100C3000DF93CDB7DEB7A1970FB6F894DEBF0FBE36
:100C4000CDBF19A2423008F44AE08E010F5D1F4F5C
:100C5000842E912CB12CA12CA50194010E94421448
:100C6000E62FB901CA01EA3044F5E05DD801EE9300
:100C70008D01232B242B252B79F790E080E0109712
:100C800069F0FD0101900020E9F73197AF014A1B9F
:100C90005B0BBD0188EB94E00E94F902A1960FB6B0
:100CA000F894DEBF0FBECDBFDF91CF911F910F91A2
:100CB000BF90AF909F908F900895E95CD7CFFC01D3
:100CC00001900020E9F73197AF01481B590BBC0197
:100CD00088EB94E00C94F9020F931F93CF938C014F
:100CE000C62F0E9419056C2F6460C8010E94190567
:100CF0006C2F6B7FC8010E94190583EC90E001976F
:100D0000F1F7CF911F910F9108950F931F93CF93F8
:100D1000DF938C01D62FC42F607F642B0E946C065A
:100D200080E1D89FB00111246C2BC801DF91CF91D5
:100D30001F910F910C946C0641E00E94850681E0A2
:100D400090E00895CF92DF92EF92FF926C01990F9D
:100D5000EE08FF08F7FE16C041E06DE288EB94E074
:100D60000E94850666277727CB016C197D098E09BD
:100D70009F094AE00E9411060196FF90EF90DF90D4
:100D8000CF9008954AE0C701B601FF90EF90DF9041
:100D9000CF900C941106CF93DF9300D000D01F9218
:100DA0001F92CDB7DEB798E0E6E1F2E0DE011196E2
:100DB00001900D929A95E1F79091C004961710F466
:100DC0006FEF690F262F30E0220F331F41E050E014
:100DD0004C0F5D1F240F351FF9016081680F60689B
:100DE00040E088EB94E028960FB6F894DEBF0FBE83
:100DF000CDBFDF91CF910C948506CF93DF93EC01AB
:100E000088819981009711F00E942E15198218820D
:100E10001D821C821B821A82DF91CF910895FC01F2
:100E200080819181009711F00C942E150895EF9216
:100E3000FF920F931F93CF93DF93FC0100811181E9
:100E4000FB01C081D181F80181918F018823B9F024
:100E5000082E000C990B0E9498167C018991082E8F
:100E6000000C990B0E949816E816F90661F380E0D1
:100E7000DF91CF911F910F91FF90EF90089581E046
:100E8000F7CF0F931F93CF93DF93EC018881998164
:100E9000009759F02A813B812617370730F081E00F
:100EA000DF91CF911F910F9108958B016F5F7F4F5D
:100EB0000E94B715009759F0998388831B830A8392
:100EC0002C813D81232B59F7FC011082E8CF80E073
:100ED000E7CFEF92FF920F931F93CF93DF934115CC
:100EE0005105B1F07B01EC010C811D81040F151F30
:100EF000B8010E944107882361F0288139818C81E3
:100F00009D81B701820F931F0E94B4161D830C832D
:100F100081E0DF91CF911F910F91FF90EF900895A5
:100F2000EF92FF920F931F93CF93DF93EC017B011E
:100F30008A01BA010E94410781110BC0CE010E94B3
:100F4000FD06CE01DF91CF911F910F91FF90EF90A1
:100F500008951D830C83B701888199810E94B4167E
:100F6000F0CFFB0101900020E9F73197AF01461B5C
:100F7000570B0C949007CF92DF92EF92FF920F9352
:100F80001F93CF93DF93EC016B017A01461757074C
:100F900020F48D2D6A01E62EF82E198218821B820C
:100FA0001A821D821C8250E040E06AEA72E0CE01A3
:100FB0000E94900700910D0410910E04C016D106F6
:100FC00000F5E016F10608F48701E0910904F091BC
:100FD0000A04E00FF11FF080108260910904709103
:100FE0000A046C0D7D1DCE0161157105A1F00E94F2
:100FF000B1078091090490910A04080F191FF801A4
:10100000F082CE01DF91CF911F910F91FF90EF9071
:10101000DF90CF9008950E94FD06EBCFFC01118276
:1010200010821382128215821482FB01019000202B
:10103000E9F73197AF01461B570B0C94900785EDEC
:101040008093BC008091450390914603A091470393
:10105000B09148030796A11DB11D23E0B695A79551
:10106000979587952A95D1F72091BC0024FD03C060
:1010700010928E030895409145035091460360916C
:10108000470370914803452B462B472B69F3009784
:10109000A105B10541F02AE22A95F1F700C00197B8
:1010A000A109B109E1CF809144030C9472041F920D
:1010B0000F920FB60F9211242F933F938F939F930C
:1010C000AF93BF938091010490910204A091030417
:1010D000B09104043091000423E0230F2D3758F51C
:1010E0000196A11DB11D20930004809301049093EB
:1010F0000204A0930304B09304048091050490912A
:101100000604A0910704B09108040196A11DB11D29
:101110008093050490930604A0930704B0930804F9
:10112000BF91AF919F918F913F912F910F900FBEE3
:101130000F901F90189526E8230F0296A11DB11D50
:10114000D2CF1F920F920FB60F9211240BB60F92AF
:101150002F933F934F935F936F937F938F939F93BF
:10116000AF93BF93EF93FF938FE094E00E946D03E2
:10117000FF91EF91BF91AF919F918F917F916F916F
:101180005F914F913F912F910F900BBE0F900FBE2B
:101190000F901F9018951F920F920FB60F92112467
:1011A0000BB60F922F938F939F93EF93FF93E09142
:1011B0001F04F09120048081E0912504F091260421
:1011C00082FD1DC09081809128048F5F8F732091D4
:1011D0002904821741F0E0912804F0E0E15FFB4F21
:1011E000958F80932804FF91EF919F918F912F917C
:1011F0000F900BBE0F900FBE0F901F90189580811F
:10120000F2CF1F920F920FB60F9211240BB60F92CE
:101210002F933F934F935F936F937F938F939F93FE
:10122000AF93BF93EF93FF938091B900887F80368F
:1012300009F44DC008F040C0883209F4A9C028F56F
:10124000803109F49DC0C8F4882309F4FBC08830BC
:1012500009F496C0FF91EF91BF91AF919F918F914B
:101260007F916F915F914F913F912F910F900BBEA6
:101270000F900FBE0F901F901895883109F488C009
:10128000803241F780938D0314C0803409F49DC0EF
:1012900040F48033B9F38833E9F680938D0385EC0D
:1012A000B0C0803509F485C0883509F496C088340B
:1012B00089F60E941F08CECF883909F48CC038F512
:1012C000883729F050F4883611F0803719F683E01A
:1012D00080938E0310928C0357C0883809F47BC02A
:1012E000803919F0803809F0B5CF80918C038032B5
:1012F00008F071C0E0918C0381E08E0F80938C0325
:101300008091BB00F0E0E459FC4F80833DC0803BFE
:1013100039F0E0F4803A09F479C0883A09F09ACFBC
:1013200084E080938E0310926B0310926A03E09125
:10133000B603F091B703199580916A0381110FC02C
:1013400081E080936A0310924A0309C0803C09F44B
:10135000A6CF883C09F4A3CF883B09F07BCFE0916E
:101360006B0381E08E0F80936B03F0E0E65BFC4F34
:1013700080818093BB0090916B0380916A0329C0A8
:101380008091B3038093BB0085EC8093BC0062CF57
:101390009091B2038091B103981758F5E091B20390
:1013A00081E08E0F8093B203F0E0EF56FC4F808116
:1013B000E9CFE091B20381E08E0F8093B203809178
:1013C000BB00F0E0EF56FC4F80839091B203809118
:1013D000B1039817C8F285E8D8CFE091B20381E055
:1013E0008E0F8093B2038091BB00F0E0EF56FC4F6C
:1013F00080838091900381115CCF81E080938F0383
:1014000084EA8093BC0010928E0324CF85EC8093F5
:10141000BC0010928E0380918C03803230F4E091F6
:101420008C03F0E0E459FC4F108260918C0370E073
:10143000E091B403F091B5038CE693E01995109216
:101440008C0308CF10928D0334CFEFE0F4E01382C9
:10145000128288EE93E0A0E0B0E084839583A683B7
:10146000B78322E232E03183208325EC30E03587F8
:10147000248724EC30E03787268720EC30E0318B5E
:10148000208B21EC30E0338B228B22EC30E0358B4B
:10149000248B26EC30E0378B268B118E128E138E28
:1014A000148EECEAF4E01382128284839583A6837F
:1014B000B78384E392E09183808380910E029091C0
:1014C0000F02092E000CAA0BBB0B8093CA04909349
:1014D000CB04A093CC04B093CD0480910C029091E6
:1014E0000D02092E000CAA0BBB0B8093C60490932F
:1014F000C704A093C804B093C90488EE93E0909306
:10150000C5048093C404E8EBF4E01382128286E4FD
:1015100092E09183808387E2848384E1818784E001
:10152000828713860895CF93DF93CDB7DEB76E978A
:101530000FB6F894DEBF0FBECDBF789484B582603D
:1015400084BD84B5816084BD85B5826085BD85B567
:10155000816085BD80916E00816080936E001092E5
:101560008100809181008260809381008091810060
:1015700081608093810080918000816080938000F1
:101580008091B10084608093B1008091B00081604F
:101590008093B0008091910082608093910080914F
:1015A0009100816080939100809190008160809390
:1015B00090008091A10082608093A1008091A100A1
:1015C00081608093A1008091A00081608093A00041
:1015D00080912101826080932101809121018160AD
:1015E000809321018091200181608093200180916E
:1015F0007A00846080937A0080917A008260809380
:101600007A0080917A00816080937A0080917A00DC
:10161000806880937A001092C1000E94EB026B01F7
:101620007C0161E086E10E944C0261E087E10E945A
:101630004C0261E088E10E944C0261E089E10E9475
:101640004C0261E08AE10E944C0261E08BE10E9461
:101650004C0260E085E20E944C0260E083E20E945E
:101660004C0260E082E20E944C0260E081E20E9453
:101670004C0260E080E20E944C0260E08FE10E9438
:101680004C0260E08EE10E944C0260E086E30E9422
:101690004C0260E087E30E944C0260E088E30E9415
:1016A0004C021092BB031092BA031092B90310922D
:1016B000B8030E94540487EF92E09093B70380939D
:1016C000B60388EF92E09093B5038093B403109231
:1016D000BD048091C204823018F098E09093BD045C
:1016E0008093C00462E370E080E090E00E94B90261
:1016F0006091C30488EB94E00E94190568EE73E0E2
:1017000080E090E00E94B90260E388EB94E00E94E0
:101710006C060BE416E4C8010197F1F760E388EB6F
:1017200094E00E946C06C8010197F1F760E388EB32
:1017300094E00E946C0683E592E00197F1F760E285
:1017400088EB94E00E946C066091BD04606240E00A
:1017500088EB94E00E94850684E08093BE0440E01C
:101760006CE088EB94E00E94850640E061E088EB45
:1017700094E00E9485060BE31FE1C8010197F1F791
:1017800082E0B82EB092BF0440E066E088EB94E0BF
:101790000E94850640E062E088EB94E00E948506A6
:1017A000C8010197F1F788E08093C30460E088EBFB
:1017B00094E00E941905C092E603D092E703E092FC
:1017C000E803F092E903E0911F04F0912004B08255
:1017D000E0911B04F0911C041082E0911D04F09133
:1017E0001E048FEC808310922704E0912304F09173
:1017F000240486E08083E0912104F091220480811A
:1018000080618083E0912104F091220480818860CE
:101810008083E0912104F09122048081806880839C
:10182000E0912104F091220480818F7D8083C09219
:10183000D803D092D903E092DA03F092DB0310923E
:10184000D1031092D6031092CC031092CD031092C4
:10185000CE031092CF03C092D203D092D303E09272
:10186000D403F092D503D092FF03C092FE0394E01C
:10187000292E312C8E010F5F1F4FE091E403F09170
:10188000E503E830F10508F0EDC08827E55BF34F8C
:101890008F4F0C948314530C8E0CCE0CF50CD4107B
:1018A000021144116D1161E088E10E941E0261E0A5
:1018B00089E10E941E0260E08AE10E941E0260E04F
:1018C00086E10E941E0260E087E10E941E0260E045
:1018D0008BE10E941E020E94EB02C090E603D090B2
:1018E000E703E090E803F090E9036C197D098E09A5
:1018F0009F09C090CA04D090CB04E090CC04F09033
:10190000CD046C157D058E059F0508F4ABC081E004
:1019100090E09093E5038093E4039AC00E94EB0269
:10192000C090E603D090E703E090E803F090E9036D
:101930006C197D098E099F09653671058105910530
:10194000F8F0E090EA03F090EB0388E10E94F501E3
:1019500061E0892B09F060E088E10E941E022FEF10
:10196000E21AF20AF092EB03E092EA030E94EB0221
:101970006093E6037093E7038093E8039093E90391
:101980008091EA039091EB0307970CF46BC01092DF
:10199000EB031092EA0382E090E0BBCF61E087E1C5
:1019A0000E941E0260E088E10E941E020E94EB027B
:1019B000C090E603D090E703E090E803F090E903DD
:1019C0006C197D098E099F09C0900802D090090208
:1019D000E0900A02F0900B02C616D706E806F90658
:1019E00008F040C083E090E094CF61E086E10E947F
:1019F0001E0260E087E10E941E0261E08AE10E940F
:101A00001E0260E08BE10E941E0260E089E10E94FC
:101A10001E020E94EB02C090E603D090E703E09024
:101A2000E803F090E9036C197D098E099F09C090C5
:101A30000802D0900902E0900A02F0900B02C6164C
:101A4000D706E806F90670F43092E5032092E40325
:101A50000E94EB026093E6037093E7038093E80330
:101A60009093E90385E20E94F5012091C1032111C1
:101A700034C0019791F581E08093C0038093D70330
:101A8000C090E603D090E703E090E803F090E9030C
:101A90000E94EB028090CA049090CB04A090CC04EA
:101AA000B090CD04C80CD91CEA1CFB1CC61AD70A7E
:101AB000E80AF90A59EBC5165BE0D506E104F10422
:101AC00080F088EB9BE0A0E0B0E08093CA049093A4
:101AD000CB04A093CC04B093CD048091C0038823A1
:101AE000B9F18091E4039091E503892B89F50E9477
:101AF000EB026093BC037093BD038093BE0390938D
:101B0000BF0381E08093C1038091C6049091C70414
:101B1000A091C804B091C90490930D0280930C0267
:101B2000805F984DAF4FBF4F8093C6049093C7041A
:101B3000A093C804B093C9041092C00360E080E091
:101B40000E94CB068EE492E00E945F060E9404068B
:101B50008091C103882309F45BC00E94EB02C0900E
:101B6000BC03D090BD03E090BE03F090BF034B01D7
:101B70005C018C189D08AE08BF0875016401A09136
:101B8000EA03B091EB0324E630E00E948B148090CE
:101B9000C6049090C704A090C804B090C904680D12
:101BA000791D8A1D9B1D8090080290900902A090CB
:101BB0000A02B0900B02860E971EA81EB91E8C1446
:101BC0009D04AE04BF0420F51092C10380910C0265
:101BD00090910D02092E000CAA0BBB0B8093C6043A
:101BE0009093C704A093C804B093C90480910E02D7
:101BF00090910F02092E000CAA0BBB0B8093CA0414
:101C00009093CB04A093CC04B093CD041092D7034F
:101C10000E94EB024B015C018091D2039091D303AF
:101C2000A091D403B091D50375016401C81AD90AF3
:101C3000EA0AFB0AD701C6010B97A105B10508F412
:101C40005BC08091D703811157C07090C803809208
:101C5000D2039092D303A092D403B092D50383E22F
:101C60000E94F5017C019093F7038093F60382E2D2
:101C70000E94F5016C019093F5038093F40381E2D7
:101C80000E94F5019093F3038093F203EC0CFD1C8A
:101C9000E80EF91E83E090E08E199F0918161906C8
:101CA0005CF52091C903211127C0711029C0409112
:101CB000C4035091C5036091C6037091C7037501B9
:101CC0006401C41AD50AE60AF70AB701A601493B1E
:101CD0005B406105710508F450C01092D60321E005
:101CE0002093C8039093C3038093C2032093D70328
:101CF00090930302809302028091C8038823E9F144
:101D00008091E4039091E503892BB9F581E08093FC
:101D1000C9031092C8038091CA049091CB04A0918A
:101D2000CC04B091CD0490930F0280930E028053A7
:101D3000984FAF4FBF4F8093CA049093CB04A093AA
:101D4000CC04B093CD0461E080E00E94CB0683E632
:101D500092E00E945F068091C2039091C3030E94AB
:101D6000A20689E692E00E945F06809102029091AD
:101D700003020E94A2060E940406C090E403D090D1
:101D8000E5038091C9038823B1F08091000290910E
:101D90000102892B81F4C114D10469F080910202FF
:101DA000909103020197181619060CF0A7C29093A0
:101DB000030280930202D0920102C09200020E94AC
:101DC000EB022B013C018091D2039091D303A091AF
:101DD000D403B091D50353014201881A990AAA0A83
:101DE000BB0AD501C4010B97A105B10508F459C080
:101DF0008091D703811155C09090D0034092D203B7
:101E00005092D3036092D4037092D50380E20E9473
:101E1000F5017C019093F1038093F0038FE10E9420
:101E2000F5015C019093EF038093EE038EE10E9435
:101E3000F5019093ED038093EC03EA0CFB1CE80E94
:101E4000F91E83E090E08E199F09181619064CF5CB
:101E50002091D103211125C0911027C04091CC03BE
:101E60005091CD036091CE037091CF035301420195
:101E7000841A950AA60AB70AB501A40149355B413F
:101E80006105710508F44CC021E02093D0039093C4
:101E9000CB038093CA032093D703909307028093C8
:101EA00006028091D0038823D9F134E0C316D1040F
:101EB000B9F581E08093D1031092D0038091C604DC
:101EC0009091C704A091C804B091C90490930D02E9
:101ED00080930C028053984FAF4FBF4F8093C6043E
:101EE0009093C704A093C804B093C90461E080E054
:101EF0000E94CB0683E692E00E945F068091CA03AF
:101F00009091CB030E94A20689E692E00E945F06B0
:101F100080910602909107020E94A2060E94040688
:101F20002091E4033091E503809104029091050231
:101F3000049721F481E02430310509F480E0909188
:101F4000D103992379F0882369F08091060290915A
:101F500007020197181619060CF0F3C190930702B7
:101F60008093060230930502209304020E94EB0244
:101F7000C090D803D090D903E090DA03F090DB034F
:101F80004B015C018C189D08AE08BF087501640107
:101F900021EDC21627E0D206E104F10430F12091D0
:101FA000D703211122C06093D8037093D903809383
:101FB000DA039093DB0387E30E947D027C01909318
:101FC000FB038093FA0386E30E947D029093FD0356
:101FD0008093FC033CE3E316F1040CF0D5C1CC97ED
:101FE0000CF0D2C181E08093D6038091DC03811193
:101FF00009C06AEA72E089E094E00E940E0881E07C
:102000008093DC038FE094E00E94570318161906B2
:102010000CF029C28FE094E00E9435038A3009F069
:1020200018C280910D0490910E04892B09F40AC204
:10203000C0900904D0900A046AE370E0C6010E94CF
:10204000A916009709F4FEC17C01EC18FD084FEFBA
:10205000E416F40609F4F6C1A70170E060E0CE01D1
:1020600045960E94BB0740910D0450910E04B701A4
:102070006F5F7F4FCE010F960E94BB078F859889B7
:10208000009709F484C10E94C2137B0165E772E0E6
:10209000C8010E940E08898D9A8D2D813E81D12C18
:1020A0008217930751F4DD24D394892B31F0B801C2
:1020B000CE0145960E941707D82EC8010E940F072F
:1020C000DD2009F468C1C7010F2C000CAA0BBB0B63
:1020D0008093CA049093CB04A093CC04B093CD0416
:1020E000F0920F02E0920E0263E080E00E94CB06C5
:1020F00086E992E00E945F0663E080E00E94CB06E2
:102100001A8619861C861B861E861D866D897E8909
:102110006115710531F0498D5A8DCE0109960E94E5
:10212000900741E050E063E772E0CE0109960E941B
:102130006907811104C0CE0109960E94FD064AE09C
:10214000B801C7010E94E913F80101900020E9F7E6
:102150003197AF01401B510BB801CE0109960E9487
:102160006907811104C0CE0109960E94FD064D85C4
:102170005E8569857A8588EB94E00E94F902CE013C
:1021800009960E940F070E9404066AEA72E089E03D
:1021900094E00E94B107CE010F960E940F07CE0176
:1021A00045960E940F072ECF60E08AE10E941E0232
:1021B00061E08BE10E941E020E94EB02C090E603E8
:1021C000D090E703E090E803F090E9036C197D09F3
:1021D0008E099F09C090C604D090C704E090C8043F
:1021E000F090C904C616D706E806F90608F03ACCFE
:1021F0008091D603882319F087E090E08ACB85E0B0
:1022000090E087CB0E94EB02C090E603D090E703FA
:10221000E090E803F090E9036C197D098E099F09AD
:102220006536710581059105E8F08091EA0390918A
:10223000EB0301969093EB038093EA030E94EB0279
:102240006093E6037093E7038093E8039093E903B8
:102250008BE10E94F50161E0892B09F060E08BE1E0
:102260000E941E028091EA039091EB0307970CF401
:10227000F9CB1092EB031092EA0346E050E0509342
:10228000E5034093E403E4CB60E08BE10E941E028F
:1022900061E08AE10E941E020E94EB02C090E60308
:1022A000D090E703E090E803F090E9036C197D0912
:1022B0008E099F09C0900802D0900902E0900A029E
:1022C000F0900B02C616D706E806F90608F0CACB4E
:1022D0001092E5031092E403BBCB61E08BE10E9416
:1022E0001E0261E086E10E941E028091D6038111E8
:1022F000B9CB3092E5032092E403B4CB83E090E0C5
:1023000090930302809302021092C9031092D703A4
:102310008092C4039092C503A092C603B092C703F3
:1023200080910E0290910F02092E000CAA0BBB0B9C
:102330008093CA049093CB04A093CC04B093CD04B3
:102340003ACD83E090E090930702809306021092CA
:10235000D1031092D7034092CC035092CD036092E8
:10236000CE037092CF0380910C0290910D02092E42
:10237000000CAA0BBB0B8093C6049093C704A093D8
:10238000C804B093C904EECD1092D6032ECE60E0FF
:1023900070E0CB017ACE60E872E0C8010E940E08BE
:1023A000898D9A8D2D813E818217930751F4DD240A
:1023B000D394892B31F0B801CE0145960E941707BE
:1023C000D82EC8010E940F07DD2091F0C7010F2C05
:1023D000000CAA0BBB0B8093C6049093C704A09378
:1023E000C804B093C904F0920D02E0920C027CCEB6
:1023F0006BE872E0C8010E940E08898D9A8D2D81CC
:102400003E818217930751F4DD24D394892B31F058
:10241000B801CE0145960E941707D82EC8010E9428
:102420000F07DD2009F460CEC7010F2C000CAA0BAA
:10243000BB0B8093080290930902A0930A02B09309
:102440000B0252CE6AEA72E089E094E00E94B10782
:10245000D9CD89831A8241E050E0B80189E094E047
:102460000E946907CFCD0E94EB022091FE033091BC
:10247000FF03DB01A21BB30B4091C4045091C504C0
:102480004A175B0708F05BC17093FF036093FE037C
:1024900088EE93E09093C5048093C40486E30E9481
:1024A0007D029093FD038093FC0387E30E947D02ED
:1024B0009093FB038093FA0388E30E947D0290933C
:1024C000F9038093F80388E30E947D0283E20E946F
:1024D000F5019093F7038093F60382E20E94F501E1
:1024E0009093F5038093F40381E20E94F5019093A9
:1024F000F3038093F20380E20E94F5019093F103CD
:102500008093F0038FE10E94F5019093EF03809395
:10251000EE038EE10E94F5019093ED038093EC03AE
:1025200060E080E00E94CB068BEA92E00E945F06AA
:1025300061E080E00E94CB0680EC92E00E945F06A2
:1025400062E080E00E94CB0684ED92E00E945F068C
:1025500063E080E00E94CB0689EE92E00E945F0675
:1025600060E085E00E94CB068091FC039091FD0322
:102570000E94A20661E085E00E94CB068091FA03EA
:102580009091FB030E94A20662E085E00E94CB06C8
:102590008091F8039091F9030E94A206A091EA03AA
:1025A000B091EB0324E630E00E948B146B017C01B8
:1025B0008090CA049090CB04A090CC04B090CD043D
:1025C0002091C6043091C7044091C8045091C904B9
:1025D0002B8F3C8F4D8F5E8F0E94EB024090E60365
:1025E0005090E7036090E8037090E9039B01AC0111
:1025F000241935094609570929013A018091E40354
:102600009091E50363E0009709F09CC083E00E948D
:10261000CB068C0C9D1CAE1CBF1CC501B4016951BE
:102620007C4F8F4F9F4F641975098609970997FF53
:1026300003C060E070E0CB0128EE33E040E050E002
:102640000E946414CA01B9014AE00E9411068091F7
:10265000E4039091E50363E08430910509F082C0C2
:1026600088E00E94CB068B8C9C8CAD8CBE8CC80CF9
:10267000D91CEA1CFB1CC701B60169517C4F8F4F66
:102680009F4F641975098609970997FF03C060E099
:1026900070E0CB0128EE33E040E050E00E9464148B
:1026A000CA01B9014AE00E9411068091E4039091A9
:1026B000E503079741F463E088E00E94CB068FEFC3
:1026C00092E00E945F0661E08FE00E94CB0680915D
:1026D000F6039091F7030E94A20661E081E10E9457
:1026E000CB068091F4039091F5030E94A20661E06D
:1026F00083E10E94CB068091F2039091F3030E9444
:10270000A20663E08FE00E94CB068091F0039091D7
:10271000F1030E94A20663E081E10E94CB06809152
:10272000EE039091EF030E94A20663E083E10E9412
:10273000CB068091EC039091ED030E94A2060E94CB
:10274000FC039BC8019741F483E00E94CB068DEF08
:1027500092E00E945F067BCF83E00E94CB0688EA6E
:1027600092E0F7CF059741F488E00E94CB068DEF09
:1027700092E00E945F0699CF88E00E94CB0688EA2B
:1027800092E0F7CF1F93FC0199278827BC01E894BA
:1027900011911032E9F3193010F01E30C8F31B32DA
:1027A00051F01D3249F4689406C00E94F413610F81
:1027B000711D811D911D119110531A30B0F33EF41B
:1027C00090958095709561957F4F8F4F9F4F1F918A
:1027D0000895BB274A3031F4992322F4BDE2909545
:1027E00081959F4F0C940A14592F482F372F262F6D
:1027F000660F771F881F991F660F771F881F991F05
:10280000620F731F841F951F660F771F881F991F04
:102810000895BB27FB015527AA27880F991FAA1FD8
:10282000A41710F0A41B83955051B9F7A05DAA33EB
:1028300008F0A95DA193009779F7B111B1931192B6
:10284000CB010C942314DC01FC01672F71917723D9
:10285000E1F7329704C07C916D9370836291AE175B
:10286000BF07C8F30895A29FB001B39FC001A39F03
:10287000700D811D1124911DB29F700D811D1124B9
:10288000911D0895A1E21A2EAA1BBB1BFD010DC0CC
:10289000AA1FBB1FEE1FFF1FA217B307E407F50710
:1028A00020F0A21BB30BE40BF50B661F771F881FEC
:1028B000991F1A9469F760957095809590959B0182
:1028C000AC01BD01CF010895052E97FB1EF40094C5
:1028D0000E947B1457FD07D00E94421407FC03D0CE
:1028E0004EF40C947B1450954095309521953F4FB4
:1028F0004F4F5F4F089590958095709561957F4FEC
:102900008F4F9F4F0895EE0FFF1F881F8BBF0790BB
:10291000F691E02D19940E943314B7FF0895821B9D
:10292000930B08950F931F93CF93DF9382309105FC
:1029300010F482E090E0E091D004F091D10430E016
:1029400020E0B0E0A0E0309799F42115310509F4BA
:102950004AC0281B390B24303105D8F58A819B8168
:102960006115710589F1FB0193838283FE0111C01A
:10297000408151810281138148175907E0F04817BF
:10298000590799F4109761F012960C9312971396C9
:102990001C933296CF01DF91CF911F910F91089533
:1029A0000093D0041093D104F4CF2115310551F0D8
:1029B0004217530738F0A901DB019A01BD01DF017D
:1029C000F801C1CFEF01F9CF9093D1048093D004E7
:1029D000CDCFFE01E20FF31F819391932250310975
:1029E00039832883D7CF2091CE043091CF04232B75
:1029F00041F420911202309113023093CF042093BE
:102A0000CE0420911002309111022115310541F4BC
:102A10002DB73EB74091140250911502241B350B7F
:102A2000E091CE04F091CF04E217F307A0F42E1B3F
:102A30003F0B2817390778F0AC014E5F5F4F241722
:102A4000350748F04E0F5F1F5093CF044093CE04DC
:102A5000819391939FCFF0E0E0E09CCFCF93DF9301
:102A60000097E9F0FC01329713821282A091D00402
:102A7000B091D104ED0130E020E01097A1F4208165
:102A80003181820F931F2091CE043091CF042817FB
:102A9000390709F061C0F093CF04E093CE04DF91D1
:102AA000CF910895EA01CE17DF07E8F54A815B81EF
:102AB0009E0141155105B1F7E901FB83EA83499174
:102AC0005991C40FD51FEC17FD0761F480819181E6
:102AD0000296840F951FE9019983888382819381EF
:102AE0009B838A83F0E0E0E012968D919C9113978E
:102AF0000097B9F52D913C911197CD010296820F67
:102B0000931F2091CE043091CF042817390739F64E
:102B1000309751F51092D1041092D004B093CF04A5
:102B2000A093CE04BCCFD383C28340815181840F54
:102B3000951FC817D90761F44E5F5F4F888199814F
:102B4000480F591F518340838A819B8193838283DD
:102B50002115310509F0B0CFF093D104E093D004F2
:102B60009ECFFD01DC01C0CF13821282D7CF4F92DE
:102B70005F926F927F928F929F92AF92BF92CF920D
:102B8000DF92EF92FF920F931F93CF93DF938C010D
:102B9000009799F4CB01DF91CF911F910F91FF9096
:102BA000EF90DF90CF90BF90AF909F908F907F90ED
:102BB0006F905F904F900C949214FC01E60FF71FFA
:102BC0009C0122503109E217F30708F4AEC0D90185
:102BD000CD91DC911197C617D70720F1C530D105EB
:102BE00078F0CE0104978617970750F0C61BD70BD5
:102BF0002297C193D1936D937C93CF010E942E15A0
:102C0000C801DF91CF911F910F91FF90EF90DF905E
:102C1000CF90BF90AF909F908F907F906F905F907C
:102C20004F9008955B01AC1ABD0A4C018C0E9D1E9D
:102C3000A091D004B091D104512C412CF12CE12C65
:102C4000109731F58091CE049091CF0488159905A5
:102C500009F05CC04616570608F058C08091100273
:102C600090911102009741F48DB79EB740911402E4
:102C700050911502841B950BE817F90708F055C011
:102C8000F093CF04E093CE04F90171836083B8CF51
:102C90008D919C91119712966C90129713967C903F
:102CA0001397A815B90559F56C0142E0C40ED11C63
:102CB000CA14DB0420F1AC014A195B09DA0112964F
:102CC000159780F06282738251834083D9016D939E
:102CD0007C93E114F10471F0D7011396FC93EE9309
:102CE00012978ECF22968C0F9D1FF90191838083BE
:102CF000F301EFCFF093D104E093D00481CF4816D5
:102D0000590608F42C017D01D3019ACFCB010E9412
:102D100092147C01009749F0AE01B8010E94A01600
:102D2000C8010E942E1587016BCF10E000E068CF2C
:102D30009111089581548A5108F4805E855A08954E
:102D4000FB01DC0102C001900D9241505040D8F7C8
:102D50000895FC018191861721F08823D9F79927DE
:102D600008953197CF010895FB01DC0101900D9288
:0A2D70000020E1F70895F894FFCF6A
:102D7A00FFFF0300FFFF0300F4010000D007D007A4
:102D8A000000D2048000000040001400540000003B
:102D9A0000008F03F9022603DC03570335034903B6
:102DAA0000000000EA04BD0401069304B604A3046B
:102DBA009404000000009C06F90201060006506512
:102DCA00646573747269616E312063726F737369BB
:102DDA006E67005072696F20002053656E736F72C0
:102DEA00732D433A00677265656E54696D653100EB
:102DFA00677265656E54696D65320079656C6C6FD2
:102E0A007754696D65002020202020202020202072
:102E1A0020202020202020202020004C4452312035
:102E2A00202020202020434E5920312032203300F8
:102E3A004C445232202020202020202020202020F4
:102E4A0020202000434F3220202020202020204311
:102E5A004E59203420352036004C312020204C3267
:102E6A002020202020202020202020200030004E5A
:022E7A0047000F
:00000001FF
