:100000000C945B010C948C010C948C010C948C016D
:100010000C948C010C948C010C948C010C948C012C
:100020000C948C010C948C010C948C010C948C011C
:100030000C948C010C948C010C948C010C948C010C
:100040000C948C010C948C010C948C010C948C01FC
:100050000C948C010C948C010C948C010C943C0736
:100060000C948C010C94B0070C9486070C948C01B2
:100070000C948C010C948C010C948C010C948C01CC
:100080000C948C010C948C010C948C010C948C01BC
:100090000C948C010C948C010C948C010C94E6074C
:1000A0000C948C010C948C010C948C010C948C019C
:1000B0000C948C010C948C010C948C010C948C018C
:1000C0000C948C010C948C010C948C010C948C017C
:1000D0000C948C010C948C010C948C010C948C016C
:1000E0000C948C010C94EC010C94F7020C943503E5
:1000F0000C94760B0C9441060C94E20F0C943A0B82
:100100000C9414100C9453100C948F030C94E7016E
:100110000C94940F0C94E3010C94F8020C94DC03FF
:100120000C94EA040C94C7010C94BA010C94B60127
:100130000C9449030C94B50F0C940A090C94B20169
:100140000C9493040C94C1010C9426030C94BD04EC
:100150000C94BE010C9457030C94F9020C94F10119
:100160000C94ED010C94AC010C94D5010C94940406
:100170000C94DF010C94A3040C94CB010C94B604F2
:100180000C9400060C9401060C94D1010C9474108C
:100190000C94D90100002100240027002A002D0022
:1001A0003000330001010000040107010A010000D2
:1001B0002200250028002B002E003100340002010F
:1001C0000000050108010B010000200023002600AB
:1001D00029002C002F00320000010000030106015D
:1001E00009010505050507050808080802020202BD
:1001F0000A0A0808040404040101010101010101C3
:100200000303030303030303040707070C0C0C0C8D
:100210000C0C0C0C02020202060606060606060676
:100220000B0B0B0B0B0B0B0B010210202008081003
:100230002040102040800201020108040201010256
:10024000040810204080804020100804020180042F
:10025000020180402010080402010804020101028A
:100260000408102040800102040810204080000093
:100270000A0B02090C0D0E08070304010000000020
:10028000000000000000000000000000000000006E
:10029000000000000000000000001211100000002B
:1002A000000000000000000000000000000000004E
:1002B000000000000A0911241FBECFEFD1E2DEBF0B
:1002C000CDBF00E00CBF12E0A0E0B2E0E8E1F2E256
:1002D00000E00BBF02C007900D92A03EB107D9F716
:1002E00024E0A0EEB2E001C01D92A03AB207E1F70F
:1002F00011E0CBE5D1E000E006C021970109802F95
:10030000FE010E94EC10CA35D10780E00807A9F76A
:100310000E9478090C940A110C94000081508231DB
:1003200008F05AC0E82FF0E08827E656FE4F8F4FBE
:100330000C94EC10BA01BE01AC01B201B601EC01A3
:10034000C101C701CB01D101D501D901DF01E30111
:10035000EC01E701ED01F101809180008F7780933E
:1003600080000895809180008F7DF9CF809180007A
:10037000877FF5CF84B58F7784BD089584B58F7D51
:10038000FBCF8091B0008F778093B000089580916B
:10039000B0008F7DF9CF809190008F77809390008F
:1003A0000895809190008F7DF9CF80919000877F94
:1003B000F5CF8091A0008F778093A0000895809161
:1003C000A0008F7DF9CF8091A000877FF5CF80912D
:1003D00020018F77809320010895809120018F7DE7
:1003E000F9CF80912001877FF5CFCF93DF93282F1E
:1003F00030E0F901E259FD4F8491F901E85DFD4FCC
:10040000D491F901EE51FE4FC491CC23A1F081119A
:100410000E948E01EC2FF0E0EE0FFF1FE853FE4F1D
:10042000A591B491EC91ED2381E090E009F480E096
:10043000DF91CF91089580E090E0FACF1F93CF93A2
:10044000DF93282F30E0F901E259FD4F8491F90143
:10045000E85DFD4FD491F901EE51FE4FC491CC23DC
:10046000A9F0162F81110E948E01EC2FF0E0EE0F03
:10047000FF1FE255FE4FA591B4918FB7F894EC9110
:10048000111108C0D095DE23DC938FBFDF91CF918F
:100490001F910895DE2BF8CFCF93DF9390E0FC01FE
:1004A000E85DFD4F24918E519E4FFC01849188237D
:1004B000D1F090E0880F991FFC01EC56FE4FA591FA
:1004C000B491FC01E255FE4FC591D49161110EC06B
:1004D0009FB7F8948C91E22FE0958E238C9328811E
:1004E000E223E8839FBFDF91CF9108958FB7F894FF
:1004F000EC91E22BEC938FBFF6CF90917B00977F2E
:1005000090937B008653806480937C0080917A0076
:10051000806480937A0080917A0086FDFCCF809180
:1005200078009091790008953FB7F8948091DD03A9
:100530009091DE03A091DF03B091E00326B5A89B64
:1005400005C02F3F19F00196A11DB11D3FBFBA2F65
:10055000A92F982F8827BC01CD01620F711D811D25
:10056000911D42E0660F771F881F991F4A95D1F7AA
:1005700008958F929F92AF92BF92CF92DF92EF92A7
:10058000FF924B015C010E9494026B017C010E946E
:1005900094026C197D098E099F09683E734081059C
:1005A0009105A8F321E0821A9108A108B10888EE0C
:1005B000C80E83E0D81EE11CF11C81149104A10433
:1005C000B10429F7FF90EF90DF90CF90BF90AF90EC
:1005D0009F908F9008952FB7F8946091D9037091F0
:1005E000DA038091DB039091DC032FBF0895089517
:1005F0000895AF92BF92CF92DF92EF92FF920F9346
:100600001F93CF93DF936C017B018B01040F151FA8
:10061000EB015E01AE18BF08C017D10759F0699110
:10062000D601ED91FC910190F081E02DC601199564
:10063000892B79F7C501DF91CF911F910F91FF9021
:10064000EF90DF90CF90BF90AF900895FC01538D55
:10065000448D252F30E0842F90E0821B930B54179C
:1006600010F0CF96089501970895FC01918D828D29
:10067000981761F0A28DAE0FBF2FB11D5D968C91C2
:10068000928D9F5F9F73928F90E008958FEF9FEF01
:100690000895FC01918D828D981731F0828DE80FBD
:1006A000F11D858D90E008958FEF9FEF0895FC0177
:1006B000918D228D892F90E0805C9F4F821B910944
:1006C0008F739927089581EE93E00E94570321E0EC
:1006D000892B09F420E0822F0895FC01A48DA80F36
:1006E000B92FB11DA35ABF4F2C91848D90E0019674
:1006F0008F739927848FA689B7892C93A089B18994
:100700008C91837080648C93938D848D981306C034
:100710000288F389E02D80818F7D80830895EF9298
:10072000FF920F931F93CF93DF93EC0181E0888FAB
:100730009B8D8C8D98131AC0E889F989808185FF7B
:1007400015C09FB7F894EE89FF896083E889F9891D
:1007500080818370806480839FBF81E090E0DF911F
:10076000CF911F910F91FF90EF900895F62E0B8D72
:1007700010E00F5F1F4F0F731127E02E8C8D8E112D
:100780000CC00FB607FCFACFE889F989808185FF94
:10079000F5CFCE010E946D03F1CFEB8DEC0FFD2F55
:1007A000F11DE35AFF4FF0829FB7F8940B8FEA894F
:1007B000FB8980818062CFCFCF93DF93EC01888D5E
:1007C0008823B9F0AA89BB89E889F9898C9185FDCC
:1007D00003C0808186FD0DC00FB607FCF7CF8C915A
:1007E00085FFF2CF808185FFEDCFCE010E946D03A2
:1007F000E9CFDF91CF91089580E090E0892B29F037
:100800000E94630381110E94000080E090E0892B28
:1008100049F080E090E0892B29F00E9400008111CE
:100820000E94000080E090E0892B49F080E090E099
:10083000892B29F00E94000081110E94000080E0B5
:1008400090E0892B49F080E090E0892B29F00E940C
:10085000000081110C940000089520914803260F98
:100860003327331F21323105ECF420916C03FC0156
:1008700090E080E0243069F082E00895A091480380
:100880002191AC01485D5C4FA40FB52FB11D2C9395
:100890000196861798F380914803680F6093480388
:1008A00080E0089581E0089510926C0381E08093C8
:1008B0006E0310926D0361E084E10E941E0261E00C
:1008C00085E10E941E02E9EBF0E080818E7F80834B
:1008D00080818D7F808388E48093B80085E4809355
:1008E000BC000895CF93DF9391E090932703882372
:1008F000B9F0C091B800D091BA008091BC008A7B59
:100900008093BC0060E084E10E941E0260E085E10B
:100910000E941E020E945404D093BA00C093B800F3
:10092000DF91CF9108950895E09199038091980304
:10093000E81730F4F0E0EE5FFC4F808190E008951E
:100940008FEF9FEF089590919903809198032FEF77
:100950003FEF981748F4E92FF0E0EE5FFC4F20815D
:1009600030E09F5F90939903C901089580919803A7
:1009700090919903891B990B0895CF92DF92EF9282
:10098000FF920F931F93CF93DF937C01CB018A01DA
:1009900020910103222389F0EB016B01C40ED51EC7
:1009A000CC15DD0569F06991D701ED91FC910190BD
:1009B000F081E02DC7011995F3CF642F0E942D041B
:1009C000C801DF91CF911F910F91FF90EF90DF90C1
:1009D000CF900895CF93DF931F92CDB7DEB7698391
:1009E000209101032223F9F020919603203258F040
:1009F00021E030E0FC013383228390E080E00F901F
:100A0000DF91CF91089580919703E82FF0E0EF51A7
:100A1000FD4F998190838F5F809397038093960316
:100A200081E090E0ECCF61E0CE0101960E942D04C0
:100A3000F7CFCF92DF92EF92FF920F931F93CF9356
:100A4000DF93FC01C48121E020930103C093E00205
:100A500010929703109296038385682B8EE794E09B
:100A60000E94EA04D0919603D13208F092C00E940D
:100A700094026B017C0180916C03811165C082E05E
:100A800080936C0381E080936E038FEF80936B0300
:100A900010929003D0938F03A1EEB2E0EFE6F3E063
:100AA00080E0D81385C01092910380919103CC0F00
:100AB000C82BC093910380916D03813009F07CC0F5
:100AC00010926D030E9494026B017C01809191034E
:100AD0008093BB008091230390912403A091250370
:100AE000B0912603892B8A2B8B2B99F00E949402BC
:100AF00000912303109124032091250330912603B4
:100B00006C197D098E099F090617170728073907F1
:100B1000E0F18091BC0083FDD9CF85EC8093BC00CF
:100B20000E9494026B017C0180916C03823009F475
:100B300045C080916B038F3F61F180916B038032E0
:100B400041F180916B0325C0809123039091240390
:100B5000A0912503B0912603892B8A2B8B2B09F4B6
:100B60008ACF0E94940200912303109124032091C4
:100B70002503309126036C197D098E099F090617FC
:100B800017072807390708F076CF809122030E94C3
:100B90007204109297031092960310920103DF9152
:100BA000CF911F910F91FF90EF90DF90CF9008951C
:100BB0009D9191938F5F75CF85EEB0CF8091230388
:100BC00090912403A0912503B0912603892B8A2BB1
:100BD0008B2B09F4A9CF0E9494020091230310915A
:100BE000240320912503309126036C197D098E0979
:100BF0009F09061717072807390708F095CFC5CFB3
:100C0000089590E080E008950E94EB027093D7036E
:100C10006093D60380EA9FE09093970480939604B4
:100C200008950F931F93CF938C01C62F0E9419052F
:100C30006C2F6460C8010E9419056C2F6B7FC8017E
:100C40000E94190583EC90E00197F1F7CF911F9175
:100C50000F9108950F931F93CF93DF938C01D62F9D
:100C6000C42F607F642B0E94110680E1D89FB001E1
:100C700011246C2BC801DF91CF911F910F910C941F
:100C8000110641E00E942A0681E090E00895CF938A
:100C9000DF9300D000D01F921F92CDB7DEB798E04F
:100CA000ECE0F2E0DE01119601900D929A95E1F7E9
:100CB00090919204961710F46FEF690F262F30E091
:100CC000220F331F41E050E04C0F5D1F240F351FF2
:100CD000F9016081680F606840E08AE894E0289636
:100CE0000FB6F894DEBF0FBECDBFDF91CF910C944D
:100CF0002A06FB0101900020E9F73197AF01461B5E
:100D0000570BDC01ED91FC910280F381E02D1994E9
:100D10008F929F92AF92BF92CF92DF92EF92FF920B
:100D2000CF93DF93CDB7DEB7A1970FB6F894DEBFB0
:100D30000FBECDBF6C01990FEE08FF08F7FE40C053
:100D400041E06DE28AE894E00E942A0622273327D8
:100D5000A9012C193D094E095F0919A2CE018196FE
:100D60007C019AE0892E912CA12CB12CCA01B901E9
:100D7000A50194010E94CA10605DF70162937F0192
:100D8000211531054105510589F790E080E0309744
:100D900029F0BF018AE894E00E9479060196A196A5
:100DA0000FB6F894DEBF0FBECDBFDF91CF91FF909D
:100DB000EF90DF90CF90BF90AF909F908F9008956D
:100DC000A701960119A2CE0181967C018AE0882EA6
:100DD000912CA12CB12CCA01B901A50194010E944A
:100DE000CA10605DF70162937F012115310541054D
:100DF000510589F790E080E0309789F2BF018AE8D9
:100E000094E00E947906CBCF85ED8093BC00809161
:100E1000230390912403A0912503B0912603079604
:100E2000A11DB11D23E0B695A795979587952A95A5
:100E3000D1F72091BC0024FD03C010926C030895EB
:100E40004091230350912403609125037091260360
:100E5000452B462B472B69F30097A105B10541F0BF
:100E60002AE22A95F1F700C00197A109B109E1CF63
:100E7000809122030C9472041F920F920FB60F926E
:100E800011242F933F938F939F93AF93BF938091A0
:100E9000D9039091DA03A091DB03B091DC03309188
:100EA000D80323E0230F2D3758F50196A11DB11D5E
:100EB0002093D8038093D9039093DA03A093DB03A4
:100EC000B093DC038091DD039091DE03A091DF03FA
:100ED000B091E0030196A11DB11D8093DD039093B5
:100EE000DE03A093DF03B093E003BF91AF919F9126
:100EF0008F913F912F910F900FBE0F901F901895DB
:100F000026E8230F0296A11DB11DD2CF1F920F928A
:100F10000FB60F9211240BB60F922F933F934F935E
:100F20005F936F937F938F939F93AF93BF93EF9351
:100F3000FF9381EE93E00E946D03FF91EF91BF91CB
:100F4000AF919F918F917F916F915F914F913F9161
:100F50002F910F900BBE0F900FBE0F901F90189502
:100F60001F920F920FB60F9211240BB60F922F9370
:100F70008F939F93EF93FF93E091F103F091F2032E
:100F80008081E091F703F091F80382FD1DC090810C
:100F90008091FA038F5F8F732091FB03821741F0DA
:100FA000E091FA03F0E0EF51FC4F958F8093FA0344
:100FB000FF91EF919F918F912F910F900BBE0F900A
:100FC0000FBE0F901F9018958081F2CF1F920F9245
:100FD0000FB60F9211240BB60F922F933F934F939E
:100FE0005F936F937F938F939F93AF93BF93EF9391
:100FF000FF938091B900887F803609F44DC008F0D6
:1010000040C0883209F4A9C028F5803109F49DC098
:10101000C8F4882309F4FBC0883009F496C0FF9116
:10102000EF91BF91AF919F918F917F916F915F9160
:101030004F913F912F910F900BBE0F900FBE0F90CD
:101040001F901895883109F488C0803241F7809349
:101050006B0314C0803409F49DC040F48033B9F3AD
:101060008833E9F680936B0385ECB0C0803509F4D2
:1010700085C0883509F496C0883489F60E94040733
:10108000CECF883909F48CC038F5883729F050F470
:10109000883611F0803719F683E080936C03109244
:1010A0006A0357C0883809F47BC0803919F080384A
:1010B00009F0B5CF80916A03803208F071C0E091E9
:1010C0006A0381E08E0F80936A038091BB00F0E099
:1010D000E65BFC4F80833DC0803B39F0E0F4803A12
:1010E00009F479C0883A09F09ACF84E080936C03C0
:1010F0001092490310924803E0919403F0919503F4
:1011000019958091480381110FC081E080934803B5
:101110001092280309C0803C09F4A6CF883C09F44A
:10112000A3CF883B09F07BCFE091490381E08E0F8C
:1011300080934903F0E0E85DFC4F80818093BB0021
:10114000909149038091480329C080919103809335
:10115000BB0085EC8093BC0062CF9091900380919E
:101160008F03981758F5E091900381E08E0F8093DC
:101170009003F0E0E159FC4F8081E9CFE0919003CA
:1011800081E08E0F809390038091BB00F0E0E159E5
:10119000FC4F80839091900380918F039817C8F241
:1011A00085E8D8CFE091900381E08E0F8093900383
:1011B0008091BB00F0E0E159FC4F808380916E0389
:1011C00081115CCF81E080936D0384EA8093BC0041
:1011D00010926C0324CF85EC8093BC0010926C03BA
:1011E00080916A03803230F4E0916A03F0E0E65BBC
:1011F000FC4F108260916A0370E0E0919203F091DD
:1012000093038AE493E0199510926A0308CF109231
:101210006B0334CFE1EEF3E01382128288EE93E0A9
:10122000A0E0B0E084839583A683B78328E132E011
:101230003183208325EC30E03587248724EC30E0AF
:101240003787268720EC30E0318B208B21EC30E093
:10125000338B228B22EC30E0358B248B26EC30E074
:10126000378B268B118E128E138E148EEEE7F4E0E0
:101270001382128284839583A683B7838AE292E0E5
:101280009183808380910A0290910B02092E000CB9
:10129000AA0BBB0B80939C0490939D04A0939E0487
:1012A000B0939F048091080290910902092E000CCE
:1012B000AA0BBB0B8093980490939904A0939A0473
:1012C000B0939B0488EE93E09093970480939604E8
:1012D000EAE8F4E0138212828CE392E09183808347
:1012E00087E2848384E1818784E08287138608957E
:1012F000CF93DF9300D000D01F92CDB7DEB77894A4
:1013000084B5826084BD84B5816084BD85B582600A
:1013100085BD85B5816085BD80916E0081608093BB
:101320006E00109281008091810082608093810024
:101330008091810081608093810080918000816034
:10134000809380008091B10084608093B10080918F
:10135000B00081608093B0008091910082608093A2
:101360009100809191008160809391008091900024
:101370008160809390008091A10082608093A100A1
:101380008091A10081608093A1008091A000816084
:101390008093A0008091210182608093210180913F
:1013A00021018160809321018091200181608093DF
:1013B000200180917A00846080937A0080917A0085
:1013C000826080937A0080917A00816080937A00B5
:1013D00080917A00806880937A001092C1000E9408
:1013E000EB026B017C0161E086E10E944C0261E04E
:1013F00087E10E944C0261E088E10E944C0261E0BA
:1014000089E10E944C0261E08AE10E944C0261E0A5
:101410008BE10E944C0260E085E20E944C0260E099
:1014200083E20E944C0260E082E20E944C0260E093
:1014300081E20E944C0260E080E20E944C0260E087
:101440008FE10E944C0260E08EE10E944C0260E05D
:1014500086E30E944C0260E087E30E944C0260E059
:1014600088E30E944C021092990310929803109204
:101470009703109296030E94540487EF92E0909392
:1014800095038093940388EF92E090939303809365
:10149000920310928F0480919404823018F098E0A7
:1014A00090938F048093920462E370E080E090E078
:1014B0000E94B902609195048AE894E00E9419059F
:1014C00068EE73E080E090E00E94B90260E38AE891
:1014D00094E00E9411068BE496E40197F1F760E333
:1014E0008AE894E00E9411062BE436E4C9010197D2
:1014F000F1F760E38AE894E00E94110683E592E048
:101500000197F1F760E28AE894E00E941106609189
:101510008F04606240E08AE894E00E942A0684E03A
:101520008093900440E06CE08AE894E00E942A06F0
:1015300040E061E08AE894E00E942A068BE39FE1A4
:101540000197F1F712E01093910440E066E08AE819
:1015500094E00E942A0640E062E08AE894E00E945B
:101560002A06ABE3BFE11197F1F788E08093950479
:1015700060E08AE894E00E941905C092A003D0922E
:10158000A103E092A203F092A303E091F103F09192
:10159000F2031083E091ED03F091EE031082E091ED
:1015A000EF03F091F0038FEC80831092F903E09148
:1015B000F503F091F60386E08083E091F303F09168
:1015C000F403808180618083E091F303F091F40360
:1015D000808188608083E091F303F091F40380813F
:1015E00080688083E091F303F091F40380818F7D24
:1015F0008083C092BE03D092BF03E092C003F092FA
:10160000C1031092B7031092BC031092B203109260
:10161000B3031092B4031092B503C092B803D092F2
:10162000B903E092BA03F092BB03D092D703C09201
:10163000D60334E0232E312C03E010E048EB442E97
:101640004BE0542E612C712CE091AE03F091AF036E
:10165000E830F10508F099C08827EE5CF44F8F4F11
:101660000C94EC103A0B760B940FB50FE20F14109C
:101670005310741061E088E10E941E0261E089E16C
:101680000E941E0260E08AE10E941E0260E086E184
:101690000E941E0260E087E10E941E0260E08BE172
:1016A0000E941E020E94EB02C090A003D090A103F2
:1016B000E090A203F090A3036C197D098E099F09A5
:1016C000C0909C04D0909D04E0909E04F0909F04F4
:1016D0006C157D058E059F0508F457C0CC24C39476
:1016E000D12CD092AF03C092AE0345C00E94EB0252
:1016F000C090A003D090A103E090A203F090A303B8
:101700006C197D098E099F09653671058105910562
:1017100010F1E0909A03F0909B03FB82EA8288E14B
:101720000E94F50161E0892B09F060E088E10E94E8
:101730001E022A813B812F5F3F4F30939B032093F2
:101740009A030E94EB026093A0037093A10380931D
:10175000A2039093A30380919A0390919B03079710
:10176000A4F010929B0310929A0342E050E0509331
:10177000AF034093AE030E94EB026093A00370930B
:10178000A1038093A2039093A30385E20E94F50135
:101790009093CF038093CE032091A50321113CC0E9
:1017A0000197D1F581E08093A4038093BD0364E4A5
:1017B00072E081EE93E00E94790664E672E081EEC9
:1017C00093E00E947906C090A003D090A103E0901E
:1017D000A203F090A3030E94EB0280909C049090DF
:1017E0009D04A0909E04B0909F04C80CD91CEA1CD4
:1017F000FB1CC61AD70AE80AF90A39EBC3163BE004
:10180000D306E104F10440F040929C0450929D0400
:1018100060929E0470929F048091A4038823C9F172
:101820008091AE039091AF03892B99F50E94EB0252
:1018300060939C0370939D0380939E0390939F03FA
:1018400081E08093A5038091980490919904A091E0
:101850009A04B0919B049093090280930802805FE0
:10186000984DAF4FBF4F8093980490939904A093E5
:101870009A04B0939B041092A40360E080E00E945D
:10188000470667E672E08AE894E00E9479060E94C3
:1018900004068091A503882309F453C00E94EB023B
:1018A000C0909C03D0909D03E0909E03F0909F0316
:1018B0009B01AC012C193D094E095F0969017A01B0
:1018C000A0919A03B0919B0324E630E00E94F410AB
:1018D0008090980490909904A0909A04B0909B04F2
:1018E000680D791D8A1D9B1D6C507E4F8F4F9F4F39
:1018F0006C157D058E059F0520F51092A50380913E
:10190000080290910902092E000CAA0BBB0B8093D0
:10191000980490939904A0939A04B0939B048091A7
:101920000A0290910B02092E000CAA0BBB0B8093AC
:101930009C0490939D04A0939E04B0939F041092E6
:10194000BD030E94EB024B015C018091B8039091B2
:10195000B903A091BA03B091BB0375016401C81A21
:10196000D90AEA0AFB0AD701C6010B97A105B105FE
:1019700008F45DC08091BD03811159C0D090AC03C3
:101980008092B8039092B903A092BA03B092BB03BD
:1019900083E20E94F5019B838A839093CD03809319
:1019A000CC0382E20E94F5017C019093CB038093EB
:1019B000CA0381E20E94F5019093C9038093C80392
:1019C0002A813B812E0D3F1D280F391FC801821B24
:1019D000930B181619065CF52091AD03211127C051
:1019E000D1102AC04091A8035091A9036091AA0385
:1019F0007091AB0375016401C41AD50AE60AF70AAF
:101A0000B701A601493B5B406105710508F455C06B
:101A10001092BC0321E02093AC039093A703809322
:101A2000A6032093BD03909303028093020280914A
:101A3000AC03882309F441C08091AE039091AF03B9
:101A4000892BD9F581E08093AD031092AC0380918E
:101A50009C0490919D04A0919E04B0919F0490934A
:101A60000B0280930A028053984FAF4FBF4F809371
:101A70009C0490939D04A0939E04B0939F0461E006
:101A800080E00E9447066CE772E08AE894E00E94DA
:101A900079068091A6039091A7030E94880662E8C8
:101AA00072E08AE894E00E947906809102029091A7
:101AB00003020E9488060E940406E090AE03F090A4
:101AC000AF038091AD038823B1F080910002909123
:101AD0000102892B81F4E114F10469F08091020282
:101AE000909103020197181619060CF00EC39093FB
:101AF000030280930202F0920102E09200020E942F
:101B0000EB024B015C018091B8039091B903A09165
:101B1000BA03B091BB03A5019401281B390B4A0BF2
:101B20005B0BDA01C9010B97A105B10508F45BC095
:101B30008091BD03811157C0C090B603C9828092C5
:101B4000B8039092B903A092BA03B092BB0380E2AB
:101B50000E94F5019B838A839093C7038093C603F9
:101B60008FE10E94F5016C019093C5038093C4033B
:101B70008EE10E94F5019093C3038093C2032A81F2
:101B80003B812C0D3D1D280F391FB801621B730BC3
:101B90001616170644F52091B703211124C0C980F9
:101BA000C11026C02091B2033091B3034091B40319
:101BB0005091B503D501C401821B930BA40BB50B47
:101BC00089359B41A105B10508F451C021E020935E
:101BD000B6037093B1036093B0032093BD03709379
:101BE0000702609306028091B603882309F43FC080
:101BF00034E0E316F104D9F581E08093B703109245
:101C0000B6038091980490919904A0919A04B091A0
:101C10009B0490930902809308028053984FAF4F22
:101C2000BF4F8093980490939904A0939A04B09323
:101C30009B0461E080E00E9447066CE772E08AE85E
:101C400094E00E9479068091B0039091B1030E94C4
:101C5000880662E872E08AE894E00E947906809142
:101C60000602909107020E9488060E9404062091B5
:101C7000AE033091AF038091040290910502049766
:101C800021F481E02430310509F480E09091B7031C
:101C9000992379F0882369F08091060290910702D8
:101CA0000197181619060CF051C290930702809301
:101CB000060230930502209304020E94EB02C090BA
:101CC000BE03D090BF03E090C003F090C1039B011E
:101CD000AC012C193D094E095F0969017A0131ED0A
:101CE000C31637E0D306E104F10440F12091BD03AF
:101CF000211124C06093BE037093BF038093C0037F
:101D00009093C10387E30E947D029B838A83909313
:101D1000D3038093D20386E30E947D029093D50380
:101D20008093D4034A815B814C3351050CF02FC260
:101D3000CC970CF02CC281E08093BC030E94EB0294
:101D40002091D6033091D703DB01A21BB30B409146
:101D50009604509197044A175B0708F0E2C070930D
:101D6000D7036093D60388EEC82E83E0D82ED09296
:101D70009704C092960486E30E947D029093D50357
:101D80008093D40387E30E947D029093D3038093D2
:101D9000D20388E30E947D029093D1038093D00305
:101DA00088E30E947D0283E20E94F5019093CD03B7
:101DB0008093CC0382E20E94F5019093CB03809341
:101DC000CA0381E20E94F5019093C9038093C8037E
:101DD00080E20E94F5019093C7038093C6038FE1D0
:101DE0000E94F5019093C5038093C4038EE10E9485
:101DF000F5019093C3038093C20360E080E00E94EA
:101E000047066EE872E08AE894E00E94790661E095
:101E100080E00E94470663EA72E08AE894E00E944C
:101E2000790662E080E00E94470667EB72E08AE88C
:101E300094E00E94790663E080E00E9447066CEC23
:101E400072E08AE894E00E94790660E085E00E94F2
:101E500047068091D4039091D5030E94880661E0E3
:101E600085E00E9447068091D2039091D3030E949F
:101E7000880662E085E00E9447068091D003909139
:101E8000D1030E94880663E083E00E9447068091A8
:101E9000CE039091CF030E94880663E088E00E9401
:101EA000470690E080E00E94880661E08FE00E9493
:101EB00047068091CC039091CD030E94880661E093
:101EC00081E10E9447068091CA039091CB030E9452
:101ED000880661E083E10E9447068091C8039091E3
:101EE000C9030E94880663E08FE00E944706809144
:101EF000C6039091C7030E94880663E081E10E94B7
:101F000047068091C4039091C5030E94880663E050
:101F100083E10E9447068091C2039091C3030E940F
:101F200088060E94FC0390CB61E087E10E941E02BC
:101F300060E088E10E941E020E94EB02C090A003B4
:101F4000D090A103E090A203F090A3036C197D0947
:101F50008E099F09653F71408105910508F415CCF4
:101F60001093AF030093AE0306CC61E086E10E94BC
:101F70001E0260E087E10E941E0261E08AE10E9489
:101F80001E0260E08BE10E941E0260E089E10E9477
:101F90001E020E94EB02C090A003D090A103E0902B
:101FA000A203F090A3036C197D098E099F09653F78
:101FB00071408105910508F4E8CB3092AF0320927F
:101FC000AE03D9CB60E08AE10E941E0261E08BE1A2
:101FD0000E941E020E94EB02C090A003D090A103B9
:101FE000E090A203F090A3036C197D098E099F096C
:101FF000C0909804D0909904E0909A04F0909B04CB
:10200000C616D706E806F90608F0BFCB8091BC03D8
:10201000882339F087E090E09093AF038093AE037C
:10202000AACB85E090E0F8CF0E94EB02C090A0031D
:10203000D090A103E090A203F090A3036C197D0956
:102040008E099F096536710581059105E8F080913B
:102050009A0390919B03019690939B0380939A031C
:102060000E94EB026093A0037093A1038093A203EC
:102070009093A3038BE10E94F50161E0892B09F0A5
:1020800060E08BE10E941E0280919A0390919B0375
:1020900007970CF47ACB10929B0310929A0396E068
:1020A000C92ED12C1ECB60E08BE10E941E0261E0A4
:1020B0008AE10E941E020E94EB02C090A003D09011
:1020C000A103E090A203F090A3036C197D098E098F
:1020D0009F09653F71408105910508F456CB109228
:1020E000AF031092AE0347CB61E08BE10E941E026A
:1020F00061E086E10E941E028091BC03811145CB04
:102100003092AF032092AE0340CB109303020093B2
:1021100002021092AD031092BD038092A803909228
:10212000A903A092AA03B092AB0380910A029091F6
:102130000B02092E000CAA0BBB0B80939C049093FE
:102140009D04A0939E04B0939F04D5CC10930702E6
:10215000009306021092B7031092BD038092B2035F
:102160009092B303A092B403B092B5038091080299
:1021700090910902092E000CAA0BBB0B80939804C6
:1021800090939904A0939A04B0939B0492CD1092DB
:10219000BC03D4CDA1E21A2EAA1BBB1BFD010DC0AE
:1021A000AA1FBB1FEE1FFF1FA217B307E407F50707
:1021B00020F0A21BB30BE40BF50B661F771F881FE3
:1021C000991F1A9469F760957095809590959B0179
:1021D000AC01BD01CF010895EE0FFF1F881F8BBF1B
:1021E0000790F691E02D19940E94FB10B7FF089517
:1021F000821B930B0895A29FB001B39FC001A39FC0
:10220000700D811D1124911DB29F700D811D11242F
:08221000911D0895F894FFCF21
:10221800FFFF0300FFFF0300D007D00700004000C6
:1022280014005400000000008F03F9022603DC03A9
:1022380057033503490300000000EA04BD04010602
:102248009304B604A3049404000000004106F902B4
:1022580001060006506561746F6E20736F6C6963C8
:10226800697461207061736F2073656D61666F7248
:102278006F2031000D0A00506564657374726961DE
:102288006E312063726F7373696E67005072696F85
:1022980020002053656E736F72732D433A004C44CF
:1022A800523120202020202020434E592031203236
:1022B8002033004C4452322020202020202020208F
:1022C80020202020202000434F32202020202020C2
:1022D8002020434E5920342035203600503120200C
:1022E80020503220202020202020202020202000C4
:00000001FF
