:100000000C945B010C948C010C948C010C948C016D
:100010000C948C010C948C010C948C010C948C012C
:100020000C948C010C948C010C948C010C948C011C
:100030000C948C010C948C010C948C010C948C010C
:100040000C948C010C948C010C948C010C948C01FC
:100050000C948C010C948C010C948C010C9457081A
:100060000C948C010C94CB080C94A1080C948C017A
:100070000C948C010C948C010C948C010C948C01CC
:100080000C948C010C948C010C948C010C948C01BC
:100090000C948C010C948C010C948C010C9401092F
:1000A0000C948C010C948C010C948C010C948C019C
:1000B0000C948C010C948C010C948C010C948C018C
:1000C0000C948C010C948C010C948C010C948C017C
:1000D0000C948C010C948C010C948C010C948C016C
:1000E0000C948C010C94CE0C0C9494040C94250A62
:1000F0000C94F7020C94B6010C94D9010C94A3044F
:100100000C946D110C948E0C0C9435030C94F80225
:100110000C94B6040C94E3010C94C7010C94BD0438
:100120000C94BA010C94C1010C94EC010C94B20132
:100130000C94DF010C9426030C9493040C94490353
:100140000C94F1010C94530C0C94AC010C94BE0172
:100150000C949C060C9402110C94F9020C94DC0390
:100160000C94CB010C94ED010C94D1010C9401067C
:100170000C94D4100C9400060C94EA040C945703CD
:100180000C9444110C94E7010C948F030C94F50C1F
:100190000C94D50100002100240027002A002D0026
:1001A0003000330001010000040107010A010000D2
:1001B0002200250028002B002E003100340002010F
:1001C0000000050108010B010000200023002600AB
:1001D00029002C002F00320000010000030106015D
:1001E00009010505050507050808080802020202BD
:1001F0000A0A0808040404040101010101010101C3
:100200000303030303030303040707070C0C0C0C8D
:100210000C0C0C0C02020202060606060606060676
:100220000B0B0B0B0B0B0B0B010210202008081003
:100230002040102040800201020108040201010256
:10024000040810204080804020100804020180042F
:10025000020180402010080402010804020101028A
:100260000408102040800102040810204080000093
:100270000A0B02090C0D0E08070304010000000020
:10028000000000000000000000000000000000006E
:10029000000000000000000000001211100000002B
:1002A000000000000000000000000000000000004E
:1002B00000000000250A11241FBECFEFD1E2DEBFEF
:1002C000CDBF00E00CBF24E0AEEFB2E001C01D9254
:1002D000AE3CB207E1F712E0A0E0B2E0EEE2FDE2F0
:1002E00000E00BBF02C007900D92AE3FB107D9F7F7
:1002F00011E0CBE5D1E000E006C021970109802F95
:10030000FE010E945D14CA35D10780E00807A9F7F5
:100310000E94930A0C9495160C940000815082312F
:1003200008F05AC0E82FF0E08827E656FE4F8F4FBE
:100330000C945D14BA01BE01AC01B201B601EC012E
:10034000C101C701CB01D101D501D901DF01E30111
:10035000EC01E701ED01F101809180008F7780933E
:1003600080000895809180008F7DF9CF809180007A
:10037000877FF5CF84B58F7784BD089584B58F7D51
:10038000FBCF8091B0008F778093B000089580916B
:10039000B0008F7DF9CF809190008F77809390008F
:1003A0000895809190008F7DF9CF80919000877F94
:1003B000F5CF8091A0008F778093A0000895809161
:1003C000A0008F7DF9CF8091A000877FF5CF80912D
:1003D00020018F77809320010895809120018F7DE7
:1003E000F9CF80912001877FF5CFCF93DF93282F1E
:1003F00030E0F901E259FD4F8491F901E85DFD4FCC
:10040000D491F901EE51FE4FC491CC23A1F081119A
:100410000E948E01EC2FF0E0EE0FFF1FE853FE4F1D
:10042000A591B491EC91ED2381E090E009F480E096
:10043000DF91CF91089580E090E0FACF1F93CF93A2
:10044000DF93282F30E0F901E259FD4F8491F90143
:10045000E85DFD4FD491F901EE51FE4FC491CC23DC
:10046000A9F0162F81110E948E01EC2FF0E0EE0F03
:10047000FF1FE255FE4FA591B4918FB7F894EC9110
:10048000111108C0D095DE23DC938FBFDF91CF918F
:100490001F910895DE2BF8CFCF93DF9390E0FC01FE
:1004A000E85DFD4F24918E519E4FFC01849188237D
:1004B000D1F090E0880F991FFC01EC56FE4FA591FA
:1004C000B491FC01E255FE4FC591D49161110EC06B
:1004D0009FB7F8948C91E22FE0958E238C9328811E
:1004E000E223E8839FBFDF91CF9108958FB7F894FF
:1004F000EC91E22BEC938FBFF6CF90917B00977F2E
:1005000090937B008653806480937C0080917A0076
:10051000806480937A0080917A0086FDFCCF809180
:1005200078009091790008953FB7F8948091010484
:1005300090910204A0910304B091040426B5A89BF5
:1005400005C02F3F19F00196A11DB11D3FBFBA2F65
:10055000A92F982F8827BC01CD01620F711D811D25
:10056000911D42E0660F771F881F991F4A95D1F7AA
:1005700008958F929F92AF92BF92CF92DF92EF92A7
:10058000FF924B015C010E9494026B017C010E946E
:1005900094026C197D098E099F09683E734081059C
:1005A0009105A8F321E0821A9108A108B10888EE0C
:1005B000C80E83E0D81EE11CF11C81149104A10433
:1005C000B10429F7FF90EF90DF90CF90BF90AF90EC
:1005D0009F908F9008952FB7F8946091FD037091CC
:1005E000FE038091FF03909100042FBF08950895AA
:1005F0000895AF92BF92CF92DF92EF92FF920F9346
:100600001F93CF93DF936C017B018B01040F151FA8
:10061000EB015E01AE18BF08C017D10759F0699110
:10062000D601ED91FC910190F081E02DC601199564
:10063000892B79F7C501DF91CF911F910F91FF9021
:10064000EF90DF90CF90BF90AF900895FC01538D55
:10065000448D252F30E0842F90E0821B930B54179C
:1006600010F0CF96089501970895FC01918D828D29
:10067000981761F0A28DAE0FBF2FB11D5D968C91C2
:10068000928D9F5F9F73928F90E008958FEF9FEF01
:100690000895FC01918D828D981731F0828DE80FBD
:1006A000F11D858D90E008958FEF9FEF0895FC0177
:1006B000918D228D892F90E0805C9F4F821B910944
:1006C0008F73992708958BE094E00E94570321E0EF
:1006D000892B09F420E0822F0895FC01A48DA80F36
:1006E000B92FB11DA35ABF4F2C91848D90E0019674
:1006F0008F739927848FA689B7892C93A089B18994
:100700008C91837080648C93938D848D981306C034
:100710000288F389E02D80818F7D80830895EF9298
:10072000FF920F931F93CF93DF93EC0181E0888FAB
:100730009B8D8C8D98131AC0E889F989808185FF7B
:1007400015C09FB7F894EE89FF896083E889F9891D
:1007500080818370806480839FBF81E090E0DF911F
:10076000CF911F910F91FF90EF900895F62E0B8D72
:1007700010E00F5F1F4F0F731127E02E8C8D8E112D
:100780000CC00FB607FCFACFE889F989808185FF94
:10079000F5CFCE010E946D03F1CFEB8DEC0FFD2F55
:1007A000F11DE35AFF4FF0829FB7F8940B8FEA894F
:1007B000FB8980818062CFCFCF93DF93EC01888D5E
:1007C0008823B9F0AA89BB89E889F9898C9185FDCC
:1007D00003C0808186FD0DC00FB607FCF7CF8C915A
:1007E00085FFF2CF808185FFEDCFCE010E946D03A2
:1007F000E9CFDF91CF91089580E090E0892B29F037
:100800000E94630381110E94000080E090E0892B28
:1008100049F080E090E0892B29F00E9400008111CE
:100820000E94000080E090E0892B49F080E090E099
:10083000892B29F00E94000081110E94000080E0B5
:1008400090E0892B49F080E090E0892B29F00E940C
:10085000000081110C940000089520916603260F7A
:100860003327331F21323105ECF420918A03FC0138
:1008700090E080E0243069F082E00895A091660362
:100880002191AC014A5B5C4FA40FB52FB11D2C9395
:100890000196861798F380916603680F609366034C
:1008A00080E0089581E0089510928A0381E08093AA
:1008B0008C0310928B0361E084E10E941E0261E0D0
:1008C00085E10E941E02E9EBF0E080818E7F80834B
:1008D00080818D7F808388E48093B80085E4809355
:1008E000BC000895CF93DF9391E090934503882354
:1008F000B9F0C091B800D091BA008091BC008A7B59
:100900008093BC0060E084E10E941E0260E085E10B
:100910000E941E020E945404D093BA00C093B800F3
:10092000DF91CF9108950895E091B7038091B603C8
:10093000E81730F4F0E0E05EFC4F808190E008952D
:100940008FEF9FEF08959091B7038091B6032FEF3B
:100950003FEF981748F4E92FF0E0E05EFC4F20816C
:1009600030E09F5F9093B703C90108958091B6036B
:100970009091B703891B990B0895CF92DF92EF9264
:10098000FF920F931F93CF93DF937C01CB018A01DA
:1009900020911F03222389F0EB016B01C40ED51EA9
:1009A000CC15DD0569F06991D701ED91FC910190BD
:1009B000F081E02DC7011995F3CF642F0E942D041B
:1009C000C801DF91CF911F910F91FF90EF90DF90C1
:1009D000CF900895CF93DF931F92CDB7DEB7698391
:1009E00020911F032223F9F02091B403203258F004
:1009F00021E030E0FC013383228390E080E00F901F
:100A0000DF91CF9108958091B503E82FF0E0E15098
:100A1000FD4F998190838F5F8093B5038093B403DA
:100A200081E090E0ECCF61E0CE0101960E942D04C0
:100A3000F7CFCF92DF92EF92FF920F931F93CF9356
:100A4000DF93FC01C48121E020931F03C093FE02C9
:100A50001092B5031092B4038385682B88EA94E062
:100A60000E94EA04D091B403D13208F092C00E94EF
:100A700094026B017C0180918A03811165C082E040
:100A800080938A0381E080938C038FEF80938903A6
:100A90001092AE03D093AD03AFEFB2E0EDE8F3E018
:100AA00080E0D81385C01092AF038091AF03CC0FC4
:100AB000C82BC093AF0380918B03813009F07CC0B9
:100AC00010928B030E9494026B017C018091AF0312
:100AD0008093BB008091410390914203A091430316
:100AE000B0914403892B8A2B8B2B99F00E9494029E
:100AF000009141031091420320914303309144033C
:100B00006C197D098E099F090617170728073907F1
:100B1000E0F18091BC0083FDD9CF85EC8093BC00CF
:100B20000E9494026B017C0180918A03823009F457
:100B300045C0809189038F3F61F1809189038032A4
:100B400041F18091890325C0809141039091420336
:100B5000A0914303B0914403892B8A2B8B2B09F47A
:100B60008ACF0E9494020091410310914203209188
:100B70004303309144036C197D098E099F090617C0
:100B800017072807390708F076CF809140030E94A5
:100B900072041092B5031092B40310921F03DF91F8
:100BA000CF911F910F91FF90EF90DF90CF9008951C
:100BB0009D9191938F5F75CF85EEB0CF809141036A
:100BC00090914203A0914303B0914403892B8A2B57
:100BD0008B2B09F4A9CF0E9494020091410310913C
:100BE000420320914303309144036C197D098E091F
:100BF0009F09061717072807390708F095CFC5CFB3
:100C0000089590E080E008950E94EB027093FB034A
:100C10006093FA0380EA9FE09093C1048093C0043C
:100C200008958F929F92AF92BF920F931F93CF938D
:100C3000DF93CDB7DEB7A1970FB6F894DEBF0FBE36
:100C4000CDBF19A2423008F44AE08E010F5D1F4F5C
:100C5000842E912CB12CA12CA50194010E941C146E
:100C6000E62FB901CA01EA3044F5E05DD801EE9300
:100C70008D01232B242B252B79F790E080E0109712
:100C800069F0FD0101900020E9F73197AF014A1B9F
:100C90005B0BBD0184EB94E00E94F902A1960FB6B4
:100CA000F894DEBF0FBECDBFDF91CF911F910F91A2
:100CB000BF90AF909F908F900895E95CD7CFFC01D3
:100CC00001900020E9F73197AF01481B590BBC0197
:100CD00084EB94E00C94F9020F931F93CF938C0153
:100CE000C62F0E9419056C2F6460C8010E94190567
:100CF0006C2F6B7FC8010E94190583EC90E001976F
:100D0000F1F7CF911F910F9108950F931F93CF93F8
:100D1000DF938C01D62FC42F607F642B0E946C065A
:100D200080E1D89FB00111246C2BC801DF91CF91D5
:100D30001F910F910C946C0641E00E94850681E0A2
:100D400090E00895CF92DF92EF92FF926C01990F9D
:100D5000EE08FF08F7FE16C041E06DE284EB94E078
:100D60000E94850666277727CB016C197D098E09BD
:100D70009F094AE00E9411060196FF90EF90DF90D4
:100D8000CF9008954AE0C701B601FF90EF90DF9041
:100D9000CF900C941106CF93DF9300D000D01F9218
:100DA0001F92CDB7DEB798E0E6E1F2E0DE011196E2
:100DB00001900D929A95E1F79091BC04961710F46A
:100DC0006FEF690F262F30E0220F331F41E050E014
:100DD0004C0F5D1F240F351FF9016081680F60689B
:100DE00040E084EB94E028960FB6F894DEBF0FBE87
:100DF000CDBFDF91CF910C948506CF93DF93EC01AB
:100E000088819981009711F00E9408151982188233
:100E10001D821C821B821A82DF91CF910895FC01F2
:100E200080819181009711F00C9408150895EF923C
:100E3000FF920F931F93CF93DF93FC0100811181E9
:100E4000FB01C081D181F80181918F018823B9F024
:100E5000082E000C990B0E9472167C018991082EB5
:100E6000000C990B0E947216E816F90661F380E0F7
:100E7000DF91CF911F910F91FF90EF90089581E046
:100E8000F7CF0F931F93CF93DF93EC018881998164
:100E9000009759F02A813B812617370730F081E00F
:100EA000DF91CF911F910F9108958B016F5F7F4F5D
:100EB0000E949115009759F0998388831B830A83B8
:100EC0002C813D81232B59F7FC011082E8CF80E073
:100ED000E7CFEF92FF920F931F93CF93DF934115CC
:100EE0005105B1F07B01EC010C811D81040F151F30
:100EF000B8010E944107882361F0288139818C81E3
:100F00009D81B701820F931F0E948E161D830C8353
:100F100081E0DF91CF911F910F91FF90EF900895A5
:100F2000EF92FF920F931F93CF93DF93EC017B011E
:100F30008A01BA010E94410781110BC0CE010E94B3
:100F4000FD06CE01DF91CF911F910F91FF90EF90A1
:100F500008951D830C83B701888199810E948E16A4
:100F6000F0CFFB0101900020E9F73197AF01461B5C
:100F7000570B0C949007CF92DF92EF92FF920F9352
:100F80001F93CF93DF93EC016B017A01461757074C
:100F900020F48D2D6A01E62EF82E198218821B820C
:100FA0001A821D821C8250E040E06AEA72E0CE01A3
:100FB0000E9490070091090410910A04C016D106FE
:100FC00000F5E016F10608F48701E0910504F091C0
:100FD0000604E00FF11FF08010826091050470910B
:100FE00006046C0D7D1DCE0161157105A1F00E94F6
:100FF000B1078091050490910604080F191FF801AC
:10100000F082CE01DF91CF911F910F91FF90EF9071
:10101000DF90CF9008950E94FD06EBCFFC01118276
:1010200010821382128215821482FB01019000202B
:10103000E9F73197AF01461B570B0C94900785EDEC
:101040008093BC008091410390914203A09143039F
:10105000B09144030796A11DB11D23E0B695A79555
:10106000979587952A95D1F72091BC0024FD03C060
:1010700010928A0308954091410350914203609178
:10108000430370914403452B462B472B69F300978C
:10109000A105B10541F02AE22A95F1F700C00197B8
:1010A000A109B109E1CF809140030C9472041F9211
:1010B0000F920FB60F9211242F933F938F939F930C
:1010C000AF93BF938091FD039091FE03A091FF0326
:1010D000B09100043091FC0323E0230F2D3758F525
:1010E0000196A11DB11D2093FC038093FD039093F5
:1010F000FE03A093FF03B09300048091010490913C
:101100000204A0910304B09104040196A11DB11D35
:101110008093010490930204A0930304B093040409
:10112000BF91AF919F918F913F912F910F900FBEE3
:101130000F901F90189526E8230F0296A11DB11D50
:10114000D2CF1F920F920FB60F9211240BB60F92AF
:101150002F933F934F935F936F937F938F939F93BF
:10116000AF93BF93EF93FF938BE094E00E946D03E6
:10117000FF91EF91BF91AF919F918F917F916F916F
:101180005F914F913F912F910F900BBE0F900FBE2B
:101190000F901F9018951F920F920FB60F92112467
:1011A0000BB60F922F938F939F93EF93FF93E09142
:1011B0001B04F0911C048081E0912104F091220431
:1011C00082FD1DC09081809124048F5F8F732091D8
:1011D0002504821741F0E0912404F0E0E55FFB4F25
:1011E000958F80932404FF91EF919F918F912F9180
:1011F0000F900BBE0F900FBE0F901F90189580811F
:10120000F2CF1F920F920FB60F9211240BB60F92CE
:101210002F933F934F935F936F937F938F939F93FE
:10122000AF93BF93EF93FF938091B900887F80368F
:1012300009F44DC008F040C0883209F4A9C028F56F
:10124000803109F49DC0C8F4882309F4FBC08830BC
:1012500009F496C0FF91EF91BF91AF919F918F914B
:101260007F916F915F914F913F912F910F900BBEA6
:101270000F900FBE0F901F901895883109F488C009
:10128000803241F78093890314C0803409F49DC0F3
:1012900040F48033B9F38833E9F68093890385EC11
:1012A000B0C0803509F485C0883509F496C088340B
:1012B00089F60E941F08CECF883909F48CC038F512
:1012C000883729F050F4883611F0803719F683E01A
:1012D00080938A031092880357C0883809F47BC032
:1012E000803919F0803809F0B5CF809188038032B9
:1012F00008F071C0E091880381E08E0F809388032D
:101300008091BB00F0E0E859FC4F80833DC0803BFA
:1013100039F0E0F4803A09F479C0883A09F09ACFBC
:1013200084E080938A031092670310926603E09131
:10133000B203F091B30319958091660381110FC038
:1013400081E0809366031092460309C0803C09F453
:10135000A6CF883C09F4A3CF883B09F07BCFE0916E
:10136000670381E08E0F80936703F0E0EA5BFC4F38
:1013700080818093BB00909167038091660329C0B0
:101380008091AF038093BB0085EC8093BC0062CF5B
:101390009091AE038091AD03981758F5E091AE039C
:1013A00081E08E0F8093AE03F0E0E357FC4F808125
:1013B000E9CFE091AE0381E08E0F8093AE03809180
:1013C000BB00F0E0E357FC4F80839091AE03809127
:1013D000AD039817C8F285E8D8CFE091AE0381E05D
:1013E0008E0F8093AE038091BB00F0E0E357FC4F7B
:1013F000808380918C0381115CCF81E080938B038B
:1014000084EA8093BC0010928A0324CF85EC8093F9
:10141000BC0010928A0380918803803230F4E091FE
:101420008803F0E0E859FC4F10826091880370E077
:10143000E091B003F091B10388E693E01995109222
:10144000880308CF1092890334CFEBE0F4E01382D5
:10145000128288EE93E0A0E0B0E084839583A683B7
:10146000B78322E232E03183208325EC30E03587F8
:10147000248724EC30E03787268720EC30E0318B5E
:10148000208B21EC30E0338B228B22EC30E0358B4B
:10149000248B26EC30E0378B268B118E128E138E28
:1014A000148EE8EAF4E01382128284839583A68383
:1014B000B78384E392E09183808380910E029091C0
:1014C0000F02092E000CAA0BBB0B8093C60490934D
:1014D000C704A093C804B093C90480910C029091F2
:1014E0000D02092E000CAA0BBB0B8093C204909333
:1014F000C304A093C404B093C50488EE93E0909312
:10150000C1048093C004E4EBF4E01382128286E409
:1015100092E09183808387E2848384E1818784E001
:10152000828713860895CF93DF93CDB7DEB76E978A
:101530000FB6F894DEBF0FBECDBF789484B582603D
:1015400084BD84B5816084BD85B5826085BD85B567
:10155000816085BD80916E00816080936E001092E5
:101560008100809181008260809381008091810060
:1015700081608093810080918000816080938000F1
:101580008091B10084608093B1008091B00081604F
:101590008093B0008091910082608093910080914F
:1015A0009100816080939100809190008160809390
:1015B00090008091A10082608093A1008091A100A1
:1015C00081608093A1008091A00081608093A00041
:1015D00080912101826080932101809121018160AD
:1015E000809321018091200181608093200180916E
:1015F0007A00846080937A0080917A008260809380
:101600007A0080917A00816080937A0080917A00DC
:10161000806880937A001092C1000E94EB026B01F7
:101620007C0161E086E10E944C0261E087E10E945A
:101630004C0261E088E10E944C0261E089E10E9475
:101640004C0261E08AE10E944C0261E08BE10E9461
:101650004C0260E085E20E944C0260E083E20E945E
:101660004C0260E082E20E944C0260E081E20E9453
:101670004C0260E080E20E944C0260E08FE10E9438
:101680004C0260E08EE10E944C0260E086E30E9422
:101690004C0260E087E30E944C0260E088E30E9415
:1016A0004C021092B7031092B6031092B503109239
:1016B000B4030E94540487EF92E09093B3038093A5
:1016C000B20388EF92E09093B1038093B00310923D
:1016D000B9048091BE04823018F098E09093B90468
:1016E0008093BC0462E370E080E090E00E94B90265
:1016F0006091BF0484EB94E00E94190568EE73E0EA
:1017000080E090E00E94B90260E384EB94E00E94E4
:101710006C060BE416E4C8010197F1F760E384EB73
:1017200094E00E946C06C8010197F1F760E384EB36
:1017300094E00E946C0683E592E00197F1F760E285
:1017400084EB94E00E946C066091B904606240E012
:1017500084EB94E00E94850684E08093BA0440E024
:101760006CE084EB94E00E94850640E061E084EB4D
:1017700094E00E9485060BE31FE1C8010197F1F791
:1017800082E0B82EB092BB0440E066E084EB94E0C7
:101790000E94850640E062E084EB94E00E948506AA
:1017A000C8010197F1F788E08093BF0460E084EB03
:1017B00094E00E941905C092E203D092E303E09204
:1017C000E403F092E503E0911B04F0911C04B08265
:1017D000E0911704F09118041082E0911904F0913F
:1017E0001A048FEC808310922304E0911F04F0917F
:1017F000200486E08083E0911D04F0911E04808126
:1018000080618083E0911D04F0911E0480818860D6
:101810008083E0911D04F0911E04808180688083A4
:10182000E0911D04F0911E0480818F7D8083C09221
:10183000D403D092D503E092D603F092D70310924E
:10184000CD031092D2031092C8031092C9031092D4
:10185000CA031092CB03C092CE03D092CF03E09282
:10186000D003F092D103D092FB03C092FA0394E02C
:10187000292E312C8E010F5F1F4FE091E003F09174
:10188000E103E830F10508F0EDC08827E55BF34F90
:101890008F4F0C945D14530C8E0CCE0CF50CD410A1
:1018A000021144116D1161E088E10E941E0261E0A5
:1018B00089E10E941E0260E08AE10E941E0260E04F
:1018C00086E10E941E0260E087E10E941E0260E045
:1018D0008BE10E941E020E94EB02C090E203D090B6
:1018E000E303E090E403F090E5036C197D098E09B1
:1018F0009F09C090C604D090C704E090C804F0903F
:10190000C9046C157D058E059F0508F4ABC081E008
:1019100090E09093E1038093E0039AC00E94EB0271
:10192000C090E203D090E303E090E403F090E5037D
:101930006C197D098E099F09653671058105910530
:10194000F8F0E090E603F090E70388E10E94F501EB
:1019500061E0892B09F060E088E10E941E022FEF10
:10196000E21AF20AF092E703E092E6030E94EB0229
:101970006093E2037093E3038093E4039093E503A1
:101980008091E6039091E70307970CF46BC01092E7
:10199000E7031092E60382E090E0BBCF61E087E1CD
:1019A0000E941E0260E088E10E941E020E94EB027B
:1019B000C090E203D090E303E090E403F090E503ED
:1019C0006C197D098E099F09C0900802D090090208
:1019D000E0900A02F0900B02C616D706E806F90658
:1019E00008F040C083E090E094CF61E086E10E947F
:1019F0001E0260E087E10E941E0261E08AE10E940F
:101A00001E0260E08BE10E941E0260E089E10E94FC
:101A10001E020E94EB02C090E203D090E303E0902C
:101A2000E403F090E5036C197D098E099F09C090CD
:101A30000802D0900902E0900A02F0900B02C6164C
:101A4000D706E806F90670F43092E1032092E0032D
:101A50000E94EB026093E2037093E3038093E4033C
:101A60009093E50385E20E94F5012091BD032111C9
:101A700034C0019791F581E08093BC038093D30338
:101A8000C090E203D090E303E090E403F090E5031C
:101A90000E94EB028090C6049090C704A090C804F6
:101AA000B090C904C80CD91CEA1CFB1CC61AD70A82
:101AB000E80AF90A59EBC5165BE0D506E104F10422
:101AC00080F088EB9BE0A0E0B0E08093C6049093A8
:101AD000C704A093C804B093C9048091BC038823B1
:101AE000B9F18091E0039091E103892B89F50E947F
:101AF000EB026093B8037093B9038093BA03909399
:101B0000BB0381E08093BD038091C2049091C30424
:101B1000A091C404B091C50490930D0280930C026F
:101B2000805F984DAF4FBF4F8093C2049093C30422
:101B3000A093C404B093C5041092BC0360E080E09D
:101B40000E94CB068EE492E00E945F060E9404068B
:101B50008091BD03882309F45BC00E94EB02C09012
:101B6000B803D090B903E090BA03F090BB034B01E7
:101B70005C018C189D08AE08BF0875016401A09136
:101B8000E603B091E70324E630E00E9465148090FC
:101B9000C2049090C304A090C404B090C504680D22
:101BA000791D8A1D9B1D8090080290900902A090CB
:101BB0000A02B0900B02860E971EA81EB91E8C1446
:101BC0009D04AE04BF0420F51092BD0380910C0269
:101BD00090910D02092E000CAA0BBB0B8093C2043E
:101BE0009093C304A093C404B093C50480910E02E3
:101BF00090910F02092E000CAA0BBB0B8093C60418
:101C00009093C704A093C804B093C9041092D3035F
:101C10000E94EB024B015C018091CE039091CF03B7
:101C2000A091D003B091D10375016401C81AD90AFB
:101C3000EA0AFB0AD701C6010B97A105B10508F412
:101C40005BC08091D303811157C07090C403809210
:101C5000CE039092CF03A092D003B092D10383E23F
:101C60000E94F5017C019093F3038093F20382E2DA
:101C70000E94F5016C019093F1038093F00381E2DF
:101C80000E94F5019093EF038093EE03EC0CFD1C92
:101C9000E80EF91E83E090E08E199F0918161906C8
:101CA0005CF52091C503211127C0711029C0409116
:101CB000C0035091C1036091C2037091C3037501C9
:101CC0006401C41AD50AE60AF70AB701A601493B1E
:101CD0005B406105710508F450C01092D20321E009
:101CE0002093C4039093BF038093BE032093D30338
:101CF00090930302809302028091C4038823E9F148
:101D00008091E0039091E103892BB9F581E0809304
:101D1000C5031092C4038091C6049091C704A0919A
:101D2000C804B091C90490930F0280930E028053AF
:101D3000984FAF4FBF4F8093C6049093C704A093B2
:101D4000C804B093C90461E080E00E94CB0683E63A
:101D500092E00E945F068091BE039091BF030E94B3
:101D6000A20689E692E00E945F06809102029091AD
:101D700003020E94A2060E940406C090E003D090D5
:101D8000E1038091C5038823B1F080910002909116
:101D90000102892B81F4C114D10469F080910202FF
:101DA000909103020197181619060CF0A7C29093A0
:101DB000030280930202D0920102C09200020E94AC
:101DC000EB022B013C018091CE039091CF03A091B7
:101DD000D003B091D10353014201881A990AAA0A8B
:101DE000BB0AD501C4010B97A105B10508F459C080
:101DF0008091D303811155C09090CC034092CE03C3
:101E00005092CF036092D0037092D10380E20E947F
:101E1000F5017C019093ED038093EC038FE10E9428
:101E2000F5015C019093EB038093EA038EE10E943D
:101E3000F5019093E9038093E803EA0CFB1CE80E9C
:101E4000F91E83E090E08E199F09181619064CF5CB
:101E50002091CD03211125C0911027C04091C803C6
:101E60005091C9036091CA037091CB0353014201A1
:101E7000841A950AA60AB70AB501A40149355B413F
:101E80006105710508F44CC021E02093CC039093C8
:101E9000C7038093C6032093D303909307028093D4
:101EA00006028091CC038823D9F134E0C316D10413
:101EB000B9F581E08093CD031092CC038091C204E8
:101EC0009091C304A091C404B091C50490930D02F5
:101ED00080930C028053984FAF4FBF4F8093C20442
:101EE0009093C304A093C404B093C50461E080E060
:101EF0000E94CB0683E692E00E945F068091C603B3
:101F00009091C7030E94A20689E692E00E945F06B4
:101F100080910602909107020E94A2060E94040688
:101F20002091E0033091E103809104029091050239
:101F3000049721F481E02430310509F480E0909188
:101F4000CD03992379F0882369F08091060290915E
:101F500007020197181619060CF0F3C190930702B7
:101F60008093060230930502209304020E94EB0244
:101F7000C090D403D090D503E090D603F090D7035F
:101F80004B015C018C189D08AE08BF087501640107
:101F900021EDC21627E0D206E104F10430F12091D0
:101FA000D303211122C06093D4037093D50380938F
:101FB000D6039093D70387E30E947D027C01909320
:101FC000F7038093F60386E30E947D029093F90362
:101FD0008093F8033CE3E316F1040CF0D5C1CC97F1
:101FE0000CF0D2C181E08093D2038091D80381119B
:101FF00009C06AEA72E085E094E00E940E0881E080
:102000008093D8038BE094E00E94570318161906BA
:102010000CF029C28BE094E00E9435038A3009F06D
:1020200018C28091090490910A04892B09F40AC20C
:10203000C0900504D09006046AE370E0C6010E94D7
:102040008316009709F4FEC17C01EC18FD084FEFE0
:10205000E416F40609F4F6C1A70170E060E0CE01D1
:1020600045960E94BB074091090450910A04B701AC
:102070006F5F7F4FCE010F960E94BB078F859889B7
:10208000009709F484C10E949C137B0165E772E00C
:10209000C8010E940E08898D9A8D2D813E81D12C18
:1020A0008217930751F4DD24D394892B31F0B801C2
:1020B000CE0145960E941707D82EC8010E940F072F
:1020C000DD2009F468C1C7010F2C000CAA0BBB0B63
:1020D0008093C6049093C704A093C804B093C90426
:1020E000F0920F02E0920E0263E080E00E94CB06C5
:1020F00086E992E00E945F0663E080E00E94CB06E2
:102100001A8619861C861B861E861D866D897E8909
:102110006115710531F0498D5A8DCE0109960E94E5
:10212000900741E050E063E772E0CE0109960E941B
:102130006907811104C0CE0109960E94FD064AE09C
:10214000B801C7010E94C313F80101900020E9F70C
:102150003197AF01401B510BB801CE0109960E9487
:102160006907811104C0CE0109960E94FD064D85C4
:102170005E8569857A8584EB94E00E94F902CE0140
:1021800009960E940F070E9404066AEA72E085E041
:1021900094E00E94B107CE010F960E940F07CE0176
:1021A00045960E940F072ECF60E08AE10E941E0232
:1021B00061E08BE10E941E020E94EB02C090E203EC
:1021C000D090E303E090E403F090E5036C197D09FF
:1021D0008E099F09C090C204D090C304E090C4044B
:1021E000F090C504C616D706E806F90608F03ACC02
:1021F0008091D203882319F087E090E08ACB85E0B4
:1022000090E087CB0E94EB02C090E203D090E30302
:10221000E090E403F090E5036C197D098E099F09B5
:102220006536710581059105E8F08091E60390918E
:10223000E70301969093E7038093E6030E94EB0285
:102240006093E2037093E3038093E4039093E503C8
:102250008BE10E94F50161E0892B09F060E08BE1E0
:102260000E941E028091E6039091E70307970CF409
:10227000F9CB1092E7031092E60346E050E050934A
:10228000E1034093E003E4CB60E08BE10E941E0297
:1022900061E08AE10E941E020E94EB02C090E2030C
:1022A000D090E303E090E403F090E5036C197D091E
:1022B0008E099F09C0900802D0900902E0900A029E
:1022C000F0900B02C616D706E806F90608F0CACB4E
:1022D0001092E1031092E003BBCB61E08BE10E941E
:1022E0001E0261E086E10E941E028091D2038111EC
:1022F000B9CB3092E1032092E003B4CB83E090E0CD
:1023000090930302809302021092C5031092D303AC
:102310008092C0039092C103A092C203B092C30303
:1023200080910E0290910F02092E000CAA0BBB0B9C
:102330008093C6049093C704A093C804B093C904C3
:102340003ACD83E090E090930702809306021092CA
:10235000CD031092D3034092C8035092C9036092F8
:10236000CA037092CB0380910C0290910D02092E4A
:10237000000CAA0BBB0B8093C2049093C304A093E0
:10238000C404B093C504EECD1092D2032ECE60E00B
:1023900070E0CB017ACE60E872E0C8010E940E08BE
:1023A000898D9A8D2D813E818217930751F4DD240A
:1023B000D394892B31F0B801CE0145960E941707BE
:1023C000D82EC8010E940F07DD2091F0C7010F2C05
:1023D000000CAA0BBB0B8093C2049093C304A09380
:1023E000C404B093C504F0920D02E0920C027CCEBE
:1023F0006BE872E0C8010E940E08898D9A8D2D81CC
:102400003E818217930751F4DD24D394892B31F058
:10241000B801CE0145960E941707D82EC8010E9428
:102420000F07DD2009F460CEC7010F2C000CAA0BAA
:10243000BB0B8093080290930902A0930A02B09309
:102440000B0252CE6AEA72E085E094E00E94B10786
:10245000D9CD89831A8241E050E0B80185E094E04B
:102460000E946907CFCD0E94EB022091FA033091C0
:10247000FB03DB01A21BB30B4091C0045091C104CC
:102480004A175B0708F045C17093FB036093FA039A
:1024900088EE93E09093C1048093C00486E30E9489
:1024A0007D029093F9038093F80387E30E947D02F5
:1024B0009093F7038093F60388E30E947D02909344
:1024C000F5038093F40388E30E947D0283E20E9477
:1024D000F5019093F3038093F20382E20E94F501E9
:1024E0009093F1038093F00381E20E94F5019093B1
:1024F000EF038093EE0380E20E94F5019093ED03D9
:102500008093EC038FE10E94F5019093EB0380939D
:10251000EA038EE10E94F5019093E9038093E803BA
:1025200060E080E00E94CB068BEA92E00E945F06AA
:1025300061E080E00E94CB0680EC92E00E945F06A2
:1025400062E080E00E94CB0684ED92E00E945F068C
:1025500063E080E00E94CB0689EE92E00E945F0675
:1025600060E085E00E94CB068091F8039091F9032A
:102570000E94A20661E085E00E94CB068091F603EE
:102580009091F7030E94A20662E085E00E94CB06CC
:102590008091F4039091F5030E94A206A091E603B6
:1025A000B091E70324E630E00E9465146B017C01E2
:1025B0008090C6049090C704A090C804B090C9044D
:1025C0002091C2043091C3044091C4045091C504C9
:1025D0002B8F3C8F4D8F5E8F0E94EB024090E20369
:1025E0005090E3036090E4037090E5039B01AC011D
:1025F000241935094609570929013A018091E00358
:102600009091E10363E0029708F086C083E00E94A6
:10261000CB068C0C9D1CAE1CBF1CC501B4016419FB
:1026200075098609970997FF03C060E070E0CB0148
:1026300028EE33E040E050E00E943E14CA01B901A8
:102640004AE00E9411068091E0039091E103049713
:1026500063E0029708F068C088E00E94CB068B8C8C
:102660009C8CAD8CBE8CC80CD91CEA1CFB1CC70111
:10267000B601641975098609970997FF03C060E0E0
:1026800070E0CB0128EE33E040E050E00E943E14C1
:10269000CA01B9014AE00E94110661E08FE00E9480
:1026A000CB068091F2039091F3030E94A20661E0B1
:1026B00081E10E94CB068091F0039091F1030E948A
:1026C000A20661E083E10E94CB068091EE03909127
:1026D000EF030E94A20663E08FE00E94CB06809188
:1026E000EC039091ED030E94A20663E081E10E9459
:1026F000CB068091EA039091EB030E94A20663E06F
:1027000083E10E94CB068091E8039091E9030E9447
:10271000A2060E94FC03B1C883E00E94CB0688EAAF
:1027200092E00E945F068FCF88E00E94CB0688EA85
:1027300092E00E945F06B1CF1F93FC019927882782
:10274000BC01E89411911032E9F3193010F01E30F9
:10275000C8F31B3251F01D3249F4689406C00E9440
:10276000CE13610F711D811D911D119110531A30EF
:10277000B0F33EF490958095709561957F4F8F4FA3
:102780009F4F1F910895BB274A3031F4992322F4BB
:10279000BDE2909581959F4F0C94E413592F482FDB
:1027A000372F262F660F771F881F991F660F771FF9
:1027B000881F991F620F731F841F951F660F771F55
:1027C000881F991F0895BB27FB015527AA27880F4B
:1027D000991FAA1FA41710F0A41B83955051B9F795
:1027E000A05DAA3308F0A95DA193009779F7B11114
:1027F000B1931192CB010C94FD13DC01FC01672F06
:1028000071917723E1F7329704C07C916D937083C7
:102810006291AE17BF07C8F30895A29FB001B39F9E
:10282000C001A39F700D811D1124911DB29F700DD9
:10283000811D1124911D0895A1E21A2EAA1BBB1B14
:10284000FD010DC0AA1FBB1FEE1FFF1FA217B3077C
:10285000E407F50720F0A21BB30BE40BF50B661F92
:10286000771F881F991F1A9469F760957095809556
:1028700090959B01AC01BD01CF010895052E97FBFA
:102880001EF400940E94551457FD07D00E941C149A
:1028900007FC03D04EF40C94551450954095309598
:1028A00021953F4F4F4F5F4F0895909580957095BC
:1028B00061957F4F8F4F9F4F0895EE0FFF1F881F29
:1028C0008BBF0790F691E02D19940E940D14B7FF6D
:1028D0000895821B930B08950F931F93CF93DF935B
:1028E0008230910510F482E090E0E091CC04F09108
:1028F000CD0430E020E0B0E0A0E0309799F421155D
:10290000310509F44AC0281B390B24303105D8F5AC
:102910008A819B816115710589F1FB019383828313
:10292000FE0111C04081518102811381481759076E
:10293000E0F04817590799F4109761F012960C933C
:10294000129713961C933296CF01DF91CF911F916E
:102950000F9108950093CC041093CD04F4CF21156A
:10296000310551F04217530738F0A901DB019A01F4
:10297000BD01DF01F801C1CFEF01F9CF9093CD0484
:102980008093CC04CDCFFE01E20FF31F819391938E
:102990002250310939832883D7CF2091CA0430913E
:1029A000CB04232B41F42091120230911302309377
:1029B000CB042093CA0420911002309111022115FA
:1029C000310541F42DB73EB74091140250911502E4
:1029D000241B350BE091CA04F091CB04E217F307F6
:1029E000A0F42E1B3F0B2817390778F0AC014E5F7F
:1029F0005F4F2417350748F04E0F5F1F5093CB04ED
:102A00004093CA04819391939FCFF0E0E0E09CCF84
:102A1000CF93DF930097E9F0FC0132971382128283
:102A2000A091CC04B091CD04ED0130E020E01097EE
:102A3000A1F420813181820F931F2091CA0430912B
:102A4000CB042817390709F061C0F093CB04E09359
:102A5000CA04DF91CF910895EA01CE17DF07E8F5A8
:102A60004A815B819E0141155105B1F7E901FB8364
:102A7000EA8349915991C40FD51FEC17FD0761F402
:102A8000808191810296840F951FE9019983888343
:102A9000828193819B838A83F0E0E0E012968D919E
:102AA0009C9113970097B9F52D913C911197CD0109
:102AB0000296820F931F2091CA043091CB042817ED
:102AC000390739F6309751F51092CD041092CC04A5
:102AD000B093CB04A093CA04BCCFD383C2834081FC
:102AE0005181840F951FC817D90761F44E5F5F4F5E
:102AF00088819981480F591F518340838A819B8126
:102B0000938382832115310509F0B0CFF093CD0472
:102B1000E093CC049ECFFD01DC01C0CF1382128272
:102B2000D7CF4F925F926F927F928F929F92AF9288
:102B3000BF92CF92DF92EF92FF920F931F93CF93AA
:102B4000DF938C01009799F4CB01DF91CF911F9116
:102B50000F91FF90EF90DF90CF90BF90AF909F903C
:102B60008F907F906F905F904F900C946C14FC014D
:102B7000E60FF71F9C0122503109E217F30708F412
:102B8000AEC0D901CD91DC911197C617D70720F1BE
:102B9000C530D10578F0CE0104978617970750F01D
:102BA000C61BD70B2297C193D1936D937C93CF0112
:102BB0000E940815C801DF91CF911F910F91FF90DE
:102BC000EF90DF90CF90BF90AF909F908F907F90CD
:102BD0006F905F904F9008955B01AC1ABD0A4C0155
:102BE0008C0E9D1EA091CC04B091CD04512C412C93
:102BF000F12CE12C109731F58091CA049091CB040F
:102C00008815990509F05CC04616570608F058C0AB
:102C10008091100290911102009741F48DB79EB7F8
:102C20004091140250911502841B950BE817F90787
:102C300008F055C0F093CB04E093CA04F901718306
:102C40006083B8CF8D919C91119712966C901297DA
:102C500013967C901397A815B90559F56C0142E0BD
:102C6000C40ED11CCA14DB0420F1AC014A195B0963
:102C7000DA011296159780F0628273825183408345
:102C8000D9016D937C93E114F10471F0D70113968F
:102C9000FC93EE9312978ECF22968C0F9D1FF90115
:102CA00091838083F301EFCFF093CD04E093CC04C4
:102CB00081CF4816590608F42C017D01D3019ACF23
:102CC000CB010E946C147C01009749F0AE01B80161
:102CD0000E947A16C8010E94081587016BCF10E088
:102CE00000E068CF9111089581548A5108F4805E04
:102CF000855A0895FB01DC0102C001900D924150FC
:102D00005040D8F70895FC018191861721F088235F
:102D1000D9F7992708953197CF010895FB01DC0178
:0E2D200001900D920020E1F70895F894FFCF86
:102D2E00FFFF0300FFFF0300F4010000D007D007F0
:102D3E000000CE048000000040001400540000008B
:102D4E0000008F03F9022603DC0357033503490302
:102D5E0000000000EA04BD0401069304B604A304B7
:102D6E009404000000009C06F9020106000650655E
:102D7E00646573747269616E312063726F73736907
:102D8E006E67005072696F20002053656E736F720C
:102D9E00732D433A00677265656E54696D65310037
:102DAE00677265656E54696D65320079656C6C6F1E
:102DBE007754696D650020202020202020202020BF
:102DCE0020202020202020202020004C4452312082
:102DDE00202020202020434E592031203220330045
:102DEE004C44523220202020202020202020202041
:102DFE0020202000434F322020202020202020435E
:102E0E004E59203420352036004C312020204C32B3
:0E2E1E00202020202020202020202020000026
:00000001FF
