:100000000C949C010C94CD010C94CD010C94CD0169
:100010000C94CD010C94CD010C94CD010C94CD0128
:100020000C94CD010C94CD010C94CD010C94CD0118
:100030000C94CD010C94CD010C94CD010C94CD0108
:100040000C94CD010C94CD010C94CD010C94CD01F8
:100050000C94CD010C94CD010C94CD010C9421098C
:100060000C94CD010C9495090C946B090C94CD0162
:100070000C94CD010C94CD010C94CD010C94CD01C8
:100080000C94CD010C94CD010C94CD010C94CD01B8
:100090000C94CD010C94CD010C94CD010C94CB09A2
:1000A0000C94CD010C94CD010C94CD010C94CD0198
:1000B0000C94CD010C94CD010C94CD010C94CD0188
:1000C0000C94CD010C94CD010C94CD010C94CD0178
:1000D0000C94CD010C94CD010C94CD010C94CD0168
:1000E0000C94CD0107634236B79BD8A71A396856DE
:1000F00018AEBAAB558C1D3CB7CC5763BD6DEDFD4A
:10010000753EF6177231BF000000803F0800000006
:10011000BE922449123EABAAAA2ABECDCCCC4C3EFC
:1001200000000080BEABAAAAAA3E00000000BF00EB
:100130000000803F0000000000084178D3BB4387E7
:10014000D1133D190E3CC3BD4282AD2B3E68EC82FB
:1001500076BED98FE1A93E4C80EFFFBE01C4FF7F80
:100160003F00000000000C9411070C94D4040C9480
:10017000D00D0C9448120C94FE040C94A90D0C9410
:100180001D040C9424020C943A030C941A020C944F
:10019000170D0C9442060C9439030C9432020C9403
:1001A000EF0A0C9420020C94CA120C94ED010C94EA
:1001B00038030C941A120C9467030C9476030C9475
:1001C00002020C94F3010C942E020C9428020C945D
:1001D0002D020C94D0030C94F7040C94E4040C94BA
:1001E00016020C94FB010C94D5040C9408020C9498
:1001F000F7010C94FF010C94A1120C940C020C94C6
:1002000098030C94520D0C9441060C9412020C9419
:100210008A030C942B0500002100240027002A00EB
:100220002D003000330001010000040107010A0124
:1002300000002200250028002B002E003100340091
:1002400002010000050108010B010000200023004D
:10025000260029002C002F003200000100000301BD
:100260000601090105050505070508080808020239
:1002700002020A0A08080404040401010101010140
:1002800001010303030303030303040707070C0C23
:100290000C0C0C0C0C0C02020202060606060606EA
:1002A00006060B0B0B0B0B0B0B0B0102102020088F
:1002B00008102040102040800201020108040201C1
:1002C0000102040810204080804020100804020130
:1002D0008004020180402010080402010804020189
:1002E0000102040810204080010204081020408010
:1002F00000000A0B02090C0D0E08070304010000A0
:1003000000000000000000000000000000000000ED
:1003100000000000000000000000000012111000AA
:1003200000000000000000000000000000000000CD
:10033000000000000000EF0A11241FBECFEFD1E241
:10034000DEBFCDBF00E00CBF25E0AAE2B4E001C0F3
:100350001D92AC3FB207E1F714E0A0E0B2E0EEEC92
:10036000F9E300E00BBF02C007900D92AA32B1077B
:10037000D9F711E0CCE9D1E000E006C021970109EE
:10038000802FFE010E94AC1ACB39D10780E008070C
:10039000A9F70E94570B0C94E51C0C9400008150A7
:1003A000823108F05AC0E82FF0E08827E552FE4F6E
:1003B0008F4F0C94AC1AFB01FF01ED01F301F70123
:1003C0002D02020208020C02120216021A02200278
:1003D00024022D0228022E023202809180008F77A3
:1003E000809380000895809180008F7DF9CF809167
:1003F0008000877FF5CF84B58F7784BD089584B55D
:100400008F7DFBCF8091B0008F778093B0000895EF
:100410008091B0008F7DF9CF809190008F7780938D
:1004200090000895809190008F7DF9CF8091900089
:10043000877FF5CF8091A0008F778093A0000895EB
:100440008091A0008F7DF9CF8091A000877FF5CFAC
:10045000809120018F778093200108958091200161
:100460008F7DF9CF80912001877FF5CFCF93DF93E8
:10047000282F30E0F901E051FD4F8491F901E65554
:10048000FD4FD491F901EC59FD4FC491CC23A1F05B
:1004900081110E94CF01EC2FF0E0EE0FFF1FE65B11
:1004A000FD4FA591B491EC91ED2381E090E009F42A
:1004B00080E0DF91CF91089580E090E0FACF1F9324
:1004C000CF93DF93282F30E0F901E051FD4F849165
:1004D000F901E655FD4FD491F901EC59FD4FC49156
:1004E000CC23A9F0162F81110E94CF01EC2FF0E050
:1004F000EE0FFF1FE05DFD4FA591B4918FB7F8940B
:10050000EC91111108C0D095DE23DC938FBFDF91F1
:10051000CF911F910895DE2BF8CFCF93DF9390E01A
:10052000FC01E655FD4F24918C599D4FFC018491AF
:100530008823D1F090E0880F991FFC01EA5EFD4FFF
:10054000A591B491FC01E05DFD4FC591D49161117D
:100550000EC09FB7F8948C91E22FE0958E238C9378
:100560002881E223E8839FBFDF91CF9108958FB761
:10057000F894EC91E22BEC938FBFF6CF90917B0037
:10058000977F90937B008653806480937C0080915A
:100590007A00806480937A0080917A0086FDFCCF97
:1005A000809178009091790008953FB7F8948091F8
:1005B000310590913205A0913305B091340526B5EF
:1005C000A89B05C02F3F19F00196A11DB11D3FBF8B
:1005D000BA2FA92F982F8827BC01CD01620F711D5A
:1005E000811D911D42E0660F771F881F991F4A9554
:1005F000D1F708958F929F92AF92BF92CF92DF92E0
:10060000EF92FF924B015C010E94D5026B017C01CD
:100610000E94D5026C197D098E099F09683E7340BE
:1006200081059105A8F321E0821A9108A108B1087B
:1006300088EEC80E83E0D81EE11CF11C81149104E1
:10064000A104B10429F7FF90EF90DF90CF90BF9005
:10065000AF909F908F9008952FB7F89460912D05DB
:1006600070912E0580912F05909130052FBF089530
:1006700008950895AF92BF92CF92DF92EF92FF92CA
:100680000F931F93CF93DF936C017B018B01040FBA
:10069000151FEB015E01AE18BF08C017D10759F056
:1006A0006991D601ED91FC910190F081E02DC60198
:1006B0001995892B79F7C501DF91CF911F910F9182
:1006C000FF90EF90DF90CF90BF90AF900895FC0126
:1006D000538D448D252F30E0842F90E0821B930BA7
:1006E000541710F0CF96089501970895FC01918D4D
:1006F000828D981761F0A28DAE0FBF2FB11D5D9650
:100700008C91928D9F5F9F73928F90E008958FEFF1
:100710009FEF0895FC01918D828D981731F0828DA5
:10072000E80FF11D858D90E008958FEF9FEF0895FC
:10073000FC01918D228D892F90E0805C9F4F821B60
:1007400091098F73992708958BE395E00E94980390
:1007500021E0892B09F420E0822F0895FC01A48D6B
:10076000A80FB92FB11DA35ABF4F2C91848D90E0D3
:1007700001968F739927848FA689B7892C93A089B6
:10078000B1898C91837080648C93938D848D981340
:1007900006C00288F389E02D80818F7D80830895D3
:1007A000EF92FF920F931F93CF93DF93EC0181E0C1
:1007B000888F9B8D8C8D98131AC0E889F989808168
:1007C00085FF15C09FB7F894EE89FF896083E8899B
:1007D000F98980818370806480839FBF81E090E08D
:1007E000DF91CF911F910F91FF90EF900895F62E1A
:1007F0000B8D10E00F5F1F4F0F731127E02E8C8DB4
:100800008E110CC00FB607FCFACFE889F9898081F8
:1008100085FFF5CFCE010E94AE03F1CFEB8DEC0F3B
:10082000FD2FF11DE35AFF4FF0829FB7F8940B8F15
:10083000EA89FB8980818062CFCFCF93DF93EC017F
:10084000888D8823B9F0AA89BB89E889F9898C91B8
:1008500085FD03C0808186FD0DC00FB607FCF7CF74
:100860008C9185FFF2CF808185FFEDCFCE010E9474
:10087000AE03E9CFDF91CF91089580E090E0892B1E
:1008800029F00E94A40381110E94000080E090E002
:10089000892B49F080E090E0892B29F00E9400002C
:1008A00081110E94000080E090E0892B49F080E0F7
:1008B00090E0892B29F00E94000081110E94000025
:1008C00080E090E0892B49F080E090E0892B29F0CE
:1008D0000E94000081110C94000008952091920460
:1008E000260F3327331F21323105ECF42091B60453
:1008F000FC0190E080E0243069F082E00895A0914E
:1009000092042191AC014E585B4FA40FB52FB11D3D
:100910002C930196861798F380919204680F609348
:10092000920480E0089581E008951092B60481E079
:100930008093B8041092B70461E084E10E945F02E2
:1009400061E085E10E945F02E9EBF0E080818E7F4B
:10095000808380818D7F808388E48093B80085E4E4
:100960008093BC000895CF93DF9391E0909371043E
:100970008823B9F0C091B800D091BA008091BC0032
:100980008A7B8093BC0060E084E10E945F0260E0AB
:1009900085E10E945F020E949504D093BA00C09343
:1009A000B800DF91CF9108950895E091E30480911C
:1009B000E204E81730F4F0E0E45BFB4F808190E064
:1009C00008958FEF9FEF08959091E3048091E204E2
:1009D0002FEF3FEF981748F4E92FF0E0E45BFB4F6F
:1009E000208130E09F5F9093E304C90108958091D6
:1009F000E2049091E304891B990B0895CF92DF9252
:100A0000EF92FF920F931F93CF93DF937C01CB0163
:100A10008A0120914B04222389F0EB016B01C40E63
:100A2000D51ECC15DD0569F06991D701ED91FC91DA
:100A30000190F081E02DC7011995F3CF642F0E943A
:100A40006E04C801DF91CF911F910F91FF90EF903D
:100A5000DF90CF900895CF93DF931F92CDB7DEB78D
:100A6000698320914B042223F9F02091E004203285
:100A700058F021E030E0FC013383228390E080E0F5
:100A80000F90DF91CF9108958091E104E82FF0E07D
:100A9000E55DFB4F998190838F5F8093E1048093A4
:100AA000E00481E090E0ECCF61E0CE0101960E948D
:100AB0006E04F7CFCF92DF92EF92FF920F931F93C6
:100AC000CF93DF93FC01C48121E020934B04C093BA
:100AD0002A041092E1041092E0048385682B88EDCB
:100AE00095E00E942B05D091E004D13208F092C02D
:100AF0000E94D5026B017C018091B604811165C012
:100B000082E08093B60481E08093B8048FEF8093F5
:100B1000B5041092DA04D093D904ABE2B4E0E9EB67
:100B2000F4E080E0D81385C01092DB048091DB04F0
:100B3000CC0FC82BC093DB048091B704813009F03F
:100B40007CC01092B7040E94D5026B017C01809199
:100B5000DB048093BB0080916D0490916E04A091A2
:100B60006F04B0917004892B8A2B8B2B99F00E9413
:100B7000D50200916D0410916E0420916F043091A4
:100B800070046C197D098E099F090617170728073D
:100B90003907E0F18091BC0083FDD9CF85EC8093CB
:100BA000BC000E94D5026B017C018091B6048230AA
:100BB00009F445C08091B5048F3F61F18091B5047F
:100BC000803241F18091B50425C080916D049091EF
:100BD0006E04A0916F04B0917004892B8A2B8B2B2B
:100BE00009F48ACF0E94D50200916D0410916E0421
:100BF00020916F04309170046C197D098E099F0952
:100C0000061717072807390708F076CF80916C047C
:100C10000E94B3041092E1041092E00410924B047D
:100C2000DF91CF911F910F91FF90EF90DF90CF90C8
:100C300008959D9191938F5F75CF85EEB0CF809190
:100C40006D0490916E04A0916F04B0917004892B93
:100C50008A2B8B2B09F4A9CF0E94D50200916D0439
:100C600010916E0420916F04309170046C197D090D
:100C70008E099F09061717072807390708F095CF2F
:100C8000C5CF089590E080E008950E942C037093F2
:100C90002B0560932A0580910C0290910D02909390
:100CA00029028093280208958F929F92AF92BF925B
:100CB0000F931F93CF93DF93CDB7DEB7A1970FB6F6
:100CC000F894DEBF0FBECDBF19A2423008F44AE04F
:100CD0008E010F5D1F4F842E912CB12CA12CA501EC
:100CE00094010E946B1AE62FB901CA01EA3044F55B
:100CF000E05DD801EE938D01232B242B252B79F772
:100D000090E080E0109769F0FD0101900020E9F784
:100D10003197AF014A1B5B0BBD0184EE95E00E9449
:100D20003A03A1960FB6F894DEBF0FBECDBFDF9198
:100D3000CF911F910F91BF90AF909F908F9008958A
:100D4000E95CD7CFFC0101900020E9F73197AF01B2
:100D5000481B590BBC0184EE95E00C943A030F93A9
:100D60001F93CF938C01C62F0E945A056C2F64608D
:100D7000C8010E945A056C2F6B7FC8010E945A055A
:100D800083EC90E00197F1F7CF911F910F910895B7
:100D90000F931F93CF93DF938C01D62FC42F607FC7
:100DA000642B0E94AF0680E1D89FB00111246C2B08
:100DB000C801DF91CF911F910F910C94AF06CF9393
:100DC000DF9300D000D01F921F92CDB7DEB798E01E
:100DD000E4E3F2E0DE01119601900D929A95E1F7BD
:100DE0009091EC05961710F46FEF690F262F30E005
:100DF000220F331F41E050E04C0F5D1F240F351FC1
:100E0000F9016081680F606840E084EE95E0289603
:100E10000FB6F894DEBF0FBECDBFDF91CF910C941B
:100E2000C80641E00E94C80681E090E00895CF9294
:100E3000DF92EF92FF926C01990FEE08FF08F7FE28
:100E400016C041E06DE284EE95E00E94C806662778
:100E50007727CB016C197D098E099F094AE00E9412
:100E600054060196FF90EF90DF90CF9008954AE0EE
:100E7000C701B601FF90EF90DF90CF900C9454061D
:100E8000CF92DF92EF92FF9210920C0510920D0517
:100E900010920E0510920F0588E30E94BE02BC015D
:100EA000990F880B990B0E94951620E030E040EADC
:100EB00050E40E94F41620E030EC4FE754E40E9426
:100EC000391820E030E048E051E40E9439186B0105
:100ED0007C0124E13EEA47E85EE30E94E11887FDD9
:100EE0002CC080E090E0A8ECB3E480930C059093D4
:100EF0000D05A0930E05B0930F0560910802709147
:100F0000090290E080E00E94931620910C05309138
:100F10000D0540910E0550910F050E94F41620E03A
:100F200030E44CE156E40E9439180E94AB18CB0122
:100F3000FF90EF90DF90CF90089524E13EEA47E8DC
:100F40005EE3C701B6010E94CC172BE83CEC47E1F9
:100F50005EEB0E9439182BE237E846E250E40E942B
:100F6000CD179B01AC0160E070E080E291E40E944B
:100F7000E61860930C0570930D0580930E05909311
:100F80000F05BBCFCF93DF93EC0188819981009748
:100F900011F00E94581B198218821D821C821B822C
:100FA0001A82DF91CF910895FC0180819181009791
:100FB00011F00C94581B0895EF92FF920F931F931A
:100FC000CF93DF938617970769F1FC012481358160
:100FD000FB014481558124173507E1F4232B11F1DE
:100FE000FC0100811181FB01C081D181F801819157
:100FF0008F018823B9F0082E000C990B0E94C21CA7
:101000007C018991082E000C990B0E94C21CE816E5
:10101000F90661F380E0DF91CF911F910F91FF906E
:10102000EF90089581E0F7CF0F931F93CF93DF9355
:10103000EC0188819981009759F02A813B8126171C
:10104000370730F081E0DF91CF911F910F91089524
:101050008B016F5F7F4F0E94E11B009759F09983CE
:1010600088831B830A832C813D81232B59F7FC0144
:101070001082E8CF80E0E7CFEF92FF920F931F93AB
:10108000CF93DF9341155105B1F07B01EC010C8149
:101090001D81040F151FB8010E941408882361F0F8
:1010A000288139818C819D81B701820F931F0E9415
:1010B000DE1C1D830C8381E0DF91CF911F910F9186
:1010C000FF90EF900895EF92FF920F931F93CF93AD
:1010D000DF93EC017B018A01BA010E94140881119F
:1010E0000BC0CE010E94C207CE01DF91CF911F91AC
:1010F0000F91FF90EF9008951D830C83B7018881B5
:1011000099810E94DE1CF0CFFB0101900020E9F7DD
:101110003197AF01461B570B0C946308FC011182F9
:1011200010821382128215821482FB01019000202A
:10113000E9F73197AF01461B570B0C946308CF9228
:10114000DF92EF92FF920F931F93CF93DF936C0187
:101150007B018A014617570720F48F2D7A01062F4D
:10116000182F61ED73E0C6010E948E08C091390509
:10117000D0913A05EC16FD06F8F40C171D0708F49B
:10118000E801E0913505F0913605EC0FFD1F108167
:10119000108260913505709136056E0D7F1DC60178
:1011A0006115710599F00E94840880913505909130
:1011B0003605C80FD91F1883C601DF91CF911F9143
:1011C0000F91FF90EF90DF90CF9008950E94C2079B
:1011D000ECCF85ED8093BC0080916D0490916E04FE
:1011E000A0916F04B09170040796A11DB11D23E07A
:1011F000B695A795979587952A95D1F72091BC002C
:1012000024FD03C01092B604089540916D045091DE
:101210006E0460916F0470917004452B462B472B30
:1012200069F30097A105B10541F02AE22A95F1F78B
:1012300000C00197A109B109E1CF80916C040C9421
:10124000B3041F920F920FB60F9211242F933F9366
:101250008F939F93AF93BF9380912D0590912E050F
:10126000A0912F05B091300530912C0523E0230F7C
:101270002D3758F50196A11DB11D20932C058093A3
:101280002D0590932E05A0932F05B09330058091E6
:10129000310590913205A0913305B0913405019646
:1012A000A11DB11D8093310590933205A0933305A4
:1012B000B0933405BF91AF919F918F913F912F9142
:1012C0000F900FBE0F901F90189526E8230F0296DF
:1012D000A11DB11DD2CF1F920F920FB60F921124F4
:1012E0000BB60F922F933F934F935F936F937F9320
:1012F0008F939F93AF93BF93EF93FF938BE395E00F
:101300000E94AE03FF91EF91BF91AF919F918F919A
:101310007F916F915F914F913F912F910F900BBEF5
:101320000F900FBE0F901F9018951F920F920FB63F
:101330000F9211240BB60F922F938F939F93EF93DD
:10134000FF93E0914B05F0914C058081E0915105B0
:10135000F091520582FD1DC09081809154058F5FF0
:101360008F7320915505821741F0E0915405F0E00C
:10137000E55CFA4F958F80935405FF91EF919F9113
:101380008F912F910F900BBE0F900FBE0F901F905B
:1013900018958081F2CF1F920F920FB60F921124F1
:1013A0000BB60F922F933F934F935F936F937F935F
:1013B0008F939F93AF93BF93EF93FF938091B90067
:1013C000887F803609F44DC008F040C0883209F4A7
:1013D000A9C028F5803109F49DC0C8F4882309F418
:1013E000FBC0883009F496C0FF91EF91BF91AF9197
:1013F0009F918F917F916F915F914F913F912F912D
:101400000F900BBE0F900FBE0F901F901895883154
:1014100009F488C0803241F78093B50414C0803449
:1014200009F49DC040F48033B9F38833E9F6809322
:10143000B50485ECB0C0803509F485C0883509F461
:1014400096C0883489F60E94E908CECF883909F41D
:101450008CC038F5883729F050F4883611F0803781
:1014600019F683E08093B6041092B40457C088380C
:1014700009F47BC0803919F0803809F0B5CF80912C
:10148000B404803208F071C0E091B40481E08E0FA2
:101490008093B4048091BB00F0E0EC56FB4F808356
:1014A0003DC0803B39F0E0F4803A09F479C0883AD5
:1014B00009F09ACF84E08093B604109293041092BE
:1014C0009204E091DE04F091DF041995809192047A
:1014D00081110FC081E0809392041092720409C0C0
:1014E000803C09F4A6CF883C09F4A3CF883B09F0DF
:1014F0007BCFE091930481E08E0F80939304F0E022
:10150000EE58FB4F80818093BB00909193048091B3
:10151000920429C08091DB048093BB0085EC80930A
:10152000BC0062CF9091DA048091D904981758F5E5
:10153000E091DA0481E08E0F8093DA04F0E0E75462
:10154000FB4F8081E9CFE091DA0481E08E0F809338
:10155000DA048091BB00F0E0E754FB4F8083909168
:10156000DA048091D9049817C8F285E8D8CFE091C1
:10157000DA0481E08E0F8093DA048091BB00F0E002
:10158000E754FB4F80838091B80481115CCF81E0E8
:101590008093B70484EA8093BC001092B60424CFF1
:1015A00085EC8093BC001092B6048091B404803224
:1015B00030F4E091B404F0E0EC56FB4F10826091FF
:1015C000B40470E0E091DC04F091DD0484E994E07F
:1015D00019951092B40408CF1092B50434CFEBE300
:1015E000F5E01382128288EE93E0A0E0B0E08483FD
:1015F0009583A683B78320E432E03183208325ECF2
:1016000030E03587248724EC30E03787268720ECCC
:1016100030E0318B208B21EC30E0338B228B22ECBD
:1016200030E0358B248B26EC30E0378B268B118E07
:10163000128E138E148EE8EDF5E0138212828483ED
:101640009583A683B78382E592E09183808380911E
:101650002C0290912D02092E000CAA0BBB0B80933B
:10166000F4059093F505A093F605B093F7058091E6
:101670002A0290912B02092E000CAA0BBB0B80931F
:10168000F0059093F105A093F205B093F305E4EE15
:10169000F5E01382128284E692E09183808387E2F0
:1016A000848384E1818784E0828713860895CF93C1
:1016B000DF93CDB7DEB76E970FB6F894DEBF0FBEDF
:1016C000CDBF789484B5826084BD84B5816084BDCB
:1016D00085B5826085BD85B5816085BD80916E00D0
:1016E000816080936E001092810080918100826001
:1016F000809381008091810081608093810080913E
:1017000080008160809380008091B100846080932C
:10171000B1008091B00081608093B0008091910011
:10172000826080939100809191008160809391000C
:10173000809190008160809390008091A1008260F0
:101740008093A1008091A10081608093A10080918D
:10175000A00081608093A00080912101826080932D
:1017600021018091210181608093210180912001DC
:1017700081608093200180917A00846080937A0058
:1017800080917A00826080937A0080917A008160F3
:1017900080937A0080917A00806880937A0010921A
:1017A000C1000E942C036B017C0161E086E10E9474
:1017B0008D0261E087E10E948D0261E088E10E9474
:1017C0008D0261E089E10E948D0261E08AE10E9460
:1017D0008D0261E08BE10E948D0260E085E20E9453
:1017E0008D0260E083E20E948D0260E082E20E944E
:1017F0008D0260E081E20E948D0260E080E20E9442
:101800008D0260E08FE10E948D0260E08EE10E9417
:101810008D0260E086E30E948D0260E087E30E9413
:101820008D0260E088E30E948D021092E304109222
:10183000E2041092E1041092E0040E94950488E30F
:1018400093E09093DF048093DE0489E393E0909328
:10185000DD048093DC041092E9058091EE0582306E
:1018600018F098E09093E9058093EC0562E370E04E
:1018700080E090E00E94FA026091EF0584EE95E02E
:101880000E945A0568EE73E080E090E00E94FA0240
:1018900060E384EE95E00E94AF060BE416E4C80115
:1018A0000197F1F760E384EE95E00E94AF06C8016E
:1018B0000197F1F760E384EE95E00E94AF0683E5BF
:1018C00092E00197F1F760E284EE95E00E94AF06A6
:1018D0006091E905606240E084EE95E00E94C806F0
:1018E00084E08093EA0540E06CE084EE95E00E949D
:1018F000C80640E061E084EE95E00E94C8060BE374
:101900001FE1C8010197F1F782E0B82EB092EB0514
:1019100040E066E084EE95E00E94C80640E062E0A8
:1019200084EE95E00E94C806C8010197F1F788E0AF
:101930008093EF0560E084EE95E00E945A05C09226
:101940001205D0921305E0921405F0921505E0916E
:101950004B05F0914C05B082E0914705F0914805A8
:101960001082E0914905F0914A058FEC8083109236
:101970005305E0914F05F091500586E08083E0919A
:101980004D05F0914E05808180618083E0914D0589
:10199000F0914E05808188608083E0914D05F09143
:1019A0004E05808180688083E0914D05F0914E0561
:1019B00080818F7D8083C0920005D0920105E092E6
:1019C0000205F09203051092F9041092FE041092A1
:1019D000F4041092F5041092F6041092F704C092E9
:1019E000FA04D092FB04E092FC04F092FD04D09241
:1019F0002B05C0922A0594E0292E312C8E010F5F11
:101A00001F4FE0911005F0911105E830F10508F045
:101A100004C18827E15FF24F8F4F0C94AC1A170D69
:101A2000520DA90DD00D1A124812A112CA1261E06E
:101A300088E10E945F0261E089E10E945F0260E04C
:101A40008AE10E945F0260E086E10E945F0260E03E
:101A500087E10E945F0260E08BE10E945F020E94CA
:101A60002C03C0901205D0901305E0901405F0905F
:101A700015056C197D098E099F09C090F405D09059
:101A8000F505E090F605F090F7056C157D058E05DF
:101A90009F0508F4C2C081E090E090931105809307
:101AA0001005B1C00E942C03C0901205D090130500
:101AB000E0901405F09015056C197D098E099F09B9
:101AC000C0902402D0902502E0902602F0902702D8
:101AD000C616D706E806F906F8F4E0901605F09069
:101AE000170588E10E94360261E0892B09F060E069
:101AF00088E10E945F022FEFE21AF20AF0921705C6
:101B0000E09216050E942C03609312057093130552
:101B100080931405909315058091160590911705F3
:101B2000092E000CAA0BBB0B40911C0250911D0208
:101B300060911E0270911F02481759076A077B07C0
:101B40000CF06BC0109217051092160582E090E021
:101B5000A4CF61E087E10E945F0260E088E10E941B
:101B60005F020E942C03C0901205D0901305E090F4
:101B70001405F09015056C197D098E099F09C09018
:101B80002002D0902102E0902202F0902302C6169B
:101B9000D706E806F90608F040C083E090E07DCF64
:101BA00061E086E10E945F0260E087E10E945F02DF
:101BB00061E08AE10E945F0260E08BE10E945F02C7
:101BC00060E089E10E945F020E942C03C090120530
:101BD000D0901305E0901405F09015056C197D095F
:101BE0008E099F09C0902002D0902102E09022022D
:101BF000F0902302C616D706E806F90670F4309274
:101C00001105209210050E942C0360931205709319
:101C10001305809314059093150585E20E94360202
:101C20002091E904211135C0019799F581E0809355
:101C3000E8048093FF04C0901205D0901305E09053
:101C40001405F09015050E942C0320911A02309182
:101C50001B028090F4059090F505A090F605B090D9
:101C6000F705C80CD91CEA1CFB1CC61AD70AE80ADF
:101C7000F90AC901B0E0A0E08C159D05AE05BF05CD
:101C800068F48093F4059093F505A093F605B0935E
:101C9000F7058091E804882309F43FC0809110057E
:101CA00090911105892BC9F50E942C036093E404DF
:101CB0007093E5048093E6049093E70481E08093B9
:101CC000E9044091F0055091F1056091F2057091A1
:101CD000F30550932B0240932A0280910A029091BF
:101CE0000B02092E000CAA0BBB0B840F951FA61F1D
:101CF000B71F8093F0059093F105A093F205B09380
:101D0000F3051092E80460E080E00E94DF068CE6B4
:101D100092E00E94A2060E9445068091E904882371
:101D200009F461C00E942C03C090E404D090E50443
:101D3000E090E604F090E7049B01AC012C193D090A
:101D40004E095F0969017A01A0911605B091170546
:101D500020912402309125024091260250912702C1
:101D60000E94B41A8090F0059090F105A090F205C1
:101D7000B090F305680D791D8A1D9B1D809020028F
:101D800090902102A0902202B0902302860E971E0E
:101D9000A81EB91E8C149D04AE04BF0420F5109239
:101DA000E90480912A0290912B02092E000CAA0BC3
:101DB000BB0B8093F0059093F105A093F205B093CF
:101DC000F30580912C0290912D02092E000CAA0B94
:101DD000BB0B8093F4059093F505A093F605B093A3
:101DE000F7051092FF040E942C034B015C018091C7
:101DF000FA049091FB04A091FC04B091FD04A501AC
:101E00009401281B390B4A0B5B0BDA01C9010B97B4
:101E1000A105B10508F461C08091FF0481115DC086
:101E20007090F0048092FA049092FB04A092FC045B
:101E3000B092FD0483E20E9436027C019093230558
:101E40008093220582E20E9436026C019093210564
:101E50008093200581E20E94360290931F058093B3
:101E60001E05EC0CFD1CE80EF91E83E090E08E19B7
:101E70009F09181619068CF52091F10421112DC027
:101E8000711030C04091EC045091ED046091EE046B
:101E90007091EF0475016401C41AD50AE60AF70AC5
:101EA0004091100250911102609112027091130240
:101EB0004C155D056E057F0508F05EC01092FE04AE
:101EC00021E02093F0049093EB048093EA042093A4
:101ED000FF0490930302809302028091F004882310
:101EE00009F44AC08091100590911105892B09F0E1
:101EF00043C081E08093F1041092F004C090F40597
:101F0000D090F505E090F605F090F705D0922D02FF
:101F1000C0922C020E94400720910E0230910F02C5
:101F2000820F931F092E000CAA0BBB0B8C0D9D1D5D
:101F3000AE1DBF1D8093F4059093F505A093F605A3
:101F4000B093F70561E080E00E94DF0681E892E04F
:101F50000E94A2068091EA049091EB040E94170768
:101F600087E892E00E94A20680910202909103020B
:101F70000E9417070E944506C0901005D0901105D9
:101F80008091F104882389F18091000290910102EF
:101F9000892B59F5C114D10441F18091020290912D
:101FA0000302019790930302809302021816190608
:101FB000E4F01092F1041092FF048092EC049092ED
:101FC000ED04A092EE04B092EF0480912C02909167
:101FD0002D02092E000CAA0BBB0B8093F4059093E5
:101FE000F505A093F605B093F705D0920102C092D3
:101FF00000020E942C032B013C018091FA04909175
:10200000FB04A091FC04B091FD04A3019201281BE4
:10201000390B4A0B5B0BDA01C9010B97A105B1051E
:1020200008F45FC08091FF0481115BC09090F804B8
:102030004092FA045092FB046092FC047092FD04FA
:1020400080E20E9436027C0190931D0580931C055E
:102050008FE10E9436025C0190931B0580931A0564
:102060008EE10E9436029093190580931805EA0CC0
:10207000FB1CE80EF91E83E090E08E199F091816EC
:1020800019067CF52091F90421112BC091102EC066
:102090004091F4045091F5046091F6047091F704B6
:1020A00053014201841A950AA60AB70A4091140204
:1020B000509115026091160270911702481559054A
:1020C0006A057B0508F060C021E02093F804909336
:1020D000F3048093F2042093FF049093070280930B
:1020E00006028091F804882309F44EC034E0C31638
:1020F000D10409F049C081E08093F9041092F804FA
:102100008091F0059091F105A091F205B091F30551
:1021100090932B0280932A02C0901802D09019024B
:102120000D2C000CEE08FF08C80ED91EEA1EFB1E7F
:102130000E944007092E000CAA0BBB0B8C0D9D1DA5
:10214000AE1DBF1D8093F0059093F105A093F2059D
:10215000B093F30561E080E00E94DF0681E892E041
:102160000E94A2068091F2049091F3040E94170746
:1021700087E892E00E94A2068091060290910702F1
:102180000E9417070E944506209110053091110505
:102190008091040290910502049721F481E024309B
:1021A000310509F480E09091F904992351F18823D5
:1021B00041F18091060290910702019790930702E6
:1021C0008093060218161906E4F01092F904109292
:1021D000FF044092F4045092F5046092F604709269
:1021E000F70480912A0290912B02092E000CAA0B71
:1021F000BB0B8093F0059093F105A093F205B0938B
:10220000F30530930502209304020E942C03C09032
:102210000005D0900105E0900205F09003059B01B8
:10222000AC012C193D094E095F0969017A0131EDB4
:10223000C31637E0D306E104F10430F12091FF0426
:10224000211122C06093000570930105809302055F
:102250009093030587E30E94BE027C0190932705BB
:102260008093260586E30E94BE0290932905809301
:1022700028054CE3E416F1040CF09DC1CC970CF05A
:102280009AC181E08093FE0480910405811109C008
:1022900061ED73E085E395E00E948E0881E0809314
:1022A00004058BE395E00E949803181619060CF0BC
:1022B000D8C28BE395E00E9476038A3009F0C7C24A
:1022C0008091390590913A05892B09F4B9C2C090E3
:1022D0003505D09036056AE370E0C6010E94D31C34
:1022E000009709F4ADC27C01EC18FD085FEFE5161C
:1022F000F50609F4A5C2A70170E060E0CE0145969D
:102300000E949F084091390550913A05B7016F5FCF
:102310007F4FCE010F960E949F088F859889812C50
:10232000912C5401009719F00E9422164B01740160
:1023300063E972E0C8010E948E08B801CE0145969B
:102340000E94DC07D82EC8010E94D407DD2009F4C2
:1023500035C1C401092C000CAA0BBB0B8093F405FA
:102360009093F505A093F605B093F70590922D0292
:1023700080922C0263E080E00E94DF068DEB93E008
:102380000E94A20663E080E00E94DF061A8619869A
:102390001C861B861E861D866D897E8961157105CA
:1023A00031F0498D5A8DCE0109960E94630841E0B3
:1023B00050E061E972E0CE0109960E943C0881116B
:1023C00004C0CE0109960E94C2074AE0B801C701C5
:1023D0000E944916F80101900020E9F73197AF01FA
:1023E000401B510BB801CE0109960E943C08811197
:1023F00004C0CE0109960E94C2074D855E8569859D
:102400007A8584EE95E00E943A03CE0109960E94F7
:10241000D4070E94450661ED73E085E395E00E94D4
:102420008408CE010F960E94D407CE0145960E94E3
:10243000D40737CF60E08AE10E945F0261E08BE160
:102440000E945F020E942C03C0901205D0901305D9
:10245000E0901405F09015056C197D098E099F090F
:10246000C090F005D090F105E090F205F090F305F2
:10247000C616D706E806F90608F0CFCB8091FE0411
:10248000882319F087E090E008CB85E090E005CB49
:102490000E942C03C0901205D0901305E090140503
:1024A000F09015056C197D098E099F09C0902402D2
:1024B000D0902502E0902602F0902702C616D7069B
:1024C000E806F906E8F48091160590911705019643
:1024D00090931705809316050E942C0360931205B4
:1024E0007093130580931405909315058BE10E945A
:1024F000360261E0892B09F060E08BE10E945F0207
:102500008091160590911705092E000CAA0BBB0BA4
:1025100040911C0250911D0260911E0270911F0299
:10252000481759076A077B070CF077CB10921705FD
:102530001092160546E050E05093110540931005A7
:1025400062CB60E08BE10E945F0261E08AE10E9461
:102550005F020E942C03C0901205D0901305E090FA
:102560001405F09015056C197D098E099F09C0901E
:102570002002D0902102E0902202F0902302C616A1
:10258000D706E806F90608F048CB1092110510921C
:10259000100539CB61E08BE10E945F0261E086E1CA
:1025A0000E945F028091FE04811137CB30921105A9
:1025B0002092100532CB1092FE0466CE6EE972E0D6
:1025C000C8010E948E08B801CE0145960E94DC0722
:1025D000D82EC8010E94D407DD2091F0C401092C37
:1025E000000CAA0BBB0B8093F0059093F105A09310
:1025F000F205B093F30590922B0280922A02BACE94
:1026000069EA72E0C8010E948E08B801CE014596C1
:102610000E94DC07D82EC8010E94D407DD2069F093
:10262000C401990CAA0BBB0B80932002909321024A
:10263000A0932202B09323029DCE64EB72E0C80106
:102640000E948E08B801CE0145960E94DC07D82E64
:10265000C8010E94D407DD2069F0C401990CAA0BBF
:10266000BB0B8093240290932502A0932602B09383
:10267000270280CE6EEB72E0C8010E948E08B8017E
:10268000CE0145960E94DC07D82EC8010E94D407CF
:10269000DD2069F0C401990CAA0BBB0B80931C02CE
:1026A00090931D02A0931E02B0931F0263CE6FECA5
:1026B00072E0C8010E948E08B801CE0145960E94C2
:1026C000DC07D82EC8010E94D407DD2029F09092A3
:1026D0001B0280921A024ECE6AEE72E0C8010E947E
:1026E0008E08B801CE0145960E94DC07D82EC8019D
:1026F0000E94D407DD2029F09092190280921802DE
:1027000039CE69E073E0C8010E948E08B801CE019D
:1027100045960E94DC07D82EC8010E94D407DD2010
:1027200069F0C401990CAA0BBB0B8093140290931F
:102730001502A0931602B09317021CCE65E273E057
:10274000C8010E948E08B801CE0145960E94DC07A0
:10275000D82EC8010E94D407DD2069F0C401990C6D
:10276000AA0BBB0B8093100290931102A09312024C
:10277000B0931302FFCD61E473E0C8010E948E089C
:10278000B801CE0145960E94DC07D82EC8010E94F0
:10279000D407DD2029F090920F0280920E02EACD3C
:1027A00060E673E0C8010E948E08B801CE0145962C
:1027B0000E94DC07D82EC8010E94D407DD2029F032
:1027C00090920D0280920C02D5CD64E873E0C801AE
:1027D0000E948E08B801CE0145960E94DC07D82ED3
:1027E000C8010E94D407D110C5CD6BE973E0C801C0
:1027F0000E948E08B801CE0145960E94DC07D82EB3
:10280000C8010E94D407DD2029F090920B0280922B
:102810000A02B0CD6FEA73E0C8010E948E08B801C9
:10282000CE0145960E94DC07D82EC8010E94D4072D
:10283000DD2009F49FCD90920902809208029ACD82
:1028400061ED73E085E395E00E9484082ACD8983D9
:102850001A8241E050E0B80185E395E00E943C080F
:1028600020CD0E942C0320912A0530912B05DB01FD
:10287000A21BB30B40912802509129024A175B0713
:1028800008F097C170932B0560932A0588EE93E0BA
:10289000909329028093280286E30E94BE029093BF
:1028A00029058093280587E30E94BE02909327059F
:1028B0008093260588E30E94BE02909325058093AD
:1028C000240510920C0510920D0510920E05109221
:1028D0000F0588E30E94BE02BC01990F880B990B7B
:1028E0000E94951620E030E040EA50E40E94F41681
:1028F00020E030EC4FE754E40E94391820E030E04B
:1029000048E051E40E9439186B017C0124E13EEA61
:1029100047E85EE30E94E11887FD4FC120E030E008
:1029200048EC53E420930C0530930D0540930E05BD
:1029300050930F0583E20E94360290932305809303
:10294000220582E20E9436029093210580932005A1
:1029500081E20E94360290931F0580931E0580E25B
:102960000E94360290931D0580931C058FE10E9402
:10297000360290931B0580931A058EE10E94360261
:10298000909319058093180560E080E00E94DF06AF
:1029900082ED93E00E94A20661E080E00E94DF06E3
:1029A00087EE93E00E94A20662E080E00E94DF06CC
:1029B0008BEF93E00E94A20663E080E00E94DF06B6
:1029C00080E194E00E94A20660E085E00E94DF06BC
:1029D00080912805909129050E94170761E085E004
:1029E0000E94DF0680912605909127050E94170717
:1029F00062E085E00E94DF06809124059091250524
:102A00000E941707A0911605B09117052091240286
:102A10003091250240912602509127020E94B41A5B
:102A20006B017C018090F4059090F505A090F6056F
:102A3000B090F7058091F0059091F105A091F20515
:102A4000B091F3058B8F9C8FAD8FBE8F0E942C03AE
:102A50004090120550901305609014057090150574
:102A60009B01AC01241935094609570929013A018E
:102A7000809110059091110563E0009709F0C2C0A4
:102A800083E00E94DF068C0C9D1CAE1CBF1CC501A0
:102A9000B40169517C4F8F4F9F4F641975098609A6
:102AA000970997FF03C060E070E0CB0128EE33E0A8
:102AB00040E050E00E948D1ACA01B9014AE00E942C
:102AC0005406809110059091110563E084309105C2
:102AD00009F0A8C088E00E94DF068B8D9C8DAD8D2B
:102AE000BE8DC80ED91EEA1EFB1EC701B601695174
:102AF0007C4F8F4F9F4F641975098609970997FF7F
:102B000003C060E070E0CB0128EE33E040E050E02D
:102B10000E948D1ACA01B9014AE00E9454068091B0
:102B2000100590911105079741F463E088E00E9439
:102B3000DF0686E294E00E94A20661E08FE00E9438
:102B4000DF0680912205909123050E94170761E01E
:102B500081E10E94DF0680912005909121050E946D
:102B6000170761E083E10E94DF0680911E059091C6
:102B70001F050E94170763E08FE00E94DF06809127
:102B80001C0590911D050E94170763E081E10E94DA
:102B9000DF0680911A0590911B050E94170763E0DC
:102BA00083E10E94DF0680911805909119050E942B
:102BB00017070E943D040C94010D24E13EEA47E80A
:102BC0005EE3C701B6010E94CC172BE83CEC47E15D
:102BD0005EEB0E9439182BE237E846E250E40E948F
:102BE000CD179B01AC0160E070E080E291E40E94AF
:102BF000E61860930C0570930D0580930E05909375
:102C00000F0598CE019741F483E00E94DF0684E22D
:102C100094E00E94A20655CF83E00E94DF068FEC6D
:102C200093E0F7CF059741F488E00E94DF0684E245
:102C300094E00E94A20673CF88E00E94DF068FEC2A
:102C400093E0F7CF1F93FC0199278827BC01E894F4
:102C500011911032E9F3193010F01E30C8F31B3215
:102C600051F01D3249F4689406C00E945416610F59
:102C7000711D811D911D119110531A30B0F33EF456
:102C800090958095709561957F4F8F4F9F4F1F91C5
:102C90000895BB274A3031F4992322F4BDE2909580
:102CA00081959F4F0C946A16592F482F372F262F46
:102CB000660F771F881F991F660F771F881F991F40
:102CC000620F731F841F951F660F771F881F991F40
:102CD0000895BB27FB015527AA27880F991FAA1F14
:102CE000A41710F0A41B83955051B9F7A05DAA3327
:102CF00008F0A95DA193009779F7B111B1931192F2
:102D0000CB010C948316DC01FC01672F71917723B2
:102D1000E1F7329704C07C916D9370836291AE1796
:102D2000BF07C8F30895E89409C097FB3EF4909557
:102D30008095709561957F4F8F4F9F4F9923A9F094
:102D4000F92F96E9BB279395F69587957795679523
:102D5000B795F111F8CFFAF4BB0F11F460FF1BC067
:102D60006F5F7F4F8F4F9F4F16C0882311F096E9FA
:102D700011C0772321F09EE8872F762F05C06623A8
:102D800071F096E8862F70E060E02AF09A95660F61
:102D9000771F881FDAF7880F9695879597F908951A
:102DA000990F0008550FAA0BE0E8FEEF161617065C
:102DB000E807F907C0F012161306E407F50798F0C4
:102DC000621B730B840B950B39F40A2661F0232BDD
:102DD000242B252B21F408950A2609F4A140A69559
:102DE0008FEF811D811D08950E9407170C9478179D
:102DF0000E946A1738F00E94711720F0952311F095
:102E00000C9461170C94671711240C94AC170E9452
:102E1000891770F3959FC1F3950F50E0551F629F7E
:102E2000F001729FBB27F00DB11D639FAA27F00D23
:102E3000B11DAA1F649F6627B00DA11D661F829F4A
:102E40002227B00DA11D621F739FB00DA11D621F2F
:102E5000839FA00D611D221F749F3327A00D611D4C
:102E6000231F849F600D211D822F762F6A2F11242E
:102E70009F5750409AF0F1F088234AF0EE0FFF1F61
:102E8000BB1F661F771F881F91505040A9F79E3FB8
:102E9000510580F00C9461170C94AC175F3FE4F37C
:102EA000983ED4F3869577956795B795F795E7950E
:102EB0009F5FC1F7FE2B880F911D9695879597F917
:102EC000089597F99F6780E870E060E008959FEFAC
:102ED00080EC089500240A941616170618060906B1
:102EE000089500240A941216130614060506089580
:102EF000092E0394000C11F4882352F0BB0F40F408
:102F0000BF2B11F460FF04C06F5F7F4F8F4F9F4F47
:102F1000089557FD9058440F551F59F05F3F71F0C9
:102F20004795880F97FB991F61F09F3F79F0879530
:102F30000895121613061406551FF2CF4695F1DFB9
:102F400008C0161617061806991FF1CF8695710549
:102F5000610508940895E894BB2766277727CB017D
:102F600097F908950E94BD17A59F900DB49F900DED
:102F7000A49F800D911D11240895A29FB001B39FBD
:102F8000C001A39F700D811D1124911DB29F700D72
:102F9000811D1124911D08955058BB27AA270E9416
:102FA000E4170C9478170E946A1738F00E94711782
:102FB00020F039F49F3F19F426F40C9467170EF4AF
:102FC000E095E7FB0C946117E92F0E94891758F3ED
:102FD000BA17620773078407950720F079F4A6F5FE
:102FE0000C94AB170EF4E0950B2EBA2FA02D0B010D
:102FF000B90190010C01CA01A0011124FF27591B3E
:1030000099F0593F50F4503E68F11A16F040A22F43
:10301000232F342F4427585FF3CF469537952795B4
:10302000A795F0405395C9F77EF41F16BA0B620BB3
:10303000730B840BBAF09150A1F0FF0FBB1F661FFA
:10304000771F881FC2F70EC0BA0F621F731F841F3D
:1030500048F4879577956795B795F7959E3F08F063
:10306000B0CF9395880F08F09927EE0F9795879525
:1030700008950E944D180C9478170E94711758F00B
:103080000E946A1740F029F45F3F29F00C94611701
:1030900051110C94AC170C9467170E94891768F3B0
:1030A0009923B1F3552391F3951B550BBB27AA2701
:1030B00062177307840738F09F5F5F4F220F331F3B
:1030C000441FAA1FA9F335D00E2E3AF0E0E832D003
:1030D00091505040E695001CCAF72BD0FE2F29D006
:1030E000660F771F881FBB1F261737074807AB07D8
:1030F000B0E809F0BB0B802DBF01FF2793585F4F4D
:103100003AF09E3F510578F00C9461170C94AC177F
:103110005F3FE4F3983ED4F3869577956795B7952E
:10312000F7959F5FC9F7880F911D9695879597F939
:103130000895E1E0660F771F881FBB1F62177307B2
:103140008407BA0720F0621B730B840BBA0BEE1FC7
:1031500088F7E09508950E94B2186894B1110C9414
:10316000AC1708950E94911788F09F5798F0B92FD7
:103170009927B751B0F0E1F0660F771F881F991FAC
:103180001AF0BA95C9F714C0B13091F00E94AB178C
:10319000B1E008950C94AB17672F782F8827B85F9C
:1031A00039F0B93FCCF3869577956795B395D9F704
:1031B0003EF490958095709561957F4F8F4F9F4F0E
:1031C00008950E94D01608F48FEF0895FA01EE0FCB
:1031D000FF1F309621053105A1F16115710561F4DC
:1031E0008038BFE39B0749F168949038810561F00E
:1031F0008038BFEF9B0741F099234AF5FF3FE10577
:103200003105210519F1E8940894E795D901AA231D
:1032100029F4AB2FBE2FF85FD0F310C0FF5F70F41E
:10322000A695E0F7F73950F019F0FF3A38F49F7798
:103230009F930DD00F9007FC9058089546F00C9482
:10324000671760E070E080E89FE308954FE79F779D
:103250005F934F933F932F930E94E1192F913F91DA
:103260004F915F910E94F4160C943E1929F416F0C8
:103270000C9461170C94AB170C9467170E9491176C
:10328000A8F39638A0F707F80F92E8942BE33AEAF0
:1032900048EB5FE70E940A170F920F920F924DB70B
:1032A0005EB70F920E94291AE4EEF0E00E947019B6
:1032B0004F915F91EF91FF91E595EE1FFF1F49F050
:1032C000FE57E0684427EE0F441FFA95E1F7419559
:1032D000550B0E94A3190F9007FE0C94971908959F
:1032E000DF93CF931F930F93FF92EF92DF927B01B7
:1032F0008C01689406C0DA2EEF010E940717FE01C8
:10330000E894A5912591359145915591A6F3EF014A
:103310000E94E417FE019701A801DA9469F7DF9093
:10332000EF90FF900F911F91CF91DF9108959B0136
:10333000AC0160E070E080E89FE30C9439180C94D5
:1033400061170C945D1A0E949117D8F39923C9F361
:10335000940F511DA3F39150504094F059F08823DD
:1033600032F0660F771F881F91505040C1F79E3F83
:1033700051052CF7880F911D9695879597F908951B
:103380005F3FACF0983E9CF0BB278695779567959C
:10339000B79508F4B1609395C1F7BB0F58F711F4D6
:1033A00060FFE8CF6F5F7F4F8F4F9F4FE3CF0C944D
:1033B000AC1716F00C945D1A0C94671768940C9473
:1033C00061170E949117A8F39923C1F3AEF3DF931D
:1033D000CF931F930F93FF92C92FDD2788232AF0E5
:1033E0002197660F771F881FDAF720E030E040E86A
:1033F0005FEB9FE3883920F0803E38F021968F778D
:103400000E94CD17ECE0F1E004C00E94CD17E9E383
:10341000F1E00E9470198B01BE01EC01FB2E6F5789
:1034200071097595771F880B990B0E94951628E1F5
:1034300032E741E35FE30E940717AF2D9801AE0129
:10344000FF900F911F91CF91DF910E94E4170C9490
:103450007817FA01DC01AA0FBB1F9B01AC01BF5713
:1034600028F4222733274427507820C0B75190F4FE
:10347000AB2F0024469537952795011CA395D2F3D1
:10348000002071F0220F331F441FB395DAF30ED0E2
:103490000C94CC1761307105A0E88A07B94630F466
:1034A0009B01AC016627772788279078309621F01A
:1034B000208331834283538308959F3F31F091509D
:1034C00020F4879577956795B795880F911D969508
:1034D000879597F90895A1E21A2EAA1BBB1BFD013F
:1034E0000DC0AA1FBB1FEE1FFF1FA217B307E407E3
:1034F000F50720F0A21BB30BE40BF50B661F771F3B
:10350000881F991F1A9469F760957095809590951A
:103510009B01AC01BD01CF010895052E97FB1EF460
:1035200000940E94A41A57FD07D00E946B1A07FC52
:1035300003D04EF40C94A41A5095409530952195E3
:103540003F4F4F4F5F4F08959095809570956195CF
:103550007F4F8F4F9F4F0895EE0FFF1F881F8BBF28
:103560000790F691E02D1994B7FF0C94B2170E94C2
:10357000B217821B930B08950F931F93CF93DF9382
:103580008230910510F482E090E0E091FA05F0912C
:10359000FB0530E020E0B0E0A0E0309799F4211581
:1035A000310509F44AC0281B390B24303105D8F500
:1035B0008A819B816115710589F1FB019383828367
:1035C000FE0111C0408151810281138148175907C2
:1035D000E0F04817590799F4109761F012960C9390
:1035E000129713961C933296CF01DF91CF911F91C2
:1035F0000F9108950093FA051093FB05F4CF211560
:10360000310551F04217530738F0A901DB019A0147
:10361000BD01DF01F801C1CFEF01F9CF9093FB05A8
:103620008093FA05CDCFFE01E20FF31F81939193B2
:103630002250310939832883D7CF2091F805309162
:10364000F905232B41F4209130023091310230935F
:10365000F9052093F80520912E0230912F022115B3
:10366000310541F42DB73EB74091320250913302FB
:10367000241B350BE091F805F091F905E217F307EB
:10368000A0F42E1B3F0B2817390778F0AC014E5FD2
:103690005F4F2417350748F04E0F5F1F5093F90511
:1036A0004093F805819391939FCFF0E0E0E09CCFA9
:1036B000CF93DF930097E9F0FC01329713821282D7
:1036C000A091FA05B091FB05ED0130E020E01097E4
:1036D000A1F420813181820F931F2091F805309150
:1036E000F9052817390709F061C0F093F905E0934F
:1036F000F805DF91CF910895EA01CE17DF07E8F5CD
:103700004A815B819E0141155105B1F7E901FB83B7
:10371000EA8349915991C40FD51FEC17FD0761F455
:10372000808191810296840F951FE9019983888396
:10373000828193819B838A83F0E0E0E012968D91F1
:103740009C9113970097B9F52D913C911197CD015C
:103750000296820F931F2091F8053091F9052817E2
:10376000390739F6309751F51092FB051092FA059A
:10377000B093F905A093F805BCCFD383C2834081F1
:103780005181840F951FC817D90761F44E5F5F4FB1
:1037900088819981480F591F518340838A819B8179
:1037A000938382832115310509F0B0CFF093FB0597
:1037B000E093FA059ECFFD01DC01C0CF1382128297
:1037C000D7CF4F925F926F927F928F929F92AF92DC
:1037D000BF92CF92DF92EF92FF920F931F93CF93FE
:1037E000DF938C01009799F4CB01DF91CF911F916A
:1037F0000F91FF90EF90DF90CF90BF90AF909F9090
:103800008F907F906F905F904F900C94BC1AFC014A
:10381000E60FF71F9C0122503109E217F30708F465
:10382000AEC0D901CD91DC911197C617D70720F111
:10383000C530D10578F0CE0104978617970750F070
:10384000C61BD70B2297C193D1936D937C93CF0165
:103850000E94581BC801DF91CF911F910F91FF90DB
:10386000EF90DF90CF90BF90AF909F908F907F9020
:103870006F905F904F9008955B01AC1ABD0A4C01A8
:103880008C0E9D1EA091FA05B091FB05512C412C88
:10389000F12CE12C109731F58091F8059091F90504
:1038A0008815990509F05CC04616570608F058C0FF
:1038B00080912E0290912F02009741F48DB79EB710
:1038C0004091320250913302841B950BE817F9079F
:1038D00008F055C0F093F905E093F805F9017183FC
:1038E0006083B8CF8D919C91119712966C9012972E
:1038F00013967C901397A815B90559F56C0142E011
:10390000C40ED11CCA14DB0420F1AC014A195B09B6
:10391000DA011296159780F0628273825183408398
:10392000D9016D937C93E114F10471F0D7011396E2
:10393000FC93EE9312978ECF22968C0F9D1FF90168
:1039400091838083F301EFCFF093FB05E093FA05B9
:1039500081CF4816590608F42C017D01D3019ACF76
:10396000CB010E94BC1A7C01009749F0AE01B8015E
:103970000E94CA1CC8010E94581B87016BCF10E02F
:1039800000E068CF9111089581548A5108F4805E57
:10399000855A0895FB01DC0102C001900D9241504F
:1039A0005040D8F70895FC018191861721F08823B3
:1039B000D9F7992708953197CF010895FB01DC01CC
:0E39C00001900D920020E1F70895F894FFCFDA
:1039CE00FFFF0300FFFF030014001027A00FD00716
:1039DE00B80B0000581B0000D007B80B0600000003
:1039EE00F401000064000000E803A00FD0070000FF
:1039FE00FC05800000004000140054000000000090
:103A0E00D0033A0367031D04980376038A0300006C
:103A1E0000002B05FE044206D404F704E404D5048A
:103A2E000000000011073A03420641065065646526
:103A3E0073747269616E312063726F7373696E672E
:103A4E00005072696F20002053656E736F72732D74
:103A5E00433A00677265656E54696D653100677231
:103A6E0065656E54696D65320079656C6C6F77545F
:103A7E00696D6500626C696E6B54696D6500746F7B
:103A8E0074616C426C696E6B73496E4F7574007025
:103A9E0065646573747269616E52656475636547BA
:103AAE007265656E54696D6531006C69676874473F
:103ABE007265656E32496E637265617365576865CE
:103ACE006E53656E736F7273007072696F72697484
:103ADE007957616974696E6754696D654F6E4C698B
:103AEE0067687432007072696F72697479576169B0
:103AFE0074696E6754696D654F6E4C696768743191
:103B0E00006C69676874477265656E31496E6372E1
:103B1E00656173655768656E53656E736F7273007A
:103B2E00646973706C617952656672657368546905
:103B3E006D6541667465724E6F7469666963617412
:103B4E00696F6E00677265656E4C69676874315493
:103B5E00696D655768656E43617200706564657363
:103B6E00747269616E43726F737354696D6500632D
:103B7E006F32477265656E54696D65320020202084
:103B8E002020202020202020202020202020202027
:103B9E0020004C44523120202020202020434E591A
:103BAE00203120322033004C44523220202020205D
:103BBE002020202020202020202000434F322020B3
:103BCE00202020202020434E59203420352036003E
:103BDE004C312020204C322020202020202020205C
:0A3BEE002020200030004E470000A8
:00000001FF
