:100000000C949C010C94CD010C94CD010C94CD0169
:100010000C94CD010C94CD010C94CD010C94CD0128
:100020000C94CD010C94CD010C94CD010C94CD0118
:100030000C94CD010C94CD010C94CD010C94CD0108
:100040000C94CD010C94CD010C94CD010C94CD01F8
:100050000C94CD010C94CD010C94CD010C943E096F
:100060000C94CD010C94B2090C9488090C94CD0128
:100070000C94CD010C94CD010C94CD010C94CD01C8
:100080000C94CD010C94CD010C94CD010C94CD01B8
:100090000C94CD010C94CD010C94CD010C94E80985
:1000A0000C94CD010C94CD010C94CD010C94CD0198
:1000B0000C94CD010C94CD010C94CD010C94CD0188
:1000C0000C94CD010C94CD010C94CD010C94CD0178
:1000D0000C94CD010C94CD010C94CD010C94CD0168
:1000E0000C94CD0107634236B79BD8A71A396856DE
:1000F00018AEBAAB558C1D3CB7CC5763BD6DEDFD4A
:10010000753EF6177231BF000000803F0800000006
:10011000BE922449123EABAAAA2ABECDCCCC4C3EFC
:1001200000000080BEABAAAAAA3E00000000BF00EB
:100130000000803F0000000000084178D3BB4387E7
:10014000D1133D190E3CC3BD4282AD2B3E68EC82FB
:1001500076BED98FE1A93E4C80EFFFBE01C4FF7F80
:100160003F00000000000C9420020C9438030C9413
:10017000DC120C94FE040C940C0B0C94F7040C94FD
:100180008A030C942B050C94FF010C941A020C9416
:10019000CA0D0C94D5040C94380D0C94F7010C94F2
:1001A000730D0C9483120C942D020C94B6060C94CF
:1001B00002020C943A030C941D040C9455120C94F6
:1001C00008020C94F10D0C9441060C9405130C9448
:1001D000E4040C940C020C94F3010C94D4040C94DD
:1001E000FB010C9439030C9467030C9412020C94D9
:1001F00098030C9424020C9416020C9428020C947C
:1002000042060C94D0030C9432020C9476030C94A6
:10021000ED010C942E0200002100240027002A008A
:100220002D003000330001010000040107010A0124
:1002300000002200250028002B002E003100340091
:1002400002010000050108010B010000200023004D
:10025000260029002C002F003200000100000301BD
:100260000601090105050505070508080808020239
:1002700002020A0A08080404040401010101010140
:1002800001010303030303030303040707070C0C23
:100290000C0C0C0C0C0C02020202060606060606EA
:1002A00006060B0B0B0B0B0B0B0B0102102020088F
:1002B00008102040102040800201020108040201C1
:1002C0000102040810204080804020100804020130
:1002D0008004020180402010080402010804020189
:1002E0000102040810204080010204081020408010
:1002F00000000A0B02090C0D0E08070304010000A0
:1003000000000000000000000000000000000000ED
:1003100000000000000000000000000012111000AA
:1003200000000000000000000000000000000000CD
:100330000000000000000C0B11241FBECFEFD1E223
:10034000DEBFCDBF00E00CBF27E0ACE6B5E001C0EA
:100350001D92A034B207E1F715E0A0E0B2E0E6E1BB
:10036000FEE300E00BBF02C007900D92AC36B10770
:10037000D9F711E0CCE9D1E000E006C021970109EE
:10038000802FFE010E94D01CCB39D10780E00807E6
:10039000A9F70E94740B0C94091F0C940000815063
:1003A000823108F05AC0E82FF0E08827E552FE4F6E
:1003B0008F4F0C94D01CFB01FF01ED01F301F701FD
:1003C0002D02020208020C02120216021A02200278
:1003D00024022D0228022E023202809180008F77A3
:1003E000809380000895809180008F7DF9CF809167
:1003F0008000877FF5CF84B58F7784BD089584B55D
:100400008F7DFBCF8091B0008F778093B0000895EF
:100410008091B0008F7DF9CF809190008F7780938D
:1004200090000895809190008F7DF9CF8091900089
:10043000877FF5CF8091A0008F778093A0000895EB
:100440008091A0008F7DF9CF8091A000877FF5CFAC
:10045000809120018F778093200108958091200161
:100460008F7DF9CF80912001877FF5CFCF93DF93E8
:10047000282F30E0F901E051FD4F8491F901E65554
:10048000FD4FD491F901EC59FD4FC491CC23A1F05B
:1004900081110E94CF01EC2FF0E0EE0FFF1FE65B11
:1004A000FD4FA591B491EC91ED2381E090E009F42A
:1004B00080E0DF91CF91089580E090E0FACF1F9324
:1004C000CF93DF93282F30E0F901E051FD4F849165
:1004D000F901E655FD4FD491F901EC59FD4FC49156
:1004E000CC23A9F0162F81110E94CF01EC2FF0E050
:1004F000EE0FFF1FE05DFD4FA591B4918FB7F8940B
:10050000EC91111108C0D095DE23DC938FBFDF91F1
:10051000CF911F910895DE2BF8CFCF93DF9390E01A
:10052000FC01E655FD4F24918C599D4FFC018491AF
:100530008823D1F090E0880F991FFC01EA5EFD4FFF
:10054000A591B491FC01E05DFD4FC591D49161117D
:100550000EC09FB7F8948C91E22FE0958E238C9378
:100560002881E223E8839FBFDF91CF9108958FB761
:10057000F894EC91E22BEC938FBFF6CF90917B0037
:10058000977F90937B008653806480937C0080915A
:100590007A00806480937A0080917A0086FDFCCF97
:1005A000809178009091790008953FB7F8948091F8
:1005B000750690917606A0917706B091780626B5DB
:1005C000A89B05C02F3F19F00196A11DB11D3FBF8B
:1005D000BA2FA92F982F8827BC01CD01620F711D5A
:1005E000811D911D42E0660F771F881F991F4A9554
:1005F000D1F708958F929F92AF92BF92CF92DF92E0
:10060000EF92FF924B015C010E94D5026B017C01CD
:100610000E94D5026C197D098E099F09683E7340BE
:1006200081059105A8F321E0821A9108A108B1087B
:1006300088EEC80E83E0D81EE11CF11C81149104E1
:10064000A104B10429F7FF90EF90DF90CF90BF9005
:10065000AF909F908F9008952FB7F8946091710696
:100660007091720680917306909174062FBF089561
:1006700008950895AF92BF92CF92DF92EF92FF92CA
:100680000F931F93CF93DF936C017B018B01040FBA
:10069000151FEB015E01AE18BF08C017D10759F056
:1006A0006991D601ED91FC910190F081E02DC60198
:1006B0001995892B79F7C501DF91CF911F910F9182
:1006C000FF90EF90DF90CF90BF90AF900895FC0126
:1006D000538D448D252F30E0842F90E0821B930BA7
:1006E000541710F0CF96089501970895FC01918D4D
:1006F000828D981761F0A28DAE0FBF2FB11D5D9650
:100700008C91928D9F5F9F73928F90E008958FEFF1
:100710009FEF0895FC01918D828D981731F0828DA5
:10072000E80FF11D858D90E008958FEF9FEF0895FC
:10073000FC01918D228D892F90E0805C9F4F821B60
:1007400091098F73992708958FE796E00E94980387
:1007500021E0892B09F420E0822F0895FC01A48D6B
:10076000A80FB92FB11DA35ABF4F2C91848D90E0D3
:1007700001968F739927848FA689B7892C93A089B6
:10078000B1898C91837080648C93938D848D981340
:1007900006C00288F389E02D80818F7D80830895D3
:1007A000EF92FF920F931F93CF93DF93EC0181E0C1
:1007B000888F9B8D8C8D98131AC0E889F989808168
:1007C00085FF15C09FB7F894EE89FF896083E8899B
:1007D000F98980818370806480839FBF81E090E08D
:1007E000DF91CF911F910F91FF90EF900895F62E1A
:1007F0000B8D10E00F5F1F4F0F731127E02E8C8DB4
:100800008E110CC00FB607FCFACFE889F9898081F8
:1008100085FFF5CFCE010E94AE03F1CFEB8DEC0F3B
:10082000FD2FF11DE35AFF4FF0829FB7F8940B8F15
:10083000EA89FB8980818062CFCFCF93DF93EC017F
:10084000888D8823B9F0AA89BB89E889F9898C91B8
:1008500085FD03C0808186FD0DC00FB607FCF7CF74
:100860008C9185FFF2CF808185FFEDCFCE010E9474
:10087000AE03E9CFDF91CF91089580E090E0892B1E
:1008800029F00E94A40381110E94000080E090E002
:10089000892B49F080E090E0892B29F00E9400002C
:1008A00081110E94000080E090E0892B49F080E0F7
:1008B00090E0892B29F00E94000081110E94000025
:1008C00080E090E0892B49F080E090E0892B29F0CE
:1008D0000E94000081110C94000008952091D4051D
:1008E000260F3327331F21323105ECF42091F80510
:1008F000FC0190E080E0243069F082E00895A0914E
:10090000D4052191AC014C545A4FA40FB52FB11D01
:100910002C930196861798F38091D405680F609305
:10092000D40580E0089581E008951092F80581E0F3
:100930008093FA051092F90561E084E10E945F025C
:1009400061E085E10E945F02E9EBF0E080818E7F4B
:10095000808380818D7F808388E48093B80085E4E4
:100960008093BC000895CF93DF9391E09093B305FB
:100970008823B9F0C091B800D091BA008091BC0032
:100980008A7B8093BC0060E084E10E945F0260E0AB
:1009900085E10E945F020E949504D093BA00C09343
:1009A000B800DF91CF9108950895E09125068091D8
:1009B0002406E81730F4F0E0E257FA4F808190E027
:1009C00008958FEF9FEF089590912506809124065A
:1009D0002FEF3FEF981748F4E92FF0E0E257FA4F76
:1009E000208130E09F5F90932506C9010895809192
:1009F000240690912506891B990B0895CF92DF92CA
:100A0000EF92FF920F931F93CF93DF937C01CB0163
:100A10008A0120918D05222389F0EB016B01C40E20
:100A2000D51ECC15DD0569F06991D701ED91FC91DA
:100A30000190F081E02DC7011995F3CF642F0E943A
:100A40006E04C801DF91CF911F910F91FF90EF903D
:100A5000DF90CF900895CF93DF931F92CDB7DEB78D
:100A6000698320918D052223F9F0209122062032FE
:100A700058F021E030E0FC013383228390E080E0F5
:100A80000F90DF91CF91089580912306E82FF0E039
:100A9000E359FA4F998190838F5F80932306809367
:100AA000220681E090E0ECCF61E0CE0101960E9449
:100AB0006E04F7CFCF92DF92EF92FF920F931F93C6
:100AC000CF93DF93FC01C48121E020938D05C09377
:100AD0006C0510922306109222068385682B8CE108
:100AE00097E00E942B05D0912206D13208F092C0E7
:100AF0000E94D5026B017C018091F805811165C0CF
:100B000082E08093F80581E08093FA058FEF80936F
:100B1000F70510921C06D0931B06ADE6B5E0EBEF8F
:100B2000F5E080E0D81385C010921D0680911D0667
:100B3000CC0FC82BC0931D068091F905813009F0B8
:100B40007CC01092F9050E94D5026B017C01809156
:100B50001D068093BB008091AF059091B005A091D8
:100B6000B105B091B205892B8A2B8B2B99F00E948D
:100B7000D5020091AF051091B0052091B1053091DB
:100B8000B2056C197D098E099F09061717072807FA
:100B90003907E0F18091BC0083FDD9CF85EC8093CB
:100BA000BC000E94D5026B017C018091F805823067
:100BB00009F445C08091F7058F3F61F18091F705F9
:100BC000803241F18091F70525C08091AF05909169
:100BD000B005A091B105B091B205892B8A2B8B2B62
:100BE00009F48ACF0E94D5020091AF051091B0059B
:100BF0002091B1053091B2056C197D098E099F09CC
:100C0000061717072807390708F076CF8091AE0539
:100C10000E94B304109223061092220610928D05B2
:100C2000DF91CF911F910F91FF90EF90DF90CF90C8
:100C300008959D9191938F5F75CF85EEB0CF809190
:100C4000AF059091B005A091B105B091B205892B87
:100C50008A2B8B2B09F4A9CF0E94D5020091AF05F6
:100C60001091B0052091B1053091B2056C197D0944
:100C70008E099F09061717072807390708F095CF2F
:100C8000C5CF089590E080E008950E942C037093F2
:100C90006D0660936C0680911202909113029093FE
:100CA00009028093080208950F931F93CF938C013C
:100CB000C62F0E945A056C2F6460C8010E945A0515
:100CC0006C2F6B7FC8010E945A0583EC90E001975E
:100CD000F1F7CF911F910F9108950F931F93CF9329
:100CE000DF938C01D62FC42F607F642B0E945406A3
:100CF00080E1D89FB00111246C2BC801DF91CF9106
:100D00001F910F910C945406CF93DF9300D000D025
:100D10001F921F92CDB7DEB798E0E8E3F2E0DE0164
:100D2000119601900D929A95E1F7909130079617E0
:100D300010F46FEF690F262F30E0220F331F41E0D0
:100D400050E04C0F5D1F240F351FF9016081680FC3
:100D5000606840E088E297E028960FB6F894DEBF1E
:100D60000FBECDBFDF91CF910C946D0641E00E9484
:100D70006D0681E090E00895FB0101900020E9F705
:100D80003197AF01461B570BDC01ED91FC910280BE
:100D9000F381E02D19948F929F92AF92BF92EF92C0
:100DA000FF920F931F93CF93DF93CDB7DEB7A19739
:100DB0000FB6F894DEBF0FBECDBF7C01FA01CB01A8
:100DC00019A2223008F42AE08E010F5D1F4F822EF7
:100DD000912CB12CA12CBF01A50194010E948F1C64
:100DE000F901CA016A300CF5605DD8016E938D017E
:100DF000232B242B252B79F790E080E0109721F00E
:100E0000BD01C7010E94BC06A1960FB6F894DEBFD3
:100E10000FBECDBFDF91CF911F910F91FF90EF904B
:100E2000BF90AF909F908F900895695CDECFCF9276
:100E3000DF92EF92FF920F931F93CF93DF9377FF91
:100E400021C06A017B01EC01E881F9810190F08108
:100E5000E02D6DE219958C0144275527BA014C19F4
:100E60005D096E097F092AE0CE010E94CB06800F42
:100E7000911FDF91CF911F910F91FF90EF90DF9025
:100E8000CF9008952AE0DF91CF911F910F91FF90AD
:100E9000EF90DF90CF900C94CB06AB01770F660BF1
:100EA000770B0C9417070C94BC06CF93DF93EC01DF
:100EB00088819981009711F00E947C1D1982188207
:100EC0001D821C821B821A82DF91CF910895FC0142
:100ED00080819181009711F00C947C1D0895EF9210
:100EE000FF920F931F93CF93DF938617970769F1B4
:100EF000FC0124813581FB0144815581241735078C
:100F0000E1F4232B11F1FC0100811181FB01C0816F
:100F1000D181F80181918F018823B9F0082E000C4E
:100F2000990B0E94E61E7C018991082E000C990BFA
:100F30000E94E61EE816F90661F380E0DF91CF918A
:100F40001F910F91FF90EF90089581E0F7CF0F93DD
:100F50001F93CF93DF93EC0188819981009759F01B
:100F60002A813B812617370730F081E0DF91CF914E
:100F70001F910F9108958B016F5F7F4F0E94051E97
:100F8000009759F0998388831B830A832C813D81C4
:100F9000232B59F7FC011082E8CF80E0E7CFEF92D6
:100FA000FF920F931F93CF93DF9341155105B1F03B
:100FB0007B01EC010C811D81040F151FB8010E94FB
:100FC000A707882361F0288139818C819D81B70131
:100FD000820F931F0E94021F1D830C8381E0DF910B
:100FE000CF911F910F91FF90EF900895EF92FF9294
:100FF0000F931F93CF93DF93EC017B018A01BA011A
:101000000E94A70781110BC0CE010E945507CE0197
:10101000DF91CF911F910F91FF90EF9008951D8365
:101020000C83B701888199810E94021FF0CFFB01D8
:1010300001900020E9F73197AF01461B570B0C9444
:10104000F607FC011182108213821282158214822B
:10105000FB0101900020E9F73197AF01461B570BC8
:101060000C94F607CF92DF92EF92FF920F931F93AB
:10107000CF93DF936C017B018A014617570720F459
:101080008F2D7A01062F182F69E972E0C6010E94A0
:101090002108C0917D06D0917E06EC16FD06F8F47D
:1010A0000C171D0708F4E801E0917906F0917A0623
:1010B000EC0FFD1F108110826091790670917A0605
:1010C0006E0D7F1DC6016115710599F00E9417080C
:1010D0008091790690917A06C80FD91F1883C601AE
:1010E000DF91CF911F910F91FF90EF90DF90CF9004
:1010F00008950E945507ECCF85ED8093BC00809148
:10110000AF059091B005A091B105B091B2050796D9
:10111000A11DB11D23E0B695A795979587952A95B2
:10112000D1F72091BC0024FD03C01092F80508956A
:101130004091AF055091B0056091B1057091B20535
:10114000452B462B472B69F30097A105B10541F0CC
:101150002AE22A95F1F700C00197A109B109E1CF70
:101160008091AE050C94B304CF92DF92EF92FF9280
:1011700010924E0610924F06109250061092510691
:1011800088E30E94BE02BC01990F880B990B0E9454
:10119000651820E030E040EA50E40E94C41820E0E6
:1011A00030EC4FE754E40E94091A20E030E048E0B8
:1011B00051E40E94091A6B017C0124E13EEA47E8F0
:1011C0005EE30E94131B87FD34C080E090E0A8EC32
:1011D000B3E480934E0690934F06A0935006B093CD
:1011E000510660910A0270910B0280910C0290915D
:1011F0000D020E9463186B017C0120914E06309114
:101200004F0640915006509151060E94C41820E0AC
:1012100030E44CE156E40E94091AA70196010E94AD
:10122000BC1A0E947B1ACB01FF90EF90DF90CF9009
:10123000089524E13EEA47E85EE3C701B6010E9453
:101240009C192BE83CEC47E15EEB0E94091A2BE26B
:1012500037E846E250E40E949D199B01AC0160E032
:1012600070E080E291E40E94181B60934E06709338
:101270004F068093500690935106B3CF1F920F9262
:101280000FB60F9211242F933F938F939F93AF9399
:10129000BF938091710690917206A0917306B091F0
:1012A00074063091700623E0230F2D3758F5019610
:1012B000A11DB11D20937006809371069093720654
:1012C000A0937306B093740680917506909176068C
:1012D000A0917706B09178060196A11DB11D80936B
:1012E000750690937606A0937706B0937806BF9123
:1012F000AF919F918F913F912F910F900FBE0F90C3
:101300001F90189526E8230F0296A11DB11DD2CF7C
:101310001F920F920FB60F9211240BB60F922F93BC
:101320003F934F935F936F937F938F939F93AF936D
:10133000BF93EF93FF938FE796E00E94AE03FF9178
:10134000EF91BF91AF919F918F917F916F915F913D
:101350004F913F912F910F900BBE0F900FBE0F90AA
:101360001F9018951F920F920FB60F9211240BB673
:101370000F922F938F939F93EF93FF93E0918F069C
:10138000F09190068081E0919506F091960682FD9D
:101390001DC09081809198068F5F8F732091990670
:1013A000821741F0E0919806F0E0E158F94F958FEF
:1013B00080939806FF91EF919F918F912F910F90BD
:1013C0000BBE0F900FBE0F901F9018958081F2CF2B
:1013D0001F920F920FB60F9211240BB60F922F93FC
:1013E0003F934F935F936F937F938F939F93AF93AD
:1013F000BF93EF93FF938091B900887F803609F403
:101400004DC008F040C0883209F4A9C028F58031E9
:1014100009F49DC0C8F4882309F4FBC0883009F49E
:1014200096C0FF91EF91BF91AF919F918F917F9166
:101430006F915F914F913F912F910F900BBE0F9045
:101440000FBE0F901F901895883109F488C0803224
:1014500041F78093F70514C0803409F49DC040F42F
:101460008033B9F38833E9F68093F70585ECB0C093
:10147000803509F485C0883509F496C0883489F62A
:101480000E947C08CECF883909F48CC038F58837A3
:1014900029F050F4883611F0803719F683E08093F4
:1014A000F8051092F60557C0883809F47BC08039DA
:1014B00019F0803809F0B5CF8091F605803208F038
:1014C00071C0E091F60581E08E0F8093F605809162
:1014D000BB00F0E0EA52FA4F80833DC0803B39F018
:1014E000E0F4803A09F479C0883A09F09ACF84E0B0
:1014F0008093F8051092D5051092D405E09120064E
:10150000F091210619958091D40581110FC081E0D9
:101510008093D4051092B40509C0803C09F4A6CF8D
:10152000883C09F4A3CF883B09F07BCFE091D50537
:1015300081E08E0F8093D505F0E0EC54FA4F808166
:101540008093BB009091D5058091D40529C08091EE
:101550001D068093BB0085EC8093BC0062CF909108
:101560001C0680911B06981758F5E0911C0681E037
:101570008E0F80931C06F0E0E550FA4F8081E9CF92
:10158000E0911C0681E08E0F80931C068091BB00C9
:10159000F0E0E550FA4F808390911C0680911B0685
:1015A0009817C8F285E8D8CFE0911C0681E08E0F2D
:1015B00080931C068091BB00F0E0E550FA4F8083D9
:1015C0008091FA0581115CCF81E08093F90584EA6E
:1015D0008093BC001092F80524CF85EC8093BC006A
:1015E0001092F8058091F605803230F4E091F6050E
:1015F000F0E0EA52FA4F10826091F60570E0E09157
:101600001E06F0911F0686ED95E019951092F605DD
:1016100008CF1092F70534CFEFE7F6E0138212827D
:1016200088EE93E0A0E0B0E084839583A683B7833F
:1016300024E432E03183208325EC30E035872487B1
:1016400024EC30E03787268720EC30E0318B208B8C
:1016500021EC30E0338B228B22EC30E0358B248B75
:1016600026EC30E0378B268B118E128E138E148E63
:10167000ECE1F7E01382128284839583A683B7831B
:1016800086E592E0918380838091300290913102CF
:10169000092E000CAA0BBB0B8093380790933907D7
:1016A000A0933A07B0933B0780912E0290912F02AE
:1016B000092E000CAA0BBB0B8093340790933507BF
:1016C000A0933607B0933707E8E2F7E0138212825F
:1016D00088E692E09183808387E2848384E1818736
:1016E00084E0828713860895CF93DF93CDB7DEB76A
:1016F0006E970FB6F894DEBF0FBECDBF789484B559
:10170000826084BD84B5816084BD85B5826085BDFD
:1017100085B5816085BD80916E00816080936E008B
:10172000109281008091810082608093810080917D
:10173000810081608093810080918000816080932E
:1017400080008091B10084608093B1008091B000EE
:1017500081608093B00080919100826080939100BD
:1017600080919100816080939100809190008160D0
:10177000809390008091A10082608093A10080916D
:10178000A10081608093A1008091A000816080937E
:10179000A00080912101826080932101809121012C
:1017A00081608093210180912001816080932001DC
:1017B00080917A00846080937A0080917A008260C0
:1017C00080937A0080917A00816080937A00809182
:1017D0007A00806880937A001092C1000E942C03E6
:1017E0006B017C0161E086E10E948D0261E087E18E
:1017F0000E948D0261E088E10E948D0261E089E132
:101800000E948D0261E08AE10E948D0261E08BE11D
:101810000E948D0260E085E20E948D0260E083E21A
:101820000E948D0260E082E20E948D0260E081E20F
:101830000E948D0260E080E20E948D0260E08FE1F4
:101840000E948D0260E08EE10E948D0260E086E3DE
:101850000E948D0260E087E30E948D0260E088E3D1
:101860000E948D02109225061092240610922306E3
:10187000109222060E94950488E393E0909321063B
:101880008093200689E393E090931F0680931E06C1
:1018900010922D0780913207823018F098E09093D3
:1018A0002D078093300762E370E080E090E00E94B3
:1018B000FA026091330788E297E00E945A0568EEC9
:1018C00073E080E090E00E94FA0260E388E297E033
:1018D0000E9454060BE416E4C8010197F1F760E397
:1018E00088E297E00E945406C8010197F1F760E38F
:1018F00088E297E00E94540683E592E00197F1F7B1
:1019000060E288E297E00E94540660912D076062D1
:1019100040E088E297E00E946D0684E080932E0705
:1019200040E06CE088E297E00E946D0640E061E0F4
:1019300088E297E00E946D060BE31FE1C801019762
:10194000F1F782E0B82EB0922F0740E066E088E21F
:1019500097E00E946D0640E062E088E297E00E9416
:101960006D06C8010197F1F788E08093330760E0C6
:1019700088E297E00E945A05C0925406D09255061C
:10198000E0925606F0925706E0918F06F09190068D
:10199000B082E0918B06F0918C061082E0918D066A
:1019A000F0918E068FEC808310929706E09193065B
:1019B000F091940686E08083E0919106F091920682
:1019C000808180618083E0919106F0919206808110
:1019D00088608083E0919106F09192068081806812
:1019E0008083E0919106F091920680818F7D8083C3
:1019F000C0924206D0924306E0924406F092450619
:101A000010923B061092400610923606109237064E
:101A10001092380610923906C0923C06D0923D06CC
:101A2000E0923E06F0923F06D0926D06C0926C06A0
:101A3000D0926F06C0926E0694E0292E312C8E0152
:101A40000F5F1F4FE0915206F0915306E830F10509
:101A500008F004C18827E05DF24F8F4F0C94D01C32
:101A6000380D730DCA0DF10D55128312DC120513DA
:101A700061E088E10E945F0261E089E10E945F020B
:101A800060E08AE10E945F0260E086E10E945F02FE
:101A900060E087E10E945F0260E08BE10E945F02EC
:101AA0000E942C03C0905406D0905506E090560634
:101AB000F09057066C197D098E099F09C090380770
:101AC000D0903907E0903A07F0903B076C157D0500
:101AD0008E059F0508F4C2C081E090E09093530604
:101AE00080935206B1C00E942C03C0905406D0903F
:101AF0005506E0905606F09057066C197D098E0940
:101B00009F09C0902602D0902702E0902802F09012
:101B10002902C616D706E806F906F8F4E09058063A
:101B2000F090590688E10E94360261E0892B09F0A5
:101B300060E088E10E945F022FEFE21AF20AF09261
:101B40005906E09258060E942C0360935406709345
:101B500055068093560690935706809158069091AB
:101B60005906092E000CAA0BBB0B40912202509182
:101B700023026091240270912502481759076A07D1
:101B80007B070CF06BC0109259061092580682E049
:101B900090E0A4CF61E087E10E945F0260E088E10D
:101BA0000E945F020E942C03C0905406D0905506FC
:101BB000E0905606F09057066C197D098E099F0932
:101BC000C0902A02D0902B02E0902C02F0902D02BF
:101BD000C616D706E806F90608F040C083E090E094
:101BE0007DCF61E086E10E945F0260E087E10E94B4
:101BF0005F0261E08AE10E945F0260E08BE10E9487
:101C00005F0260E089E10E945F020E942C03C090A5
:101C10005406D0905506E0905606F09057066C1981
:101C20007D098E099F09C0902A02D0902B02E09076
:101C30002C02F0902D02C616D706E806F90670F4BD
:101C400030925306209252060E942C036093540651
:101C500070935506809356069093570685E20E942E
:101C6000360220912B06211135C0019799F581E0AC
:101C700080932A0680934106C0905406D090550662
:101C8000E0905606F09057060E942C032091200207
:101C9000309121028090380790903907A0903A0740
:101CA000B0903B07C80CD91CEA1CFB1CC61AD70A0B
:101CB000E80AF90AC901B0E0A0E08C159D05AE055F
:101CC000BF0568F48093380790933907A0933A07CB
:101CD000B0933B0780912A06882309F441C0809184
:101CE000520690915306892BD9F50E942C036093DC
:101CF000260670932706809328069093290681E094
:101D000080932B0640913407509135076091360738
:101D10007091370750932F0240932E0280910E024C
:101D200090910F02092E000CAA0BBB0B840F951F7C
:101D3000A61FB71F8093340790933507A0933607EB
:101D4000B093370710922A0660E080E00E94840674
:101D500060E772E088E297E00E9453070E94450620
:101D600080912B06882309F461C00E942C03C09047
:101D70002606D0902706E0902806F09029069B01C1
:101D8000AC012C193D094E095F0969017A01A09146
:101D90005806B091590620912602309127024091B1
:101DA0002802509129020E94D81C809034079090FC
:101DB0003507A0903607B0903707680D791D8A1D4A
:101DC0009B1D80902A0290902B02A0902C02B09034
:101DD0002D02860E971EA81EB91E8C149D04AE04FB
:101DE000BF0420F510922B0680912E0290912F02B5
:101DF000092E000CAA0BBB0B809334079093350778
:101E0000A0933607B093370780913002909131024A
:101E1000092E000CAA0BBB0B80933807909339074F
:101E2000A0933A07B0933B07109241060E942C03FF
:101E30004B015C0180913C0690913D06A0913E06CD
:101E4000B0913F06A5019401281B390B4A0B5B0B8F
:101E5000DA01C9010B97A105B10508F461C08091B1
:101E6000410681115DC07090320680923C069092CE
:101E70003D06A0923E06B0923F0683E20E943602E3
:101E80007C01909365068093640682E20E9436028C
:101E90006C01909363068093620681E20E94360291
:101EA0009093610680936006EC0CFD1CE80EF91E11
:101EB00083E090E08E199F09181619068CF5209181
:101EC000330621112DC0711030C040912E06509163
:101ED0002F06609130067091310675016401C41AB5
:101EE000D50AE60AF70A409116025091170260914E
:101EF0001802709119024C155D056E057F0508F0FA
:101F000062C01092400621E02093320690932D0685
:101F100080932C0620934106909303028093020243
:101F200080913206882309F44EC080915206909128
:101F30005306892B09F047C081E080933306109245
:101F40003206409138075091390760913A077091F5
:101F50003B075093310240933002809114029091DC
:101F60001502092E000CAA0BBB0B840F951FA61F90
:101F7000B71F8093380790933907A0933A07B0931F
:101F80003B0761E080E00E94840665E872E088E239
:101F900097E00E94530760912C0670912D0688E20D
:101FA00097E00E944D076BE872E088E297E00E949C
:101FB0005307609102027091030288E297E00E9449
:101FC0004D070E944506C0905206D090530680915E
:101FD0003306882389F18091000290910102892BB8
:101FE00059F5C114D10441F180910202909103028C
:101FF0000197909303028093020218161906E4F0E9
:10200000109233061092410680922E0690922F066F
:10201000A0923006B0923106809130029091310248
:10202000092E000CAA0BBB0B80933807909339073D
:10203000A0933A07B0933B07D0920102C0920002EE
:102040000E942C032B013C0180913C0690913D069F
:10205000A0913E06B0913F06A3019201281B390BC7
:102060004A0B5B0BDA01C9010B97A105B10508F416
:102070005FC08091410681115BC090903A0640920A
:102080003C0650923D0660923E0670923F0680E20A
:102090000E9436027C0190935F0680935E068FE17A
:1020A0000E9436025C0190935D0680935C068EE18F
:1020B0000E94360290935B0680935A06EA0CFB1C42
:1020C000E80EF91E83E090E08E199F091816190694
:1020D0007CF520913B0621112BC091102EC0409120
:1020E00036065091370660913806709139065301D3
:1020F0004201841A950AA60AB70A40911A02509121
:102100001B0260911C0270911D02481559056A0559
:102110007B0508F072C021E020933A0690933506C3
:102120008093340620934106909307028093060221
:1021300080913A06882309F460C034E0C316D104C4
:1021400009F05BC081E080933B0610923A06409113
:1021500034075091350760913607709137075093D7
:102160002F0240932E02C0901E02D0901F020D2C11
:10217000000CEE08FF08C40ED51EE61EF71E0E94D6
:10218000B408AC01990F660B770B4C0D5D1D6E1DED
:102190007F1D409334075093350760933607709343
:1021A00037078FE796E00E94170767E972E08FE72D
:1021B00096E00E94BC0661E080E00E94840665E82B
:1021C00072E088E297E00E945307609134067091B4
:1021D000350688E297E00E944D076BE872E088E2DE
:1021E00097E00E945307609106027091070288E20F
:1021F00097E00E944D070E944506209152063091BB
:1022000053068091040290910502049721F481E025
:102210002430310509F480E090913B06992351F177
:10222000882341F1809106029091070201979093D3
:1022300007028093060218161906E4F010923B0676
:102240001092410640923606509237066092380648
:102250007092390680912E0290912F02092E000C67
:10226000AA0BBB0B8093340790933507A0933607D6
:10227000B093370730930502209304020E942C0389
:10228000C0904206D0904306E0904406F090450688
:102290009B01AC012C193D094E095F0969017A01C6
:1022A00031EDC31637E0D306E104F10430F120919B
:1022B0004106211122C06093420670934306809329
:1022C00044069093450687E30E94BE027C019093EA
:1022D00069068093680686E30E94BE0290936B06AF
:1022E00080936A064CE3E416F1040CF09FC1CC978E
:1022F0000CF09CC181E080934006809146068111DC
:1023000009C069E972E089E796E00E94210881E04E
:10231000809346068FE796E00E94980318161906E8
:102320000CF0E7C28FE796E00E9476038A3009F04E
:10233000D6C280917D0690917E06892B09F4C8C291
:10234000C0907906D0907A066AE370E0C6010E94D8
:10235000F71E009709F4BCC27C01EC18FD085FEF82
:10236000E516F50609F4B4C2A70170E060E0CE01FD
:1023700045960E94320840917D0650917E06B70135
:102380006F5F7F4FCE010F960E9432088F8598892C
:10239000812C912C5401009719F00E94F2174B01E7
:1023A00074016AE972E0C8010E942108B801CE01F7
:1023B00045960E946F07D82EC8010E946707DD204E
:1023C00009F437C1C401092C000CAA0BBB0B809384
:1023D000380790933907A0933A07B0933B07909240
:1023E00031028092300263E080E00E94840664EC57
:1023F00073E088E297E00E94530763E080E00E9468
:1024000084061A8619861C861B861E861D866D8983
:102410007E896115710531F0498D5A8DCE0109967D
:102420000E94F60741E050E065E972E0CE010996AE
:102430000E94CF07811104C0CE0109960E94550762
:102440004AE0B801C7010E941918F8010190002064
:10245000E9F73197AF01401B510BB801CE01099646
:102460000E94CF07811104C0CE0109960E94550732
:102470004D855E8569857A8588E297E00E943A03FA
:10248000CE0109960E9467070E94450669E972E03D
:1024900089E796E00E941708CE010F960E94670711
:1024A000CE0145960E94670735CF60E08AE10E9421
:1024B0005F0261E08BE10E945F020E942C03C090EA
:1024C0005406D0905506E0905606F09057066C19C9
:1024D0007D098E099F09C0903407D0903507E090A0
:1024E0003607F0903707C616D706E806F90608F053
:1024F000B5CB80914006882319F087E090E0EECAC2
:1025000085E090E0EBCA0E942C03C0905406D09066
:102510005506E0905606F09057066C197D098E0915
:102520009F09C0902602D0902702E0902802F090E8
:102530002902C616D706E806F906E8F4809158067F
:1025400090915906019690935906809358060E94DF
:102550002C0360935406709355068093560690930F
:1025600057068BE10E94360261E0892B09F060E09A
:102570008BE10E945F028091580690915906092EC6
:10258000000CAA0BBB0B40912202509123026091D8
:10259000240270912502481759076A077B070CF03F
:1025A0005DCB109259061092580646E050E05093C9
:1025B00053064093520648CB60E08BE10E945F02D5
:1025C00061E08AE10E945F020E942C03C0905406E1
:1025D000D0905506E0905606F09057066C197D098C
:1025E0008E099F09C0902A02D0902B02E0902C0205
:1025F000F0902D02C616D706E806F90608F02ECB95
:1026000010925306109252061FCB61E08BE10E949C
:102610005F0261E086E10E945F02809140068111C5
:102620001DCB309253062092520618CB10924006D2
:1026300064CE65EA72E0C8010E942108B801CE01AB
:1026400045960E946F07D82EC8010E946707DD20BB
:1026500091F0C401092C000CAA0BBB0B809334072A
:1026600090933507A0933607B093370790922F02C7
:1026700080922E02B8CE60EB72E0C8010E94210861
:10268000B801CE0145960E946F07D82EC8010E945E
:102690006707DD2069F0C401990CAA0BBB0B80937E
:1026A0002A0290932B02A0932C02B0932D029BCE72
:1026B0006BEB72E0C8010E942108B801CE0145967B
:1026C0000E946F07D82EC8010E946707DD2069F0BD
:1026D000C401990CAA0BBB0B80932602909327028E
:1026E000A0932802B09329027ECE65EC72E0C80167
:1026F0000E942108B801CE0145960E946F07D82E8E
:10270000C8010E946707DD2069F0C401990CAA0B7B
:10271000BB0B8093220290932302A0932402B093D8
:10272000250261CE66ED72E0C8010E942108B80161
:10273000CE0145960E946F07D82EC8010E946707F8
:10274000DD2029F090922102809220024CCE61EF90
:1027500072E0C8010E942108B801CE0145960E948E
:102760006F07D82EC8010E946707DD2029F09092DC
:102770001F0280921E0237CE60E173E0C8010E9402
:102780002108B801CE0145960E946F07D82EC801D6
:102790000E946707DD2069F0C401990CAA0BBB0BEE
:1027A00080931A0290931B02A0931C02B0931D0207
:1027B0001ACE6CE273E0C8010E942108B801CE0174
:1027C00045960E946F07D82EC8010E946707DD203A
:1027D00069F0C401990CAA0BBB0B8093160290936D
:1027E0001702A0931802B0931902FDCD68E473E0BC
:1027F000C8010E942108B801CE0145960E946F07CA
:10280000D82EC8010E946707DD2029F0909215029A
:1028100080921402E8CD67E673E0C8010E942108A7
:10282000B801CE0145960E946F07D82EC8010E94BC
:102830006707DD2029F09092130280921202D3CD17
:102840006BE873E0C8010E942108B801CE014596EB
:102850000E946F07D82EC8010E946707DD2029F06B
:102860009092110280921002BECD62EA73E0C8011C
:102870000E942108B801CE0145960E946F07D82E0C
:10288000C8010E946707DD2029F090920F02809214
:102890000E02A9CD66EB73E0C8010E942108B801C1
:1028A000CE0145960E946F07D82EC8010E94670787
:1028B000DD2009F498CDC401990CAA0BBB0B8093C1
:1028C0000A0290930B02A0930C02B0930D028BCDE1
:1028D00069E972E089E796E00E9417081BCD8983B9
:1028E0001A8241E050E0B80189E796E00E94CF07E4
:1028F00011CD0E942C0320916C0630916D06DB01F6
:10290000A21BB30B40910802509109024A175B07C2
:1029100008F0C2C170936D0660936C0688EE93E078
:10292000909309028093080286E30E94BE0290936E
:102930006B0680936A0687E30E94BE029093690645
:102940008093680688E30E94BE0290936706809396
:10295000660610924E0610924F0610925006109284
:10296000510688E30E94BE02BC01990F880B990BA7
:102970000E94651820E030E040EA50E40E94C4184C
:1029800020E030EC4FE754E40E94091A20E030E0E8
:1029900048E051E40E94091A6B017C0124E13EEAFF
:1029A00047E85EE30E94131B87FDD3C220E030E0BE
:1029B00048EC53E420934E0630934F064093500664
:1029C0005093510683E20E943602909365068093ED
:1029D000640682E20E943602909363068093620648
:1029E00081E20E943602909361068093600680E245
:1029F0000E94360290935F0680935E068FE10E94EC
:102A0000360290935D0680935C068EE10E9436024A
:102A100090935B0680935A0660E080E00E948406F3
:102A200069ED73E088E297E00E94530761E080E07F
:102A30000E9484066EEE73E088E297E00E945307DE
:102A400062E080E00E94840662E074E088E297E041
:102A50000E94530763E080E00E94840667E174E00F
:102A600088E297E00E94530760E085E00E948406B8
:102A700060916A0670916B0688E297E00E944D07AC
:102A800061E085E00E9484066091680670916906A5
:102A900088E297E00E944D0762E084E00E9484068D
:102AA000609166067091670688E297E00E944D0784
:102AB00062E088E00E9484060E94B408BC0188E2BB
:102AC00097E00E944D07A0915806B09159062091B9
:102AD00026023091270240912802509129020E943B
:102AE000D81C6B017C018090380790903907A0902A
:102AF0003A07B0903B078091340790913507A09139
:102B00003607B09137078B8F9C8FAD8FBE8F0E9499
:102B10002C034090540650905506609056067090D5
:102B200057069B01AC0124193509460957092901AB
:102B30003A01809152069091530663E0009709F0A4
:102B40002DC283E00E9484068C0C9D1CAE1CBF1C11
:102B5000C501B40169517C4F8F4F9F4F64197509AE
:102B60008609970997FF03C060E070E0CB0128EE6B
:102B700033E040E050E00E94B11CBA01A9012AE014
:102B800088E297E00E94CB0680915206909153060E
:102B900063E08430910509F013C288E00E94840646
:102BA0008B8D9C8DAD8DBE8DC80ED91EEA1EFB1E71
:102BB000C701B60169517C4F8F4F9F4F641975094A
:102BC0008609970997FF03C060E070E0CB0128EE0B
:102BD00033E040E050E00E94B11CBA01A9012AE0B4
:102BE00088E297E00E94CB068091520690915306AE
:102BF000079751F463E088E00E9484066DE274E078
:102C000088E297E00E94530761E081E10E94840618
:102C1000609164067091650688E297E00E944D0716
:102C200061E082E10E948406609162067091630611
:102C300088E297E00E944D0761E083E10E948406EC
:102C4000609160067091610688E297E00E944D07EE
:102C500063E081E10E94840660915E0670915F06E8
:102C600088E297E00E944D0763E082E10E948406BB
:102C700060915C0670915D0688E297E00E944D07C6
:102C800063E083E10E94840660915A0670915B06BE
:102C900088E297E00E944D070E942C0320916E0667
:102CA00030916F066B017C01C21AD30AE108F1086A
:102CB000A9EBCA16ABE0DA06E104F10408F445C159
:102CC00070936F0660936E0663E374E08FE796E09F
:102CD0000E945307409138075091390760913A0795
:102CE00070913B078FE796E00E94170768E972E052
:102CF0008FE796E00E9453076FE374E08FE796E05A
:102D00000E94530740913407509135076091360770
:102D1000709137078FE796E00E94170768E972E025
:102D20008FE796E00E9453076BE474E08FE796E02C
:102D30000E94530740912A0250912B0260912C026D
:102D400070912D028FE796E00E94170768E972E004
:102D50008FE796E00E94530767E574E08FE796E0FF
:102D60000E94530740912602509127026091280249
:102D7000709129028FE796E00E94170768E972E0D8
:102D80008FE796E00E94530762E674E08FE796E0D3
:102D90000E94530740912202509123026091240225
:102DA000709125028FE796E00E94170768E972E0AC
:102DB0008FE796E00E94530764E774E08FE796E0A0
:102DC0000E945307409120025091210270E060E080
:102DD0002AE08FE796E00E94CB0668E972E08FE771
:102DE00096E00E94530760E974E08FE796E00E9446
:102DF000530760911E0270911F028FE796E00E94B8
:102E00004D0768E972E08FE796E00E94530760EB98
:102E100074E08FE796E00E94530740911A025091A8
:102E20001B0260911C0270911D022AE08FE796E060
:102E30000E94CB0668E972E08FE796E00E94530794
:102E40006DEC74E08FE796E00E9453074091160204
:102E50005091170260911802709119022AE08FE7D1
:102E600096E00E94CB0668E972E08FE796E00E9448
:102E700053076AEE74E08FE796E00E945307609173
:102E80001402709115028FE796E00E944D0768E9E1
:102E900072E08FE796E00E9453076AE075E08FE7E3
:102EA00096E00E945307409112025091130270E085
:102EB00060E02AE08FE796E00E94CB0668E972E0C6
:102EC0008FE796E00E9453076FE275E08FE796E088
:102ED0000E94530760911002709111028FE796E0F3
:102EE0000E944D0768E972E08FE796E00E94530761
:102EF00067E475E08FE796E00E94530760910E0249
:102F000070910F028FE796E00E944D0768E972E02A
:102F10008FE796E00E9453076CE575E08FE796E037
:102F20000E94530740910A0250910B0260910C02DB
:102F300070910D022AE08FE796E00E94CB0668E9C7
:102F400072E08FE796E00E9453070E943D040C94C4
:102F5000220D24E13EEA47E85EE3C701B6010E9484
:102F60009C192BE83CEC47E15EEB0E94091A2BE22E
:102F700037E846E250E40E949D199B01AC0160E0F5
:102F800070E080E291E40E94181B60934E067093FB
:102F90004F06809350069093510614CD019751F43B
:102FA00083E00E9484066BE274E088E297E00E946E
:102FB0005307EACD83E00E94840666ED73E0F5CF07
:102FC000059751F488E00E9484066BE274E088E281
:102FD00097E00E94530708CE88E00E94840666EDC1
:102FE00073E0F5CF1F93FC0199278827BC01E89473
:102FF00011911032E9F3193010F01E30C8F31B3272
:1030000051F01D3249F4689406C00E942418610FE3
:10301000711D811D911D119110531A30B0F33EF4B2
:1030200090958095709561957F4F8F4F9F4F1F9121
:103030000895BB274A3031F4992322F4BDE29095DC
:1030400081959F4F0C943A18592F482F372F262FD0
:10305000660F771F881F991F660F771F881F991F9C
:10306000620F731F841F951F660F771F881F991F9C
:103070000895BB27FB015527AA27880F991FAA1F70
:10308000A41710F0A41B83955051B9F7A05DAA3383
:1030900008F0A95DA193009779F7B111B19311924E
:1030A000CB010C945318DC01FC01672F719177233D
:1030B000E1F7329704C07C916D9370836291AE17F3
:1030C000BF07C8F30895E89409C097FB3EF49095B4
:1030D0008095709561957F4F8F4F9F4F9923A9F0F1
:1030E000F92F96E9BB279395F69587957795679580
:1030F000B795F111F8CFFAF4BB0F11F460FF1BC0C4
:103100006F5F7F4F8F4F9F4F16C0882311F096E956
:1031100011C0772321F09EE8872F762F05C0662304
:1031200071F096E8862F70E060E02AF09A95660FBD
:10313000771F881FDAF7880F9695879597F9089576
:10314000990F0008550FAA0BE0E8FEEF16161706B8
:10315000E807F907C0F012161306E407F50798F020
:10316000621B730B840B950B39F40A2661F0232B39
:10317000242B252B21F408950A2609F4A140A695B5
:103180008FEF811D811D08950E94D7180C94481956
:103190000E943A1938F00E94411920F0952311F04D
:1031A0000C9431190C94371911240C947C190E9439
:1031B000591970F3959FC1F3950F50E0551F629F09
:1031C000F001729FBB27F00DB11D639FAA27F00D80
:1031D000B11DAA1F649F6627B00DA11D661F829FA7
:1031E0002227B00DA11D621F739FB00DA11D621F8C
:1031F000839FA00D611D221F749F3327A00D611DA9
:10320000231F849F600D211D822F762F6A2F11248A
:103210009F5750409AF0F1F088234AF0EE0FFF1FBD
:10322000BB1F661F771F881F91505040A9F79E3F14
:10323000510580F00C9431190C947C195F3FE4F334
:10324000983ED4F3869577956795B795F795E7956A
:103250009F5FC1F7FE2B880F911D9695879597F973
:10326000089597F99F6780E870E060E008959FEF08
:1032700080EC089500240A9416161706180609060D
:10328000089500240A9412161306140605060895DC
:10329000092E0394000C11F4882352F0BB0F40F464
:1032A000BF2B11F460FF04C06F5F7F4F8F4F9F4FA4
:1032B000089557FD9058440F551F59F05F3F71F026
:1032C0004795880F97FB991F61F09F3F79F087958D
:1032D0000895121613061406551FF2CF4695F1DF16
:1032E00008C0161617061806991FF1CF86957105A6
:1032F000610508940895E894BB2766277727CB01DA
:1033000097F908950E948D19A59F900DB49F900D77
:10331000A49F800D911D11240895A29FB001B39F19
:10332000C001A39F700D811D1124911DB29F700DCE
:10333000811D1124911D08955058BB27AA270E9472
:10334000B4190C9448190E943A1938F00E94411996
:1033500020F039F49F3F19F426F40C9437190EF439
:10336000E095E7FB0C943119E92F0E94591958F3A5
:10337000BA17620773078407950720F079F4A6F55A
:103380000C947B190EF4E0950B2EBA2FA02D0B0197
:10339000B90190010C01CA01A0011124FF27591B9A
:1033A00099F0593F50F4503E68F11A16F040A22FA0
:1033B000232F342F4427585FF3CF46953795279511
:1033C000A795F0405395C9F77EF41F16BA0B620B10
:1033D000730B840BBAF09150A1F0FF0FBB1F661F57
:1033E000771F881FC2F70EC0BA0F621F731F841F9A
:1033F00048F4879577956795B795F7959E3F08F0C0
:10340000B0CF9395880F08F09927EE0F9795879581
:1034100008950E941D1A0C9448190E94411958F0F1
:103420000E943A1940F029F45F3F29F00C943119B9
:1034300051110C947C190C9437190E94591968F396
:103440009923B1F3552391F3951B550BBB27AA275D
:1034500062177307840738F09F5F5F4F220F331F97
:10346000441FAA1FA9F335D00E2E3AF0E0E832D05F
:1034700091505040E695001CCAF72BD0FE2F29D062
:10348000660F771F881FBB1F261737074807AB0734
:10349000B0E809F0BB0B802DBF01FF2793585F4FA9
:1034A0003AF09E3F510578F00C9431190C947C1938
:1034B0005F3FE4F3983ED4F3869577956795B7958B
:1034C000F7959F5FC9F7880F911D9695879597F996
:1034D0000895E1E0660F771F881FBB1F621773070F
:1034E0008407BA0720F0621B730B840BBA0BEE1F24
:1034F00088F7E09508950E94821A6894B1110C949F
:103500007C1908950E94611988F09F5798F0B92F8F
:103510009927B751B0F0E1F0660F771F881F991F08
:103520001AF0BA95C9F714C0B13091F00E947B1916
:10353000B1E008950C947B19672F782F8827B85F26
:1035400039F0B93FCCF3869577956795B395D9F760
:103550003EF490958095709561957F4F8F4F9F4F6A
:1035600008950E943A1920F019F00E94411950F470
:103570000C9437190C947C19E92F0E94591988F37F
:103580005523B1F3E7FB6217730784079507A8F18A
:1035900089F3E92FFF2788232AF03197660F771FD9
:1035A000881FDAF7952F5527442332F09150504069
:1035B000220F331F441FD2F7BB27E91BF50B621BF9
:1035C000730B840BB109B1F222F4620F731F841FD5
:1035D000B11D31972AF0660F771F881FBB1FEFCFF1
:1035E0009150504062F041F0882332F0660F771F0F
:1035F000881F91505040C1F793950C94051B8695F8
:10360000779567959F5FD9F7F7CF9F3F31F091503E
:1036100020F4879577956795B795880F911D9695B6
:10362000879597F908950E94A01808F48FEF0895E0
:10363000FA01EE0FFF1F309621053105A1F161154A
:10364000710561F48038BFE39B0749F168949038B5
:10365000810561F08038BFEF9B0741F099234AF55F
:10366000FF3FE1053105210519F1E8940894E7953C
:10367000D901AA2329F4AB2FBE2FF85FD0F310C0D5
:10368000FF5F70F4A695E0F7F73950F019F0FF3AB4
:1036900038F49F779F930DD00F9007FC90580895B2
:1036A00046F00C94371960E070E080E89FE30895DD
:1036B0004FE79F775F934F933F932F930E94131C85
:1036C0002F913F914F915F910E94C4180C94701BF1
:1036D00029F416F00C9431190C947B190C943719B9
:1036E0000E946119A8F39638A0F707F80F92E894A2
:1036F0002BE33AEA48EB5FE70E94DA180F920F9249
:103700000F924DB75EB70F920E945B1CE4EEF0E0A3
:103710000E94A21B4F915F91EF91FF91E595EE1FE3
:10372000FF1F49F0FE57E0684427EE0F441FFA954B
:10373000E1F74195550B0E94D51B0F9007FE0C94A5
:10374000C91B0895DF93CF931F930F93FF92EF92BE
:10375000DF927B018C01689406C0DA2EEF010E9493
:10376000D718FE01E894A591259135914591559181
:10377000A6F3EF010E94B419FE019701A801DA94A3
:1037800069F7DF90EF90FF900F911F91CF91DF913C
:1037900008959B01AC0160E070E080E89FE30C9429
:1037A000091A0C9431190C94051B0E946119D8F365
:1037B0009923C9F3940F511DA3F39150504094F0F5
:1037C00059F0882332F0660F771F881F91505040C0
:1037D000C1F79E3F51052CF7880F911D969587954F
:1037E00097F908955F3FACF0983E9CF0BB27869513
:1037F00077956795B79508F4B1609395C1F7BB0FBE
:1038000058F711F460FFE8CF6F5F7F4F8F4F9F4FE6
:10381000E3CF0C947C1916F00C94051B0C9437190B
:1038200068940C9431190E946119A8F39923C1F38B
:10383000AEF3DF93CF931F930F93FF92C92FDD2732
:1038400088232AF02197660F771F881FDAF720E078
:1038500030E040E85FEB9FE3883920F0803E38F0AD
:1038600021968F770E949D19ECE0F1E004C00E9440
:103870009D19E9E3F1E00E94A21B8B01BE01EC015E
:10388000FB2E6F5771097595771F880B990B0E9456
:10389000651828E132E741E35FE30E94D718AF2DB6
:1038A0009801AE01FF900F911F91CF91DF910E947F
:1038B000B4190C944819FA01DC01AA0FBB1F9B0133
:1038C000AC01BF5728F4222733274427507820C063
:1038D000B75190F4AB2F0024469537952795011CDE
:1038E000A395D2F3002071F0220F331F441FB3952C
:1038F000DAF30ED00C949C1961307105A0E88A07A8
:10390000B94630F49B01AC01662777278827907869
:10391000309621F020833183428353830895A1E2BE
:103920001A2EAA1BBB1BFD010DC0AA1FBB1FEE1F39
:10393000FF1FA217B307E407F50720F0A21BB30B84
:10394000E40BF50B661F771F881F991F1A9469F700
:1039500060957095809590959B01AC01BD01CF015C
:103960000895052E97FB1EF400940E94C81C57FD75
:1039700007D00E948F1C07FC03D04EF40C94C81C87
:1039800050954095309521953F4F4F4F5F4F08958B
:1039900090958095709561957F4F8F4F9F4F0895BB
:1039A000EE0FFF1F881F8BBF0790F691E02D199433
:1039B000B7FF0C9482190E948219821B930B089501
:1039C0000F931F93CF93DF938230910510F482E021
:1039D00090E0E0913E07F0913F0730E020E0B0E05A
:1039E000A0E0309799F42115310509F44AC0281B4D
:1039F000390B24303105D8F58A819B816115710519
:103A000089F1FB0193838283FE0111C040815181C2
:103A10000281138148175907E0F04817590799F4B4
:103A2000109761F012960C93129713961C9332968E
:103A3000CF01DF91CF911F910F91089500933E0721
:103A400010933F07F4CF2115310551F0421753076A
:103A500038F0A901DB019A01BD01DF01F801C1CFF6
:103A6000EF01F9CF90933F0780933E07CDCFFE0142
:103A7000E20FF31F819391932250310939832883F8
:103A8000D7CF20913C0730913D07232B41F4209163
:103A900034023091350230933D0720933C0720914A
:103AA0003202309133022115310541F42DB73EB772
:103AB0004091360250913702241B350BE0913C07B0
:103AC000F0913D07E217F307A0F42E1B3F0B2817D8
:103AD000390778F0AC014E5F5F4F2417350748F087
:103AE0004E0F5F1F50933D0740933C078193919386
:103AF0009FCFF0E0E0E09CCFCF93DF930097E9F019
:103B0000FC01329713821282A0913E07B0913F07C9
:103B1000ED0130E020E01097A1F420813181820F87
:103B2000931F20913C0730913D072817390709F072
:103B300061C0F0933D07E0933C07DF91CF9108957A
:103B4000EA01CE17DF07E8F54A815B819E01411546
:103B50005105B1F7E901FB83EA8349915991C40FFB
:103B6000D51FEC17FD0761F4808191810296840FC7
:103B7000951FE90199838883828193819B838A833E
:103B8000F0E0E0E012968D919C9113970097B9F5C3
:103B90002D913C911197CD010296820F931F209198
:103BA0003C0730913D072817390739F6309751F512
:103BB00010923F0710923E07B0933D07A0933C0739
:103BC000BCCFD383C28340815181840F951FC81716
:103BD000D90761F44E5F5F4F88819981480F591F63
:103BE000518340838A819B81938382832115310590
:103BF00009F0B0CFF0933F07E0933E079ECFFD0161
:103C0000DC01C0CF13821282D7CF4F925F926F92A6
:103C10007F928F929F92AF92BF92CF92DF92EF925C
:103C2000FF920F931F93CF93DF938C01009799F42A
:103C3000CB01DF91CF911F910F91FF90EF90DF901B
:103C4000CF90BF90AF909F908F907F906F905F903C
:103C50004F900C94E01CFC01E60FF71F9C012250D2
:103C60003109E217F30708F4AEC0D901CD91DC9118
:103C70001197C617D70720F1C530D10578F0CE01CE
:103C800004978617970750F0C61BD70B2297C1934E
:103C9000D1936D937C93CF010E947C1DC801DF916D
:103CA000CF911F910F91FF90EF90DF90CF90BF9039
:103CB000AF909F908F907F906F905F904F900895FE
:103CC0005B01AC1ABD0A4C018C0E9D1EA0913E07F3
:103CD000B0913F07512C412CF12CE12C109731F57C
:103CE00080913C0790913D078815990509F05CC0CB
:103CF0004616570608F058C0809132029091330260
:103D0000009741F48DB79EB740913602509137022B
:103D1000841B950BE817F90708F055C0F0933D0791
:103D2000E0933C07F90171836083B8CF8D919C913A
:103D3000119712966C90129713967C901397A81572
:103D4000B90559F56C0142E0C40ED11CCA14DB045C
:103D500020F1AC014A195B09DA011296159780F03F
:103D60006282738251834083D9016D937C93E11405
:103D7000F10471F0D7011396FC93EE9312978ECF56
:103D800022968C0F9D1FF90191838083F301EFCF61
:103D9000F0933F07E0933E0781CF4816590608F499
:103DA0002C017D01D3019ACFCB010E94E01C7C0144
:103DB000009749F0AE01B8010E94EE1EC8010E94B2
:103DC0007C1D87016BCF10E000E068CF9111089552
:103DD00081548A5108F4805E855A0895FB01DC0104
:103DE00002C001900D9241505040D8F70895FC0157
:103DF0008191861721F08823D9F799270895319763
:103E0000CF010895FB01DC0101900D920020E1F744
:063E10000895F894FFCFB5
:103E1600FFFF0300FFFF0300E803204E000010270A
:103E2600B80BA00FD007B80B0000581B0000D00736
:103E3600B80B0600000064000000F4010000A00FAB
:103E4600D007000040078000000040001400540026
:103E560000000000D0033A0367031D0498037603AD
:103E66008A03000000002B05FE044206D404F70472
:103E7600E404D50400000000B6063A0342064106F3
:103E86005065646573747269616E312063726F7315
:103E960073696E67005072696F20002053656E73F8
:103EA6006F72732D433A000D0A00677265656E5492
:103EB600696D653100677265656E54696D653200BE
:103EC60079656C6C6F7754696D6500626C696E6BB1
:103ED60054696D6500746F74616C426C696E6B73C6
:103EE600496E4F7574007065646573747269616EAE
:103EF600526564756365477265656E54696D6531B3
:103F0600006C69676874477265656E32496E6372E4
:103F1600656173655768656E53656E736F7273007E
:103F26007072696F7269747957616974696E6754E2
:103F3600696D654F6E4C6967687432007072696F9F
:103F46007269747957616974696E6754696D654FF2
:103F56006E4C6967687431006C696768744772658E
:103F6600656E31496E6372656173655768656E5338
:103F7600656E736F727300646973706C61795265F4
:103F8600667265736854696D6541667465724E6FD5
:103F960074696669636174696F6E00677265656EE0
:103FA6004C696768743154696D655768656E43611D
:103FB60072007065646573747269616E43726F73C3
:103FC6007354696D6500636F32477265656E546937
:103FD6006D65320020202020202020202020202057
:103FE6002020202020202020004C44523120202058
:103FF60020202020202020434E59313233004C44CB
:104006005232202020202020202020202020202066
:104016002000434F32202020202020202020202056
:10402600434E59343536004C312020204C32202066
:10403600202020202020202020200030004E49472C
:10404600485400677265656E54696D65315F006737
:104056007265656E54696D65325F0079656C6C6F6B
:104066007754696D655F00626C696E6B54696D6546
:104076005F00746F74616C426C696E6B73496E4F4E
:1040860075745F007065646573747269616E5265FC
:1040960064756365477265656E54696D65315F0069
:1040A6006C69676874477265656E32496E637265DE
:1040B6006173655768656E53656E736F72735F00E3
:1040C6007072696F7269747957616974696E675441
:1040D600696D654F6E4C69676874325F007072690E
:1040E6006F7269747957616974696E6754696D6531
:1040F6004F6E4C69676874315F006C696768744716
:104106007265656E31496E63726561736557686580
:104116006E53656E736F72735F00646973706C6162
:10412600795265667265736854696D654166746532
:10413600724E6F74696669636174696F6E5F00675A
:104146007265656E4C696768743154696D65576848
:10415600656E4361725F0070656465737472696150
:104166006E43726F737354696D655F00636F324798
:0C4176007265656E54696D65325F000073
:00000001FF
