:100000000C949C010C94CD010C94CD010C94CD0169
:100010000C94CD010C94CD010C94CD010C94CD0128
:100020000C94CD010C94CD010C94CD010C94CD0118
:100030000C94CD010C94CD010C94CD010C94CD0108
:100040000C94CD010C94CD010C94CD010C94CD01F8
:100050000C94CD010C94CD010C94CD010C9430097D
:100060000C94CD010C94A4090C947A090C94CD0144
:100070000C94CD010C94CD010C94CD010C94CD01C8
:100080000C94CD010C94CD010C94CD010C94CD01B8
:100090000C94CD010C94CD010C94CD010C94DA0993
:1000A0000C94CD010C94CD010C94CD010C94CD0198
:1000B0000C94CD010C94CD010C94CD010C94CD0188
:1000C0000C94CD010C94CD010C94CD010C94CD0178
:1000D0000C94CD010C94CD010C94CD010C94CD0168
:1000E0000C94CD0107634236B79BD8A71A396856DE
:1000F00018AEBAAB558C1D3CB7CC5763BD6DEDFD4A
:10010000753EF6177231BF000000803F0800000006
:10011000BE922449123EABAAAA2ABECDCCCC4C3EFC
:1001200000000080BEABAAAAAA3E00000000BF00EB
:100130000000803F0000000000084178D3BB4387E7
:10014000D1133D190E3CC3BD4282AD2B3E68EC82FB
:1001500076BED98FE1A93E4C80EFFFBE01C4FF7F80
:100160003F00000000000C94D4040C94DF0D0C94AC
:10017000FE040C94B80D0C941D040C9424020C94F1
:100180003A030C941A020C94260D0C9442060C941B
:1001900039030C9432020C94FE0A0C9420020C9445
:1001A000ED010C94C8120C9438030C9467030C9462
:1001B00084060C9476030C9402020C94F3010C94C4
:1001C0002E020C9428020C942D020C94D0030C9453
:1001D000F7040C94E4040C9416020C94FB010C94A8
:1001E000D5040C9408020C94F7010C94FF010C94B4
:1001F00041120C946F120C94F1120C940C020C949A
:1002000098030C94610D0C9441060C9412020C940A
:100210008A030C942B0500002100240027002A00EB
:100220002D003000330001010000040107010A0124
:1002300000002200250028002B002E003100340091
:1002400002010000050108010B010000200023004D
:10025000260029002C002F003200000100000301BD
:100260000601090105050505070508080808020239
:1002700002020A0A08080404040401010101010140
:1002800001010303030303030303040707070C0C23
:100290000C0C0C0C0C0C02020202060606060606EA
:1002A00006060B0B0B0B0B0B0B0B0102102020088F
:1002B00008102040102040800201020108040201C1
:1002C0000102040810204080804020100804020130
:1002D0008004020180402010080402010804020189
:1002E0000102040810204080010204081020408010
:1002F00000000A0B02090C0D0E08070304010000A0
:1003000000000000000000000000000000000000ED
:1003100000000000000000000000000012111000AA
:1003200000000000000000000000000000000000CD
:10033000000000000000FE0A11241FBECFEFD1E232
:10034000DEBFCDBF00E00CBF25E0ACE2B4E001C0F1
:100350001D92AE3FB207E1F714E0A0E0B2E0ECED91
:10036000FAE300E00BBF02C007900D92AC32B10778
:10037000D9F711E0CCE9D1E000E006C021970109EE
:10038000802FFE010E94331BCB39D10780E0080784
:10039000A9F70E94660B0C946C1D0C940000815010
:1003A000823108F05AC0E82FF0E08827E552FE4F6E
:1003B0008F4F0C94331BFB01FF01ED01F301F7019B
:1003C0002D02020208020C02120216021A02200278
:1003D00024022D0228022E023202809180008F77A3
:1003E000809380000895809180008F7DF9CF809167
:1003F0008000877FF5CF84B58F7784BD089584B55D
:100400008F7DFBCF8091B0008F778093B0000895EF
:100410008091B0008F7DF9CF809190008F7780938D
:1004200090000895809190008F7DF9CF8091900089
:10043000877FF5CF8091A0008F778093A0000895EB
:100440008091A0008F7DF9CF8091A000877FF5CFAC
:10045000809120018F778093200108958091200161
:100460008F7DF9CF80912001877FF5CFCF93DF93E8
:10047000282F30E0F901E051FD4F8491F901E65554
:10048000FD4FD491F901EC59FD4FC491CC23A1F05B
:1004900081110E94CF01EC2FF0E0EE0FFF1FE65B11
:1004A000FD4FA591B491EC91ED2381E090E009F42A
:1004B00080E0DF91CF91089580E090E0FACF1F9324
:1004C000CF93DF93282F30E0F901E051FD4F849165
:1004D000F901E655FD4FD491F901EC59FD4FC49156
:1004E000CC23A9F0162F81110E94CF01EC2FF0E050
:1004F000EE0FFF1FE05DFD4FA591B4918FB7F8940B
:10050000EC91111108C0D095DE23DC938FBFDF91F1
:10051000CF911F910895DE2BF8CFCF93DF9390E01A
:10052000FC01E655FD4F24918C599D4FFC018491AF
:100530008823D1F090E0880F991FFC01EA5EFD4FFF
:10054000A591B491FC01E05DFD4FC591D49161117D
:100550000EC09FB7F8948C91E22FE0958E238C9378
:100560002881E223E8839FBFDF91CF9108958FB761
:10057000F894EC91E22BEC938FBFF6CF90917B0037
:10058000977F90937B008653806480937C0080915A
:100590007A00806480937A0080917A0086FDFCCF97
:1005A000809178009091790008953FB7F8948091F8
:1005B000330590913405A0913505B091360526B5E7
:1005C000A89B05C02F3F19F00196A11DB11D3FBF8B
:1005D000BA2FA92F982F8827BC01CD01620F711D5A
:1005E000811D911D42E0660F771F881F991F4A9554
:1005F000D1F708958F929F92AF92BF92CF92DF92E0
:10060000EF92FF924B015C010E94D5026B017C01CD
:100610000E94D5026C197D098E099F09683E7340BE
:1006200081059105A8F321E0821A9108A108B1087B
:1006300088EEC80E83E0D81EE11CF11C81149104E1
:10064000A104B10429F7FF90EF90DF90CF90BF9005
:10065000AF909F908F9008952FB7F89460912F05D9
:100660007091300580913105909132052FBF08952A
:1006700008950895AF92BF92CF92DF92EF92FF92CA
:100680000F931F93CF93DF936C017B018B01040FBA
:10069000151FEB015E01AE18BF08C017D10759F056
:1006A0006991D601ED91FC910190F081E02DC60198
:1006B0001995892B79F7C501DF91CF911F910F9182
:1006C000FF90EF90DF90CF90BF90AF900895FC0126
:1006D000538D448D252F30E0842F90E0821B930BA7
:1006E000541710F0CF96089501970895FC01918D4D
:1006F000828D981761F0A28DAE0FBF2FB11D5D9650
:100700008C91928D9F5F9F73928F90E008958FEFF1
:100710009FEF0895FC01918D828D981731F0828DA5
:10072000E80FF11D858D90E008958FEF9FEF0895FC
:10073000FC01918D228D892F90E0805C9F4F821B60
:1007400091098F73992708958DE395E00E9498038E
:1007500021E0892B09F420E0822F0895FC01A48D6B
:10076000A80FB92FB11DA35ABF4F2C91848D90E0D3
:1007700001968F739927848FA689B7892C93A089B6
:10078000B1898C91837080648C93938D848D981340
:1007900006C00288F389E02D80818F7D80830895D3
:1007A000EF92FF920F931F93CF93DF93EC0181E0C1
:1007B000888F9B8D8C8D98131AC0E889F989808168
:1007C00085FF15C09FB7F894EE89FF896083E8899B
:1007D000F98980818370806480839FBF81E090E08D
:1007E000DF91CF911F910F91FF90EF900895F62E1A
:1007F0000B8D10E00F5F1F4F0F731127E02E8C8DB4
:100800008E110CC00FB607FCFACFE889F9898081F8
:1008100085FFF5CFCE010E94AE03F1CFEB8DEC0F3B
:10082000FD2FF11DE35AFF4FF0829FB7F8940B8F15
:10083000EA89FB8980818062CFCFCF93DF93EC017F
:10084000888D8823B9F0AA89BB89E889F9898C91B8
:1008500085FD03C0808186FD0DC00FB607FCF7CF74
:100860008C9185FFF2CF808185FFEDCFCE010E9474
:10087000AE03E9CFDF91CF91089580E090E0892B1E
:1008800029F00E94A40381110E94000080E090E002
:10089000892B49F080E090E0892B29F00E9400002C
:1008A00081110E94000080E090E0892B49F080E0F7
:1008B00090E0892B29F00E94000081110E94000025
:1008C00080E090E0892B49F080E090E0892B29F0CE
:1008D0000E94000081110C9400000895209194045E
:1008E000260F3327331F21323105ECF42091B80451
:1008F000FC0190E080E0243069F082E00895A0914E
:1009000094042191AC014C585B4FA40FB52FB11D3D
:100910002C930196861798F380919404680F609346
:10092000940480E0089581E008951092B80481E075
:100930008093BA041092B90461E084E10E945F02DE
:1009400061E085E10E945F02E9EBF0E080818E7F4B
:10095000808380818D7F808388E48093B80085E4E4
:100960008093BC000895CF93DF9391E0909373043C
:100970008823B9F0C091B800D091BA008091BC0032
:100980008A7B8093BC0060E084E10E945F0260E0AB
:1009900085E10E945F020E949504D093BA00C09343
:1009A000B800DF91CF9108950895E091E50480911A
:1009B000E404E81730F4F0E0E25BFB4F808190E064
:1009C00008958FEF9FEF08959091E5048091E404DE
:1009D0002FEF3FEF981748F4E92FF0E0E25BFB4F71
:1009E000208130E09F5F9093E504C90108958091D4
:1009F000E4049091E504891B990B0895CF92DF924E
:100A0000EF92FF920F931F93CF93DF937C01CB0163
:100A10008A0120914D04222389F0EB016B01C40E61
:100A2000D51ECC15DD0569F06991D701ED91FC91DA
:100A30000190F081E02DC7011995F3CF642F0E943A
:100A40006E04C801DF91CF911F910F91FF90EF903D
:100A5000DF90CF900895CF93DF931F92CDB7DEB78D
:100A6000698320914D042223F9F02091E204203281
:100A700058F021E030E0FC013383228390E080E0F5
:100A80000F90DF91CF9108958091E304E82FF0E07B
:100A9000E35DFB4F998190838F5F8093E3048093A4
:100AA000E20481E090E0ECCF61E0CE0101960E948B
:100AB0006E04F7CFCF92DF92EF92FF920F931F93C6
:100AC000CF93DF93FC01C48121E020934D04C093B8
:100AD0002C041092E3041092E2048385682B8AEDC3
:100AE00095E00E942B05D091E204D13208F092C02B
:100AF0000E94D5026B017C018091B804811165C010
:100B000082E08093B80481E08093BA048FEF8093F1
:100B1000B7041092DC04D093DB04ADE2B4E0EBEB5D
:100B2000F4E080E0D81385C01092DD048091DD04EC
:100B3000CC0FC82BC093DD048091B904813009F03B
:100B40007CC01092B9040E94D5026B017C01809197
:100B5000DD048093BB0080916F0490917004A0919C
:100B60007104B0917204892B8A2B8B2B99F00E940F
:100B7000D50200916F04109170042091710430919E
:100B800072046C197D098E099F090617170728073B
:100B90003907E0F18091BC0083FDD9CF85EC8093CB
:100BA000BC000E94D5026B017C018091B8048230A8
:100BB00009F445C08091B7048F3F61F18091B7047B
:100BC000803241F18091B70425C080916F049091EB
:100BD0007004A0917104B0917204892B8A2B8B2B25
:100BE00009F48ACF0E94D50200916F04109170041D
:100BF00020917104309172046C197D098E099F094E
:100C0000061717072807390708F076CF80916E047A
:100C10000E94B3041092E3041092E20410924D0477
:100C2000DF91CF911F910F91FF90EF90DF90CF90C8
:100C300008959D9191938F5F75CF85EEB0CF809190
:100C40006F0490917004A0917104B0917204892B8B
:100C50008A2B8B2B09F4A9CF0E94D50200916F0437
:100C60001091700420917104309172046C197D0907
:100C70008E099F09061717072807390708F095CF2F
:100C8000C5CF089590E080E008950E942C037093F2
:100C90002D0560932C0580910C0290910D0290938C
:100CA00029028093280208950F931F93CF938C01FC
:100CB000C62F0E945A056C2F6460C8010E945A0515
:100CC0006C2F6B7FC8010E945A0583EC90E001975E
:100CD000F1F7CF911F910F9108950F931F93CF9329
:100CE000DF938C01D62FC42F607F642B0E945406A3
:100CF00080E1D89FB00111246C2BC801DF91CF9106
:100D00001F910F910C94540641E00E946D0681E002
:100D100090E00895CF93DF9300D000D01F921F92F0
:100D2000CDB7DEB798E0E4E3F2E0DE011196019082
:100D30000D929A95E1F79091EE05961710F46FEFEA
:100D4000690F262F30E0220F331F41E050E04C0F97
:100D50005D1F240F351FF9016081680F606840E056
:100D600086EE95E028960FB6F894DEBF0FBECDBF95
:100D7000DF91CF910C946D06FB0101900020E9F703
:100D80003197AF01461B570BDC01ED91FC910280BE
:100D9000F381E02D19948F929F92AF92BF92EF92C0
:100DA000FF920F931F93CF93DF93CDB7DEB7A19739
:100DB0000FB6F894DEBF0FBECDBF7C01FA01CB01A8
:100DC00019A2223008F42AE08E010F5D1F4F822EF7
:100DD000912CB12CA12CBF01A50194010E94F21A03
:100DE000F901CA016A300CF5605DD8016E938D017E
:100DF000232B242B252B79F790E080E0109721F00E
:100E0000BD01C7010E94BC06A1960FB6F894DEBFD3
:100E10000FBECDBFDF91CF911F910F91FF90EF904B
:100E2000BF90AF909F908F900895695CDECFCF9276
:100E3000DF92EF92FF926C01990FEE08FF08F7FE28
:100E400018C041E06DE286EE95E00E946D064427F1
:100E50005527BA014C195D096E097F092AE086EE13
:100E600095E00E94CB060196FF90EF90DF90CF9027
:100E700008952AE0B701A60186EE95E0FF90EF9075
:100E8000DF90CF900C94CB06BC0186EE95E00C94DD
:100E9000BC06CF93DF93EC0188819981009711F014
:100EA0000E94DF1B198218821D821C821B821A82FB
:100EB000DF91CF910895FC0180819181009711F01D
:100EC0000C94DF1B0895EF92FF920F931F93CF9323
:100ED000DF938617970769F1FC0124813581FB01B7
:100EE0004481558124173507E1F4232B11F1FC01CE
:100EF00000811181FB01C081D181F80181918F01B5
:100F00008823B9F0082E000C990B0E94491D7C0122
:100F10008991082E000C990B0E94491DE816F906CC
:100F200061F380E0DF91CF911F910F91FF90EF90DF
:100F3000089581E0F7CF0F931F93CF93DF93EC01D8
:100F400088819981009759F02A813B8126173707BC
:100F500030F081E0DF91CF911F910F9108958B01C7
:100F60006F5F7F4F0E94681C009759F099838883B8
:100F70001B830A832C813D81232B59F7FC011082AE
:100F8000E8CF80E0E7CFEF92FF920F931F93CF93CC
:100F9000DF9341155105B1F07B01EC010C811D81FE
:100FA000040F151FB8010E949B07882361F0288158
:100FB00039818C819D81B701820F931F0E94651D2D
:100FC0001D830C8381E0DF91CF911F910F91FF90E2
:100FD000EF900895EF92FF920F931F93CF93DF93BB
:100FE000EC017B018A01BA010E949B0781110BC0B1
:100FF000CE010E944907CE01DF91CF911F910F9141
:10100000FF90EF9008951D830C83B701888199812B
:101010000E94651DF0CFFB0101900020E9F7319798
:10102000AF01461B570B0C94EA07FC01118210829A
:101030001382128215821482FB0101900020E9F7CD
:101040003197AF01461B570B0C94EA07CF92DF9202
:10105000EF92FF920F931F93CF93DF936C017B016D
:101060008A014617570720F48F2D7A01062F182F73
:1010700065E972E0C6010E941508C0913B05D09158
:101080003C05EC16FD06F8F40C171D0708F4E80102
:10109000E0913705F0913805EC0FFD1F10811082AB
:1010A00060913705709138056E0D7F1DC601611581
:1010B000710599F00E940B088091370590913805D1
:1010C000C80FD91F1883C601DF91CF911F910F91CF
:1010D000FF90EF90DF90CF9008950E944907ECCFEA
:1010E00085ED8093BC0080916F0490917004A09175
:1010F0007104B09172040796A11DB11D23E0B6954D
:10110000A795979587952A95D1F72091BC0024FD46
:1011100003C01092B804089540916F045091700478
:101120006091710470917204452B462B472B69F333
:101130000097A105B10541F02AE22A95F1F700C018
:101140000197A109B109E1CF80916E040C94B30419
:10115000CF92DF92EF92FF9210920E0510920F0540
:10116000109210051092110588E30E94BE02BC0186
:10117000990F880B990B0E94C81620E030E040EAD6
:1011800050E40E94271720E030EC4FE754E40E941F
:101190006C1820E030E048E051E40E946C186B01CC
:1011A0007C0124E13EEA47E85EE30E94761987FD70
:1011B00032C080E090E0A8ECB3E480930E059093F9
:1011C0000F05A0931005B09311056091080270916E
:1011D000090290E080E00E94C6166B017C0120911C
:1011E0000E0530910F0540911005509111050E9498
:1011F000271720E030E44CE156E40E946C18A70168
:1012000096010E941F190E94DE18CB01FF90EF90FB
:10121000DF90CF90089524E13EEA47E85EE3C701FE
:10122000B6010E94FF172BE83CEC47E15EEB0E9401
:101230006C182BE237E846E250E40E9400189B014C
:10124000AC0160E070E080E291E40E947B19609361
:101250000E0570930F058093100590931105B5CF7F
:101260001F920F920FB60F9211242F933F938F93DB
:101270009F93AF93BF9380912F0590913005A091DC
:101280003105B091320530912E0523E0230F2D3723
:1012900058F50196A11DB11D20932E0580932F05B1
:1012A00090933005A0933105B093320580913305BA
:1012B00090913405A0913505B09136050196A11D98
:1012C000B11D8093330590933405A0933505B093F9
:1012D0003605BF91AF919F918F913F912F910F90C4
:1012E0000FBE0F901F90189526E8230F0296A11DA0
:1012F000B11DD2CF1F920F920FB60F9211240BB6D1
:101300000F922F933F934F935F936F937F938F939E
:101310009F93AF93BF93EF93FF938DE395E00E946C
:10132000AE03FF91EF91BF91AF919F918F917F910C
:101330006F915F914F913F912F910F900BBE0F9046
:101340000FBE0F901F9018951F920F920FB60F921D
:1013500011240BB60F922F938F939F93EF93FF93CC
:10136000E0914D05F0914E058081E0915305F0919B
:10137000540582FD1DC09081809156058F5F8F734B
:1013800020915705821741F0E0915605F0E0E35CAB
:10139000FA4F958F80935605FF91EF919F918F9112
:1013A0002F910F900BBE0F900FBE0F901F901895AE
:1013B0008081F2CF1F920F920FB60F9211240BB6BD
:1013C0000F922F933F934F935F936F937F938F93DE
:1013D0009F93AF93BF93EF93FF938091B900887F62
:1013E000803609F44DC008F040C0883209F4A9C025
:1013F00028F5803109F49DC0C8F4882309F4FBC0A6
:10140000883009F496C0FF91EF91BF91AF919F9101
:101410008F917F916F915F914F913F912F910F909D
:101420000BBE0F900FBE0F901F901895883109F4D6
:1014300088C0803241F78093B70414C0803409F427
:101440009DC040F48033B9F38833E9F68093B70444
:1014500085ECB0C0803509F485C0883509F496C0A4
:10146000883489F60E947008CECF883909F48CC080
:1014700038F5883729F050F4883611F0803719F69E
:1014800083E08093B8041092B60457C0883809F4FA
:101490007BC0803919F0803809F0B5CF8091B6044F
:1014A000803208F071C0E091B60481E08E0F809325
:1014B000B6048091BB00F0E0EA56FB4F80833DC04C
:1014C000803B39F0E0F4803A09F479C0883A09F0B9
:1014D0009ACF84E08093B8041092950410929404FB
:1014E000E091E004F091E104199580919404811158
:1014F0000FC081E0809394041092740409C0803C72
:1015000009F4A6CF883C09F4A3CF883B09F07BCF30
:10151000E091950481E08E0F80939504F0E0EC5803
:10152000FB4F80818093BB0090919504809194043F
:1015300029C08091DD048093BB0085EC8093BC00C2
:1015400062CF9091DC048091DB04981758F5E0910C
:10155000DC0481E08E0F8093DC04F0E0E554FB4F67
:101560008081E9CFE091DC0481E08E0F8093DC0480
:101570008091BB00F0E0E554FB4F80839091DC0448
:101580008091DB049817C8F285E8D8CFE091DC049D
:1015900081E08E0F8093DC048091BB00F0E0E55485
:1015A000FB4F80838091BA0481115CCF81E08093EE
:1015B000B90484EA8093BC001092B80424CF85EC6F
:1015C0008093BC001092B8048091B604803230F44D
:1015D000E091B604F0E0EA56FB4F10826091B60449
:1015E00070E0E091DE04F091DF0486E994E0199563
:1015F0001092B60408CF1092B70434CFEDE3F5E0B3
:101600001382128288EE93E0A0E0B0E08483958399
:10161000A683B78320E432E03183208325EC30E0D9
:101620003587248724EC30E03787268720EC30E0AC
:10163000318B208B21EC30E0338B228B22EC30E09D
:10164000358B248B26EC30E0378B268B118E128E57
:10165000138E148EEAEDF5E0138212828483958353
:10166000A683B78382E592E09183808380912C02E8
:1016700090912D02092E000CAA0BBB0B8093F6054E
:101680009093F705A093F805B093F90580912A028D
:1016900090912B02092E000CAA0BBB0B8093F20534
:1016A0009093F305A093F405B093F505E6EEF5E00D
:1016B0001382128284E692E09183808387E284839E
:1016C00084E1818784E0828713860895CF93DF9336
:1016D000CDB7DEB76E970FB6F894DEBF0FBECDBFA5
:1016E000789484B5826084BD84B5816084BD85B5FD
:1016F000826085BD85B5816085BD80916E00816009
:1017000080936E00109281008091810082608093AE
:1017100081008091810081608093810080918000B0
:101720008160809380008091B10084608093B100DB
:101730008091B00081608093B000809191008260C0
:1017400080939100809191008160809391008091BD
:1017500090008160809390008091A10082608093CE
:10176000A1008091A10081608093A1008091A000E0
:1017700081608093A000809121018260809321018B
:1017800080912101816080932101809120018160FD
:101790008093200180917A00846080937A00809108
:1017A0007A00826080937A0080917A0081608093D1
:1017B0007A0080917A00806880937A001092C1004C
:1017C0000E942C036B017C0161E086E10E948D0286
:1017D00061E087E10E948D0261E088E10E948D0254
:1017E00061E089E10E948D0261E08AE10E948D0240
:1017F00061E08BE10E948D0260E085E20E948D0233
:1018000060E083E20E948D0260E082E20E948D022D
:1018100060E081E20E948D0260E080E20E948D0221
:1018200060E08FE10E948D0260E08EE10E948D02F7
:1018300060E086E30E948D0260E087E30E948D02F3
:1018400060E088E30E948D021092E5041092E404A7
:101850001092E3041092E2040E94950488E393E05E
:101860009093E1048093E00489E393E09093DF0494
:101870008093DE041092EB058091F005823018F021
:1018800098E09093EB058093EE0562E370E080E0D2
:1018900090E00E94FA026091F10586EE95E00E94C8
:1018A0005A0568EE73E080E090E00E94FA0260E37F
:1018B00086EE95E00E9454060BE416E4C8010197F9
:1018C000F1F760E386EE95E00E945406C8010197A7
:1018D000F1F760E386EE95E00E94540683E592E01E
:1018E0000197F1F760E286EE95E00E945406609160
:1018F000EB05606240E086EE95E00E946D0684E0B4
:101900008093EC0540E06CE086EE95E00E946D0669
:1019100040E061E086EE95E00E946D060BE31FE17A
:10192000C8010197F1F782E0B82EB092ED0540E0D2
:1019300066E086EE95E00E946D0640E062E086EE8D
:1019400095E00E946D06C8010197F1F788E0809349
:10195000F10560E086EE95E00E945A05C0921405FC
:10196000D0921505E0921605F0921705E0914D050D
:10197000F0914E05B082E0914905F0914A05108240
:10198000E0914B05F0914C058FEC8083109255054A
:10199000E0915105F091520586E08083E0914F057A
:1019A000F0915005808180618083E0914F05F09136
:1019B0005005808188608083E0914F05F09150054B
:1019C000808180688083E0914F05F091500580818F
:1019D0008F7D8083C0920205D0920305E0920405BA
:1019E000F09205051092FB04109200051092F60487
:1019F0001092F7041092F8041092F904C092FC04BB
:101A0000D092FD04E092FE04F092FF04D0922D05E6
:101A1000C0922C0594E0292E312C8E010F5F1F4FB0
:101A2000E0911205F0911305E830F10508F004C1CA
:101A30008827E25EF24F8F4F0C94331B260D610D09
:101A4000B80DDF0D41126F12C812F11261E088E18A
:101A50000E945F0261E089E10E945F0260E08AE12A
:101A60000E945F0260E086E10E945F0260E087E121
:101A70000E945F0260E08BE10E945F020E942C03E3
:101A8000C0901405D0901505E0901605F09017054C
:101A90006C197D098E099F09C090F605D090F70555
:101AA000E090F805F090F9056C157D058E059F0511
:101AB00008F4C2C081E090E0909313058093120572
:101AC000B1C00E942C03C0901405D0901505E09081
:101AD0001605F09017056C197D098E099F09C090B5
:101AE0002402D0902502E0902602F0902702C6162C
:101AF000D706E806F906F8F4E0901805F090190505
:101B000088E10E94360261E0892B09F060E088E1FB
:101B10000E945F022FEFE21AF20AF0921905E0929A
:101B200018050E942C03609314057093150580938B
:101B30001605909317058091180590911905092EA7
:101B4000000CAA0BBB0B40911C0250911D0260912E
:101B50001E0270911F02481759076A077B070CF095
:101B60006BC0109219051092180582E090E0A4CF86
:101B700061E087E10E945F0260E088E10E945F020D
:101B80000E942C03C0901405D0901505E090160516
:101B9000F09017056C197D098E099F09C0902002ED
:101BA000D0902102E0902202F0902302C616D706C0
:101BB000E806F90608F040C083E090E07DCF61E0E0
:101BC00086E10E945F0260E087E10E945F0261E0BF
:101BD0008AE10E945F0260E08BE10E945F0260E0A8
:101BE00089E10E945F020E942C03C0901405D090EE
:101BF0001505E0901605F09017056C197D098E0902
:101C00009F09C0902002D0902102E0902202F09023
:101C10002302C616D706E806F90670F430921305BB
:101C2000209212050E942C036093140570931505F1
:101C3000809316059093170585E20E943602209145
:101C4000EB04211135C0019799F581E08093EA04F6
:101C500080930105C0901405D0901505E0901605FD
:101C6000F09017050E942C0320911A0230911B025C
:101C70008090F6059090F705A090F805B090F905D2
:101C8000C80CD91CEA1CFB1CC61AD70AE80AF90AB8
:101C9000C901B0E0A0E08C159D05AE05BF0568F454
:101CA0008093F6059093F705A093F805B093F90596
:101CB0008091EA04882309F43FC080911205909135
:101CC0001305892BC9F50E942C036093E6047093D9
:101CD000E7048093E8049093E90481E08093EB04A7
:101CE0004091F2055091F3056091F4057091F5056E
:101CF00050932B0240932A0280910A0290910B028A
:101D0000092E000CAA0BBB0B840F951FA61FB71F33
:101D10008093F2059093F305A093F405B093F50535
:101D20001092EA0460E080E00E948A068CE692E06D
:101D30000E9444070E9445068091EB04882309F421
:101D400061C00E942C03C090E604D090E704E090AC
:101D5000E804F090E9049B01AC012C193D094E09FF
:101D60005F0969017A01A0911805B09119052091C8
:101D700024023091250240912602509127020E94B0
:101D80003B1B8090F2059090F305A090F405B09075
:101D9000F505680D791D8A1D9B1D8090200290908D
:101DA0002102A0902202B0902302860E971EA81E48
:101DB000B91E8C149D04AE04BF0420F51092EB04F0
:101DC00080912A0290912B02092E000CAA0BBB0BCA
:101DD0008093F2059093F305A093F405B093F50575
:101DE00080912C0290912D02092E000CAA0BBB0BA6
:101DF0008093F6059093F705A093F805B093F90545
:101E0000109201050E942C034B015C018091FC049F
:101E10009091FD04A091FE04B091FF04A5019401EE
:101E2000281B390B4A0B5B0BDA01C9010B97A10583
:101E3000B10508F461C08091010581115DC0709009
:101E4000F2048092FC049092FD04A092FE04B092F1
:101E5000FF0483E20E9436027C0190932505809363
:101E6000240582E20E9436026C0190932305809340
:101E7000220581E20E94360290932105809320057D
:101E8000EC0CFD1CE80EF91E83E090E08E199F0912
:101E9000181619068CF52091F30421112DC071102C
:101EA00030C04091EE045091EF046091F0047091C5
:101EB000F10475016401C41AD50AE60AF70A4091D3
:101EC00010025091110260911202709113024C1590
:101ED0005D056E057F0508F05AC01092000521E0EF
:101EE0002093F2049093ED048093EC042093010579
:101EF00090930302809302028091F204882309F4F4
:101F000046C08091120590911305892B09F03FC0BE
:101F100081E08093F3041092F2044091F605509111
:101F2000F7056091F8057091F90550932D024093E3
:101F30002C0280910E0290910F02092E000CAA0B28
:101F4000BB0B840F951FA61FB71F8093F6059093B8
:101F5000F705A093F805B093F90561E080E00E94D1
:101F60008A0681E892E00E9444078091EC049091F7
:101F7000ED040E94170787E892E00E9444078091D1
:101F80000202909103020E9417070E944506C0902A
:101F90001205D09013058091F304882389F1809174
:101FA000000290910102892B59F5C114D10441F12D
:101FB0008091020290910302019790930302809313
:101FC000020218161906E4F01092F30410920105AB
:101FD0008092EE049092EF04A092F004B092F1048B
:101FE00080912C0290912D02092E000CAA0BBB0BA4
:101FF0008093F6059093F705A093F805B093F90543
:10200000D0920102C09200020E942C032B013C01DD
:102010008091FC049091FD04A091FE04B091FF0416
:10202000A3019201281B390B4A0B5B0BDA01C90192
:102030000B97A105B10508F45FC0809101058111DE
:102040005BC09090FA044092FC045092FD046092B0
:10205000FE047092FF0480E20E9436027C0190939D
:102060001F0580931E058FE10E9436025C0190934C
:102070001D0580931C058EE10E94360290931B057E
:1020800080931A05EA0CFB1CE80EF91E83E090E031
:102090008E199F09181619067CF52091FB04211151
:1020A0002BC091102EC04091F6045091F70460911E
:1020B000F8047091F90453014201841A950AA60AA2
:1020C000B70A409114025091150260911602709166
:1020D0001702481559056A057B0508F07CC021E008
:1020E0002093FA049093F5048093F404209301055F
:1020F00090930702809306028091FA04882309F4E2
:102100006AC034E0C316D10409F065C081E0809351
:10211000FB041092FA044091F2055091F30560918E
:10212000F4057091F50550932B0240932A02C0905C
:102130001802D09019020D2C000CEE08FF08C40EF6
:10214000D51EE61EF71E0E94A808092E000CAA0B39
:10215000BB0BC80ED91EEA1EFB1EC092F205D09220
:10216000F305E092F405F092F5052AE0B701A60127
:10217000F7FE0DC06DE28DE395E00E94D003442789
:102180005527BA014C195D096E097F092AE08DE3D4
:1021900095E00E94CB0663E972E08DE395E00E9432
:1021A000BC0661E080E00E948A0681E892E00E941D
:1021B00044078091F4049091F5040E94170787E882
:1021C00092E00E94440780910602909107020E94CB
:1021D00017070E9445062091120530911305809142
:1021E000040290910502049721F481E02430310526
:1021F00009F480E09091FB04992351F1882341F187
:1022000080910602909107020197909307028093B4
:10221000060218161906E4F01092FB04109201054C
:102220004092F6045092F7046092F8047092F90418
:1022300080912A0290912B02092E000CAA0BBB0B55
:102240008093F2059093F305A093F405B093F50500
:1022500030930502209304020E942C03C0900205D3
:10226000D0900305E0900405F09005059B01AC01BA
:102270002C193D094E095F0969017A0131EDC31638
:1022800037E0D306E104F10430F12091010521117A
:1022900022C0609302057093030580930405909318
:1022A000050587E30E94BE027C0190932905809377
:1022B000280586E30E94BE0290932B0580932A0591
:1022C0004CE3E416F1040CF09DC1CC970CF09AC1DC
:1022D00081E08093000580910605811109C065E9C0
:1022E00072E087E395E00E94150881E0809306057F
:1022F0008DE395E00E949803181619060CF0D8C2D9
:102300008DE395E00E9476038A3009F0C7C2809180
:102310003B0590913C05892B09F4B9C2C090370563
:10232000D09038056AE370E0C6010E945A1D0097FC
:1023300009F4ADC27C01EC18FD085FEFE516F50667
:1023400009F4A5C2A70170E060E0CE0145960E94A5
:10235000260840913B0550913C05B7016F5F7F4FC8
:10236000CE010F960E9426088F859889812C912C8A
:102370005401009719F00E9455164B01740166E94B
:1023800072E0C8010E941508B801CE0145960E946E
:102390006307D82EC8010E945B07DD2009F435C110
:1023A000C401092C000CAA0BBB0B8093F60590937B
:1023B000F705A093F805B093F90590922D0280924D
:1023C0002C0263E080E00E948A0680EC93E00E9489
:1023D000440763E080E00E948A061A8619861C86FC
:1023E0001B861E861D866D897E896115710531F0FB
:1023F000498D5A8DCE0109960E94EA0741E050E0CE
:1024000061E972E0CE0109960E94C307811104C000
:10241000CE0109960E9449074AE0B801C7010E940F
:102420007C16F80101900020E9F73197AF01401BBD
:10243000510BB801CE0109960E94C307811104C057
:10244000CE0109960E9449074D855E8569857A858A
:1024500086EE95E00E943A03CE0109960E945B0742
:102460000E94450665E972E087E395E00E940B084B
:10247000CE010F960E945B07CE0145960E945B0736
:1024800037CF60E08AE10E945F0261E08BE10E9449
:102490005F020E942C03C0901405D0901505E090B7
:1024A0001605F09017056C197D098E099F09C090DB
:1024B000F205D090F305E090F405F090F505C6160E
:1024C000D706E806F90608F0B7CB80910005882307
:1024D00019F087E090E0F0CA85E090E0EDCA0E9434
:1024E0002C03C0901405D0901505E0901605F090CF
:1024F00017056C197D098E099F09C0902402D090A0
:102500002502E0902602F0902702C616D706E806BC
:10251000F906E8F4809118059091190501969093B9
:102520001905809318050E942C036093140570937D
:10253000150580931605909317058BE10E943602CE
:1025400061E0892B09F060E08BE10E945F028091DD
:10255000180590911905092E000CAA0BBB0B409190
:102560001C0250911D0260911E0270911F024817BB
:1025700059076A077B070CF05FCB10921905109280
:10258000180546E050E050931305409312054ACBDE
:1025900060E08BE10E945F0261E08AE10E945F02DD
:1025A0000E942C03C0901405D0901505E0901605EC
:1025B000F09017056C197D098E099F09C0902002C3
:1025C000D0902102E0902202F0902302C616D70696
:1025D000E806F90608F030CB1092130510921205A8
:1025E00021CB61E08BE10E945F0261E086E10E9405
:1025F0005F028091000581111FCB3092130520925C
:1026000012051ACB1092000566CE61EA72E0C8018D
:102610000E941508B801CE0145960E946307D82E86
:10262000C8010E945B07DD2091F0C401092C000C59
:10263000AA0BBB0B8093F2059093F305A093F405CE
:10264000B093F50590922B0280922A02BACE6CEAE2
:1026500072E0C8010E941508B801CE0145960E949B
:102660006307D82EC8010E945B07DD2069F0C40112
:10267000990CAA0BBB0B8093200290932102A0938C
:102680002202B09323029DCE67EB72E0C8010E9444
:102690001508B801CE0145960E946307D82EC801DF
:1026A0000E945B07DD2069F0C401990CAA0BBB0BEB
:1026B0008093240290932502A0932602B0932702D0
:1026C00080CE61EC72E0C8010E941508B801CE010D
:1026D00045960E946307D82EC8010E945B07DD2043
:1026E00069F0C401990CAA0BBB0B80931C02909358
:1026F0001D02A0931E02B0931F0263CE62ED72E032
:10270000C8010E941508B801CE0145960E946307D2
:10271000D82EC8010E945B07DD2029F090921B0291
:1027200080921A024ECE6DEE72E0C8010E9415082A
:10273000B801CE0145960E946307D82EC8010E94B9
:102740005B07DD2029F0909219028092180239CEA1
:102750006CE073E0C8010E941508B801CE014596EF
:102760000E946307D82EC8010E945B07DD2069F034
:10277000C401990CAA0BBB0B809314029093150211
:10278000A0931602B09317021CCE68E273E0C80152
:102790000E941508B801CE0145960E946307D82E05
:1027A000C8010E945B07DD2069F0C401990CAA0BE7
:1027B000BB0B8093100290931102A0931202B0936E
:1027C0001302FFCD64E473E0C8010E941508B8014C
:1027D000CE0145960E946307D82EC8010E945B0770
:1027E000DD2029F090920F0280920E02EACD63E67E
:1027F00073E0C8010E941508B801CE0145960E94F9
:102800006307D82EC8010E945B07DD2029F0909253
:102810000D0280920C02D5CD67E873E0C8010E94DA
:102820001508B801CE0145960E946307D82EC8014D
:102830000E945B07D110C5CD6EE973E0C8010E940C
:102840001508B801CE0145960E946307D82EC8012D
:102850000E945B07DD2029F090920B0280920A0211
:10286000B0CD62EB73E0C8010E941508B801CE013B
:1028700045960E946307D82EC8010E945B07DD20A1
:1028800009F49FCD90920902809208029ACD65E9E1
:1028900072E087E395E00E940B082ACD89831A82B3
:1028A00041E050E0B80187E395E00E94C30720CDE6
:1028B0000E942C0320912C0530912D05DB01A21BD9
:1028C000B30B40912802509129024A175B0708F088
:1028D000A3C170932D0560932C0588EE93E090932F
:1028E00029028093280286E30E94BE0290932B0562
:1028F00080932A0587E30E94BE0290932905809366
:10290000280588E30E94BE02909327058093260540
:1029100010920E0510920F051092100510921105DD
:1029200088E30E94BE02BC01990F880B990B0E949C
:10293000C81620E030E040EA50E40E94271720E06B
:1029400030EC4FE754E40E946C1820E030E048E09F
:1029500051E40E946C186B017C0124E13EEA47E8D7
:102960005EE30E94761987FD5BC120E030E048EC11
:1029700053E420930E0530930F05409310055093B8
:10298000110583E20E943602909325058093240569
:1029900082E20E943602909323058093220581E211
:1029A0000E943602909321058093200580E20E94C8
:1029B000360290931F0580931E058FE10E94360218
:1029C00090931D0580931C058EE10E943602909322
:1029D0001B0580931A0560E080E00E948A0685ED61
:1029E00093E00E94440761E080E00E948A068AEE3C
:1029F00093E00E94440762E080E00E948A068EEF26
:102A000093E00E94440763E080E00E948A0683E12D
:102A100094E00E94440760E085E00E948A0680916D
:102A20002A0590912B050E94170761E085E00E941E
:102A30008A0680912805909129050E94170762E077
:102A400084E00E948A0680912605909127050E94C5
:102A5000170762E088E00E948A060E94A8080E9488
:102A60001707A0911805B091190520912402309103
:102A7000250240912602509127020E943B1B6B01C8
:102A80007C018090F6059090F705A090F805B09035
:102A9000F9058091F2059091F305A091F405B091AC
:102AA000F5058B8F9C8FAD8FBE8F0E942C034090BD
:102AB00014055090150560901605709017059B0140
:102AC000AC01241935094609570929013A018091B9
:102AD00012059091130563E0009709F0C6C083E0EA
:102AE0000E948A068C0C9D1CAE1CBF1CC501B40143
:102AF00069517C4F8F4F9F4F64197509860997095B
:102B000097FF03C060E070E0CB0128EE33E040E0C7
:102B100050E00E94141BBA01A9012AE086EE95E05C
:102B20000E94CB06809112059091130563E08430DA
:102B3000910509F0AAC088E00E948A068B8D9C8DC1
:102B4000AD8DBE8DC80ED91EEA1EFB1EC701B60193
:102B500069517C4F8F4F9F4F6419750986099709FA
:102B600097FF03C060E070E0CB0128EE33E040E067
:102B700050E00E94141BBA01A9012AE086EE95E0FC
:102B80000E94CB068091120590911305079741F49E
:102B900063E088E00E948A0689E294E00E9444078C
:102BA00061E081E10E948A068091240590912505CB
:102BB0000E94170761E082E10E948A068091220547
:102BC000909123050E94170761E083E10E948A0625
:102BD00080912005909121050E94170763E081E113
:102BE0000E948A0680911E0590911F050E9417077A
:102BF00063E082E10E948A0680911C0590911D0588
:102C00000E94170763E083E10E948A0680911A05FB
:102C100090911B050E9417070E943D040C94100D13
:102C200024E13EEA47E85EE3C701B6010E94FF17D0
:102C30002BE83CEC47E15EEB0E946C182BE237E896
:102C400046E250E40E9400189B01AC0160E070E095
:102C500080E291E40E947B1960930E0570930F054A
:102C600080931005909311058CCE019741F483E079
:102C70000E948A0687E294E00E94440753CF83E0D3
:102C80000E948A0682ED93E0F7CF059741F488E031
:102C90000E948A0687E294E00E94440773CF88E08E
:102CA0000E948A0682ED93E0F7CF1F93FC019927DB
:102CB0008827BC01E89411911032E9F3193010F023
:102CC0001E30C8F31B3251F01D3249F4689406C01F
:102CD0000E948716610F711D811D911D1191105366
:102CE0001A30B0F33EF490958095709561957F4FC2
:102CF0008F4F9F4F1F910895BB274A3031F499237E
:102D000022F4BDE2909581959F4F0C949D16592F0A
:102D1000482F372F262F660F771F881F991F660FA2
:102D2000771F881F991F620F731F841F951F660FDF
:102D3000771F881F991F0895BB27FB015527AA27D6
:102D4000880F991FAA1FA41710F0A41B8395505138
:102D5000B9F7A05DAA3308F0A95DA193009779F7B0
:102D6000B111B1931192CB010C94B616DC01FC01A8
:102D7000672F71917723E1F7329704C07C916D93AF
:102D800070836291AE17BF07C8F30895E89409C035
:102D900097FB3EF490958095709561957F4F8F4F8E
:102DA0009F4F9923A9F0F92F96E9BB279395F695A4
:102DB000879577956795B795F111F8CFFAF4BB0F22
:102DC00011F460FF1BC06F5F7F4F8F4F9F4F16C086
:102DD000882311F096E911C0772321F09EE8872F10
:102DE000762F05C0662371F096E8862F70E060E0CC
:102DF0002AF09A95660F771F881FDAF7880F969545
:102E0000879597F90895990F0008550FAA0BE0E8E8
:102E1000FEEF16161706E807F907C0F0121613069C
:102E2000E407F50798F0621B730B840B950B39F4DC
:102E30000A2661F0232B242B252B21F408950A2642
:102E400009F4A140A6958FEF811D811D08950E9470
:102E50003A170C94AB170E949D1738F00E94A417E4
:102E600020F0952311F00C9494170C949A171124C8
:102E70000C94DF170E94BC1770F3959FC1F3950F58
:102E800050E0551F629FF001729FBB27F00DB11DEE
:102E9000639FAA27F00DB11DAA1F649F6627B00D7E
:102EA000A11D661F829F2227B00DA11D621F739F67
:102EB000B00DA11D621F839FA00D611D221F749F75
:102EC0003327A00D611D231F849F600D211D822FBC
:102ED000762F6A2F11249F5750409AF0F1F08823E3
:102EE0004AF0EE0FFF1FBB1F661F771F881F915010
:102EF0005040A9F79E3F510580F00C9494170C9414
:102F0000DF175F3FE4F3983ED4F386957795679596
:102F1000B795F795E7959F5FC1F7FE2B880F911D39
:102F20009695879597F9089597F99F6780E870E0DF
:102F300060E008959FEF80EC089500240A9416162F
:102F4000170618060906089500240A941216130697
:102F5000140605060895092E0394000C11F4882325
:102F600052F0BB0F40F4BF2B11F460FF04C06F5F41
:102F70007F4F8F4F9F4F089557FD9058440F551F17
:102F800059F05F3F71F04795880F97FB991F61F0EB
:102F90009F3F79F087950895121613061406551F62
:102FA000F2CF4695F1DF08C0161617061806991FCE
:102FB000F1CF86957105610508940895E894BB27C3
:102FC00066277727CB0197F908950E94F017A59FF0
:102FD000900DB49F900DA49F800D911D1124089514
:102FE000A29FB001B39FC001A39F700D811D11244A
:102FF000911DB29F700D811D1124911D089550588F
:10300000BB27AA270E9417180C94AB170E949D1784
:1030100038F00E94A41720F039F49F3F19F426F4E9
:103020000C949A170EF4E095E7FB0C949417E92F93
:103030000E94BC1758F3BA176207730784079507F5
:1030400020F079F4A6F50C94DE170EF4E0950B2E23
:10305000BA2FA02D0B01B90190010C01CA01A001EA
:103060001124FF27591B99F0593F50F4503E68F145
:103070001A16F040A22F232F342F4427585FF3CF86
:10308000469537952795A795F0405395C9F77EF457
:103090001F16BA0B620B730B840BBAF09150A1F0A0
:1030A000FF0FBB1F661F771F881FC2F70EC0BA0F26
:1030B000621F731F841F48F4879577956795B795AE
:1030C000F7959E3F08F0B0CF9395880F08F09927A9
:1030D000EE0F9795879508950E9480180C94AB1772
:1030E0000E94A41758F00E949D1740F029F45F3FFA
:1030F00029F00C94941751110C94DF170C949A1723
:103100000E94BC1768F39923B1F3552391F3951BE3
:10311000550BBB27AA2762177307840738F09F5FF8
:103120005F4F220F331F441FAA1FA9F335D00E2E65
:103130003AF0E0E832D091505040E695001CCAF7D2
:103140002BD0FE2F29D0660F771F881FBB1F261795
:1031500037074807AB07B0E809F0BB0B802DBF016C
:10316000FF2793585F4F3AF09E3F510578F00C943B
:1031700094170C94DF175F3FE4F3983ED4F38695E1
:1031800077956795B795F7959F5FC9F7880F911D5C
:103190009695879597F90895E1E0660F771F881F48
:1031A000BB1F621773078407BA0720F0621B730BFB
:1031B000840BBA0BEE1F88F7E09508950E94E5187E
:1031C0006894B1110C94DF1708950E94C41788F019
:1031D0009F5798F0B92F9927B751B0F0E1F0660FDB
:1031E000771F881F991F1AF0BA95C9F714C0B1301C
:1031F00091F00E94DE17B1E008950C94DE17672F5E
:10320000782F8827B85F39F0B93FCCF3869577954A
:103210006795B395D9F73EF4909580957095619533
:103220007F4F8F4F9F4F08950E949D1720F019F0F8
:103230000E94A41750F40C949A170C94DF17E92FEE
:103240000E94BC1788F35523B1F3E7FB621773079D
:1032500084079507A8F189F3E92FFF2788232AF02F
:103260003197660F771F881FDAF7952F552744236C
:1032700032F091505040220F331F441FD2F7BB272A
:10328000E91BF50B621B730B840BB109B1F222F43D
:10329000620F731F841FB11D31972AF0660F771FCD
:1032A000881FBB1FEFCF9150504062F041F0882340
:1032B00032F0660F771F881F91505040C1F79395E9
:1032C0000C9468198695779567959F5FD9F7F7CF26
:1032D0009F3F31F0915020F4879577956795B7958A
:1032E000880F911D9695879597F908950E94031769
:1032F00008F48FEF0895FA01EE0FFF1F30962105B5
:103300003105A1F16115710561F48038BFE39B07B8
:1033100049F168949038810561F08038BFEF9B07D0
:1033200041F099234AF5FF3FE1053105210519F1E7
:10333000E8940894E795D901AA2329F4AB2FBE2F6E
:10334000F85FD0F310C0FF5F70F4A695E0F7F7398F
:1033500050F019F0FF3A38F49F779F930DD00F90FB
:1033600007FC9058089546F00C949A1760E070E0BE
:1033700080E89FE308954FE79F775F934F933F93D4
:103380002F930E94761A2F913F914F915F910E9447
:1033900027170C94D31929F416F00C9494170C9455
:1033A000DE170C949A170E94C417A8F39638A0F75A
:1033B00007F80F92E8942BE33AEA48EB5FE70E94A4
:1033C0003D170F920F920F924DB75EB70F920E946A
:1033D000BE1AE4EEF0E00E94051A4F915F91EF9162
:1033E000FF91E595EE1FFF1F49F0FE57E068442767
:1033F000EE0F441FFA95E1F74195550B0E94381ADC
:103400000F9007FE0C942C1A0895DF93CF931F930F
:103410000F93FF92EF92DF927B018C01689406C0BC
:10342000DA2EEF010E943A17FE01E894A59125914A
:10343000359145915591A6F3EF010E941718FE01B1
:103440009701A801DA9469F7DF90EF90FF900F9150
:103450001F91CF91DF9108959B01AC0160E070E076
:1034600080E89FE30C946C180C9494170C946819E2
:103470000E94C417D8F39923C9F3940F511DA3F3E5
:103480009150504094F059F0882332F0660F771F26
:10349000881F91505040C1F79E3F51052CF7880F6F
:1034A000911D9695879597F908955F3FACF0983EEA
:1034B0009CF0BB27869577956795B79508F4B16022
:1034C0009395C1F7BB0F58F711F460FFE8CF6F5F1A
:1034D0007F4F8F4F9F4FE3CF0C94DF1716F00C9464
:1034E00068190C949A1768940C9494170E94C41746
:1034F000A8F39923C1F3AEF3DF93CF931F930F93F8
:10350000FF92C92FDD2788232AF02197660F771FA6
:10351000881FDAF720E030E040E85FEB9FE388396E
:1035200020F0803E38F021968F770E940018ECE062
:10353000F1E004C00E940018E9E3F1E00E94051ADE
:103540008B01BE01EC01FB2E6F5771097595771F3A
:10355000880B990B0E94C81628E132E741E35FE32C
:103560000E943A17AF2D9801AE01FF900F911F9165
:10357000CF91DF910E9417180C94AB17FA01DC0170
:10358000AA0FBB1F9B01AC01BF5728F4222733278A
:103590004427507820C0B75190F4AB2F00244695B3
:1035A00037952795011CA395D2F3002071F0220FC7
:1035B000331F441FB395DAF30ED00C94FF1761301C
:1035C0007105A0E88A07B94630F49B01AC01662773
:1035D000772788279078309621F0208331834283A3
:1035E00053830895A1E21A2EAA1BBB1BFD010DC037
:1035F000AA1FBB1FEE1FFF1FA217B307E407F507A3
:1036000020F0A21BB30BE40BF50B661F771F881F7E
:10361000991F1A9469F760957095809590959B0114
:10362000AC01BD01CF010895052E97FB1EF4009457
:103630000E942B1B57FD07D00E94F21A07FC03D0F3
:103640004EF40C942B1B50954095309521953F4F8F
:103650004F4F5F4F089590958095709561957F4F7E
:103660008F4F9F4F0895EE0FFF1F881F8BBF07904E
:10367000F691E02D1994B7FF0C94E5170E94E51719
:10368000821B930B08950F931F93CF93DF93823088
:10369000910510F482E090E0E091FC05F091FD05C9
:1036A00030E020E0B0E0A0E0309799F4211531053A
:1036B00009F44AC0281B390B24303105D8F58A811A
:1036C0009B816115710589F1FB0193838283FE0162
:1036D00011C0408151810281138148175907E0F0E0
:1036E0004817590799F4109761F012960C931297A6
:1036F00013961C933296CF01DF91CF911F910F91BA
:1037000008950093FC051093FD05F4CF21153105B4
:1037100051F04217530738F0A901DB019A01BD01AE
:10372000DF01F801C1CFEF01F9CF9093FD05809340
:10373000FC05CDCFFE01E20FF31F81939193225040
:10374000310939832883D7CF2091FA053091FB05C1
:10375000232B41F420913002309131023093FB054C
:103760002093FA0520912E0230912F022115310568
:1037700041F42DB73EB74091320250913302241BE1
:10378000350BE091FA05F091FB05E217F307A0F481
:103790002E1B3F0B2817390778F0AC014E5F5F4FA7
:1037A0002417350748F04E0F5F1F5093FB054093D9
:1037B000FA05819391939FCFF0E0E0E09CCFCF9307
:1037C000DF930097E9F0FC01329713821282A091F7
:1037D000FC05B091FD05ED0130E020E01097A1F46B
:1037E00020813181820F931F2091FA053091FB05D2
:1037F0002817390709F061C0F093FB05E093FA053B
:10380000DF91CF910895EA01CE17DF07E8F54A81ED
:103810005B819E0141155105B1F7E901FB83EA8304
:1038200049915991C40FD51FEC17FD0761F48081B0
:1038300091810296840F951FE90199838883828183
:1038400093819B838A83F0E0E0E012968D919C91B6
:1038500013970097B9F52D913C911197CD010296E0
:10386000820F931F2091FA053091FB052817390725
:1038700039F6309751F51092FD051092FC05B09382
:10388000FB05A093FA05BCCFD383C283408151814D
:10389000840F951FC817D90761F44E5F5F4F888169
:1038A0009981480F591F518340838A819B8193835B
:1038B00082832115310509F0B0CFF093FD05E09327
:1038C000FC059ECFFD01DC01C0CF13821282D7CF51
:1038D0004F925F926F927F928F929F92AF92BF9220
:1038E000CF92DF92EF92FF920F931F93CF93DF93CC
:1038F0008C01009799F4CB01DF91CF911F910F912B
:10390000FF90EF90DF90CF90BF90AF909F908F90FF
:103910007F906F905F904F900C94431BFC01E60FDB
:10392000F71F9C0122503109E217F30708F4AEC0DB
:10393000D901CD91DC911197C617D70720F1C53079
:10394000D10578F0CE0104978617970750F0C61B73
:10395000D70B2297C193D1936D937C93CF010E9493
:10396000DF1BC801DF91CF911F910F91FF90EF9066
:10397000DF90CF90BF90AF909F908F907F906F908F
:103980005F904F9008955B01AC1ABD0A4C018C0EFC
:103990009D1EA091FC05B091FD05512C412CF12CF0
:1039A000E12C109731F58091FA059091FB0588156F
:1039B000990509F05CC04616570608F058C080917A
:1039C0002E0290912F02009741F48DB79EB740913F
:1039D000320250913302841B950BE817F90708F067
:1039E00055C0F093FB05E093FA05F90171836083FC
:1039F000B8CF8D919C91119712966C901297139657
:103A00007C901397A815B90559F56C0142E0C40ED6
:103A1000D11CCA14DB0420F1AC014A195B09DA019C
:103A20001296159780F06282738251834083D90188
:103A30006D937C93E114F10471F0D7011396FC931C
:103A4000EE9312978ECF22968C0F9D1FF9019183D2
:103A50008083F301EFCFF093FD05E093FC0581CF68
:103A60004816590608F42C017D01D3019ACFCB01E9
:103A70000E94431B7C01009749F0AE01B8010E94EF
:103A8000511DC8010E94DF1B87016BCF10E000E0D1
:103A900068CF9111089581548A5108F4805E855A47
:103AA0000895FB01DC0102C001900D92415050408D
:103AB000D8F70895FC018191861721F08823D9F762
:103AC000992708953197CF010895FB01DC010190FA
:0C3AD0000D920020E1F70895F894FFCF5C
:103ADC00FFFF0300FFFF030014001027A00FD00707
:103AEC00B80B0000581B0000D007B80B06000000F4
:103AFC00F401000064000000E803A00FD0070000F0
:103B0C00FE0580000000400014005400000000007E
:103B1C00D0033A0367031D04980376038A0300005D
:103B2C0000002B05FE044206D404F704E404D5047B
:103B3C000000000084063A034206410650656465A5
:103B4C0073747269616E312063726F7373696E671F
:103B5C00005072696F20002053656E736F72732D65
:103B6C00433A000D0A00677265656E54696D6531E4
:103B7C0000677265656E54696D65320079656C6CB1
:103B8C006F7754696D6500626C696E6B54696D6515
:103B9C0000746F74616C426C696E6B73496E4F7517
:103BAC0074007065646573747269616E52656475D6
:103BBC006365477265656E54696D6531006C696744
:103BCC006874477265656E32496E637265617365C0
:103BDC005768656E53656E736F7273007072696FA0
:103BEC007269747957616974696E6754696D654F50
:103BFC006E4C6967687432007072696F726974799F
:103C0C0057616974696E6754696D654F6E4C69676D
:103C1C00687431006C69676874477265656E314908
:103C2C006E6372656173655768656E53656E736F0D
:103C3C00727300646973706C617952656672657336
:103C4C006854696D6541667465724E6F7469666916
:103C5C00636174696F6E00677265656E4C69676845
:103C6C00743154696D655768656E43617200706597
:103C7C00646573747269616E43726F737354696DAA
:103C8C006500636F32477265656E54696D6532000D
:103C9C002020202020202020202020202020202018
:103CAC0020202020004C4452312020202020202095
:103CBC00202020434E59313233004C4452322020C4
:103CCC002020202020202020202020202000434FB6
:103CDC00322020202020202020202020434E593428
:103CEC003536004C312020204C3220202020202042
:0C3CFC002020202020200030004E470037
:00000001FF
