:100000000C945B010C948C010C948C010C948C016D
:100010000C948C010C948C010C948C010C948C012C
:100020000C948C010C948C010C948C010C948C011C
:100030000C948C010C948C010C948C010C948C010C
:100040000C948C010C948C010C948C010C948C01FC
:100050000C948C010C948C010C948C010C945E0813
:100060000C948C010C94D2080C94A8080C948C016C
:100070000C948C010C948C010C948C010C948C01CC
:100080000C948C010C948C010C948C010C948C01BC
:100090000C948C010C948C010C948C010C94080928
:1000A0000C948C010C948C010C948C010C948C019C
:1000B0000C948C010C948C010C948C010C948C018C
:1000C0000C948C010C948C010C948C010C948C017C
:1000D0000C948C010C948C010C948C010C948C016C
:1000E0000C948C010C9494040C942C0A0C94F7023C
:1000F0000C94B6010C948F0C0C94D9010C94A304AD
:100100000C9435030C94F8020C94B6040C94E3019F
:100110000C94C7010C94BD040C94BA010C94C10159
:100120000C94EC010C949E060C94B2010C94DF012B
:100130000C9426030C94F9110C9493040C94490329
:100140000C94F1010C94AC010C94BE010C94D011F0
:100150000C94F9020C94DC030C94CB010C94ED018B
:100160000C94D1010C9401060C9400060C94EA0442
:100170000C94E60C0C9457030C9477110C94540CCB
:100180000C9449110C94E7010C948F030C940D0D01
:100190000C94D50100002100240027002A002D0026
:1001A0003000330001010000040107010A010000D2
:1001B0002200250028002B002E003100340002010F
:1001C0000000050108010B010000200023002600AB
:1001D00029002C002F00320000010000030106015D
:1001E00009010505050507050808080802020202BD
:1001F0000A0A0808040404040101010101010101C3
:100200000303030303030303040707070C0C0C0C8D
:100210000C0C0C0C02020202060606060606060676
:100220000B0B0B0B0B0B0B0B010210202008081003
:100230002040102040800201020108040201010256
:10024000040810204080804020100804020180042F
:10025000020180402010080402010804020101028A
:100260000408102040800102040810204080000093
:100270000A0B02090C0D0E08070304010000000020
:10028000000000000000000000000000000000006E
:10029000000000000000000000001211100000002B
:1002A000000000000000000000000000000000004E
:1002B000000000002C0A11241FBECFEFD1E2DEBFE8
:1002C000CDBF00E00CBF26E0A6E3B4E001C01D9264
:1002D000A430B207E1F714E0A0E0B2E0E0EFFFE203
:1002E00000E00BBF02C007900D92A633B107D9F70B
:1002F00011E0CBE5D1E000E006C021970109802F95
:10030000FE010E94BD15CA35D10780E00807A9F794
:100310000E94940A0C94F6170C94000081508231CC
:1003200008F05AC0E82FF0E08827E656FE4F8F4FBE
:100330000C94BD15BA01BE01AC01B201B601EC01CD
:10034000C101C701CB01D101D501D901DF01E30111
:10035000EC01E701ED01F101809180008F7780933E
:1003600080000895809180008F7DF9CF809180007A
:10037000877FF5CF84B58F7784BD089584B58F7D51
:10038000FBCF8091B0008F778093B000089580916B
:10039000B0008F7DF9CF809190008F77809390008F
:1003A0000895809190008F7DF9CF80919000877F94
:1003B000F5CF8091A0008F778093A0000895809161
:1003C000A0008F7DF9CF8091A000877FF5CF80912D
:1003D00020018F77809320010895809120018F7DE7
:1003E000F9CF80912001877FF5CFCF93DF93282F1E
:1003F00030E0F901E259FD4F8491F901E85DFD4FCC
:10040000D491F901EE51FE4FC491CC23A1F081119A
:100410000E948E01EC2FF0E0EE0FFF1FE853FE4F1D
:10042000A591B491EC91ED2381E090E009F480E096
:10043000DF91CF91089580E090E0FACF1F93CF93A2
:10044000DF93282F30E0F901E259FD4F8491F90143
:10045000E85DFD4FD491F901EE51FE4FC491CC23DC
:10046000A9F0162F81110E948E01EC2FF0E0EE0F03
:10047000FF1FE255FE4FA591B4918FB7F894EC9110
:10048000111108C0D095DE23DC938FBFDF91CF918F
:100490001F910895DE2BF8CFCF93DF9390E0FC01FE
:1004A000E85DFD4F24918E519E4FFC01849188237D
:1004B000D1F090E0880F991FFC01EC56FE4FA591FA
:1004C000B491FC01E255FE4FC591D49161110EC06B
:1004D0009FB7F8948C91E22FE0958E238C9328811E
:1004E000E223E8839FBFDF91CF9108958FB7F894FF
:1004F000EC91E22BEC938FBFF6CF90917B00977F2E
:1005000090937B008653806480937C0080917A0076
:10051000806480937A0080917A0086FDFCCF809180
:1005200078009091790008953FB7F894809139054B
:1005300090913A05A0913B05B0913C0526B5A89B4A
:1005400005C02F3F19F00196A11DB11D3FBFBA2F65
:10055000A92F982F8827BC01CD01620F711D811D25
:10056000911D42E0660F771F881F991F4A95D1F7AA
:1005700008958F929F92AF92BF92CF92DF92EF92A7
:10058000FF924B015C010E9494026B017C010E946E
:1005900094026C197D098E099F09683E734081059C
:1005A0009105A8F321E0821A9108A108B10888EE0C
:1005B000C80E83E0D81EE11CF11C81149104A10433
:1005C000B10429F7FF90EF90DF90CF90BF90AF90EC
:1005D0009F908F9008952FB7F89460913505709192
:1005E000360580913705909138052FBF08950895FD
:1005F0000895AF92BF92CF92DF92EF92FF920F9346
:100600001F93CF93DF936C017B018B01040F151FA8
:10061000EB015E01AE18BF08C017D10759F0699110
:10062000D601ED91FC910190F081E02DC601199564
:10063000892B79F7C501DF91CF911F910F91FF9021
:10064000EF90DF90CF90BF90AF900895FC01538D55
:10065000448D252F30E0842F90E0821B930B54179C
:1006600010F0CF96089501970895FC01918D828D29
:10067000981761F0A28DAE0FBF2FB11D5D968C91C2
:10068000928D9F5F9F73928F90E008958FEF9FEF01
:100690000895FC01918D828D981731F0828DE80FBD
:1006A000F11D858D90E008958FEF9FEF0895FC0177
:1006B000918D228D892F90E0805C9F4F821B910944
:1006C0008F739927089583E495E00E94570321E0F2
:1006D000892B09F420E0822F0895FC01A48DA80F36
:1006E000B92FB11DA35ABF4F2C91848D90E0019674
:1006F0008F739927848FA689B7892C93A089B18994
:100700008C91837080648C93938D848D981306C034
:100710000288F389E02D80818F7D80830895EF9298
:10072000FF920F931F93CF93DF93EC0181E0888FAB
:100730009B8D8C8D98131AC0E889F989808185FF7B
:1007400015C09FB7F894EE89FF896083E889F9891D
:1007500080818370806480839FBF81E090E0DF911F
:10076000CF911F910F91FF90EF900895F62E0B8D72
:1007700010E00F5F1F4F0F731127E02E8C8D8E112D
:100780000CC00FB607FCFACFE889F989808185FF94
:10079000F5CFCE010E946D03F1CFEB8DEC0FFD2F55
:1007A000F11DE35AFF4FF0829FB7F8940B8FEA894F
:1007B000FB8980818062CFCFCF93DF93EC01888D5E
:1007C0008823B9F0AA89BB89E889F9898C9185FDCC
:1007D00003C0808186FD0DC00FB607FCF7CF8C915A
:1007E00085FFF2CF808185FFEDCFCE010E946D03A2
:1007F000E9CFDF91CF91089580E090E0892B29F037
:100800000E94630381110E94000080E090E0892B28
:1008100049F080E090E0892B29F00E9400008111CE
:100820000E94000080E090E0892B49F080E090E099
:10083000892B29F00E94000081110E94000080E0B5
:1008400090E0892B49F080E090E0892B29F00E940C
:10085000000081110C940000089520919E04260F41
:100860003327331F21323105ECF42091C204FC01FF
:1008700090E080E0243069F082E00895A0919E0429
:100880002191AC0142585B4FA40FB52FB11D2C93A1
:100890000196861798F380919E04680F60939E04DA
:1008A00080E0089581E008951092C20481E0809371
:1008B000C4041092C30461E084E10E941E0261E05E
:1008C00085E10E941E02E9EBF0E080818E7F80834B
:1008D00080818D7F808388E48093B80085E4809355
:1008E000BC000895CF93DF9391E090937D0488231B
:1008F000B9F0C091B800D091BA008091BC008A7B59
:100900008093BC0060E084E10E941E0260E085E10B
:100910000E941E020E945404D093BA00C093B800F3
:10092000DF91CF9108950895E091EF048091EE0456
:10093000E81730F4F0E0E85AFB4F808190E008952A
:100940008FEF9FEF08959091EF048091EE042FEFC9
:100950003FEF981748F4E92FF0E0E85AFB4F208169
:1009600030E09F5F9093EF04C90108958091EE04F9
:100970009091EF04891B990B0895CF92DF92EF922B
:10098000FF920F931F93CF93DF937C01CB018A01DA
:1009900020915704222389F0EB016B01C40ED51E70
:1009A000CC15DD0569F06991D701ED91FC910190BD
:1009B000F081E02DC7011995F3CF642F0E942D041B
:1009C000C801DF91CF911F910F91FF90EF90DF90C1
:1009D000CF900895CF93DF931F92CDB7DEB7698391
:1009E000209157042223F9F02091EC04203258F092
:1009F00021E030E0FC013383228390E080E00F901F
:100A0000DF91CF9108958091ED04E82FF0E0E95C4B
:100A1000FB4F998190838F5F8093ED048093EC046A
:100A200081E090E0ECCF61E0CE0101960E942D04C0
:100A3000F7CFCF92DF92EF92FF920F931F93CF9356
:100A4000DF93FC01C48121E020935704C093360456
:100A50001092ED041092EC048385682B80EE95E0F3
:100A60000E94EA04D091EC04D13208F092C00E94B6
:100A700094026B017C018091C204811165C082E007
:100A80008093C20481E08093C4048FEF8093C104FB
:100A90001092E604D093E504A7E3B4E0E5ECF4E0BB
:100AA00080E0D81385C01092E7048091E704CC0F52
:100AB000C82BC093E7048091C304813009F07CC047
:100AC0001092C3040E9494026B017C018091E704A0
:100AD0008093BB008091790490917A04A0917B046B
:100AE000B0917C04892B8A2B8B2B99F00E94940265
:100AF0000091790410917A0420917B0430917C0458
:100B00006C197D098E099F090617170728073907F1
:100B1000E0F18091BC0083FDD9CF85EC8093BC00CF
:100B20000E9494026B017C018091C204823009F41E
:100B300045C08091C1048F3F61F18091C104803232
:100B400041F18091C10425C08091790490917A048B
:100B5000A0917B04B0917C04892B8A2B8B2B09F408
:100B60008ACF0E9494020091790410917A04209116
:100B70007B0430917C046C197D098E099F0906174E
:100B800017072807390708F076CF809178040E946C
:100B900072041092ED041092EC0410925704DF914D
:100BA000CF911F910F91FF90EF90DF90CF9008951C
:100BB0009D9191938F5F75CF85EEB0CF8091790431
:100BC00090917A04A0917B04B0917C04892B8A2BAC
:100BD0008B2B09F4A9CF0E94940200917904109103
:100BE0007A0420917B0430917C046C197D098E0974
:100BF0009F09061717072807390708F095CFC5CFB3
:100C0000089590E080E008950E94EB027093330510
:100C10006093320580910A0290910B029093270213
:100C20008093260208958F929F92AF92BF920F9366
:100C30001F93CF93DF93CDB7DEB7A1970FB6F8948C
:100C4000DEBF0FBECDBF19A2423008F44AE08E01CC
:100C50000F5D1F4F842E912CB12CA12CA501940166
:100C60000E947C15E62FB901CA01EA3044F5E05D27
:100C7000D801EE938D01232B242B252B79F790E0BF
:100C800080E0109769F0FD0101900020E9F73197AD
:100C9000AF014A1B5B0BBD018CEE95E00E94F9028F
:100CA000A1960FB6F894DEBF0FBECDBFDF91CF91F6
:100CB0001F910F91BF90AF909F908F900895E95C26
:100CC000D7CFFC0101900020E9F73197AF01481B15
:100CD000590BBC018CEE95E00C94F9020F931F9315
:100CE000CF938C01C62F0E9419056C2F6460C80138
:100CF0000E9419056C2F6B7FC8010E94190583ECB7
:100D000090E00197F1F7CF911F910F9108950F9304
:100D10001F93CF93DF938C01D62FC42F607F642B5A
:100D20000E946E0680E1D89FB00111246C2BC8018F
:100D3000DF91CF911F910F910C946E0641E00E94BC
:100D4000870681E090E00895CF92DF92EF92FF92C4
:100D50006C01990FEE08FF08F7FE16C041E06DE246
:100D60008CEE95E00E94870666277727CB016C19E9
:100D70007D098E099F094AE00E9413060196FF90A3
:100D8000EF90DF90CF9008954AE0C701B601FF9041
:100D9000EF90DF90CF900C941306CF93DF9300D0A9
:100DA00000D01F921F92CDB7DEB798E0E2E3F2E0E9
:100DB000DE01119601900D929A95E1F79091F4055C
:100DC000961710F46FEF690F262F30E0220F331FB4
:100DD00041E050E04C0F5D1F240F351FF901608189
:100DE000680F606840E08CEE95E028960FB6F894A6
:100DF000DEBF0FBECDBFDF91CF910C948706CF939E
:100E0000DF93EC0188819981009711F00E946916A7
:100E1000198218821D821C821B821A82DF91CF9157
:100E20000895FC0180819181009711F00C9469165E
:100E30000895EF92FF920F931F93CF93DF9386173E
:100E4000970769F1FC0124813581FB0144815581BB
:100E500024173507E1F4232B11F1FC0100811181E6
:100E6000FB01C081D181F80181918F018823B9F004
:100E7000082E000C990B0E94D3177C018991082E33
:100E8000000C990B0E94D317E816F90661F380E075
:100E9000DF91CF911F910F91FF90EF90089581E026
:100EA000F7CF0F931F93CF93DF93EC018881998144
:100EB000009759F02A813B812617370730F081E0EF
:100EC000DF91CF911F910F9108958B016F5F7F4F3D
:100ED0000E94F216009759F0998388831B830A8336
:100EE0002C813D81232B59F7FC011082E8CF80E053
:100EF000E7CFEF92FF920F931F93CF93DF934115AC
:100F00005105B1F07B01EC010C811D81040F151F0F
:100F1000B8010E945107882361F0288139818C81B2
:100F20009D81B701820F931F0E94EF171D830C83D1
:100F300081E0DF91CF911F910F91FF90EF90089585
:100F4000EF92FF920F931F93CF93DF93EC017B01FE
:100F50008A01BA010E94510781110BC0CE010E9483
:100F6000FF06CE01DF91CF911F910F91FF90EF907F
:100F700008951D830C83B701888199810E94EF1722
:100F8000F0CFFB0101900020E9F73197AF01461B3C
:100F9000570B0C94A007FC0111821082138212825D
:100FA00015821482FB0101900020E9F73197AF010F
:100FB000461B570B0C94A007CF92DF92EF92FF9243
:100FC0000F931F93CF93DF936C017B018A01461728
:100FD000570720F48F2D7A01062F182F6DED73E03F
:100FE000C6010E94CB07C0914105D0914205EC1685
:100FF000FD06F8F40C171D0708F4E801E0913D0523
:10100000F0913E05EC0FFD1F1081108260913D05AF
:1010100070913E056E0D7F1DC6016115710599F039
:101020000E94C10780913D0590913E05C80FD91FD0
:101030001883C601DF91CF911F910F91FF90EF9020
:10104000DF90CF9008950E94FF06ECCF85ED80934E
:10105000BC008091790490917A04A0917B04B091B6
:101060007C040796A11DB11D23E0B695A795979521
:1010700087952A95D1F72091BC0024FD03C01092DA
:10108000C20408954091790450917A0460917B04E0
:1010900070917C04452B462B472B69F30097A105E3
:1010A000B10541F02AE22A95F1F700C00197A109A4
:1010B000B109E1CF809178040C9472041F920F92D1
:1010C0000FB60F9211242F933F938F939F93AF935B
:1010D000BF938091350590913605A0913705B09169
:1010E00038053091340523E0230F2D3758F501964C
:1010F000A11DB11D209334058093350590933605CD
:10110000A0933705B09338058091390590913A0541
:10111000A0913B05B0913C050196A11DB11D8093A6
:10112000390590933A05A0933B05B0933C05BF91D8
:10113000AF919F918F913F912F910F900FBE0F9084
:101140001F90189526E8230F0296A11DB11DD2CF3E
:101150001F920F920FB60F9211240BB60F922F937E
:101160003F934F935F936F937F938F939F93AF932F
:10117000BF93EF93FF9383E495E00E946D03FF918B
:10118000EF91BF91AF919F918F917F916F915F91FF
:101190004F913F912F910F900BBE0F900FBE0F906C
:1011A0001F9018951F920F920FB60F9211240BB635
:1011B0000F922F938F939F93EF93FF93E09153059B
:1011C000F09154058081E0915905F0915A0582FD16
:1011D0001DC0908180915C058F5F8F7320915D05AC
:1011E000821741F0E0915C05F0E0ED5BFA4F958FDE
:1011F00080935C05FF91EF919F918F912F910F90BC
:101200000BBE0F900FBE0F901F9018958081F2CFEC
:101210001F920F920FB60F9211240BB60F922F93BD
:101220003F934F935F936F937F938F939F93AF936E
:10123000BF93EF93FF938091B900887F803609F4C4
:101240004DC008F040C0883209F4A9C028F58031AB
:1012500009F49DC0C8F4882309F4FBC0883009F460
:1012600096C0FF91EF91BF91AF919F918F917F9128
:101270006F915F914F913F912F910F900BBE0F9007
:101280000FBE0F901F901895883109F488C08032E6
:1012900041F78093C10414C0803409F49DC040F428
:1012A0008033B9F38833E9F68093C10485ECB0C08C
:1012B000803509F485C0883509F496C0883489F6EC
:1012C0000E942608CECF883909F48CC038F58837BB
:1012D00029F050F4883611F0803719F683E08093B6
:1012E000C2041092C00457C0883809F47BC080390A
:1012F00019F0803809F0B5CF8091C004803208F031
:1013000071C0E091C00481E08E0F8093C004809191
:10131000BB00F0E0E056FB4F80833DC0803B39F0DE
:10132000E0F4803A09F479C0883A09F09ACF84E071
:101330008093C20410929F0410929E04E091EA04EC
:10134000F091EB04199580919E0481110FC081E00A
:1013500080939E0410927E0409C0803C09F4A6CFBD
:10136000883C09F4A3CF883B09F07BCFE0919F0430
:1013700081E08E0F80939F04F0E0E258FB4F808164
:101380008093BB0090919F0480919E0429C080911E
:10139000E7048093BB0085EC8093BC0062CF909102
:1013A000E6048091E504981758F5E091E60481E0A1
:1013B0008E0F8093E604F0E0EB53FB4F8081E9CF82
:1013C000E091E60481E08E0F8093E6048091BB00FB
:1013D000F0E0EB53FB4F80839091E6048091E504AD
:1013E0009817C8F285E8D8CFE091E60481E08E0F27
:1013F0008093E6048091BB00F0E0EB53FB4F8083C9
:101400008091C40481115CCF81E08093C30484EA9D
:101410008093BC001092C20424CF85EC8093BC0062
:101420001092C2048091C004803230F4E091C00474
:10143000F0E0E056FB4F10826091C00470E0E09154
:10144000E804F091E90480EA94E019951092C00450
:1014500008CF1092C10434CFE3E4F5E01382128286
:1014600088EE93E0A0E0B0E084839583A683B78301
:101470002EE332E03183208325EC30E0358724876A
:1014800024EC30E03787268720EC30E0318B208B4E
:1014900021EC30E0338B228B22EC30E0358B248B37
:1014A00026EC30E0378B268B118E128E138E148E25
:1014B000E0EEF5E01382128284839583A683B783DE
:1014C00080E592E09183808380912A0290912B02A3
:1014D000092E000CAA0BBB0B8093FC059093FD0515
:1014E000A093FE05B093FF058091280290912902F8
:1014F000092E000CAA0BBB0B8093F8059093F905FD
:10150000A093FA05B093FB05ECEEF5E0138212828E
:1015100082E692E09183808387E2848384E18187FD
:1015200084E0828713860895CF93DF93CDB7DEB72B
:101530006E970FB6F894DEBF0FBECDBF789484B51A
:10154000826084BD84B5816084BD85B5826085BDBF
:1015500085B5816085BD80916E00816080936E004D
:10156000109281008091810082608093810080913F
:1015700081008160809381008091800081608093F0
:1015800080008091B10084608093B1008091B000B0
:1015900081608093B000809191008260809391007F
:1015A0008091910081608093910080919000816092
:1015B000809390008091A10082608093A10080912F
:1015C000A10081608093A1008091A0008160809340
:1015D000A0008091210182608093210180912101EE
:1015E000816080932101809120018160809320019E
:1015F00080917A00846080937A0080917A00826082
:1016000080937A0080917A00816080937A00809143
:101610007A00806880937A001092C1000E94EB02E9
:101620006B017C0161E086E10E944C0261E087E190
:101630000E944C0261E088E10E944C0261E089E175
:101640000E944C0261E08AE10E944C0261E08BE161
:101650000E944C0260E085E20E944C0260E083E25E
:101660000E944C0260E082E20E944C0260E081E253
:101670000E944C0260E080E20E944C0260E08FE138
:101680000E944C0260E08EE10E944C0260E086E322
:101690000E944C0260E087E30E944C0260E088E315
:1016A0000E944C021092EF041092EE041092ED048E
:1016B0001092EC040E94540487EF92E09093EB04A4
:1016C0008093EA0488EF92E09093E9048093E80421
:1016D0001092F1058091F605823018F098E0909311
:1016E000F1058093F40562E370E080E090E00E94F1
:1016F000B9026091F7058CEE95E00E94190568EE3D
:1017000073E080E090E00E94B90260E38CEE95E027
:101710000E946E060BE416E4C8010197F1F760E33E
:101720008CEE95E00E946E06C8010197F1F760E328
:101730008CEE95E00E946E0683E592E00197F1F74A
:1017400060E28CEE95E00E946E066091F1056062A9
:1017500040E08CEE95E00E94870684E08093F205DD
:1017600040E06CE08CEE95E00E94870640E061E08E
:101770008CEE95E00E9487060BE31FE1C8010197FC
:10178000F1F782E0B82EB092F30540E066E08CEE0F
:1017900095E00E94870640E062E08CEE95E00E94B2
:1017A0008706C8010197F1F788E08093F70560E0AC
:1017B0008CEE95E00E941905C0921A05D0921B0587
:1017C000E0921C05F0921D05E0915305F09154053F
:1017D000B082E0914F05F09150051082E0915105E3
:1017E000F09152058FEC808310925B05E0915705D4
:1017F000F091580586E08083E0915505F0915605FB
:10180000808180618083E0915505F091560580814B
:1018100088608083E0915505F0915605808180684D
:101820008083E0915505F091560580818F7D8083FE
:10183000C0920C05D0920D05E0920E05F0920F05B6
:101840001092050510920A051092000510920105EC
:101850001092020510920305C0920605D09207056A
:10186000E0920805F0920905D0923305C092320546
:1018700094E0292E312C8E010F5F1F4FE091180547
:10188000F0911905E830F10508F004C18827E45B00
:10189000F34F8F4F0C94BD15540C8F0CE60C0D0DAF
:1018A00049117711D011F91161E088E10E941E02FF
:1018B00061E089E10E941E0260E08AE10E941E024E
:1018C00060E086E10E941E0260E087E10E941E0245
:1018D00060E08BE10E941E020E94EB02C0901A059C
:1018E000D0901B05E0901C05F0901D056C197D093A
:1018F0008E099F09C090FC05D090FD05E090FE0583
:10190000F090FF056C157D058E059F0508F4C2C09B
:1019100081E090E09093190580931805B1C00E9472
:10192000EB02C0901A05D0901B05E0901C05F090CA
:101930001D056C197D098E099F09C0902202D09067
:101940002302E0902402F0902502C616D706E8068E
:10195000F906F8F4E0901E05F0901F0588E10E945A
:10196000F50161E0892B09F060E088E10E941E0228
:101970002FEFE21AF20AF0921F05E0921E050E9474
:10198000EB0260931A0570931B0580931C059093DE
:101990001D0580911E0590911F05092E000CAA0BB4
:1019A000BB0B40911A0250911B0260911C02709176
:1019B0001D02481759076A077B070CF06BC010928D
:1019C0001F0510921E0582E090E0A4CF61E087E140
:1019D0000E941E0260E088E10E941E020E94EB024B
:1019E000C0901A05D0901B05E0901C05F0901D05D5
:1019F0006C197D098E099F09C0901E02D0901F02AC
:101A0000E0902002F0902102C616D706E806F906FB
:101A100008F040C083E090E07DCF61E086E10E9465
:101A20001E0260E087E10E941E0261E08AE10E94DE
:101A30001E0260E08BE10E941E0260E089E10E94CC
:101A40001E020E94EB02C0901A05D0901B05E09088
:101A50001C05F0901D056C197D098E099F09C09029
:101A60001E02D0901F02E0902002F0902102C616C4
:101A7000D706E806F90670F4309219052092180589
:101A80000E94EB0260931A0570931B0580931C055E
:101A900090931D0585E20E94F5012091F504211126
:101AA00035C0019799F581E08093F40480930B058C
:101AB000C0901A05D0901B05E0901C05F0901D0504
:101AC0000E94EB0220911802309119028090FC05CF
:101AD0009090FD05A090FE05B090FF05C80CD91CA4
:101AE000EA1CFB1CC61AD70AE80AF90AC901B0E0C9
:101AF000A0E08C159D05AE05BF0568F48093FC053C
:101B00009093FD05A093FE05B093FF058091F4042A
:101B1000882309F43FC08091180590911905892BFD
:101B2000C9F50E94EB026093F0047093F104809376
:101B3000F2049093F30481E08093F5044091F8055A
:101B40005091F9056091FA057091FB0550932902B7
:101B5000409328028091080290910902092E000CFE
:101B6000AA0BBB0B840F951FA61FB71F8093F80508
:101B70009093F905A093FA05B093FB051092F40435
:101B800060E080E00E94CD068AE692E00E94610655
:101B90000E9404068091F504882309F461C00E9424
:101BA000EB02C090F004D090F104E090F204F090C9
:101BB000F3049B01AC012C193D094E095F09690131
:101BC0007A01A0911E05B0911F052091220230914B
:101BD000230240912402509125020E94C515809055
:101BE000F8059090F905A090FA05B090FB05680DF6
:101BF000791D8A1D9B1D80901E0290901F02A0904F
:101C00002002B0902102860E971EA81EB91E8C14C9
:101C10009D04AE04BF0420F51092F50480912802C3
:101C200090912902092E000CAA0BBB0B8093F8059A
:101C30009093F905A093FA05B093FB0580912A02D1
:101C400090912B02092E000CAA0BBB0B8093FC0574
:101C50009093FD05A093FE05B093FF0510920B0530
:101C60000E94EB024B015C018091060590910705F3
:101C7000A0910805B0910905A5019401281B390B15
:101C80004A0B5B0BDA01C9010B97A105B10508F4FA
:101C900061C080910B0581115DC07090FC04809241
:101CA000060590920705A0920805B092090583E207
:101CB0000E94F5017C0190932B0580932A0582E216
:101CC0000E94F5016C01909329058093280581E21B
:101CD0000E94F5019093270580932605EC0CFD1CCE
:101CE000E80EF91E83E090E08E199F091816190678
:101CF0008CF52091FD0421112DC0711030C0409150
:101D0000F8045091F9046091FA047091FB04750194
:101D10006401C41AD50AE60AF70A40910E025091EE
:101D20000F0260911002709111024C155D056E0555
:101D30007F0508F05AC010920A0521E02093FC04A8
:101D40009093F7048093F60420930B05909303027D
:101D5000809302028091FC04882309F446C080919C
:101D6000180590911905892B09F03FC081E08093F7
:101D7000FD041092FC044091FC055091FD0560911A
:101D8000FE057091FF0550932B0240932A0280912B
:101D90000C0290910D02092E000CAA0BBB0B840FB4
:101DA000951FA61FB71F8093FC059093FD05A09378
:101DB000FE05B093FF0561E080E00E94CD068FE74D
:101DC00092E00E9461068091F6049091F7040E94CF
:101DD000A40685E892E00E9461068091020290913B
:101DE00003020E94A4060E940406C0901805D09029
:101DF00019058091FD04882389F18091000290915A
:101E00000102892B59F5C114D10441F180910202DC
:101E10009091030201979093030280930202181697
:101E20001906E4F01092FD0410920B058092F8045C
:101E30009092F904A092FA04B092FB0480912A02D5
:101E400090912B02092E000CAA0BBB0B8093FC0572
:101E50009093FD05A093FE05B093FF05D09201027B
:101E6000C09200020E94EB022B013C01809106050A
:101E700090910705A0910805B0910905A301920171
:101E8000281B390B4A0B5B0BDA01C9010B97A10523
:101E9000B10508F45FC080910B0581115BC0909083
:101EA000040540920605509207056092080570925D
:101EB000090580E20E94F5017C019093250580933D
:101EC00024058FE10E94F5015C0190932305809326
:101ED00022058EE10E94F501909321058093200553
:101EE000EA0CFB1CE80EF91E83E090E08E199F09B6
:101EF000181619067CF52091050521112BC09110AB
:101F00002EC040910005509101056091020570912D
:101F1000030553014201841A950AA60AB70A4091A3
:101F2000120250911302609114027091150248152B
:101F300059056A057B0508F056C021E02093040589
:101F40009093FF048093FE0420930B059093070267
:101F50008093060280910405882309F444C034E08C
:101F6000C316D10409F03FC081E0809305051092AB
:101F700004054091F8055091F9056091FA057091BA
:101F8000FB055093290240932802809116029091FC
:101F90001702092E000CAA0BBB0B840F951FA61F5E
:101FA000B71F8093F8059093F905A093FA05B093B5
:101FB000FB0561E080E00E94CD068FE792E00E9481
:101FC00061068091FE049091FF040E94A40685E8BA
:101FD00092E00E94610680910602909107020E94A1
:101FE000A4060E94040620911805309119058091DD
:101FF000040290910502049721F481E02430310518
:1020000009F480E090910505992351F1882341F16D
:1020100080910602909107020197909307028093A6
:10202000060218161906E4F01092050510920B0529
:1020300040920005509201056092020570920305DE
:102040008091280290912902092E000CAA0BBB0B4B
:102050008093F8059093F905A093FA05B093FB05DA
:1020600030930502209304020E94EB02C0900C05FD
:10207000D0900D05E0900E05F0900F059B01AC018E
:102080002C193D094E095F0969017A0131EDC3162A
:1020900037E0D306E104F10430F120910B05211162
:1020A00022C060930C0570930D0580930E059093EC
:1020B0000F0587E30E947D027C0190932F0580939A
:1020C0002E0586E30E947D029093310580933005B2
:1020D0004CE3E416F1040CF09DC1CC970CF09AC1CE
:1020E00081E080930A0580911005811109C06DED92
:1020F00073E08DE395E00E94CB0781E080931005AB
:1021000083E495E00E945703181619060CF0D3C219
:1021100083E495E00E9435038A3009F0C2C28091C1
:10212000410590914205892B09F4B4C2C0903D0548
:10213000D0903E056AE370E0C6010E94E417009764
:1021400009F4A8C27C01EC18FD085FEFE516F5065E
:1021500009F4A0C2A70170E060E0CE0145960E949C
:10216000DC074091410550914205B7016F5F7F4FF9
:10217000CE010F960E94DC078F859889812C912CC7
:102180005401009719F00E94F1144B01740161E9A8
:1021900072E0C8010E94CB07B801CE0145960E94AB
:1021A0001907D82EC8010E941107DD2009F435C196
:1021B000C401092C000CAA0BBB0B8093FC05909367
:1021C000FD05A093FE05B093FF0590922B0280922F
:1021D0002A0263E080E00E94CD0689EC93E00E9431
:1021E000610663E080E00E94CD061A8619861C868F
:1021F0001B861E861D866D897E896115710531F0ED
:10220000498D5A8DCE0109960E94A00741E050E009
:102210006FE872E0CE0109960E947907811104C02F
:10222000CE0109960E94FF064AE0B801C7010E944C
:102230001815F80101900020E9F73197AF01401B14
:10224000510BB801CE0109960E947907811104C093
:10225000CE0109960E94FF064D855E8569857A85C7
:102260008CEE95E00E94F902CE0109960E941107BA
:102270000E9404066DED73E08DE395E00E94C107B6
:10228000CE010F960E941107CE0145960E941107BC
:1022900037CF60E08AE10E941E0261E08BE10E947C
:1022A0001E020E94EB02C0901A05D0901B05E09020
:1022B0001C05F0901D056C197D098E099F09C090C1
:1022C000F805D090F905E090FA05F090FB05C616E8
:1022D000D706E806F90608F0DDCB80910A058823C9
:1022E00019F087E090E016CB85E090E013CB0E94D8
:1022F000EB02C0901A05D0901B05E0901C05F090F1
:102300001D056C197D098E099F09C0902202D0908D
:102310002302E0902402F0902502C616D706E806B4
:10232000F906E8F480911E0590911F05019690939F
:102330001F0580931E050E94EB0260931A0570939F
:102340001B0580931C0590931D058BE10E94F501F0
:1023500061E0892B09F060E08BE10E941E02809110
:102360001E0590911F05092E000CAA0BBB0B409176
:102370001A0250911B0260911C0270911D024817B5
:1023800059076A077B070CF085CB10921F05109246
:102390001E0546E050E0509319054093180570CB98
:1023A00060E08BE10E941E0261E08AE10E941E0251
:1023B0000E94EB02C0901A05D0901B05E0901C050E
:1023C000F0901D056C197D098E099F09C0901E02B1
:1023D000D0901F02E0902002F0902102C616D7068E
:1023E000E806F90608F056CB109219051092180568
:1023F00047CB61E08BE10E941E0261E086E10E9412
:102400001E0280910A05811145CB30921905209258
:10241000180540CB10920A0566CE6CE972E0C8013F
:102420000E94CB07B801CE0145960E941907D82E0D
:10243000C8010E941107DD2091F0C401092C000C95
:10244000AA0BBB0B8093F8059093F905A093FA05AE
:10245000B093FB059092290280922802BACE67EAD7
:1024600072E0C8010E94CB07B801CE0145960E94D8
:102470001907D82EC8010E941107DD2069F0C40198
:10248000990CAA0BBB0B80931E0290931F02A09382
:102490002002B09321029DCE62EB72E0C8010E943F
:1024A000CB07B801CE0145960E941907D82EC80166
:1024B0000E941107DD2069F0C401990CAA0BBB0B27
:1024C0008093220290932302A0932402B0932502CA
:1024D00080CE6CEB72E0C8010E94CB07B801CE0140
:1024E00045960E941907D82EC8010E941107DD20C9
:1024F00069F0C401990CAA0BBB0B80931A0290934C
:102500001B02A0931C02B0931D0263CE6DEC72E01F
:10251000C8010E94CB07B801CE0145960E94190759
:10252000D82EC8010E941107DD2029F090921902CF
:10253000809218024ECE68EE72E0C8010E94CB076E
:10254000B801CE0145960E941907D82EC8010E94F5
:102550001107D1103ECE64E073E0C8010E94CB07A2
:10256000B801CE0145960E941907D82EC8010E94D5
:102570001107DD2029F0909217028092160229CED1
:1025800063E273E0C8010E94CB07B801CE01459613
:102590000E941907D82EC8010E941107DD2069F09A
:1025A000C401990CAA0BBB0B8093120290931302E7
:1025B000A0931402B09315020CCE6FE373E0C80130
:1025C0000E94CB07B801CE0145960E941907D82E6C
:1025D000C8010E941107DD2069F0C401990CAA0B03
:1025E000BB0B80930E0290930F02A0931002B09346
:1025F0001102EFCD6BE573E0C8010E94CB07B80173
:10260000CE0145960E941907D82EC8010E941107D5
:10261000DD2029F090920D0280920C02DACD6AE75B
:1026200073E0C8010E94CB07B801CE0145960E9415
:102630001907D82EC8010E941107DD2029F09092B9
:102640000B0280920A02C5CD6EE973E0C8010E94B8
:10265000CB07B801CE0145960E941907D82EC801B4
:102660000E941107D110B5CD65EB73E0C8010E943F
:10267000CB07B801CE0145960E941907D82EC80194
:102680000E941107DD2009F4A4CD909209028092E6
:1026900008029FCD6DED73E08DE395E00E94C107C8
:1026A0002FCD89831A8241E050E0B8018DE395E097
:1026B0000E94790725CD0E94EB02209132053091CE
:1026C0003305DB01A21BB30B409126025091270278
:1026D0004A175B0708F061C17093330560933205B8
:1026E00088EE93E0909327028093260286E30E946F
:1026F0007D02909331058093300587E30E947D022F
:1027000090932F0580932E0588E30E947D0290937D
:102710002D0580932C0588E30E947D0283E20E94B0
:10272000F50190932B0580932A0582E20E94F50122
:10273000909329058093280581E20E94F5019093EA
:1027400027058093260580E20E94F50190932505D8
:10275000809324058FE10E94F501909323058093D7
:1027600022058EE10E94F5019093210580932005BA
:1027700060E080E00E94CD068EED93E00E9461064D
:1027800061E080E00E94CD0683EF93E00E94610645
:1027900062E080E00E94CD0687E094E00E9461063E
:1027A00063E080E00E94CD068CE194E00E94610627
:1027B00060E085E00E94CD06809130059091310562
:1027C0000E94A40661E085E00E94CD0680912E055E
:1027D00090912F050E94A40662E085E00E94CD063C
:1027E00080912C0590912D050E94A406A0911E05B4
:1027F000B0911F05209122023091230240912402C2
:10280000509125020E94C5156B017C018090FC054A
:102810009090FD05A090FE05B090FF052091F80571
:102820003091F9054091FA055091FB052B8F3C8FB3
:102830004D8F5E8F0E94EB0240901A0550901B0551
:1028400060901C0570901D059B01AC012419350991
:102850004609570929013A018091180590911905F7
:1028600063E0009709F09DC083E00E94CD068C0CC8
:102870009D1CAE1CBF1CC501B40169517C4F8F4F1C
:102880009F4F641975098609970997FF03C060E097
:1028900070E0CB0128EE33E040E050E00E949E154E
:1028A000CA01B9014AE00E9413068091180590916F
:1028B000190563E08430910509F083C088E00E9427
:1028C000CD068B8D9C8DAD8DBE8DC80ED91EEA1E9A
:1028D000FB1EC701B60169517C4F8F4F9F4F641992
:1028E00075098609970997FF03C060E070E0CB0186
:1028F00028EE33E040E050E00E949E15CA01B90185
:102900004AE00E94130680911805909119050797D7
:1029100041F463E088E00E94CD0682E394E00E94E7
:10292000610661E08FE00E94CD0680912A059091BA
:102930002B050E94A40661E081E10E94CD068091F2
:102940002805909129050E94A40661E083E10E9478
:10295000CD0680912605909127050E94A40663E08C
:102960008FE00E94CD0680912405909125050E945C
:10297000A40663E081E10E94CD068091220590913A
:1029800023050E94A40663E083E10E94CD068091A6
:102990002005909121050E94A4060E94FC030C943E
:1029A0003E0C019741F483E00E94CD0680E394E061
:1029B0000E9461067ACF83E00E94CD068BED93E002
:1029C000F7CF059741F488E00E94CD0680E394E0BC
:1029D0000E94610698CF88E00E94CD068BED93E0BF
:1029E000F7CF1F93FC0199278827BC01E894119128
:1029F0001032E9F3193010F01E30C8F31B3251F0D9
:102A00001D3249F4689406C00E942315610F711DA0
:102A1000811D911D119110531A30B0F33EF4909521
:102A20008095709561957F4F8F4F9F4F1F910895AF
:102A3000BB274A3031F4992322F4BDE29095819569
:102A40009F4F0C943915592F482F372F262F660F7B
:102A5000771F881F991F660F771F881F991F620FA6
:102A6000731F841F951F660F771F881F991F089576
:102A7000BB27FB015527AA27880F991FAA1FA41758
:102A800010F0A41B83955051B9F7A05DAA3308F04C
:102A9000A95DA193009779F7B111B1931192CB0180
:102AA0000C945215DC01FC01672F71917723E1F73B
:102AB000329704C07C916D9370836291AE17BF070B
:102AC000C8F308950E946D15A59F900DB49F900DB9
:102AD000A49F800D911D11240895A29FB001B39F62
:102AE000C001A39F700D811D1124911DB29F700D17
:102AF000811D1124911D0895A1E21A2EAA1BBB1B52
:102B0000FD010DC0AA1FBB1FEE1FFF1FA217B307B9
:102B1000E407F50720F0A21BB30BE40BF50B661FCF
:102B2000771F881F991F1A9469F760957095809593
:102B300090959B01AC01BD01CF010895052E97FB37
:102B40001EF400940E94B51557FD07D00E947C1515
:102B500007FC03D04EF40C94B51550954095309574
:102B600021953F4F4F4F5F4F0895909580957095F9
:102B700061957F4F8F4F9F4F0895EE0FFF1F881F66
:102B80008BBF0790F691E02D1994B7FF0C94621556
:102B90000E946215821B930B08950F931F93CF938E
:102BA000DF938230910510F482E090E0E09102061C
:102BB000F091030630E020E0B0E0A0E0309799F417
:102BC0002115310509F44AC0281B390B2430310581
:102BD000D8F58A819B816115710589F1FB01938389
:102BE0008283FE0111C04081518102811381481707
:102BF0005907E0F04817590799F4109761F01296B9
:102C00000C93129713961C933296CF01DF91CF91BC
:102C10001F910F9108950093020610930306F4CFBD
:102C20002115310551F04217530738F0A901DB0196
:102C30009A01BD01DF01F801C1CFEF01F9CF9093F7
:102C4000030680930206CDCFFE01E20FF31F8193AE
:102C500091932250310939832883D7CF20910006E0
:102C600030910106232B41F420912E0230912F0246
:102C7000309301062093000620912C0230912D0202
:102C80002115310541F42DB73EB7409130025091E6
:102C90003102241B350BE0910006F0910106E2178A
:102CA000F307A0F42E1B3F0B2817390778F0AC016F
:102CB0004E5F5F4F2417350748F04E0F5F1F50934C
:102CC000010640930006819391939FCFF0E0E0E0EE
:102CD0009CCFCF93DF930097E9F0FC0132971382EA
:102CE0001282A0910206B0910306ED0130E020E0CF
:102CF0001097A1F420813181820F931F209100064B
:102D0000309101062817390709F061C0F0930106D8
:102D1000E0930006DF91CF910895EA01CE17DF0717
:102D2000E8F54A815B819E0141155105B1F7E90142
:102D3000FB83EA8349915991C40FD51FEC17FD0716
:102D400061F4808191810296840F951FE901998336
:102D50008883828193819B838A83F0E0E0E01296EE
:102D60008D919C9113970097B9F52D913C911197F6
:102D7000CD010296820F931F20910006309101062B
:102D80002817390739F6309751F51092030610923B
:102D90000206B0930106A0930006BCCFD383C28382
:102DA00040815181840F951FC817D90761F44E5F88
:102DB0005F4F88819981480F591F518340838A81D1
:102DC0009B81938382832115310509F0B0CFF09365
:102DD0000306E09302069ECFFD01DC01C0CF138203
:102DE0001282D7CF4F925F926F927F928F929F9273
:102DF000AF92BF92CF92DF92EF92FF920F931F9309
:102E0000CF93DF938C01009799F4CB01DF91CF91A1
:102E10001F910F91FF90EF90DF90CF90BF90AF90F8
:102E20009F908F907F906F905F904F900C94CD15F6
:102E3000FC01E60FF71F9C0122503109E217F3074E
:102E400008F4AEC0D901CD91DC911197C617D70710
:102E500020F1C530D10578F0CE0104978617970789
:102E600050F0C61BD70B2297C193D1936D937C93DF
:102E7000CF010E946916C801DF91CF911F910F9178
:102E8000FF90EF90DF90CF90BF90AF909F908F908A
:102E90007F906F905F904F9008955B01AC1ABD0AD0
:102EA0004C018C0E9D1EA0910206B0910306512C80
:102EB000412CF12CE12C109731F580910006909176
:102EC00001068815990509F05CC04616570608F0FA
:102ED00058C080912C0290912D02009741F48DB73B
:102EE0009EB74091300250913102841B950BE81738
:102EF000F90708F055C0F0930106E0930006F901C8
:102F000071836083B8CF8D919C91119712966C90CC
:102F1000129713967C901397A815B90559F56C0173
:102F200042E0C40ED11CCA14DB0420F1AC014A19E2
:102F30005B09DA011296159780F0628273825183E1
:102F40004083D9016D937C93E114F10471F0D701B2
:102F50001396FC93EE9312978ECF22968C0F9D1FA3
:102F6000F90191838083F301EFCFF0930306E0939F
:102F7000020681CF4816590608F42C017D01D301C1
:102F80009ACFCB010E94CD157C01009749F0AE018C
:102F9000B8010E94DB17C8010E94691687016BCF38
:102FA00010E000E068CF9111089581548A5108F42F
:102FB000805E855A0895FB01DC0102C001900D92EC
:102FC00041505040D8F70895FC018191861721F0B7
:102FD0008823D9F7992708953197CF010895FB01E8
:102FE000DC0101900D920020E1F70895F894FFCFE5
:102FF000FFFF0300FFFF03001027A00FD007B80B4F
:103000000000581B0000D007B80B06000000F401B8
:10301000000064000000E803A00FD00700000406D1
:1030200080000000400014005400000000008F03E6
:10303000F9022603DC0357033503490300000000AF
:10304000EA04BD0401069304B604A304940400003A
:1030500000009E06F902010600065065646573745F
:103060007269616E312063726F7373696E670050AD
:1030700072696F20002053656E736F72732D433A2F
:1030800000677265656E54696D65310067726565CC
:103090006E54696D65320079656C6C6F7754696D3B
:1030A0006500626C696E6B54696D6500746F746164
:1030B0006C426C696E6B73496E4F75740070656419
:1030C0006573747269616E52656475636547726594
:1030D000656E54696D6531006C6967687447726527
:1030E000656E3154696D655768656E3353656E73EF
:1030F0006F7273006C69676874477265656E3249F8
:103100006E6372656173655768656E53656E736F44
:103110007273007072696F7269747957616974694A
:103120006E6754696D654F6E4C69676874320070E4
:1031300072696F7269747957616974696E675469ED
:103140006D654F6E4C6967687431006C69676874AF
:10315000477265656E31496E637265617365576864
:10316000656E53656E736F727300646973706C6122
:10317000795265667265736854696D6541667465F8
:10318000724E6F74696669636174696F6E0067720D
:1031900065656E4C696768743154696D655768651B
:1031A0006E436172007065646573747269616E4329
:1031B000726F737354696D650020202020202020D9
:1031C00020202020202020202020202020004C44CF
:1031D000523120202020202020434E5920312032FF
:1031E0002033004C44523220202020202020202058
:1031F00020202020202000434F322020202020208B
:103200002020434E59203420352036004C312020D8
:10321000204C322020202020202020202020200090
:0632200030004E470000E3
:00000001FF
