:100000000C949C010C94CD010C94CD010C94CD0169
:100010000C94CD010C94CD010C94CD010C94CD0128
:100020000C94CD010C94CD010C94CD010C94CD0118
:100030000C94CD010C94CD010C94CD010C94CD0108
:100040000C94CD010C94CD010C94CD010C94CD01F8
:100050000C94CD010C94CD010C94CD010C9432097B
:100060000C94CD010C94A6090C947C090C94CD0140
:100070000C94CD010C94CD010C94CD010C94CD01C8
:100080000C94CD010C94CD010C94CD010C94CD01B8
:100090000C94CD010C94CD010C94CD010C94DC0991
:1000A0000C94CD010C94CD010C94CD010C94CD0198
:1000B0000C94CD010C94CD010C94CD010C94CD0188
:1000C0000C94CD010C94CD010C94CD010C94CD0178
:1000D0000C94CD010C94CD010C94CD010C94CD0168
:1000E0000C94CD0107634236B79BD8A71A396856DE
:1000F00018AEBAAB558C1D3CB7CC5763BD6DEDFD4A
:10010000753EF6177231BF000000803F0800000006
:10011000BE922449123EABAAAA2ABECDCCCC4C3EFC
:1001200000000080BEABAAAAAA3E00000000BF00EB
:100130000000803F0000000000084178D3BB4387E7
:10014000D1133D190E3CC3BD4282AD2B3E68EC82FB
:1001500076BED98FE1A93E4C80EFFFBE01C4FF7F80
:100160003F00000000000C94D4040C94E10D0C94AA
:10017000FE040C94BA0D0C941D040C9424020C94EF
:100180003A030C941A020C94280D0C9442060C9419
:1001900039030C9432020C94000B0C9420020C9442
:1001A000ED010C94CA120C9438030C9467030C9460
:1001B00084060C9476030C9402020C94F3010C94C4
:1001C0002E020C9428020C942D020C94D0030C9453
:1001D000F7040C94E4040C9416020C94FB010C94A8
:1001E000D5040C9408020C94F7010C94FF010C94B4
:1001F00043120C9471120C94F3120C940C020C9494
:1002000098030C94630D0C9441060C9412020C9408
:100210008A030C942B0500002100240027002A00EB
:100220002D003000330001010000040107010A0124
:1002300000002200250028002B002E003100340091
:1002400002010000050108010B010000200023004D
:10025000260029002C002F003200000100000301BD
:100260000601090105050505070508080808020239
:1002700002020A0A08080404040401010101010140
:1002800001010303030303030303040707070C0C23
:100290000C0C0C0C0C0C02020202060606060606EA
:1002A00006060B0B0B0B0B0B0B0B0102102020088F
:1002B00008102040102040800201020108040201C1
:1002C0000102040810204080804020100804020130
:1002D0008004020180402010080402010804020189
:1002E0000102040810204080010204081020408010
:1002F00000000A0B02090C0D0E08070304010000A0
:1003000000000000000000000000000000000000ED
:1003100000000000000000000000000012111000AA
:1003200000000000000000000000000000000000CD
:10033000000000000000000B11241FBECFEFD1E22F
:10034000DEBFCDBF00E00CBF26E0AEE2B4E001C0EE
:100350001D92A030B207E1F714E0A0E0B2E0E0EFB8
:10036000FAE300E00BBF02C007900D92AE32B10776
:10037000D9F711E0CCE9D1E000E006C021970109EE
:10038000802FFE010E943D1BCB39D10780E008077A
:10039000A9F70E94680B0C94761D0C940000815004
:1003A000823108F05AC0E82FF0E08827E552FE4F6E
:1003B0008F4F0C943D1BFB01FF01ED01F301F70191
:1003C0002D02020208020C02120216021A02200278
:1003D00024022D0228022E023202809180008F77A3
:1003E000809380000895809180008F7DF9CF809167
:1003F0008000877FF5CF84B58F7784BD089584B55D
:100400008F7DFBCF8091B0008F778093B0000895EF
:100410008091B0008F7DF9CF809190008F7780938D
:1004200090000895809190008F7DF9CF8091900089
:10043000877FF5CF8091A0008F778093A0000895EB
:100440008091A0008F7DF9CF8091A000877FF5CFAC
:10045000809120018F778093200108958091200161
:100460008F7DF9CF80912001877FF5CFCF93DF93E8
:10047000282F30E0F901E051FD4F8491F901E65554
:10048000FD4FD491F901EC59FD4FC491CC23A1F05B
:1004900081110E94CF01EC2FF0E0EE0FFF1FE65B11
:1004A000FD4FA591B491EC91ED2381E090E009F42A
:1004B00080E0DF91CF91089580E090E0FACF1F9324
:1004C000CF93DF93282F30E0F901E051FD4F849165
:1004D000F901E655FD4FD491F901EC59FD4FC49156
:1004E000CC23A9F0162F81110E94CF01EC2FF0E050
:1004F000EE0FFF1FE05DFD4FA591B4918FB7F8940B
:10050000EC91111108C0D095DE23DC938FBFDF91F1
:10051000CF911F910895DE2BF8CFCF93DF9390E01A
:10052000FC01E655FD4F24918C599D4FFC018491AF
:100530008823D1F090E0880F991FFC01EA5EFD4FFF
:10054000A591B491FC01E05DFD4FC591D49161117D
:100550000EC09FB7F8948C91E22FE0958E238C9378
:100560002881E223E8839FBFDF91CF9108958FB761
:10057000F894EC91E22BEC938FBFF6CF90917B0037
:10058000977F90937B008653806480937C0080915A
:100590007A00806480937A0080917A0086FDFCCF97
:1005A000809178009091790008953FB7F8948091F8
:1005B000350590913605A0913705B091380526B5DF
:1005C000A89B05C02F3F19F00196A11DB11D3FBF8B
:1005D000BA2FA92F982F8827BC01CD01620F711D5A
:1005E000811D911D42E0660F771F881F991F4A9554
:1005F000D1F708958F929F92AF92BF92CF92DF92E0
:10060000EF92FF924B015C010E94D5026B017C01CD
:100610000E94D5026C197D098E099F09683E7340BE
:1006200081059105A8F321E0821A9108A108B1087B
:1006300088EEC80E83E0D81EE11CF11C81149104E1
:10064000A104B10429F7FF90EF90DF90CF90BF9005
:10065000AF909F908F9008952FB7F89460913105D7
:100660007091320580913305909134052FBF089524
:1006700008950895AF92BF92CF92DF92EF92FF92CA
:100680000F931F93CF93DF936C017B018B01040FBA
:10069000151FEB015E01AE18BF08C017D10759F056
:1006A0006991D601ED91FC910190F081E02DC60198
:1006B0001995892B79F7C501DF91CF911F910F9182
:1006C000FF90EF90DF90CF90BF90AF900895FC0126
:1006D000538D448D252F30E0842F90E0821B930BA7
:1006E000541710F0CF96089501970895FC01918D4D
:1006F000828D981761F0A28DAE0FBF2FB11D5D9650
:100700008C91928D9F5F9F73928F90E008958FEFF1
:100710009FEF0895FC01918D828D981731F0828DA5
:10072000E80FF11D858D90E008958FEF9FEF0895FC
:10073000FC01918D228D892F90E0805C9F4F821B60
:1007400091098F73992708958FE395E00E9498038C
:1007500021E0892B09F420E0822F0895FC01A48D6B
:10076000A80FB92FB11DA35ABF4F2C91848D90E0D3
:1007700001968F739927848FA689B7892C93A089B6
:10078000B1898C91837080648C93938D848D981340
:1007900006C00288F389E02D80818F7D80830895D3
:1007A000EF92FF920F931F93CF93DF93EC0181E0C1
:1007B000888F9B8D8C8D98131AC0E889F989808168
:1007C00085FF15C09FB7F894EE89FF896083E8899B
:1007D000F98980818370806480839FBF81E090E08D
:1007E000DF91CF911F910F91FF90EF900895F62E1A
:1007F0000B8D10E00F5F1F4F0F731127E02E8C8DB4
:100800008E110CC00FB607FCFACFE889F9898081F8
:1008100085FFF5CFCE010E94AE03F1CFEB8DEC0F3B
:10082000FD2FF11DE35AFF4FF0829FB7F8940B8F15
:10083000EA89FB8980818062CFCFCF93DF93EC017F
:10084000888D8823B9F0AA89BB89E889F9898C91B8
:1008500085FD03C0808186FD0DC00FB607FCF7CF74
:100860008C9185FFF2CF808185FFEDCFCE010E9474
:10087000AE03E9CFDF91CF91089580E090E0892B1E
:1008800029F00E94A40381110E94000080E090E002
:10089000892B49F080E090E0892B29F00E9400002C
:1008A00081110E94000080E090E0892B49F080E0F7
:1008B00090E0892B29F00E94000081110E94000025
:1008C00080E090E0892B49F080E090E0892B29F0CE
:1008D0000E94000081110C9400000895209196045C
:1008E000260F3327331F21323105ECF42091BA044F
:1008F000FC0190E080E0243069F082E00895A0914E
:1009000096042191AC014A585B4FA40FB52FB11D3D
:100910002C930196861798F380919604680F609344
:10092000960480E0089581E008951092BA0481E071
:100930008093BC041092BB0461E084E10E945F02DA
:1009400061E085E10E945F02E9EBF0E080818E7F4B
:10095000808380818D7F808388E48093B80085E4E4
:100960008093BC000895CF93DF9391E0909375043A
:100970008823B9F0C091B800D091BA008091BC0032
:100980008A7B8093BC0060E084E10E945F0260E0AB
:1009900085E10E945F020E949504D093BA00C09343
:1009A000B800DF91CF9108950895E091E704809118
:1009B000E604E81730F4F0E0E05BFB4F808190E064
:1009C00008958FEF9FEF08959091E7048091E604DA
:1009D0002FEF3FEF981748F4E92FF0E0E05BFB4F73
:1009E000208130E09F5F9093E704C90108958091D2
:1009F000E6049091E704891B990B0895CF92DF924A
:100A0000EF92FF920F931F93CF93DF937C01CB0163
:100A10008A0120914F04222389F0EB016B01C40E5F
:100A2000D51ECC15DD0569F06991D701ED91FC91DA
:100A30000190F081E02DC7011995F3CF642F0E943A
:100A40006E04C801DF91CF911F910F91FF90EF903D
:100A5000DF90CF900895CF93DF931F92CDB7DEB78D
:100A6000698320914F042223F9F02091E40420327D
:100A700058F021E030E0FC013383228390E080E0F5
:100A80000F90DF91CF9108958091E504E82FF0E079
:100A9000E15DFB4F998190838F5F8093E5048093A4
:100AA000E40481E090E0ECCF61E0CE0101960E9489
:100AB0006E04F7CFCF92DF92EF92FF920F931F93C6
:100AC000CF93DF93FC01C48121E020934F04C093B6
:100AD0002E041092E5041092E4048385682B8CEDBB
:100AE00095E00E942B05D091E404D13208F092C029
:100AF0000E94D5026B017C018091BA04811165C00E
:100B000082E08093BA0481E08093BC048FEF8093ED
:100B1000B9041092DE04D093DD04AFE2B4E0EDEB53
:100B2000F4E080E0D81385C01092DF048091DF04E8
:100B3000CC0FC82BC093DF048091BB04813009F037
:100B40007CC01092BB040E94D5026B017C01809195
:100B5000DF048093BB008091710490917204A09196
:100B60007304B0917404892B8A2B8B2B99F00E940B
:100B7000D502009171041091720420917304309198
:100B800074046C197D098E099F0906171707280739
:100B90003907E0F18091BC0083FDD9CF85EC8093CB
:100BA000BC000E94D5026B017C018091BA048230A6
:100BB00009F445C08091B9048F3F61F18091B90477
:100BC000803241F18091B90425C0809171049091E7
:100BD0007204A0917304B0917404892B8A2B8B2B1F
:100BE00009F48ACF0E94D502009171041091720419
:100BF00020917304309174046C197D098E099F094A
:100C0000061717072807390708F076CF8091700478
:100C10000E94B3041092E5041092E40410924F0471
:100C2000DF91CF911F910F91FF90EF90DF90CF90C8
:100C300008959D9191938F5F75CF85EEB0CF809190
:100C4000710490917204A0917304B0917404892B83
:100C50008A2B8B2B09F4A9CF0E94D5020091710435
:100C60001091720420917304309174046C197D0901
:100C70008E099F09061717072807390708F095CF2F
:100C8000C5CF089590E080E008950E942C037093F2
:100C90002F0560932E0580910E0290910F02909384
:100CA0002B0280932A0208950F931F93CF938C01F8
:100CB000C62F0E945A056C2F6460C8010E945A0515
:100CC0006C2F6B7FC8010E945A0583EC90E001975E
:100CD000F1F7CF911F910F9108950F931F93CF9329
:100CE000DF938C01D62FC42F607F642B0E945406A3
:100CF00080E1D89FB00111246C2BC801DF91CF9106
:100D00001F910F910C94540641E00E946D0681E002
:100D100090E00895CF93DF9300D000D01F921F92F0
:100D2000CDB7DEB798E0E6E3F2E0DE011196019080
:100D30000D929A95E1F79091F005961710F46FEFE8
:100D4000690F262F30E0220F331F41E050E04C0F97
:100D50005D1F240F351FF9016081680F606840E056
:100D600088EE95E028960FB6F894DEBF0FBECDBF93
:100D7000DF91CF910C946D06FB0101900020E9F703
:100D80003197AF01461B570BDC01ED91FC910280BE
:100D9000F381E02D19948F929F92AF92BF92EF92C0
:100DA000FF920F931F93CF93DF93CDB7DEB7A19739
:100DB0000FB6F894DEBF0FBECDBF7C01FA01CB01A8
:100DC00019A2223008F42AE08E010F5D1F4F822EF7
:100DD000912CB12CA12CBF01A50194010E94FC1AF9
:100DE000F901CA016A300CF5605DD8016E938D017E
:100DF000232B242B252B79F790E080E0109721F00E
:100E0000BD01C7010E94BC06A1960FB6F894DEBFD3
:100E10000FBECDBFDF91CF911F910F91FF90EF904B
:100E2000BF90AF909F908F900895695CDECFCF9276
:100E3000DF92EF92FF926C01990FEE08FF08F7FE28
:100E400018C041E06DE288EE95E00E946D064427EF
:100E50005527BA014C195D096E097F092AE088EE11
:100E600095E00E94CB060196FF90EF90DF90CF9027
:100E700008952AE0B701A60188EE95E0FF90EF9073
:100E8000DF90CF900C94CB06BC0188EE95E00C94DB
:100E9000BC06CF93DF93EC0188819981009711F014
:100EA0000E94E91B198218821D821C821B821A82F1
:100EB000DF91CF910895FC0180819181009711F01D
:100EC0000C94E91B0895EF92FF920F931F93CF9319
:100ED000DF938617970769F1FC0124813581FB01B7
:100EE0004481558124173507E1F4232B11F1FC01CE
:100EF00000811181FB01C081D181F80181918F01B5
:100F00008823B9F0082E000C990B0E94531D7C0118
:100F10008991082E000C990B0E94531DE816F906C2
:100F200061F380E0DF91CF911F910F91FF90EF90DF
:100F3000089581E0F7CF0F931F93CF93DF93EC01D8
:100F400088819981009759F02A813B8126173707BC
:100F500030F081E0DF91CF911F910F9108958B01C7
:100F60006F5F7F4F0E94721C009759F099838883AE
:100F70001B830A832C813D81232B59F7FC011082AE
:100F8000E8CF80E0E7CFEF92FF920F931F93CF93CC
:100F9000DF9341155105B1F07B01EC010C811D81FE
:100FA000040F151FB8010E949B07882361F0288158
:100FB00039818C819D81B701820F931F0E946F1D23
:100FC0001D830C8381E0DF91CF911F910F91FF90E2
:100FD000EF900895EF92FF920F931F93CF93DF93BB
:100FE000EC017B018A01BA010E949B0781110BC0B1
:100FF000CE010E944907CE01DF91CF911F910F9141
:10100000FF90EF9008951D830C83B701888199812B
:101010000E946F1DF0CFFB0101900020E9F731978E
:10102000AF01461B570B0C94EA07FC01118210829A
:101030001382128215821482FB0101900020E9F7CD
:101040003197AF01461B570B0C94EA07CF92DF9202
:10105000EF92FF920F931F93CF93DF936C017B016D
:101060008A014617570720F48F2D7A01062F182F73
:1010700067E972E0C6010E941508C0913D05D09154
:101080003E05EC16FD06F8F40C171D0708F4E80100
:10109000E0913905F0913A05EC0FFD1F10811082A7
:1010A0006091390570913A056E0D7F1DC60161157D
:1010B000710599F00E940B088091390590913A05CD
:1010C000C80FD91F1883C601DF91CF911F910F91CF
:1010D000FF90EF90DF90CF9008950E944907ECCFEA
:1010E00085ED8093BC008091710490917204A09171
:1010F0007304B09174040796A11DB11D23E0B69549
:10110000A795979587952A95D1F72091BC0024FD46
:1011100003C01092BA040895409171045091720472
:101120006091730470917404452B462B472B69F32F
:101130000097A105B10541F02AE22A95F1F700C018
:101140000197A109B109E1CF809170040C94B30417
:10115000CF92DF92EF92FF9210921005109211053C
:10116000109212051092130588E30E94BE02BC0182
:10117000990F880B990B0E94D21620E030E040EACC
:1011800050E40E94311720E030EC4FE754E40E9415
:10119000761820E030E048E051E40E9476186B01B8
:1011A0007C0124E13EEA47E85EE30E94801987FD66
:1011B00034C080E090E0A8ECB3E4809310059093F5
:1011C0001105A0931205B093130560910802709168
:1011D000090280910A0290910B020E94D0166B01C5
:1011E0007C0120911005309111054091120550911C
:1011F00013050E94311720E030E44CE156E40E94D0
:101200007618A70196010E9429190E94E818CB01BF
:10121000FF90EF90DF90CF90089524E13EEA47E8F9
:101220005EE3C701B6010E9409182BE83CEC47E1D8
:101230005EEB0E9476182BE237E846E250E40E940B
:101240000A189B01AC0160E070E080E291E40E942A
:101250008519609310057093110580931205909382
:101260001305B3CF1F920F920FB60F9211242F9335
:101270003F938F939F93AF93BF938091310590914C
:101280003205A0913305B09134053091300523E04B
:10129000230F2D3758F50196A11DB11D2093300560
:1012A0008093310590933205A0933305B0933405B4
:1012B0008091350590913605A0913705B09138059C
:1012C0000196A11DB11D8093350590933605A0931D
:1012D0003705B0933805BF91AF919F918F913F91A2
:1012E0002F910F900FBE0F901F90189526E8230F97
:1012F0000296A11DB11DD2CF1F920F920FB60F9271
:1013000011240BB60F922F933F934F935F936F93DC
:101310007F938F939F93AF93BF93EF93FF938FE34D
:1013200095E00E94AE03FF91EF91BF91AF919F9125
:101330008F917F916F915F914F913F912F910F907E
:101340000BBE0F900FBE0F901F9018951F920F921B
:101350000FB60F9211240BB60F922F938F939F937A
:10136000EF93FF93E0914F05F09150058081E0915C
:101370005505F091560582FD1DC09081809158055C
:101380008F5F8F7320915905821741F0E0915805C6
:10139000F0E0E15CFA4F958F80935805FF91EF9153
:1013A0009F918F912F910F900BBE0F900FBE0F90BA
:1013B0001F9018958081F2CF1F920F920FB60F9257
:1013C00011240BB60F922F933F934F935F936F931C
:1013D0007F938F939F93AF93BF93EF93FF938091EE
:1013E000B900887F803609F44DC008F040C08832CB
:1013F00009F4A9C028F5803109F49DC0C8F48823F8
:1014000009F4FBC0883009F496C0FF91EF91BF91B9
:10141000AF919F918F917F916F915F914F913F918C
:101420002F910F900BBE0F900FBE0F901F9018952D
:10143000883109F488C0803241F78093B90414C020
:10144000803409F49DC040F48033B9F38833E9F661
:101450008093B90485ECB0C0803509F485C0883527
:1014600009F496C0883489F60E947008CECF883976
:1014700009F48CC038F5883729F050F4883611F01B
:10148000803719F683E08093BA041092B80457C0ED
:10149000883809F47BC0803919F0803809F0B5CF5D
:1014A0008091B804803208F071C0E091B80481E006
:1014B0008E0F8093B8048091BB00F0E0E856FB4F9C
:1014C00080833DC0803B39F0E0F4803A09F479C074
:1014D000883A09F09ACF84E08093BA041092970476
:1014E00010929604E091E204F091E3041995809142
:1014F000960481110FC081E08093960410927604C7
:1015000009C0803C09F4A6CF883C09F4A3CF883BEE
:1015100009F07BCFE091970481E08E0F80939704D0
:10152000F0E0EA58FB4F80818093BB0090919704D4
:101530008091960429C08091DF048093BB0085ECE4
:101540008093BC0062CF9091DE048091DD049817F7
:1015500058F5E091DE0481E08E0F8093DE04F0E028
:10156000E354FB4F8081E9CFE091DE0481E08E0FF0
:101570008093DE048091BB00F0E0E354FB4F808356
:101580009091DE048091DD049817C8F285E8D8CFE9
:10159000E091DE0481E08E0F8093DE048091BB0039
:1015A000F0E0E354FB4F80838091BC0481115CCF59
:1015B00081E08093BB0484EA8093BC001092BA045B
:1015C00024CF85EC8093BC001092BA048091B804BB
:1015D000803230F4E091B804F0E0E856FB4F10821E
:1015E0006091B80470E0E091E004F091E10488E9D2
:1015F00094E019951092B80408CF1092B90434CF32
:10160000EFE3F5E01382128288EE93E0A0E0B0E011
:1016100084839583A683B78322E432E031832083D9
:1016200025EC30E03587248724EC30E037872687A7
:1016300020EC30E0318B208B21EC30E0338B228B9F
:1016400022EC30E0358B248B26EC30E0378B268B78
:10165000118E128E138E148EECEDF5E01382128231
:1016600084839583A683B78384E592E09183808306
:1016700080912E0290912F02092E000CAA0BBB0B19
:101680008093F8059093F905A093FA05B093FB05B4
:1016900080912C0290912D02092E000CAA0BBB0BFD
:1016A0008093F4059093F505A093F605B093F705A4
:1016B000E8EEF5E01382128286E692E09183808361
:1016C00087E2848384E1818784E08287138608959A
:1016D000CF93DF93CDB7DEB76E970FB6F894DEBF2A
:1016E0000FBECDBF789484B5826084BD84B581601F
:1016F00084BD85B5826085BD85B5816085BD8091DD
:101700006E00816080936E00109281008091810054
:10171000826080938100809181008160809381004C
:10172000809180008160809380008091B10084600E
:101730008093B1008091B00081608093B00080916F
:1017400091008260809391008091910081608093EC
:101750009100809190008160809390008091A10021
:1017600082608093A1008091A10081608093A1009C
:101770008091A00081608093A0008091210182600F
:1017800080932101809121018160809321018091CA
:10179000200181608093200180917A008460809391
:1017A0007A0080917A00826080937A0080917A003A
:1017B000816080937A0080917A00806880937A00BB
:1017C0001092C1000E942C036B017C0161E086E154
:1017D0000E948D0261E087E10E948D0261E088E154
:1017E0000E948D0261E089E10E948D0261E08AE140
:1017F0000E948D0261E08BE10E948D0260E085E233
:101800000E948D0260E083E20E948D0260E082E22D
:101810000E948D0260E081E20E948D0260E080E221
:101820000E948D0260E08FE10E948D0260E08EE1F7
:101830000E948D0260E086E30E948D0260E087E3F3
:101840000E948D0260E088E30E948D021092E704FE
:101850001092E6041092E5041092E4040E949504AC
:1018600088E393E09093E3048093E20489E393E0B8
:101870009093E1048093E0041092ED058091F205CD
:10188000823018F098E09093ED058093F00562E3C4
:1018900070E080E090E00E94FA026091F30588EE2B
:1018A00095E00E945A0568EE73E080E090E00E94A7
:1018B000FA0260E388EE95E00E9454060BE416E419
:1018C000C8010197F1F760E388EE95E00E945406A5
:1018D000C8010197F1F760E388EE95E00E94540695
:1018E00083E592E00197F1F760E288EE95E00E94CF
:1018F00054066091ED05606240E088EE95E00E943C
:101900006D0684E08093EE0540E06CE088EE95E0A3
:101910000E946D0640E061E088EE95E00E946D0651
:101920000BE31FE1C8010197F1F782E0B82EB092F6
:10193000EF0540E066E088EE95E00E946D0640E02D
:1019400062E088EE95E00E946D06C8010197F1F70C
:1019500088E08093F30560E088EE95E00E945A05E8
:10196000C0921605D0921705E0921805F09219055D
:10197000E0914F05F0915005B082E0914B05F09158
:101980004C051082E0914D05F0914E058FEC80835F
:1019900010925705E0915305F091540586E080833D
:1019A000E0915105F0915205808180618083E09142
:1019B0005105F0915205808188608083E091510546
:1019C000F0915205808180688083E0915105F0910B
:1019D000520580818F7D8083C0920405D0920505D9
:1019E000E0920605F09207051092FD0410920205A0
:1019F0001092F8041092F9041092FA041092FB0469
:101A0000C092FE04D092FF04E0920005F09201051E
:101A1000D0922F05C0922E0594E0292E312C8E01F4
:101A20000F5F1F4FE0911405F0911505E830F105A7
:101A300008F004C18827E05EF24F8F4F0C943D1BE5
:101A4000280D630DBA0DE10D43127112CA12F31283
:101A500061E088E10E945F0261E089E10E945F022B
:101A600060E08AE10E945F0260E086E10E945F021E
:101A700060E087E10E945F0260E08BE10E945F020C
:101A80000E942C03C0901605D0901705E090180511
:101A9000F09019056C197D098E099F09C090F80511
:101AA000D090F905E090FA05F090FB056C157D05E6
:101AB0008E059F0508F4C2C081E090E09093150563
:101AC00080931405B1C00E942C03C0901605D090DD
:101AD0001705E0901805F09019056C197D098E091D
:101AE0009F09C0902602D0902702E0902802F09033
:101AF0002902C616D706E806F906F8F4E0901A059A
:101B0000F0901B0588E10E94360261E0892B09F004
:101B100060E088E10E945F022FEFE21AF20AF09281
:101B20001B05E0921A050E942C0360931605709322
:101B30001705809318059093190580911A059091C7
:101B40001B05092E000CAA0BBB0B40911E025091E5
:101B50001F026091200270912102481759076A07FD
:101B60007B070CF06BC010921B0510921A0582E0E7
:101B700090E0A4CF61E087E10E945F0260E088E12D
:101B80000E945F020E942C03C0901605D09017059A
:101B9000E0901805F09019056C197D098E099F09D0
:101BA000C0902202D0902302E0902402F0902502FF
:101BB000C616D706E806F90608F040C083E090E0B4
:101BC0007DCF61E086E10E945F0260E087E10E94D4
:101BD0005F0261E08AE10E945F0260E08BE10E94A7
:101BE0005F0260E089E10E945F020E942C03C090C6
:101BF0001605D0901705E0901805F09019056C199E
:101C00007D098E099F09C0902202D0902302E090A6
:101C10002402F0902502C616D706E806F90670F4ED
:101C200030921505209214050E942C03609316052E
:101C300070931705809318059093190585E20E940B
:101C400036022091ED04211135C0019799F581E00C
:101C50008093EC0480930305C0901605D09017057F
:101C6000E0901805F09019050E942C0320911C02A9
:101C700030911D028090F8059090F905A090FA052A
:101C8000B090FB05C80CD91CEA1CFB1CC61AD70A6D
:101C9000E80AF90AC901B0E0A0E08C159D05AE057F
:101CA000BF0568F48093F8059093F905A093FA05B1
:101CB000B093FB058091EC04882309F43FC0809128
:101CC000140590911505892BC9F50E942C0360938A
:101CD000E8047093E9048093EA049093EB0481E0B4
:101CE0008093ED044091F4055091F5056091F6055F
:101CF0007091F70550932D0240932C0280910C02B5
:101D000090910D02092E000CAA0BBB0B840F951F9E
:101D1000A61FB71F8093F4059093F505A093F605D1
:101D2000B093F7051092EC0460E080E00E948A0610
:101D30008EE692E00E9444070E9445068091ED04E1
:101D4000882309F461C00E942C03C090E804D0905D
:101D5000E904E090EA04F090EB049B01AC012C193B
:101D60003D094E095F0969017A01A0911A05B091F8
:101D70001B052091260230912702409128025091A4
:101D800029020E94451B8090F4059090F505A090D3
:101D9000F605B090F705680D791D8A1D9B1D809092
:101DA000220290902302A0902402B0902502860E79
:101DB000971EA81EB91E8C149D04AE04BF0420F506
:101DC0001092ED0480912C0290912D02092E000CAE
:101DD000AA0BBB0B8093F4059093F505A093F60531
:101DE000B093F70580912E0290912F02092E000CDE
:101DF000AA0BBB0B8093F8059093F905A093FA0505
:101E0000B093FB05109203050E942C034B015C016B
:101E10008091FE049091FF04A0910005B09101050E
:101E2000A5019401281B390B4A0B5B0BDA01C90190
:101E30000B97A105B10508F461C0809103058111DC
:101E40005DC07090F4048092FE049092FF04A09212
:101E50000005B092010583E20E9436027C01909356
:101E600027058093260582E20E9436026C0190933A
:101E700025058093240581E20E9436029093230574
:101E800080932205EC0CFD1CE80EF91E83E090E027
:101E90008E199F09181619068CF52091F504211149
:101EA0002DC0711030C04091F0045091F104609148
:101EB000F2047091F30475016401C41AD50AE60AAC
:101EC000F70A40911202509113026091140270912E
:101ED00015024C155D056E057F0508F05AC010927D
:101EE000020521E02093F4049093EF048093EE0424
:101EF0002093030590930302809302028091F404DF
:101F0000882309F446C08091140590911505892B0A
:101F100009F03FC081E08093F5041092F4044091F1
:101F2000F8055091F9056091FA057091FB05509301
:101F30002F0240932E028091100290911102092EDF
:101F4000000CAA0BBB0B840F951FA61FB71F809315
:101F5000F8059093F905A093FA05B093FB0561E0AD
:101F600080E00E948A0683E892E00E944407809104
:101F7000EE049091EF040E94170789E892E00E9416
:101F8000440780910202909103020E9417070E9469
:101F90004506C0901405D09015058091F50488235E
:101FA00089F18091000290910102892B59F5C114A9
:101FB000D10441F180910202909103020197909324
:101FC00003028093020218161906E4F01092F50439
:101FD000109203058092F0049092F104A092F20412
:101FE000B092F30480912E0290912F02092E000CE2
:101FF000AA0BBB0B8093F8059093F905A093FA0503
:10200000B093FB05D0920102C09200020E942C0303
:102010002B013C018091FE049091FF04A0910005EA
:10202000B0910105A3019201281B390B4A0B5B0BF0
:10203000DA01C9010B97A105B10508F45FC08091D1
:10204000030581115BC09090FC044092FE04509205
:10205000FF04609200057092010580E20E94360242
:102060007C0190932105809320058FE10E94360228
:102070005C0190931F0580931E058EE10E9436023D
:1020800090931D0580931C05EA0CFB1CE80EF91EBD
:1020900083E090E08E199F09181619067CF52091AF
:1020A000FD0421112BC091102EC04091F8045091D5
:1020B000F9046091FA047091FB0453014201841AFF
:1020C000950AA60AB70A409116025091170260912C
:1020D000180270911902481559056A057B0508F028
:1020E0007CC021E02093FC049093F7048093F604D5
:1020F0002093030590930702809306028091FC04CD
:10210000882309F46AC034E0C316D10409F065C01D
:1021100081E08093FD041092FC044091F4055091FD
:10212000F5056091F6057091F70550932D024093E7
:102130002C02C0901A02D0901B020D2C000CEE084D
:10214000FF08C40ED51EE61EF71E0E94A808092E21
:10215000000CAA0BBB0BC80ED91EEA1EFB1EC092B8
:10216000F405D092F505E092F605F092F7052AE025
:10217000B701A601F7FE0DC06DE28FE395E00E9466
:10218000D00344275527BA014C195D096E097F0910
:102190002AE08FE395E00E94CB0665E972E08FE3C9
:1021A00095E00E94BC0661E080E00E948A0683E818
:1021B00092E00E9444078091F6049091F7040E94F7
:1021C000170789E892E00E944407809106029091E7
:1021D00007020E9417070E944506209114053091BE
:1021E00015058091040290910502049721F481E085
:1021F0002430310509F480E09091FD04992351F1D8
:10220000882341F1809106029091070201979093F3
:1022100007028093060218161906E4F01092FD04D6
:10222000109203054092F8045092F9046092FA0467
:102230007092FB0480912C0290912D02092E000CCB
:10224000AA0BBB0B8093F4059093F505A093F605BC
:10225000B093F70530930502209304020E942C03EB
:10226000C0900405D0900505E0900605F0900705A4
:102270009B01AC012C193D094E095F0969017A01E6
:1022800031EDC31637E0D306E104F10430F12091BB
:102290000305211122C06093040570930505809306
:1022A00006059093070587E30E94BE027C01909388
:1022B0002B0580932A0586E30E94BE0290932D058C
:1022C00080932C054CE3E416F1040CF09DC1CC97EF
:1022D0000CF09AC181E0809302058091080581117C
:1022E00009C067E972E089E395E00E94150881E082
:1022F000809308058FE395E00E949803181619064D
:102300000CF0E0C28FE395E00E9476038A3009F07A
:10231000CFC280913D0590913E05892B09F4C1C241
:10232000C0903905D0903A056AE370E0C6010E947A
:10233000641D009709F4B5C27C01EC18FD085FEF3D
:10234000E516F50609F4ADC2A70170E060E0CE0124
:1023500045960E94260840913D0550913E05B701E3
:102360006F5F7F4FCE010F960E9426088F85988958
:10237000812C912C5401009719F00E945F164B019B
:10238000740168E972E0C8010E941508B801CE0125
:1023900045960E946307D82EC8010E945B07DD2086
:1023A00009F435C1C401092C000CAA0BBB0B8093A6
:1023B000F8059093F905A093FA05B093FB05909268
:1023C0002F0280922E0263E080E00E948A0682EC57
:1023D00093E00E94440763E080E00E948A061A8628
:1023E00019861C861B861E861D866D897E89611551
:1023F000710531F0498D5A8DCE0109960E94EA0788
:1024000041E050E063E972E0CE0109960E94C30703
:10241000811104C0CE0109960E9449074AE0B80123
:10242000C7010E948616F80101900020E9F7319754
:10243000AF01401B510BB801CE0109960E94C307A2
:10244000811104C0CE0109960E9449074D855E8521
:1024500069857A8588EE95E00E943A03CE01099657
:102460000E945B070E94450667E972E089E395E0F8
:102470000E940B08CE010F960E945B07CE01459685
:102480000E945B0737CF60E08AE10E945F0261E053
:102490008BE10E945F020E942C03C0901605D09031
:1024A0001705E0901805F09019056C197D098E0943
:1024B0009F09C090F405D090F505E090F605F090E6
:1024C000F705C616D706E806F90608F0B7CB8091DF
:1024D0000205882319F087E090E0F0CA85E090E0DB
:1024E000EDCA0E942C03C0901605D0901705E0900D
:1024F0001805F09019056C197D098E099F09C09087
:102500002602D0902702E0902802F0902902C616F9
:10251000D706E806F906E8F480911A0590911B05A4
:10252000019690931B0580931A050E942C036093DB
:1025300016057093170580931805909319058BE184
:102540000E94360261E0892B09F060E08BE10E9475
:102550005F0280911A0590911B05092E000CAA0BB1
:10256000BB0B40911E0250911F026091200270919E
:102570002102481759076A077B070CF05FCB1092BE
:102580001B0510921A0546E050E050931505409344
:1025900014054ACB60E08BE10E945F0261E08AE1B2
:1025A0000E945F020E942C03C0901605D090170570
:1025B000E0901805F09019056C197D098E099F09A6
:1025C000C0902202D0902302E0902402F0902502D5
:1025D000C616D706E806F90608F030CB10921505A6
:1025E0001092140521CB61E08BE10E945F0261E053
:1025F00086E10E945F028091020581111FCB30921B
:102600001505209214051ACB1092020566CE63EAD6
:1026100072E0C8010E941508B801CE0145960E94DB
:102620006307D82EC8010E945B07DD2091F0C4012A
:10263000092C000CAA0BBB0B8093F4059093F505B5
:10264000A093F605B093F70590922D0280922C028C
:10265000BACE6EEA72E0C8010E941508B801CE0138
:1026600045960E946307D82EC8010E945B07DD20B3
:1026700069F0C401990CAA0BBB0B809322029093C2
:102680002302A0932402B09325029DCE69EB72E051
:10269000C8010E941508B801CE0145960E94630743
:1026A000D82EC8010E945B07DD2069F0C401990C97
:1026B000AA0BBB0B8093260290932702A0932802BB
:1026C000B093290280CE63EC72E0C8010E94150825
:1026D000B801CE0145960E946307D82EC8010E941A
:1026E0005B07DD2069F0C401990CAA0BBB0B80933A
:1026F0001E0290931F02A0932002B093210263CE8A
:1027000064ED72E0C8010E941508B801CE0145963B
:102710000E946307D82EC8010E945B07DD2029F0C4
:1027200090921D0280921C024ECE6FEE72E0C801A4
:102730000E941508B801CE0145960E946307D82E65
:10274000C8010E945B07DD2029F090921B02809255
:102750001A0239CE6EE073E0C8010E941508B80174
:10276000CE0145960E946307D82EC8010E945B07E0
:10277000DD2069F0C401990CAA0BBB0B80931602F3
:1027800090931702A0931802B09319021CCE6AE22C
:1027900073E0C8010E941508B801CE0145960E9459
:1027A0006307D82EC8010E945B07DD2069F0C401D1
:1027B000990CAA0BBB0B8093120290931302A09367
:1027C0001402B0931502FFCD66E473E0C8010E94C5
:1027D0001508B801CE0145960E946307D82EC8019E
:1027E0000E945B07DD2029F0909211028092100276
:1027F000EACD65E673E0C8010E941508B801CE0174
:1028000045960E946307D82EC8010E945B07DD2011
:1028100029F090920F0280920E02D5CD69E873E004
:10282000C8010E941508B801CE0145960E946307B1
:10283000D82EC8010E945B07D110C5CD60EA73E0B5
:10284000C8010E941508B801CE0145960E94630791
:10285000D82EC8010E945B07DD2029F090920D025E
:1028600080920C02B0CD64EB73E0C8010E941508A1
:10287000B801CE0145960E946307D82EC8010E9478
:102880005B07DD2009F49FCDC401990CAA0BBB0B9B
:102890008093080290930902A0930A02B0930B025E
:1028A00092CD67E972E089E395E00E940B0822CDA2
:1028B00089831A8241E050E0B80189E395E00E94E3
:1028C000C30718CD0E942C0320912E0530912F05AF
:1028D000DB01A21BB30B40912A0250912B024A1735
:1028E0005B0708F0A3C170932F0560932E0588EE57
:1028F00093E090932B0280932A0286E30E94BE020B
:1029000090932D0580932C0587E30E94BE0290933F
:102910002B0580932A0588E30E94BE029093290527
:10292000809328051092100510921105109212053F
:102930001092130588E30E94BE02BC01990F880B18
:10294000990B0E94D21620E030E040EA50E40E9449
:10295000311720E030EC4FE754E40E94761820E075
:1029600030E048E051E40E9476186B017C0124E1DC
:102970003EEA47E85EE30E94801987FD5BC120E0E4
:1029800030E048EC53E42093100530931105409358
:1029900012055093130583E20E9436029093270597
:1029A0008093260582E20E9436029093250580934B
:1029B000240581E20E94360290932305809322052C
:1029C00080E20E94360290932105809320058FE1DA
:1029D0000E94360290931F0580931E058EE10E948F
:1029E000360290931D0580931C0560E080E00E94F4
:1029F0008A0687ED93E00E94440761E080E00E9430
:102A00008A068CEE93E00E94440762E080E00E9418
:102A10008A0680E094E00E94440763E080E00E9420
:102A20008A0685E194E00E94440760E085E00E9408
:102A30008A0680912C0590912D050E94170761E070
:102A400085E00E948A0680912A0590912B050E94BC
:102A5000170762E084E00E948A0680912805909121
:102A600029050E94170762E088E00E948A060E94FA
:102A7000A8080E941707A0911A05B0911B05209184
:102A800026023091270240912802509129020E948B
:102A9000451B6B017C018090F8059090F905A09092
:102AA000FA05B090FB058091F4059091F505A09191
:102AB000F605B091F7058B8F9C8FAD8FBE8F0E946E
:102AC0002C034090160550901705609018057090E3
:102AD00019059B01AC01241935094609570929013B
:102AE0003A01809114059091150563E0009709F073
:102AF000C6C083E00E948A068C0C9D1CAE1CBF1CC5
:102B0000C501B40169517C4F8F4F9F4F64197509FE
:102B10008609970997FF03C060E070E0CB0128EEBB
:102B200033E040E050E00E941E1BBA01A9012AE0F8
:102B300088EE95E00E94CB068091140590911505D2
:102B400063E08430910509F0AAC088E00E948A06FB
:102B50008B8D9C8DAD8DBE8DC80ED91EEA1EFB1EC1
:102B6000C701B60169517C4F8F4F9F4F641975099A
:102B70008609970997FF03C060E070E0CB0128EE5B
:102B800033E040E050E00E941E1BBA01A9012AE098
:102B900088EE95E00E94CB06809114059091150572
:102BA000079741F463E088E00E948A068BE294E094
:102BB0000E94440761E081E10E948A068091260517
:102BC000909127050E94170761E082E10E948A0622
:102BD00080912405909125050E94170761E083E10B
:102BE0000E948A0680912205909123050E94170772
:102BF00063E081E10E948A06809120059091210581
:102C00000E94170763E082E10E948A0680911E05F8
:102C100090911F050E94170763E083E10E948A06D6
:102C200080911C0590911D050E9417070E943D048C
:102C30000C94120D24E13EEA47E85EE3C701B601B9
:102C40000E9409182BE83CEC47E15EEB0E947618E5
:102C50002BE237E846E250E40E940A189B01AC01DF
:102C600060E070E080E291E40E94851960931005B5
:102C70007093110580931205909313058CCE0197E4
:102C800041F483E00E948A0689E294E00E944407AE
:102C900053CF83E00E948A0684ED93E0F7CF059737
:102CA00041F488E00E948A0689E294E00E94440789
:102CB00073CF88E00E948A0684ED93E0F7CF1F93DC
:102CC000FC0199278827BC01E89411911032E9F39F
:102CD000193010F01E30C8F31B3251F01D3249F488
:102CE000689406C00E949116610F711D811D911D8F
:102CF000119110531A30B0F33EF490958095709571
:102D000061957F4F8F4F9F4F1F910895BB274A308A
:102D100031F4992322F4BDE2909581959F4F0C9454
:102D2000A716592F482F372F262F660F771F881F7A
:102D3000991F660F771F881F991F620F731F841FCB
:102D4000951F660F771F881F991F0895BB27FB01EA
:102D50005527AA27880F991FAA1FA41710F0A41B94
:102D600083955051B9F7A05DAA3308F0A95DA193EE
:102D7000009779F7B111B1931192CB010C94C01661
:102D8000DC01FC01672F71917723E1F7329704C0D2
:102D90007C916D9370836291AE17BF07C8F308955D
:102DA000E89409C097FB3EF49095809570956195E5
:102DB0007F4F8F4F9F4F9923A9F0F92F96E9BB279B
:102DC0009395F695879577956795B795F111F8CF17
:102DD000FAF4BB0F11F460FF1BC06F5F7F4F8F4F82
:102DE0009F4F16C0882311F096E911C0772321F078
:102DF0009EE8872F762F05C0662371F096E8862F10
:102E000070E060E02AF09A95660F771F881FDAF766
:102E1000880F9695879597F90895990F0008550F93
:102E2000AA0BE0E8FEEF16161706E807F907C0F050
:102E300012161306E407F50798F0621B730B840B58
:102E4000950B39F40A2661F0232B242B252B21F432
:102E500008950A2609F4A140A6958FEF811D811DD2
:102E600008950E9444170C94B5170E94A71738F0D4
:102E70000E94AE1720F0952311F00C949E170C942D
:102E8000A41711240C94E9170E94C61770F3959F9C
:102E9000C1F3950F50E0551F629FF001729FBB2751
:102EA000F00DB11D639FAA27F00DB11DAA1F649FED
:102EB0006627B00DA11D661F829F2227B00DA11DA0
:102EC000621F739FB00DA11D621F839FA00D611D26
:102ED000221F749F3327A00D611D231F849F600D47
:102EE000211D822F762F6A2F11249F5750409AF070
:102EF000F1F088234AF0EE0FFF1FBB1F661F771FFC
:102F0000881F91505040A9F79E3F510580F00C94C6
:102F10009E170C94E9175F3FE4F3983ED4F386952F
:102F200077956795B795F795E7959F5FC1F7FE2B66
:102F3000880F911D9695879597F9089597F99F6742
:102F400080E870E060E008959FEF80EC0895002431
:102F50000A941616170618060906089500240A94FE
:102F600012161306140605060895092E0394000C84
:102F700011F4882352F0BB0F40F4BF2B11F460FF13
:102F800004C06F5F7F4F8F4F9F4F089557FD90583C
:102F9000440F551F59F05F3F71F04795880F97FB1D
:102FA000991F61F09F3F79F08795089512161306D7
:102FB0001406551FF2CF4695F1DF08C01616170606
:102FC0001806991FF1CF869571056105089408953B
:102FD000E894BB2766277727CB0197F908950E94CD
:102FE000FA17A59F900DB49F900DA49F800D911D81
:102FF00011240895A29FB001B39FC001A39F700D3B
:10300000811D1124911DB29F700D811D1124911DF0
:1030100008955058BB27AA270E9421180C94B51771
:103020000E94A71738F00E94AE1720F039F49F3F96
:1030300019F426F40C94A4170EF4E095E7FB0C9415
:103040009E17E92F0E94C61758F3BA176207730735
:103050008407950720F079F4A6F50C94E8170EF490
:10306000E0950B2EBA2FA02D0B01B90190010C0198
:10307000CA01A0011124FF27591B99F0593F50F4B0
:10308000503E68F11A16F040A22F232F342F442708
:10309000585FF3CF469537952795A795F040539500
:1030A000C9F77EF41F16BA0B620B730B840BBAF0D0
:1030B0009150A1F0FF0FBB1F661F771F881FC2F73B
:1030C0000EC0BA0F621F731F841F48F4879577954F
:1030D0006795B795F7959E3F08F0B0CF9395880F09
:1030E00008F09927EE0F9795879508950E948A1802
:1030F0000C94B5170E94AE1758F00E94A71740F025
:1031000029F45F3F29F00C949E1751110C94E91794
:103110000C94A4170E94C61768F39923B1F35523A2
:1031200091F3951B550BBB27AA27621773078407DA
:1031300038F09F5F5F4F220F331F441FAA1FA9F370
:1031400035D00E2E3AF0E0E832D091505040E6955E
:10315000001CCAF72BD0FE2F29D0660F771F881FBF
:10316000BB1F261737074807AB07B0E809F0BB0BB2
:10317000802DBF01FF2793585F4F3AF09E3F5105C6
:1031800078F00C949E170C94E9175F3FE4F3983E97
:10319000D4F3869577956795B795F7959F5FC9F7AF
:1031A000880F911D9695879597F90895E1E0660F30
:1031B000771F881FBB1F621773078407BA0720F0A9
:1031C000621B730B840BBA0BEE1F88F7E095089512
:1031D0000E94EF186894B1110C94E91708950E94A9
:1031E000CE1788F09F5798F0B92F9927B751B0F0B4
:1031F000E1F0660F771F881F991F1AF0BA95C9F77B
:1032000014C0B13091F00E94E817B1E008950C9419
:10321000E817672F782F8827B85F39F0B93FCCF3CC
:10322000869577956795B395D9F73EF490958095F7
:10323000709561957F4F8F4F9F4F08950E94A717FC
:1032400020F019F00E94AE1750F40C94A4170C94BF
:10325000E917E92F0E94C61788F35523B1F3E7FB5E
:103260006217730784079507A8F189F3E92FFF27F1
:1032700088232AF03197660F771F881FDAF7952F7A
:103280005527442332F091505040220F331F441FE2
:10329000D2F7BB27E91BF50B621B730B840BB1093B
:1032A000B1F222F4620F731F841FB11D31972AF00F
:1032B000660F771F881FBB1FEFCF9150504062F001
:1032C00041F0882332F0660F771F881F91505040DD
:1032D000C1F793950C9472198695779567959F5FC2
:1032E000D9F7F7CF9F3F31F0915020F4879577952C
:1032F0006795B795880F911D9695879597F90895CD
:103300000E940D1708F48FEF0895FA01EE0FFF1FCA
:10331000309621053105A1F16115710561F4803800
:10332000BFE39B0749F168949038810561F08038CC
:10333000BFEF9B0741F099234AF5FF3FE1053105B7
:10334000210519F1E8940894E795D901AA2329F4F5
:10335000AB2FBE2FF85FD0F310C0FF5F70F4A695BF
:10336000E0F7F73950F019F0FF3A38F49F779F9360
:103370000DD00F9007FC9058089546F00C94A417B8
:1033800060E070E080E89FE308954FE79F775F93E8
:103390004F933F932F930E94801A2F913F914F910B
:1033A0005F910E9431170C94DD1929F416F00C94EA
:1033B0009E170C94E8170C94A4170E94CE17A8F33C
:1033C0009638A0F707F80F92E8942BE33AEA48EB17
:1033D0005FE70E9447170F920F920F924DB75EB7AB
:1033E0000F920E94C81AE4EEF0E00E940F1A4F916B
:1033F0005F91EF91FF91E595EE1FFF1F49F0FE579A
:10340000E0684427EE0F441FFA95E1F74195550B0C
:103410000E94421A0F9007FE0C94361A0895DF930B
:10342000CF931F930F93FF92EF92DF927B018C015A
:10343000689406C0DA2EEF010E944417FE01E8945A
:10344000A5912591359145915591A6F3EF010E94E3
:103450002118FE019701A801DA9469F7DF90EF9037
:10346000FF900F911F91CF91DF9108959B01AC01C7
:1034700060E070E080E89FE30C9476180C949E174F
:103480000C9472190E94CE17D8F39923C9F3940FA4
:10349000511DA3F39150504094F059F0882332F01D
:1034A000660F771F881F91505040C1F79E3F51050E
:1034B0002CF7880F911D9695879597F908955F3F92
:1034C000ACF0983E9CF0BB27869577956795B795AD
:1034D00008F4B1609395C1F7BB0F58F711F460FF82
:1034E000E8CF6F5F7F4F8F4F9F4FE3CF0C94E9176B
:1034F00016F00C9472190C94A41768940C949E17EF
:103500000E94CE17A8F39923C1F3AEF3DF93CF93B4
:103510001F930F93FF92C92FDD2788232AF021974D
:10352000660F771F881FDAF720E030E040E85FEB96
:103530009FE3883920F0803E38F021968F770E94F3
:103540000A18ECE0F1E004C00E940A18E9E3F1E097
:103550000E940F1A8B01BE01EC01FB2E6F577109FF
:103560007595771F880B990B0E94D21628E132E7D8
:1035700041E35FE30E944417AF2D9801AE01FF9035
:103580000F911F91CF91DF910E9421180C94B517D4
:10359000FA01DC01AA0FBB1F9B01AC01BF5728F445
:1035A000222733274427507820C0B75190F4AB2FFF
:1035B0000024469537952795011CA395D2F300204A
:1035C00071F0220F331F441FB395DAF30ED00C9421
:1035D000091861307105A0E88A07B94630F49B01EB
:1035E000AC016627772788279078309621F02083D2
:1035F0003183428353830895A1E21A2EAA1BBB1B79
:10360000FD010DC0AA1FBB1FEE1FFF1FA217B307AE
:10361000E407F50720F0A21BB30BE40BF50B661FC4
:10362000771F881F991F1A9469F760957095809588
:1036300090959B01AC01BD01CF010895052E97FB2C
:103640001EF400940E94351B57FD07D00E94FC1AFF
:1036500007FC03D04EF40C94351B509540953095E3
:1036600021953F4F4F4F5F4F0895909580957095EE
:1036700061957F4F8F4F9F4F0895EE0FFF1F881F5B
:103680008BBF0790F691E02D1994B7FF0C94EF17BC
:103690000E94EF17821B930B08950F931F93CF93F4
:1036A000DF938230910510F482E090E0E091FE0516
:1036B000F091FF0530E020E0B0E0A0E0309799F411
:1036C0002115310509F44AC0281B390B2430310576
:1036D000D8F58A819B816115710589F1FB0193837E
:1036E0008283FE0111C040815181028113814817FC
:1036F0005907E0F04817590799F4109761F01296AE
:103700000C93129713961C933296CF01DF91CF91B1
:103710001F910F9108950093FE051093FF05F4CFBC
:103720002115310551F04217530738F0A901DB018B
:103730009A01BD01DF01F801C1CFEF01F9CF9093EC
:10374000FF058093FE05CDCFFE01E20FF31F8193AD
:1037500091932250310939832883D7CF2091FC05DA
:103760003091FD05232B41F4209132023091330238
:103770003093FD052093FC052091300230913102F9
:103780002115310541F42DB73EB7409134025091D7
:103790003502241B350BE091FC05F091FD05E21785
:1037A000F307A0F42E1B3F0B2817390778F0AC0164
:1037B0004E5F5F4F2417350748F04E0F5F1F509341
:1037C000FD054093FC05819391939FCFF0E0E0E0ED
:1037D0009CCFCF93DF930097E9F0FC0132971382DF
:1037E0001282A091FE05B091FF05ED0130E020E0CE
:1037F0001097A1F420813181820F931F2091FC0545
:103800003091FD052817390709F061C0F093FD05D7
:10381000E093FC05DF91CF910895EA01CE17DF0711
:10382000E8F54A815B819E0141155105B1F7E90137
:10383000FB83EA8349915991C40FD51FEC17FD070B
:1038400061F4808191810296840F951FE90199832B
:103850008883828193819B838A83F0E0E0E01296E3
:103860008D919C9113970097B9F52D913C911197EB
:10387000CD010296820F931F2091FC053091FD052A
:103880002817390739F6309751F51092FF05109235
:10389000FE05B093FD05A093FC05BCCFD383C28386
:1038A00040815181840F951FC817D90761F44E5F7D
:1038B0005F4F88819981480F591F518340838A81C6
:1038C0009B81938382832115310509F0B0CFF0935A
:1038D000FF05E093FE059ECFFD01DC01C0CF138202
:1038E0001282D7CF4F925F926F927F928F929F9268
:1038F000AF92BF92CF92DF92EF92FF920F931F93FE
:10390000CF93DF938C01009799F4CB01DF91CF9196
:103910001F910F91FF90EF90DF90CF90BF90AF90ED
:103920009F908F907F906F905F904F900C944D1B65
:10393000FC01E60FF71F9C0122503109E217F30743
:1039400008F4AEC0D901CD91DC911197C617D70705
:1039500020F1C530D10578F0CE010497861797077E
:1039600050F0C61BD70B2297C193D1936D937C93D4
:10397000CF010E94E91BC801DF91CF911F910F91E8
:10398000FF90EF90DF90CF90BF90AF909F908F907F
:103990007F906F905F904F9008955B01AC1ABD0AC5
:1039A0004C018C0E9D1EA091FE05B091FF05512C7F
:1039B000412CF12CE12C109731F58091FC05909170
:1039C000FD058815990509F05CC04616570608F0F4
:1039D00058C08091300290913102009741F48DB728
:1039E0009EB74091340250913502841B950BE81725
:1039F000F90708F055C0F093FD05E093FC05F901C7
:103A000071836083B8CF8D919C91119712966C90C1
:103A1000129713967C901397A815B90559F56C0168
:103A200042E0C40ED11CCA14DB0420F1AC014A19D7
:103A30005B09DA011296159780F0628273825183D6
:103A40004083D9016D937C93E114F10471F0D701A7
:103A50001396FC93EE9312978ECF22968C0F9D1F98
:103A6000F90191838083F301EFCFF093FF05E09399
:103A7000FE0581CF4816590608F42C017D01D301BB
:103A80009ACFCB010E944D1B7C01009749F0AE01FB
:103A9000B8010E945B1DC8010E94E91B87016BCF22
:103AA00010E000E068CF9111089581548A5108F424
:103AB000805E855A0895FB01DC0102C001900D92E1
:103AC00041505040D8F70895FC018191861721F0AC
:103AD0008823D9F7992708953197CF010895FB01DD
:103AE000DC0101900D920020E1F70895F894FFCFDA
:103AF000FFFF0300FFFF0300204E00001027A00F70
:103B0000D007B80B0000581B0000D007B80B060008
:103B10000000F401000064000000E803A00FD007DB
:103B20000000000680000000400014005400000067
:103B30000000D0033A0367031D04980376038A0349
:103B4000000000002B05FE044206D404F704E40440
:103B5000D5040000000084063A0342064106506581
:103B6000646573747269616E312063726F73736917
:103B70006E67005072696F20002053656E736F721C
:103B8000732D433A000D0A00677265656E54696DC6
:103B9000653100677265656E54696D6532007965DF
:103BA0006C6C6F7754696D6500626C696E6B5469FB
:103BB0006D6500746F74616C426C696E6B73496EF5
:103BC0004F7574007065646573747269616E5265D7
:103BD00064756365477265656E54696D6531006C27
:103BE00069676874477265656E32496E63726561B4
:103BF00073655768656E53656E736F72730070728C
:103C0000696F7269747957616974696E6754696D17
:103C1000654F6E4C6967687432007072696F7269C3
:103C2000747957616974696E6754696D654F6E4C3C
:103C30006967687431006C69676874477265656E9E
:103C400031496E6372656173655768656E53656E61
:103C5000736F727300646973706C61795265667218
:103C600065736854696D6541667465724E6F7469F9
:103C70006669636174696F6E00677265656E4C6931
:103C80006768743154696D655768656E4361720089
:103C90007065646573747269616E43726F73735497
:103CA000696D6500636F32477265656E54696D6555
:103CB0003200202020202020202020202020202012
:103CC000202020202020004C445231202020202081
:103CD0002020202020434E59313233004C445232B0
:103CE00020202020202020202020202020202000F4
:103CF000434F322020202020202020202020434E0F
:103D000059343536004C312020204C3220202020E0
:0E3D100020202020202020200030004E4700E0
:00000001FF
