:100000000C949C010C94CD010C94CD010C94CD0169
:100010000C94CD010C94CD010C94CD010C94CD0128
:100020000C94CD010C94CD010C94CD010C94CD0118
:100030000C94CD010C94CD010C94CD010C94CD0108
:100040000C94CD010C94CD010C94CD010C94CD01F8
:100050000C94CD010C94CD010C94CD010C94280985
:100060000C94CD010C949C090C9472090C94CD0154
:100070000C94CD010C94CD010C94CD010C94CD01C8
:100080000C94CD010C94CD010C94CD010C94CD01B8
:100090000C94CD010C94CD010C94CD010C94D2099B
:1000A0000C94CD010C94CD010C94CD010C94CD0198
:1000B0000C94CD010C94CD010C94CD010C94CD0188
:1000C0000C94CD010C94CD010C94CD010C94CD0178
:1000D0000C94CD010C94CD010C94CD010C94CD0168
:1000E0000C94CD0107634236B79BD8A71A396856DE
:1000F00018AEBAAB558C1D3CB7CC5763BD6DEDFD4A
:10010000753EF6177231BF000000803F0800000006
:10011000BE922449123EABAAAA2ABECDCCCC4C3EFC
:1001200000000080BEABAAAAAA3E00000000BF00EB
:100130000000803F0000000000084178D3BB4387E7
:10014000D1133D190E3CC3BD4282AD2B3E68EC82FB
:1001500076BED98FE1A93E4C80EFFFBE01C4FF7F80
:100160003F00000000000C94D4040C94D70D0C94B4
:10017000FE040C94B00D0C941D040C945F120C94AE
:10018000B8120C9424020C943A030C941A020C94A6
:100190001E0D0C94E1120C9442060C9439030C943D
:1001A00032020C94F60A0C9420020C94ED010C948B
:1001B00038030C9467030C9484060C9476030C9417
:1001C00031120C9402020C94F3010C942E020C9444
:1001D00028020C942D020C94D0030C94F7040C9478
:1001E000E4040C9416020C94FB010C94D5040C94BA
:1001F00008020C94F7010C94FF010C940C020C946F
:1002000098030C94590D0C9441060C9412020C9412
:100210008A030C942B0500002100240027002A00EB
:100220002D003000330001010000040107010A0124
:1002300000002200250028002B002E003100340091
:1002400002010000050108010B010000200023004D
:10025000260029002C002F003200000100000301BD
:100260000601090105050505070508080808020239
:1002700002020A0A08080404040401010101010140
:1002800001010303030303030303040707070C0C23
:100290000C0C0C0C0C0C02020202060606060606EA
:1002A00006060B0B0B0B0B0B0B0B0102102020088F
:1002B00008102040102040800201020108040201C1
:1002C0000102040810204080804020100804020130
:1002D0008004020180402010080402010804020189
:1002E0000102040810204080010204081020408010
:1002F00000000A0B02090C0D0E08070304010000A0
:1003000000000000000000000000000000000000ED
:1003100000000000000000000000000012111000AA
:1003200000000000000000000000000000000000CD
:10033000000000000000F60A11241FBECFEFD1E23A
:10034000DEBFCDBF00E00CBF26E0A0E4B4E001C0FA
:100350001D92A231B207E1F714E0A0E0B2E0E4ECB4
:10036000FAE300E00BBF02C007900D92A034B10782
:10037000D9F711E0CCE9D1E000E006C021970109EE
:10038000802FFE010E94271BCB39D10780E0080790
:10039000A9F70E945E0B0C94601D0C940000815024
:1003A000823108F05AC0E82FF0E08827E552FE4F6E
:1003B0008F4F0C94271BFB01FF01ED01F301F701A7
:1003C0002D02020208020C02120216021A02200278
:1003D00024022D0228022E023202809180008F77A3
:1003E000809380000895809180008F7DF9CF809167
:1003F0008000877FF5CF84B58F7784BD089584B55D
:100400008F7DFBCF8091B0008F778093B0000895EF
:100410008091B0008F7DF9CF809190008F7780938D
:1004200090000895809190008F7DF9CF8091900089
:10043000877FF5CF8091A0008F778093A0000895EB
:100440008091A0008F7DF9CF8091A000877FF5CFAC
:10045000809120018F778093200108958091200161
:100460008F7DF9CF80912001877FF5CFCF93DF93E8
:10047000282F30E0F901E051FD4F8491F901E65554
:10048000FD4FD491F901EC59FD4FC491CC23A1F05B
:1004900081110E94CF01EC2FF0E0EE0FFF1FE65B11
:1004A000FD4FA591B491EC91ED2381E090E009F42A
:1004B00080E0DF91CF91089580E090E0FACF1F9324
:1004C000CF93DF93282F30E0F901E051FD4F849165
:1004D000F901E655FD4FD491F901EC59FD4FC49156
:1004E000CC23A9F0162F81110E94CF01EC2FF0E050
:1004F000EE0FFF1FE05DFD4FA591B4918FB7F8940B
:10050000EC91111108C0D095DE23DC938FBFDF91F1
:10051000CF911F910895DE2BF8CFCF93DF9390E01A
:10052000FC01E655FD4F24918C599D4FFC018491AF
:100530008823D1F090E0880F991FFC01EA5EFD4FFF
:10054000A591B491FC01E05DFD4FC591D49161117D
:100550000EC09FB7F8948C91E22FE0958E238C9378
:100560002881E223E8839FBFDF91CF9108958FB761
:10057000F894EC91E22BEC938FBFF6CF90917B0037
:10058000977F90937B008653806480937C0080915A
:100590007A00806480937A0080917A0086FDFCCF97
:1005A000809178009091790008953FB7F8948091F8
:1005B000470590914805A0914905B0914A0526B597
:1005C000A89B05C02F3F19F00196A11DB11D3FBF8B
:1005D000BA2FA92F982F8827BC01CD01620F711D5A
:1005E000811D911D42E0660F771F881F991F4A9554
:1005F000D1F708958F929F92AF92BF92CF92DF92E0
:10060000EF92FF924B015C010E94D5026B017C01CD
:100610000E94D5026C197D098E099F09683E7340BE
:1006200081059105A8F321E0821A9108A108B1087B
:1006300088EEC80E83E0D81EE11CF11C81149104E1
:10064000A104B10429F7FF90EF90DF90CF90BF9005
:10065000AF909F908F9008952FB7F89460914305C5
:100660007091440580914505909146052FBF0895EE
:1006700008950895AF92BF92CF92DF92EF92FF92CA
:100680000F931F93CF93DF936C017B018B01040FBA
:10069000151FEB015E01AE18BF08C017D10759F056
:1006A0006991D601ED91FC910190F081E02DC60198
:1006B0001995892B79F7C501DF91CF911F910F9182
:1006C000FF90EF90DF90CF90BF90AF900895FC0126
:1006D000538D448D252F30E0842F90E0821B930BA7
:1006E000541710F0CF96089501970895FC01918D4D
:1006F000828D981761F0A28DAE0FBF2FB11D5D9650
:100700008C91928D9F5F9F73928F90E008958FEFF1
:100710009FEF0895FC01918D828D981731F0828DA5
:10072000E80FF11D858D90E008958FEF9FEF0895FC
:10073000FC01918D228D892F90E0805C9F4F821B60
:1007400091098F739927089581E595E00E94980398
:1007500021E0892B09F420E0822F0895FC01A48D6B
:10076000A80FB92FB11DA35ABF4F2C91848D90E0D3
:1007700001968F739927848FA689B7892C93A089B6
:10078000B1898C91837080648C93938D848D981340
:1007900006C00288F389E02D80818F7D80830895D3
:1007A000EF92FF920F931F93CF93DF93EC0181E0C1
:1007B000888F9B8D8C8D98131AC0E889F989808168
:1007C00085FF15C09FB7F894EE89FF896083E8899B
:1007D000F98980818370806480839FBF81E090E08D
:1007E000DF91CF911F910F91FF90EF900895F62E1A
:1007F0000B8D10E00F5F1F4F0F731127E02E8C8DB4
:100800008E110CC00FB607FCFACFE889F9898081F8
:1008100085FFF5CFCE010E94AE03F1CFEB8DEC0F3B
:10082000FD2FF11DE35AFF4FF0829FB7F8940B8F15
:10083000EA89FB8980818062CFCFCF93DF93EC017F
:10084000888D8823B9F0AA89BB89E889F9898C91B8
:1008500085FD03C0808186FD0DC00FB607FCF7CF74
:100860008C9185FFF2CF808185FFEDCFCE010E9474
:10087000AE03E9CFDF91CF91089580E090E0892B1E
:1008800029F00E94A40381110E94000080E090E002
:10089000892B49F080E090E0892B29F00E9400002C
:1008A00081110E94000080E090E0892B49F080E0F7
:1008B00090E0892B29F00E94000081110E94000025
:1008C00080E090E0892B49F080E090E0892B29F0CE
:1008D0000E94000081110C94000008952091A8044A
:1008E000260F3327331F21323105ECF42091CC043D
:1008F000FC0190E080E0243069F082E00895A0914E
:10090000A8042191AC0148575B4FA40FB52FB11D2E
:100910002C930196861798F38091A804680F609332
:10092000A80480E0089581E008951092CC0481E04D
:100930008093CE041092CD0461E084E10E945F02B6
:1009400061E085E10E945F02E9EBF0E080818E7F4B
:10095000808380818D7F808388E48093B80085E4E4
:100960008093BC000895CF93DF9391E09093870428
:100970008823B9F0C091B800D091BA008091BC0032
:100980008A7B8093BC0060E084E10E945F0260E0AB
:1009900085E10E945F020E949504D093BA00C09343
:1009A000B800DF91CF9108950895E091F904809106
:1009B000F804E81730F4F0E0EE59FB4F808190E046
:1009C00008958FEF9FEF08959091F9048091F804B6
:1009D0002FEF3FEF981748F4E92FF0E0EE59FB4F67
:1009E000208130E09F5F9093F904C90108958091C0
:1009F000F8049091F904891B990B0895CF92DF9226
:100A0000EF92FF920F931F93CF93DF937C01CB0163
:100A10008A0120916104222389F0EB016B01C40E4D
:100A2000D51ECC15DD0569F06991D701ED91FC91DA
:100A30000190F081E02DC7011995F3CF642F0E943A
:100A40006E04C801DF91CF911F910F91FF90EF903D
:100A5000DF90CF900895CF93DF931F92CDB7DEB78D
:100A60006983209161042223F9F02091F604203259
:100A700058F021E030E0FC013383228390E080E0F5
:100A80000F90DF91CF9108958091F704E82FF0E067
:100A9000EF5BFB4F998190838F5F8093F704809386
:100AA000F60481E090E0ECCF61E0CE0101960E9477
:100AB0006E04F7CFCF92DF92EF92FF920F931F93C6
:100AC000CF93DF93FC01C48121E020936104C093A4
:100AD00040041092F7041092F6048385682B8EEE82
:100AE00095E00E942B05D091F604D13208F092C017
:100AF0000E94D5026B017C018091CC04811165C0FC
:100B000082E08093CC0481E08093CE048FEF8093C9
:100B1000CB041092F004D093EF04A1E4B4E0EFEC26
:100B2000F4E080E0D81385C01092F1048091F104C4
:100B3000CC0FC82BC093F1048091CD04813009F013
:100B40007CC01092CD040E94D5026B017C01809183
:100B5000F1048093BB008091830490918404A09160
:100B60008504B0918604892B8A2B8B2B99F00E94E7
:100B7000D502009183041091840420918504309162
:100B800086046C197D098E099F0906171707280727
:100B90003907E0F18091BC0083FDD9CF85EC8093CB
:100BA000BC000E94D5026B017C018091CC04823094
:100BB00009F445C08091CB048F3F61F18091CB0453
:100BC000803241F18091CB0425C0809183049091C3
:100BD0008404A0918504B0918604892B8A2B8B2BE9
:100BE00009F48ACF0E94D5020091830410918404F5
:100BF00020918504309186046C197D098E099F0926
:100C0000061717072807390708F076CF8091820466
:100C10000E94B3041092F7041092F604109261043B
:100C2000DF91CF911F910F91FF90EF90DF90CF90C8
:100C300008959D9191938F5F75CF85EEB0CF809190
:100C4000830490918404A0918504B0918604892B3B
:100C50008A2B8B2B09F4A9CF0E94D5020091830423
:100C60001091840420918504309186046C197D09CB
:100C70008E099F09061717072807390708F095CF2F
:100C8000C5CF089590E080E008950E942C037093F2
:100C900041056093400580910E0290910F02909360
:100CA0002B0280932A0208950F931F93CF938C01F8
:100CB000C62F0E945A056C2F6460C8010E945A0515
:100CC0006C2F6B7FC8010E945A0583EC90E001975E
:100CD000F1F7CF911F910F9108950F931F93CF9329
:100CE000DF938C01D62FC42F607F642B0E945406A3
:100CF00080E1D89FB00111246C2BC801DF91CF9106
:100D00001F910F910C94540641E00E946D0681E002
:100D100090E00895CF93DF9300D000D01F921F92F0
:100D2000CDB7DEB798E0E6E3F2E0DE011196019080
:100D30000D929A95E1F790910206961710F46FEFD5
:100D4000690F262F30E0220F331F41E050E04C0F97
:100D50005D1F240F351FF9016081680F606840E056
:100D60008AEF95E028960FB6F894DEBF0FBECDBF90
:100D7000DF91CF910C946D06FB0101900020E9F703
:100D80003197AF01461B570BDC01ED91FC910280BE
:100D9000F381E02D19948F929F92AF92BF920F939F
:100DA0001F93CF93DF93CDB7DEB7A1970FB6F8941B
:100DB000DEBF0FBECDBF19A2423008F44AE08E015B
:100DC0000F5D1F4F842E912CB12CA12CA5019401F5
:100DD0000E94E61AE62FB901CA01EA3004F5E05D87
:100DE000D801EE938D01232B242B252B79F790E04E
:100DF00080E0109729F0BD018AEF95E00E94BC06C3
:100E0000A1960FB6F894DEBF0FBECDBFDF91CF9194
:100E10001F910F91BF90AF909F908F900895E95CC4
:100E2000DFCFCF92DF92EF92FF926C01990FEE0825
:100E3000FF08F7FE16C041E06DE28AEF95E00E94E0
:100E40006D0666277727CB016C197D098E099F09EE
:100E50004AE00E94CB060196FF90EF90DF90CF9082
:100E600008954AE0C701B601FF90EF90DF90CF9060
:100E70000C94CB06BC018AEF95E00C94BC06CF9392
:100E8000DF93EC0188819981009711F00E94D31BB8
:100E9000198218821D821C821B821A82DF91CF91D7
:100EA0000895FC0180819181009711F00C94D31B6F
:100EB0000895EF92FF920F931F93CF93DF938617BE
:100EC000970769F1FC0124813581FB01448155813B
:100ED00024173507E1F4232B11F1FC010081118166
:100EE000FB01C081D181F80181918F018823B9F084
:100EF000082E000C990B0E943D1D7C018991082E43
:100F0000000C990B0E943D1DE816F90661F380E084
:100F1000DF91CF911F910F91FF90EF90089581E0A5
:100F2000F7CF0F931F93CF93DF93EC0188819981C3
:100F3000009759F02A813B812617370730F081E06E
:100F4000DF91CF911F910F9108958B016F5F7F4FBC
:100F50000E945C1C009759F0998388831B830A8345
:100F60002C813D81232B59F7FC011082E8CF80E0D2
:100F7000E7CFEF92FF920F931F93CF93DF9341152B
:100F80005105B1F07B01EC010C811D81040F151F8F
:100F9000B8010E949107882361F0288139818C81F2
:100FA0009D81B701820F931F0E94591D1D830C83E1
:100FB00081E0DF91CF911F910F91FF90EF90089505
:100FC000EF92FF920F931F93CF93DF93EC017B017E
:100FD0008A01BA010E94910781110BC0CE010E94C3
:100FE0003F07CE01DF91CF911F910F91FF90EF90BE
:100FF00008951D830C83B701888199810E94591D32
:10100000F0CFFB0101900020E9F73197AF01461BBB
:10101000570B0C94E007FC0111821082138212829C
:1010200015821482FB0101900020E9F73197AF018E
:10103000461B570B0C94E007CF92DF92EF92FF9282
:101040000F931F93CF93DF936C017B018A014617A7
:10105000570720F48F2D7A01062F182F6BEB72E0C3
:10106000C6010E940B08C0914F05D0915005EC16A7
:10107000FD06F8F40C171D0708F4E801E0914B0594
:10108000F0914C05EC0FFD1F1081108260914B0513
:1010900070914C056E0D7F1DC6016115710599F0AB
:1010A0000E94010880914B0590914C05C80FD91FF3
:1010B0001883C601DF91CF911F910F91FF90EF90A0
:1010C000DF90CF9008950E943F07ECCF85ED80938D
:1010D000BC008091830490918404A0918504B09118
:1010E00086040796A11DB11D23E0B695A795979597
:1010F00087952A95D1F72091BC0024FD03C010925A
:10110000CC04089540918304509184046091850437
:1011100070918604452B462B472B69F30097A10558
:10112000B10541F02AE22A95F1F700C00197A10923
:10113000B109E1CF809182040C94B304CF92DF9285
:10114000EF92FF921092220510922305109224052F
:101150001092250588E30E94BE02BC01990F880BFE
:10116000990B0E94BC1620E030E040EA50E40E9457
:101170001B1720E030EC4FE754E40E94601820E099
:1011800030E048E051E40E9460186B017C0124E1EA
:101190003EEA47E85EE30E946A1987FD34C080E0BA
:1011A00090E0A8ECB3E48093220590932305A093EC
:1011B0002405B09325056091080270910902809181
:1011C0000A0290910B020E94BA166B017C012091D9
:1011D00022053091230540912405509125050E9458
:1011E0001B1720E030E44CE156E40E946018A70190
:1011F00096010E9413190E94D218CB01FF90EF9024
:10120000DF90CF90089524E13EEA47E85EE3C7010E
:10121000B6010E94F3172BE83CEC47E15EEB0E941D
:1012200060182BE237E846E250E40E94F4179B0175
:10123000AC0160E070E080E291E40E946F1960937D
:101240002205709323058093240590932505B3CF41
:101250001F920F920FB60F9211242F933F938F93EB
:101260009F93AF93BF938091430590914405A091C4
:101270004505B09146053091420523E0230F2D37F7
:1012800058F50196A11DB11D209342058093430599
:1012900090934405A0934505B0934605809147057A
:1012A00090914805A0914905B0914A050196A11D6C
:1012B000B11D8093470590934805A0934905B093CD
:1012C0004A05BF91AF919F918F913F912F910F90C0
:1012D0000FBE0F901F90189526E8230F0296A11DB0
:1012E000B11DD2CF1F920F920FB60F9211240BB6E1
:1012F0000F922F933F934F935F936F937F938F93AF
:101300009F93AF93BF93EF93FF9381E595E00E9486
:10131000AE03FF91EF91BF91AF919F918F917F911C
:101320006F915F914F913F912F910F900BBE0F9056
:101330000FBE0F901F9018951F920F920FB60F922D
:1013400011240BB60F922F938F939F93EF93FF93DC
:10135000E0916105F09162058081E0916705F0916F
:10136000680582FD1DC0908180916A058F5F8F7333
:1013700020916B05821741F0E0916A05F0E0EF5A89
:10138000FA4F958F80936A05FF91EF919F918F910E
:101390002F910F900BBE0F900FBE0F901F901895BE
:1013A0008081F2CF1F920F920FB60F9211240BB6CD
:1013B0000F922F933F934F935F936F937F938F93EE
:1013C0009F93AF93BF93EF93FF938091B900887F72
:1013D000803609F44DC008F040C0883209F4A9C035
:1013E00028F5803109F49DC0C8F4882309F4FBC0B6
:1013F000883009F496C0FF91EF91BF91AF919F9112
:101400008F917F916F915F914F913F912F910F90AD
:101410000BBE0F900FBE0F901F901895883109F4E6
:1014200088C0803241F78093CB0414C0803409F423
:101430009DC040F48033B9F38833E9F68093CB0440
:1014400085ECB0C0803509F485C0883509F496C0B4
:10145000883489F60E946608CECF883909F48CC09A
:1014600038F5883729F050F4883611F0803719F6AE
:1014700083E08093CC041092CA0457C0883809F4E2
:101480007BC0803919F0803809F0B5CF8091CA044B
:10149000803208F071C0E091CA0481E08E0F809321
:1014A000CA048091BB00F0E0E655FB4F80833DC04D
:1014B000803B39F0E0F4803A09F479C0883A09F0C9
:1014C0009ACF84E08093CC041092A9041092A804CF
:1014D000E091F404F091F50419958091A80481112C
:1014E0000FC081E08093A8041092880409C0803C5A
:1014F00009F4A6CF883C09F4A3CF883B09F07BCF41
:10150000E091A90481E08E0F8093A904F0E0E857F0
:10151000FB4F80818093BB009091A9048091A80427
:1015200029C08091F1048093BB0085EC8093BC00BE
:1015300062CF9091F0048091EF04981758F5E091F4
:10154000F00481E08E0F8093F004F0E0E153FB4F54
:101550008081E9CFE091F00481E08E0F8093F00468
:101560008091BB00F0E0E153FB4F80839091F00449
:101570008091EF049817C8F285E8D8CFE091F00485
:1015800081E08E0F8093F0048091BB00F0E0E15386
:10159000FB4F80838091CE0481115CCF81E08093EA
:1015A000CD0484EA8093BC001092CC0424CF85EC57
:1015B0008093BC001092CC048091CA04803230F435
:1015C000E091CA04F0E0E655FB4F10826091CA0436
:1015D00070E0E091F204F091F3048AEA94E0199546
:1015E0001092CA0408CF1092CB0434CFE1E5F5E0A5
:1015F0001382128288EE93E0A0E0B0E084839583AA
:10160000A683B78322E432E03183208325EC30E0E7
:101610003587248724EC30E03787268720EC30E0BC
:10162000318B208B21EC30E0338B228B22EC30E0AD
:10163000358B248B26EC30E0378B268B118E128E67
:10164000138E148EEEEEF5E013821282848395835E
:10165000A683B78384E592E09183808380912E02F4
:1016600090912F02092E000CAA0BBB0B80930A0647
:1016700090930B06A0930C06B0930D0680912C025C
:1016800090912D02092E000CAA0BBB0B809306062D
:1016900090930706A0930806B0930906EAEFF5E0D9
:1016A0001382128286E692E09183808387E28483AC
:1016B00084E1818784E0828713860895CF93DF9346
:1016C000CDB7DEB76E970FB6F894DEBF0FBECDBFB5
:1016D000789484B5826084BD84B5816084BD85B50D
:1016E000826085BD85B5816085BD80916E00816019
:1016F00080936E00109281008091810082608093BF
:1017000081008091810081608093810080918000C0
:101710008160809380008091B10084608093B100EB
:101720008091B00081608093B000809191008260D0
:1017300080939100809191008160809391008091CD
:1017400090008160809390008091A10082608093DE
:10175000A1008091A10081608093A1008091A000F0
:1017600081608093A000809121018260809321019B
:10177000809121018160809321018091200181600D
:101780008093200180917A00846080937A00809118
:101790007A00826080937A0080917A0081608093E1
:1017A0007A0080917A00806880937A001092C1005C
:1017B0000E942C036B017C0161E086E10E948D0296
:1017C00061E087E10E948D0261E088E10E948D0264
:1017D00061E089E10E948D0261E08AE10E948D0250
:1017E00061E08BE10E948D0260E085E20E948D0243
:1017F00060E083E20E948D0260E082E20E948D023E
:1018000060E081E20E948D0260E080E20E948D0231
:1018100060E08FE10E948D0260E08EE10E948D0207
:1018200060E086E30E948D0260E087E30E948D0203
:1018300060E088E30E948D021092F9041092F8048F
:101840001092F7041092F6040E94950488E393E046
:101850009093F5048093F40489E393E09093F30468
:101860008093F2041092FF0580910406823018F0F4
:1018700098E09093FF058093020662E370E080E0B9
:1018800090E00E94FA02609105068AEF95E00E94BE
:101890005A0568EE73E080E090E00E94FA0260E38F
:1018A0008AEF95E00E9454060BE416E4C801019704
:1018B000F1F760E38AEF95E00E945406C8010197B2
:1018C000F1F760E38AEF95E00E94540683E592E029
:1018D0000197F1F760E28AEF95E00E94540660916B
:1018E000FF05606240E08AEF95E00E946D0684E0AB
:1018F0008093000640E06CE08AEF95E00E946D0660
:1019000040E061E08AEF95E00E946D060BE31FE185
:10191000C8010197F1F782E0B82EB092010640E0CD
:1019200066E08AEF95E00E946D0640E062E08AEF93
:1019300095E00E946D06C8010197F1F788E0809359
:10194000050660E08AEF95E00E945A05C0922805DE
:10195000D0922905E0922A05F0922B05E0916105CD
:10196000F0916205B082E0915D05F0915E05108214
:10197000E0915F05F09160058FEC8083109269051E
:10198000E0916505F091660586E08083E09163054E
:10199000F0916405808180618083E0916305F0911E
:1019A0006405808188608083E0916305F09164051F
:1019B000808180688083E0916305F0916405808177
:1019C0008F7D8083C0921605D0921705E09218058E
:1019D000F092190510920F051092140510920A0545
:1019E00010920B0510920C0510920D05C092100577
:1019F000D0921105E0921205F0921305D0924105A4
:101A0000C092400594E0292E312C8E010F5F1F4FAC
:101A1000E0912605F0912705E830F10508F004C1B2
:101A20008827EA5EF24F8F4F0C94271B1E0D590D2D
:101A3000B00DD70D31125F12B812E11261E088E1EA
:101A40000E945F0261E089E10E945F0260E08AE13A
:101A50000E945F0260E086E10E945F0260E087E131
:101A60000E945F0260E08BE10E945F020E942C03F3
:101A7000C0902805D0902905E0902A05F0902B050C
:101A80006C197D098E099F09C0900A06D0900B063B
:101A9000E0900C06F0900D066C157D058E059F05F7
:101AA00008F4C2C081E090E090932705809326055A
:101AB000B1C00E942C03C0902805D0902905E09069
:101AC0002A05F0902B056C197D098E099F09C0909D
:101AD0002602D0902702E0902802F0902902C61634
:101AE000D706E806F906F8F4E0902C05F0902D05ED
:101AF00088E10E94360261E0892B09F060E088E10C
:101B00000E945F022FEFE21AF20AF0922D05E09296
:101B10002C050E942C03609328057093290580935F
:101B20002A0590932B0580912C0590912D05092E67
:101B3000000CAA0BBB0B40911E0250911F0260913A
:101B4000200270912102481759076A077B070CF0A1
:101B50006BC010922D0510922C0582E090E0A4CF6E
:101B600061E087E10E945F0260E088E10E945F021D
:101B70000E942C03C0902805D0902905E0902A05EA
:101B8000F0902B056C197D098E099F09C0902202E7
:101B9000D0902302E0902402F0902502C616D706CA
:101BA000E806F90608F040C083E090E07DCF61E0F0
:101BB00086E10E945F0260E087E10E945F0261E0CF
:101BC0008AE10E945F0260E08BE10E945F0260E0B8
:101BD00089E10E945F020E942C03C0902805D090EA
:101BE0002905E0902A05F0902B056C197D098E09D6
:101BF0009F09C0902202D0902302E0902402F0902E
:101C00002502C616D706E806F90670F430922705B5
:101C1000209226050E942C036093280570932905C5
:101C200080932A0590932B0585E20E94360220912D
:101C3000FF04211135C0019799F581E08093FE04DE
:101C400080931505C0902805D0902905E0902A05BD
:101C5000F0902B050E942C0320911C0230911D0254
:101C600080900A0690900B06A0900C06B0900D068E
:101C7000C80CD91CEA1CFB1CC61AD70AE80AF90AC8
:101C8000C901B0E0A0E08C159D05AE05BF0568F464
:101C900080930A0690930B06A0930C06B0930D0652
:101CA0008091FE04882309F43FC08091260590911D
:101CB0002705892BC9F50E942C036093FA047093C1
:101CC000FB048093FC049093FD0481E08093FF0467
:101CD000409106065091070660910806709109062A
:101CE00050932D0240932C0280910C0290910D0292
:101CF000092E000CAA0BBB0B840F951FA61FB71F44
:101D00008093060690930706A0930806B0930906F1
:101D10001092FE0460E080E00E948A068EE692E067
:101D20000E943A070E9445068091FF04882309F427
:101D300061C00E942C03C090FA04D090FB04E09094
:101D4000FC04F090FD049B01AC012C193D094E09E7
:101D50005F0969017A01A0912C05B0912D052091B0
:101D600026023091270240912802509129020E94B8
:101D70002F1B8090060690900706A0900806B09052
:101D80000906680D791D8A1D9B1D80902202909086
:101D90002302A0902402B0902502860E971EA81E52
:101DA000B91E8C149D04AE04BF0420F51092FF04EC
:101DB00080912C0290912D02092E000CAA0BBB0BD6
:101DC0008093060690930706A0930806B093090631
:101DD00080912E0290912F02092E000CAA0BBB0BB2
:101DE00080930A0690930B06A0930C06B0930D0601
:101DF000109215050E942C034B015C018091100587
:101E000090911105A0911205B0911305A5019401BF
:101E1000281B390B4A0B5B0BDA01C9010B97A10593
:101E2000B10508F461C08091150581115DC0709005
:101E300006058092100590921105A0921205B092AD
:101E4000130583E20E9436027C019093390580934A
:101E5000380582E20E9436026C0190933705809328
:101E6000360581E20E943602909335058093340551
:101E7000EC0CFD1CE80EF91E83E090E08E199F0922
:101E8000181619068CF52091070521112DC0711027
:101E900030C0409102055091030560910405709196
:101EA000050575016401C41AD50AE60AF70A4091CE
:101EB00012025091130260911402709115024C1598
:101EC0005D056E057F0508F062C01092140521E0E3
:101ED0002093060590930105809300052093150536
:101EE000909303028093020280910605882309F4EF
:101EF0004EC08091260590912705892B09F047C097
:101F000081E0809307051092060540910A065091E2
:101F10000B0660910C0670910D0650932F024093B2
:101F20002E028091100290911102092E000CAA0B32
:101F3000BB0B840F951FA61FB71F80930A069093B3
:101F40000B06A0930C06B0930D0661E080E00E94A2
:101F50008A0683E892E00E943A0761E080E00E94EE
:101F60008A0688E992E00E943A07809100059091E4
:101F700001050E9411078EE992E00E943A078091C4
:101F80000202909103020E9411070E944506C09030
:101F90002605D090270580910705882389F1809137
:101FA000000290910102892B59F5C114D10441F12D
:101FB0008091020290910302019790930302809313
:101FC000020218161906E4F0109207051092150582
:101FD0008092020590920305A0920405B092050537
:101FE00080912E0290912F02092E000CAA0BBB0BA0
:101FF00080930A0690930B06A0930C06B0930D06EF
:10200000D0920102C09200020E942C032B013C01DD
:102010008091100590911105A0911205B0911305C2
:10202000A3019201281B390B4A0B5B0BDA01C90192
:102030000B97A105B10508F45FC0809115058111CA
:102040005BC090900E054092100550921105609271
:1020500012057092130580E20E9436027C01909373
:102060003305809332058FE10E9436025C01909324
:102070003105809330058EE10E94360290932F0542
:1020800080932E05EA0CFB1CE80EF91E83E090E01D
:102090008E199F09181619067CF520910F0521113C
:1020A0002BC091102EC040910A0550910B056091F4
:1020B0000C0570910D0553014201841A950AA60A78
:1020C000B70A409116025091170260911802709160
:1020D0001902481559056A057B0508F06CC021E016
:1020E00020930E059093090580930805209315050C
:1020F000909307028093060280910E05882309F4CD
:102100005AC034E0C316D10409F055C081E0809371
:102110000F0510920E058091060690910706A0917A
:102120000806B091090690932D0280932C02C0906E
:102130001A02D0901B020D2C000CEE08FF08C80EEE
:10214000D91EEA1EFB1E0E949E08092E000CAA0B37
:10215000BB0B8C0D9D1DAE1DBF1D8093060690937D
:102160000706A0930806B09309066AEA72E081E5C3
:1021700095E00E94BC0669EB72E081E595E00E9463
:10218000BC0661E080E00E948A0688E992E00E9435
:102190003A0780910805909109050E9411078EE980
:1021A00092E00E943A0780910602909107020E94F5
:1021B00011070E9445062091260530912705809140
:1021C000040290910502049721F481E02430310546
:1021D00009F480E090910F05992351F1882341F192
:1021E00080910602909107020197909307028093D5
:1021F000060218161906E4F010920F051092150544
:1022000040920A0550920B0560920C0570920D05E4
:1022100080912C0290912D02092E000CAA0BBB0B71
:102220008093060690930706A0930806B0930906CC
:1022300030930502209304020E942C03C0901605DF
:10224000D0901705E0901805F09019059B01AC019E
:102250002C193D094E095F0969017A0131EDC31658
:1022600037E0D306E104F10430F120911505211186
:1022700022C06093160570931705809318059093FC
:10228000190587E30E94BE027C0190933D0580936F
:102290003C0586E30E94BE0290933F0580933E0575
:1022A0004CE3E416F1040CF09DC1CC970CF09AC1FC
:1022B00081E08093140580911A05811109C06BEBB0
:1022C00072E08BE495E00E940B0881E080931A0590
:1022D00081E595E00E949803181619060CF0E0C2FB
:1022E00081E595E00E9476038A3009F0CFC28091A3
:1022F0004F0590915005892B09F4C1C2C0904B0540
:10230000D0904C056AE370E0C6010E944E1D009714
:1023100009F4B5C27C01EC18FD085FEFE516F5067F
:1023200009F4ADC2A70170E060E0CE0145960E94BD
:102330001C0840914F0550915005B7016F5F7F4FCA
:10234000CE010F960E941C088F859889812C912CB4
:102350005401009719F00E9449164B0174016CEB6F
:1023600072E0C8010E940B08B801CE0145960E9498
:102370005907D82EC8010E945107DD2009F435C144
:10238000C401092C000CAA0BBB0B80930A06909386
:102390000B06A0930C06B0930D0690922F0280922C
:1023A0002E0263E080E00E948A0683E892E00E94A9
:1023B0003A0763E080E00E948A061A8619861C8626
:1023C0001B861E861D866D897E896115710531F01B
:1023D000498D5A8DCE0109960E94E00741E050E0F8
:1023E00068EA72E0CE0109960E94B907811104C023
:1023F000CE0109960E943F074AE0B801C7010E943A
:102400007016F80101900020E9F73197AF01401BE9
:10241000510BB801CE0109960E94B907811104C081
:10242000CE0109960E943F074D855E8569857A85B4
:102430008AEF95E00E943A03CE0109960E94510767
:102440000E9445066BEB72E08BE495E00E94010868
:10245000CE010F960E945107CE0145960E9451076A
:1024600037CF60E08AE10E945F0261E08BE10E9469
:102470005F020E942C03C0902805D0902905E090AF
:102480002A05F0902B056C197D098E099F09C090D3
:102490000606D0900706E0900806F0900906C616DA
:1024A000D706E806F90608F0BFCB8091140588230B
:1024B00019F087E090E0F8CA85E090E0F5CA0E9444
:1024C0002C03C0902805D0902905E0902A05F090B3
:1024D0002B056C197D098E099F09C0902602D090AA
:1024E0002702E0902802F0902902C616D706E806D7
:1024F000F906E8F480912C0590912D0501969093B2
:102500002D0580932C050E942C0360932805709361
:10251000290580932A0590932B058BE10E943602B2
:1025200061E0892B09F060E08BE10E945F028091FD
:102530002C0590912D05092E000CAA0BBB0B409188
:102540001E0250911F0260912002709121024817D3
:1025500059076A077B070CF067CB10922D05109284
:102560002C0546E050E0509327054093260552CBBA
:1025700060E08BE10E945F0261E08AE10E945F02FD
:102580000E942C03C0902805D0902905E0902A05D0
:10259000F0902B056C197D098E099F09C0902202CD
:1025A000D0902302E0902402F0902502C616D706B0
:1025B000E806F90608F038CB109227051092260598
:1025C00029CB61E08BE10E945F0261E086E10E941D
:1025D0005F0280911405811127CB3092270520924C
:1025E000260522CB1092140566CE67EC72E0C80176
:1025F0000E940B08B801CE0145960E945907D82EBB
:10260000C8010E945107DD2091F0C401092C000C83
:10261000AA0BBB0B8093060690930706A0930806AF
:10262000B093090690922D0280922C02BACE62EDF0
:1026300072E0C8010E940B08B801CE0145960E94C5
:102640005907D82EC8010E945107DD2069F0C40146
:10265000990CAA0BBB0B8093220290932302A093A8
:102660002402B09325029DCE6DED72E0C8010E9458
:102670000B08B801CE0145960E945907D82EC80113
:102680000E945107DD2069F0C401990CAA0BBB0B15
:102690008093260290932702A0932802B0932902E8
:1026A00080CE67EE72E0C8010E940B08B801CE012F
:1026B00045960E945907D82EC8010E945107DD2077
:1026C00069F0C401990CAA0BBB0B80931E02909376
:1026D0001F02A0932002B093210263CE68EF72E044
:1026E000C8010E940B08B801CE0145960E94590707
:1026F000D82EC8010E945107DD2029F090921D02BA
:1027000080921C024ECE63E173E0C8010E940B0868
:10271000B801CE0145960E945907D82EC8010E94E3
:102720005107DD2029F090921B0280921A0239CEC7
:1027300062E373E0C8010E940B08B801CE01459620
:102740000E945907D82EC8010E945107DD2069F068
:10275000C401990CAA0BBB0B80931602909317022D
:10276000A0931802B09319021CCE6EE473E0C80166
:102770000E940B08B801CE0145960E945907D82E39
:10278000C8010E945107DD2069F0C401990CAA0B11
:10279000BB0B8093120290931302A0931402B09388
:1027A0001502FFCD6AE673E0C8010E940B08B8016C
:1027B000CE0145960E945907D82EC8010E945107A4
:1027C000DD2029F09092110280921002EACD69E892
:1027D00073E0C8010E940B08B801CE0145960E9423
:1027E0005907D82EC8010E945107DD2029F0909288
:1027F0000F0280920E02D5CD6DEA73E0C8010E94EF
:102800000B08B801CE0145960E945907D82EC80181
:102810000E945107D110C5CD64EC73E0C8010E943D
:102820000B08B801CE0145960E945907D82EC80161
:102830000E945107DD2029F090920D0280920C0237
:10284000B0CD68ED73E0C8010E940B08B801CE015D
:1028500045960E945907D82EC8010E945107DD20D5
:1028600009F49FCDC401990CAA0BBB0B80930802FD
:1028700090930902A0930A02B0930B0292CD6BEBE6
:1028800072E08BE495E00E94010822CD89831A82D0
:1028900041E050E0B8018BE495E00E94B90718CD03
:1028A0000E942C032091400530914105DB01A21BC1
:1028B000B30B40912A0250912B024A175B0708F094
:1028C0009FC1709341056093400588EE93E090931B
:1028D0002B0280932A0286E30E94BE0290933F055A
:1028E00080933E0587E30E94BE0290933D0580934E
:1028F0003C0588E30E94BE0290933B0580933A0515
:10290000109222051092230510922405109225059D
:1029100088E30E94BE02BC01990F880B990B0E94AC
:10292000BC1620E030E040EA50E40E941B1720E093
:1029300030EC4FE754E40E94601820E030E048E0BB
:1029400051E40E9460186B017C0124E13EEA47E8F3
:102950005EE30E946A1987FD57C120E030E048EC31
:1029600053E420932205309323054093240550938C
:10297000250583E20E94360290933905809338053D
:1029800082E20E943602909337058093360581E2F9
:102990000E943602909335058093340580E20E94B0
:1029A000360290933305809332058FE10E94360200
:1029B00090933105809330058EE10E94360290930A
:1029C0002F0580932E0560E080E00E948A0686EE47
:1029D00093E00E943A0761E080E00E948A068BEF54
:1029E00093E00E943A0762E080E00E948A068FE04E
:1029F00094E00E943A0763E080E00E948A0684E245
:102A000094E00E943A0760E085E00E948A06809187
:102A10003E0590913F050E94110761E085E00E940C
:102A20008A0680913C0590913D050E94110762E065
:102A300084E00E948A0680913A0590913B050E94AD
:102A4000110762E088E00E948A060E949E080E94A8
:102A50001107A0912C05B0912D05209126023091EF
:102A6000270240912802509129020E942F1B6B01DE
:102A70007C0180900A0690900B06A0900C06B09006
:102A80000D068091060690910706A0910806B09168
:102A900009068B8F9C8FAD8FBE8F0E942C034090B8
:102AA00028055090290560902A0570902B059B0100
:102AB000AC01241935094609570929013A018091C9
:102AC00026059091270563E0009709F0C2C083E0D6
:102AD0000E948A068C0C9D1CAE1CBF1CC501B40153
:102AE00069517C4F8F4F9F4F64197509860997096B
:102AF00097FF03C060E070E0CB0128EE33E040E0D8
:102B000050E00E94081BCA01B9014AE00E94CB06AE
:102B1000809126059091270563E08430910509F0A6
:102B2000A8C088E00E948A068B8D9C8DAD8DBE8DDD
:102B3000C80ED91EEA1EFB1EC701B60169517C4FA3
:102B40008F4F9F4F641975098609970997FF03C036
:102B500060E070E0CB0128EE33E040E050E00E94FE
:102B6000081BCA01B9014AE00E94CB0680912605E4
:102B700090912705079741F463E088E00E948A0658
:102B80008AE394E00E943A0761E081E10E948A06AC
:102B900080913805909139050E94110761E082E12A
:102BA0000E948A0680913605909137050E94110790
:102BB00061E083E10E948A06809134059091350599
:102BC0000E94110763E081E10E948A06809132052C
:102BD000909133050E94110763E082E10E948A060A
:102BE00080913005909131050E94110763E083E1E7
:102BF0000E948A0680912E0590912F050E94110750
:102C00000E943D040C94080D24E13EEA47E85EE38F
:102C1000C701B6010E94F3172BE83CEC47E15EEBDD
:102C20000E9460182BE237E846E250E40E94F41755
:102C30009B01AC0160E070E080E291E40E946F19BA
:102C400060932205709323058093240590932505B6
:102C500090CE019741F483E00E948A0688E394E0D5
:102C60000E943A0755CF83E00E948A0685E992E0E8
:102C7000F7CF059741F488E00E948A0688E394E044
:102C80000E943A0773CF88E00E948A0685E992E0A5
:102C9000F7CF1F93FC0199278827BC01E894119175
:102CA0001032E9F3193010F01E30C8F31B3251F026
:102CB0001D3249F4689406C00E947B16610F711D95
:102CC000811D911D119110531A30B0F33EF490956F
:102CD0008095709561957F4F8F4F9F4F1F910895FD
:102CE000BB274A3031F4992322F4BDE290958195B7
:102CF0009F4F0C949116592F482F372F262F660F70
:102D0000771F881F991F660F771F881F991F620FF3
:102D1000731F841F951F660F771F881F991F0895C3
:102D2000BB27FB015527AA27880F991FAA1FA417A5
:102D300010F0A41B83955051B9F7A05DAA3308F099
:102D4000A95DA193009779F7B111B1931192CB01CD
:102D50000C94AA16DC01FC01672F71917723E1F72F
:102D6000329704C07C916D9370836291AE17BF0758
:102D7000C8F30895E89409C097FB3EF490958095B8
:102D8000709561957F4F8F4F9F4F9923A9F0F92F31
:102D900096E9BB279395F695879577956795B795AF
:102DA000F111F8CFFAF4BB0F11F460FF1BC06F5F95
:102DB0007F4F8F4F9F4F16C0882311F096E911C0A7
:102DC000772321F09EE8872F762F05C0662371F0C8
:102DD00096E8862F70E060E02AF09A95660F771FDC
:102DE000881FDAF7880F9695879597F90895990FB8
:102DF0000008550FAA0BE0E8FEEF16161706E807C5
:102E0000F907C0F012161306E407F50798F0621BE5
:102E1000730B840B950B39F40A2661F0232B242BBA
:102E2000252B21F408950A2609F4A140A6958FEFD9
:102E3000811D811D08950E942E170C949F170E94DA
:102E4000911738F00E94981720F0952311F00C94F8
:102E500088170C948E1711240C94D3170E94B01766
:102E600070F3959FC1F3950F50E0551F629FF001DD
:102E7000729FBB27F00DB11D639FAA27F00DB11DF6
:102E8000AA1F649F6627B00DA11D661F829F22277F
:102E9000B00DA11D621F739FB00DA11D621F839F06
:102EA000A00D611D221F749F3327A00D611D231FDC
:102EB000849F600D211D822F762F6A2F11249F572A
:102EC00050409AF0F1F088234AF0EE0FFF1FBB1F2D
:102ED000661F771F881F91505040A9F79E3F5105EC
:102EE00080F00C9488170C94D3175F3FE4F3983E5E
:102EF000D4F3869577956795B795F795E7959F5F96
:102F0000C1F7FE2B880F911D9695879597F9089527
:102F100097F99F6780E870E060E008959FEF80EC8C
:102F2000089500240A94161617061806090608952F
:102F300000240A9412161306140605060895092E95
:102F40000394000C11F4882352F0BB0F40F4BF2B04
:102F500011F460FF04C06F5F7F4F8F4F9F4F089544
:102F600057FD9058440F551F59F05F3F71F047953A
:102F7000880F97FB991F61F09F3F79F0879508951F
:102F8000121613061406551FF2CF4695F1DF08C03E
:102F9000161617061806991FF1CF8695710561055B
:102FA00008940895E894BB2766277727CB0197F903
:102FB00008950E94E417A59F900DB49F900DA49FC3
:102FC000800D911D11240895A29FB001B39FC001EF
:102FD000A39F700D811D1124911DB29F700D811D45
:102FE0001124911D08955058BB27AA270E940B1841
:102FF0000C949F170E94911738F00E94981720F0A8
:1030000039F49F3F19F426F40C948E170EF4E095D2
:10301000E7FB0C948817E92F0E94B01758F3BA17F2
:10302000620773078407950720F079F4A6F50C94DE
:10303000D2170EF4E0950B2EBA2FA02D0B01B9017B
:1030400090010C01CA01A0011124FF27591B99F01E
:10305000593F50F4503E68F11A16F040A22F232F2A
:10306000342F4427585FF3CF469537952795A7957A
:10307000F0405395C9F77EF41F16BA0B620B730B21
:10308000840BBAF09150A1F0FF0FBB1F661F771F92
:10309000881FC2F70EC0BA0F621F731F841F48F447
:1030A000879577956795B795F7959E3F08F0B0CFD0
:1030B0009395880F08F09927EE0F979587950895B7
:1030C0000E9474180C949F170E94981758F00E9441
:1030D000911740F029F45F3F29F00C9488175111A3
:1030E0000C94D3170C948E170E94B01768F3992391
:1030F000B1F3552391F3951B550BBB27AA276217F4
:103100007307840738F09F5F5F4F220F331F441F00
:10311000AA1FA9F335D00E2E3AF0E0E832D0915034
:103120005040E695001CCAF72BD0FE2F29D0660F21
:10313000771F881FBB1F261737074807AB07B0E864
:1031400009F0BB0B802DBF01FF2793585F4F3AF06A
:103150009E3F510578F00C9488170C94D3175F3F6D
:10316000E4F3983ED4F3869577956795B795F795F0
:103170009F5FC9F7880F911D9695879597F90895D8
:10318000E1E0660F771F881FBB1F62177307840774
:10319000BA0720F0621B730B840BBA0BEE1F88F783
:1031A000E09508950E94D9186894B1110C94D31732
:1031B00008950E94B81788F09F5798F0B92F992763
:1031C000B751B0F0E1F0660F771F881F991F1AF012
:1031D000BA95C9F714C0B13091F00E94D217B1E08E
:1031E00008950C94D217672F782F8827B85F39F08D
:1031F000B93FCCF3869577956795B395D9F73EF4AB
:1032000090958095709561957F4F8F4F9F4F089552
:103210000E94911720F019F00E94981750F40C9416
:103220008E170C94D317E92F0E94B01788F35523FB
:10323000B1F3E7FB6217730784079507A8F189F3D9
:10324000E92FFF2788232AF03197660F771F881F01
:10325000DAF7952F5527442332F091505040220F32
:10326000331F441FD2F7BB27E91BF50B621B730BFF
:10327000840BB109B1F222F4620F731F841FB11DD8
:1032800031972AF0660F771F881FBB1FEFCF915031
:10329000504062F041F0882332F0660F771F881F9C
:1032A00091505040C1F793950C945C198695779591
:1032B00067959F5FD9F7F7CF9F3F31F0915020F48A
:1032C000879577956795B795880F911D9695879502
:1032D00097F908950E94F71608F48FEF0895FA0100
:1032E000EE0FFF1F309621053105A1F16115710523
:1032F00061F48038BFE39B0749F1689490388105F9
:1033000061F08038BFEF9B0741F099234AF5FF3FFA
:10331000E1053105210519F1E8940894E795D901F3
:10332000AA2329F4AB2FBE2FF85FD0F310C0FF5FA4
:1033300070F4A695E0F7F73950F019F0FF3A38F439
:103340009F779F930DD00F9007FC9058089546F0FB
:103350000C948E1760E070E080E89FE308954FE7DB
:103360009F775F934F933F932F930E946A1A2F91F9
:103370003F914F915F910E941B170C94C71929F43C
:1033800016F00C9488170C94D2170C948E170E9488
:10339000B817A8F39638A0F707F80F92E8942BE334
:1033A0003AEA48EB5FE70E9431170F920F920F92B3
:1033B0004DB75EB70F920E94B21AE4EEF0E00E94A1
:1033C000F9194F915F91EF91FF91E595EE1FFF1F66
:1033D00049F0FE57E0684427EE0F441FFA95E1F7E5
:1033E0004195550B0E942C1A0F9007FE0C94201A41
:1033F0000895DF93CF931F930F93FF92EF92DF9285
:103400007B018C01689406C0DA2EEF010E942E1712
:10341000FE01E894A5912591359145915591A6F32A
:10342000EF010E940B18FE019701A801DA9469F7D9
:10343000DF90EF90FF900F911F91CF91DF91089552
:103440009B01AC0160E070E080E89FE30C946018A1
:103450000C9488170C945C190E94B817D8F3992320
:10346000C9F3940F511DA3F39150504094F059F0BB
:10347000882332F0660F771F881F91505040C1F7A4
:103480009E3F51052CF7880F911D9695879597F9CA
:1034900008955F3FACF0983E9CF0BB2786957795EA
:1034A0006795B79508F4B1609395C1F7BB0F58F7CE
:1034B00011F460FFE8CF6F5F7F4F8F4F9F4FE3CFD7
:1034C0000C94D31716F00C945C190C948E17689416
:1034D0000C9488170E94B817A8F39923C1F3AEF390
:1034E000DF93CF931F930F93FF92C92FDD2788237C
:1034F0002AF02197660F771F881FDAF720E030E067
:1035000040E85FEB9FE3883920F0803E38F0219659
:103510008F770E94F417ECE0F1E004C00E94F417EA
:10352000E9E3F1E00E94F9198B01BE01EC01FB2EE9
:103530006F5771097595771F880B990B0E94BC1600
:1035400028E132E741E35FE30E942E17AF2D980197
:10355000AE01FF900F911F91CF91DF910E940B1848
:103560000C949F17FA01DC01AA0FBB1F9B01AC0151
:10357000BF5728F4222733274427507820C0B7515B
:1035800090F4AB2F0024469537952795011CA39501
:10359000D2F3002071F0220F331F441FB395DAF3EA
:1035A0000ED00C94F31761307105A0E88A07B94674
:1035B00030F49B01AC0166277727882790783096F6
:1035C00021F020833183428353830895A1E21A2E90
:1035D000AA1BBB1BFD010DC0AA1FBB1FEE1FFF1FB7
:1035E000A217B307E407F50720F0A21BB30BE40B07
:1035F000F50B661F771F881F991F1A9469F760954E
:103600007095809590959B01AC01BD01CF01089507
:10361000052E97FB1EF400940E941F1B57FD07D038
:103620000E94E61A07FC03D04EF40C941F1B509521
:103630004095309521953F4F4F4F5F4F089590959E
:103640008095709561957F4F8F4F9F4F0895EE0F36
:10365000FF1F881F8BBF0790F691E02D1994B7FFCD
:103660000C94D9170E94D917821B930B08950F93BE
:103670001F93CF93DF938230910510F482E090E0A6
:10368000E0911006F091110630E020E0B0E0A0E0FB
:10369000309799F42115310509F44AC0281B390BDC
:1036A00024303105D8F58A819B816115710589F136
:1036B000FB0193838283FE0111C04081518102810D
:1036C000138148175907E0F04817590799F41097E4
:1036D00061F012960C93129713961C933296CF01B9
:1036E000DF91CF911F910F910895009310061093D1
:1036F0001106F4CF2115310551F04217530738F068
:10370000A901DB019A01BD01DF01F801C1CFEF0181
:10371000F9CF9093110680931006CDCFFE01E20FF2
:10372000F31F819391932250310939832883D7CF96
:1037300020910E0630910F06232B41F42091320286
:103740003091330230930F0620930E062091300201
:10375000309131022115310541F42DB73EB740912A
:10376000340250913502241B350BE0910E06F09186
:103770000F06E217F307A0F42E1B3F0B281739079B
:1037800078F0AC014E5F5F4F2417350748F04E0FBD
:103790005F1F50930F0640930E06819391939FCF26
:1037A000F0E0E0E09CCFCF93DF930097E9F0FC01DD
:1037B000329713821282A0911006B0911106ED018A
:1037C00030E020E01097A1F420813181820F931F17
:1037D00020910E0630910F062817390709F061C0B5
:1037E000F0930F06E0930E06DF91CF910895EA0162
:1037F000CE17DF07E8F54A815B819E01411551052F
:10380000B1F7E901FB83EA8349915991C40FD51FB0
:10381000EC17FD0761F4808191810296840F951F5A
:10382000E90199838883828193819B838A83F0E075
:10383000E0E012968D919C9113970097B9F52D9128
:103840003C911197CD010296820F931F20910E0695
:1038500030910F062817390739F6309751F5109235
:10386000110610921006B0930F06A0930E06BCCF5F
:10387000D383C28340815181840F951FC817D90714
:1038800061F44E5F5F4F88819981480F591F5183C2
:1038900040838A819B81938382832115310509F0BE
:1038A000B0CFF0931106E09310069ECFFD01DC012E
:1038B000C0CF13821282D7CF4F925F926F927F92C6
:1038C0008F929F92AF92BF92CF92DF92EF92FF9230
:1038D0000F931F93CF93DF938C01009799F4CB0143
:1038E000DF91CF911F910F91FF90EF90DF90CF90DC
:1038F000BF90AF909F908F907F906F905F904F9010
:103900000C94371BFC01E60FF71F9C012250310974
:10391000E217F30708F4AEC0D901CD91DC911197FD
:10392000C617D70720F1C530D10578F0CE0104972E
:103930008617970750F0C61BD70B2297C193D193D8
:103940006D937C93CF010E94D31BC801DF91CF916F
:103950001F910F91FF90EF90DF90CF90BF90AF90AD
:103960009F908F907F906F905F904F9008955B0134
:10397000AC1ABD0A4C018C0E9D1EA0911006B09190
:103980001106512C412CF12CE12C109731F580912E
:103990000E0690910F068815990509F05CC0461631
:1039A000570608F058C0809130029091310200977C
:1039B00041F48DB79EB74091340250913502841B7B
:1039C000950BE817F90708F055C0F0930F06E09340
:1039D0000E06F90171836083B8CF8D919C91119788
:1039E00012966C90129713967C901397A815B905B0
:1039F00059F56C0142E0C40ED11CCA14DB0420F15D
:103A0000AC014A195B09DA011296159780F06282BF
:103A1000738251834083D9016D937C93E114F10447
:103A200071F0D7011396FC93EE9312978ECF2296E6
:103A30008C0F9D1FF90191838083F301EFCFF093E9
:103A40001106E093100681CF4816590608F42C01A0
:103A50007D01D3019ACFCB010E94371B7C010097D7
:103A600049F0AE01B8010E94451DC8010E94D31B58
:103A700087016BCF10E000E068CF91110895815469
:103A80008A5108F4805E855A0895FB01DC0102C06A
:103A900001900D9241505040D8F70895FC0181915A
:103AA000861721F08823D9F7992708953197CF01F8
:103AB0000895FB01DC0101900D920020E1F70895CB
:043AC000F894FFCFA8
:103AC400FFFF0300FFFF0300204E00001027A00F9C
:103AD400D007B80B0000581B0000D007B80B060035
:103AE4000000F401000064000000E803A00FD00708
:103AF4000000120680000000400014005400000082
:103B04000000D0033A0367031D04980376038A0375
:103B1400000000002B05FE044206D404F704E4046C
:103B2400D5040000000084063A03420641065065AD
:103B3400646573747269616E312063726F73736943
:103B44006E670020202020202020202020202020FC
:103B540020202020202020005072696F2000205354
:103B6400656E736F72732D433A005072696F726998
:103B74007479206F6E204C32000D0A0067726565FF
:103B84006E54696D653100677265656E54696D6563
:103B9400320079656C6C6F7754696D6500626C698D
:103BA4006E6B54696D6500746F74616C426C696E00
:103BB4006B73496E4F7574007065646573747269D4
:103BC400616E526564756365477265656E54696DAF
:103BD4006531006C69676874477265656E32496E59
:103BE4006372656173655768656E53656E736F7252
:103BF40073007072696F7269747957616974696E60
:103C04006754696D654F6E4C6967687432007072F1
:103C1400696F7269747957616974696E6754696D03
:103C2400654F6E4C6967687431006C6967687447E6
:103C34007265656E31496E63726561736557686557
:103C44006E53656E736F727300646973706C61791F
:103C54005265667265736854696D65416674657210
:103C64004E6F74696669636174696F6E006772652B
:103C7400656E4C696768743154696D655768656E23
:103C8400436172007065646573747269616E437236
:103C94006F737354696D6500636F32477265656E47
:103CA40054696D6532004C4452312020202020207C
:103CB40020202020434E59313233004C44523220CC
:103CC40020202020202020202020202020200043ED
:103CD4004F322020202020202020202020434E5915
:103CE400343536004C312020204C32202020202036
:103CF400202020202020200030004E494748540036
:00000001FF
